:020000040800F2
:1000000000000220215000080D4F00080F4F00088B
:10001000114F0008134F0008154F000800000000A2
:10002000000000000000000000000000174F000862
:10003000194F0008000000001B4F00081D4F00086A
:10004000715000087150000871500008715000088C
:10005000715000087150000871500008715000087C
:10006000715000087150000871500008715000086C
:10007000715000087150000871500008715000085C
:10008000715000087150000871500008715000084C
:10009000715000087150000871500008715000083C
:1000A000715000087150000871500008715000082C
:1000B000715000087150000871500008715000081C
:1000C000715000087150000871500008715000080C
:1000D00071500008254F0008354F0008454F0008B3
:1000E00071500008715000087150000871500008EC
:1000F00071500008715000087150000871500008DC
:1001000071500008715000087150000871500008CB
:1001100071500008715000087150000871500008BB
:1001200071500008715000087150000871500008AB
:10013000715000087150000871500008715000089B
:10014000715000087150000871500008715000088B
:10015000715000087150000871500008715000087B
:10016000715000087150000871500008715000086B
:100170007150000871500008715000080000000024
:0401800071500008B2
:1001880010B5054C237833B9044B13B10448AFF3C9
:1001980000800123237010BD6800002000000000CB
:1001A800C063000808B5034B1BB103490348AFF30C
:1001B800008008BD000000006C000020C06300083B
:1001C80081F0004102E000BF83F0004330B54FEA00
:1001D80041044FEA430594EA050F08BF90EA020F6D
:1001E8001FBF54EA000C55EA020C7FEA645C7FEA00
:1001F800655C00F0E2804FEA5454D4EB5555B8BF23
:100208006D420CDD2C4480EA020281EA030382EA93
:10021800000083EA010180EA020281EA0303362D25
:1002280088BF30BD11F0004F4FEA01314FF4801CF8
:100238004CEA113102D0404261EB410113F0004F0A
:100248004FEA03334CEA133302D0524263EB4303C1
:1002580094EA050F00F0A780A4F10104D5F1200E5F
:100268000DDB02FA0EFC22FA05F2801841F10001BA
:1002780003FA0EF2801843FA05F359410EE0A5F18E
:1002880020050EF1200E012A03FA0EFC28BF4CF0BF
:10029800020C43FA05F3C01851EBE37101F0004575
:1002A80007D54FF0000EDCF1000C7EEB00006EEB82
:1002B8000101B1F5801F1BD3B1F5001F0CD349080C
:1002C8005FEA30004FEA3C0C04F101044FEA445263
:1002D80012F5800F80F09A80BCF1004F08BF5FEAEA
:1002E800500C50F1000041EB045141EA050130BDCA
:1002F8005FEA4C0C404141EB010111F4801FA4F16D
:100308000104E9D191F0000F04BF01460020B1FAC1
:1003180081F308BF2033A3F10B03B3F120020CDAF9
:100328000C3208DD02F1140CC2F10C0201FA0CF0D7
:1003380021FA02F10CE002F11402D8BFC2F1200C3C
:1003480001FA02F120FA0CFCDCBF41EA0C019040F2
:10035800E41AA2BF01EB0451294330BD6FEA04043B
:100368001F3C1CDA0C340EDC04F11404C4F1200226
:1003780020FA04F001FA02F340EA030021FA04F338
:1003880045EA030130BDC4F10C04C4F1200220FA8F
:1003980002F001FA04F340EA0300294630BD21FACD
:1003A80004F0294630BD94F0000F83F4801306BF93
:1003B80081F480110134013D4EE77FEA645C18BF87
:1003C8007FEA655C29D094EA050F08BF90EA020F1E
:1003D80005D054EA000C04BF1946104630BD91EA16
:1003E800030F1EBF0021002030BD5FEA545C05D119
:1003F8004000494128BF41F0004130BD14F5800458
:100408003CBF01F5801130BD01F0004545F0FE41CB
:1004180041F470014FF0000030BD7FEA645C1ABF00
:10042800194610467FEA655C1CBF0B46024650EA37
:10043800013406BF52EA033591EA030F41F4002163
:1004480030BD00BF90F0000F04BF0021704730B5E9
:100458004FF4806404F132044FF000054FF00001BE
:1004680050E700BF90F0000F04BF0021704730B57F
:100478004FF4806404F1320410F0004548BF404254
:100488004FF000013EE700BF42004FEAE2014FEAA9
:1004980031014FEA02701FBF12F07F4393F07F4F84
:1004A80081F06051704732F07F4208BF704793F087
:1004B8007F4F04BF41F40021704730B54FF460749A
:1004C80001F0004521F000411CE700BF50EA01029D
:1004D80008BF704730B54FF000050AE050EA010246
:1004E80008BF704730B511F0004502D5404261EBB6
:1004F80041014FF4806404F132045FEA915C3FF4F7
:10050800D8AE4FF003025FEADC0C18BF03325FEA93
:10051800DC0C18BF033202EBDC02C2F1200300FA44
:1005280003FC20FA02F001FA03FE40EA0E0021FA69
:1005380002F11444BDE600BF70B54FF0FF0C4CF457
:10054800E06C1CEA11541DBF1CEA135594EA0C0F09
:1005580095EA0C0F00F0DEF82C4481EA030621EA44
:100568004C5123EA4C5350EA013518BF52EA03357F
:1005780041F4801143F4801338D0A0FB02CE4FF031
:100588000005E1FB02E506F00042E0FB03E54FF061
:100598000006E1FB03569CF0000F18BF4EF0010E59
:1005A800A4F1FF04B6F5007F64F5407404D25FEA55
:1005B8004E0E6D4146EB060642EAC62141EA555108
:1005C8004FEAC52040EA5E504FEACE2EB4F1FD0C4A
:1005D80088BFBCF5E06F1ED8BEF1004F08BF5FEAC8
:1005E800500E50F1000041EB045170BD06F000467A
:1005F80046EA010140EA020081EA0301B4EB5C0427
:10060800C2BFD4EB0C0541EA045170BD41F480111E
:100618004FF0000E013C00F3AB8014F1360FDEBF43
:10062800002001F0004170BDC4F10004203C35DA1F
:100638000C341BDC04F11404C4F1200500FA05F3A2
:1006480020FA04F001FA05F240EA020001F0004243
:1006580021F0004110EBD37021FA04F642EB0601B9
:100668005EEA430E08BF20EAD37070BDC4F10C04E3
:10067800C4F1200500FA04F320FA05F001FA04F2A7
:1006880040EA020001F0004110EBD37041F1000193
:100698005EEA430E08BF20EAD37070BDC4F120059E
:1006A80000FA05F24EEA020E20FA04F301FA05F206
:1006B80043EA020321FA04F001F0004121FA04F2AE
:1006C80020EA020000EBD3705EEA430E08BF20EA7E
:1006D800D37070BD94F0000F0FD101F000464000B8
:1006E80041EB010111F4801F08BF013CF7D041EA3A
:1006F800060195F0000F18BF704703F0004652003E
:1007080043EB030313F4801F08BF013DF7D043EA0E
:100718000603704794EA0C0F0CEA135518BF95EAC4
:100728000C0F0CD050EA410618BF52EA4306D1D14B
:1007380081EA030101F000414FF0000070BD50EA6A
:10074800410606BF1046194652EA430619D094EAF4
:100758000C0F02D150EA013613D195EA0C0F05D1DE
:1007680052EA03361CBF104619460AD181EA030132
:1007780001F0004141F0FE4141F470014FF00000EA
:1007880070BD41F0FE4141F4780170BD70B54FF085
:10079800FF0C4CF4E06C1CEA11541DBF1CEA135505
:1007A80094EA0C0F95EA0C0F00F0A7F8A4EB0504E7
:1007B80081EA030E52EA03354FEA013100F08880DE
:1007C8004FEA03334FF0805545EA131343EA1263A7
:1007D8004FEA022245EA111545EA10654FEA00265C
:1007E8000EF000419D4208BF964244F1FD0404F515
:1007F800407402D25B084FEA3202B61A65EB030571
:100808005B084FEA32024FF480104FF4002CB6EB2D
:10081800020E75EB030E22BFB61A754640EA0C00AD
:100828005B084FEA3202B6EB020E75EB030E22BFED
:10083800B61A754640EA5C005B084FEA3202B6EB2E
:10084800020E75EB030E22BFB61A754640EA9C00ED
:100858005B084FEA3202B6EB020E75EB030E22BFBD
:10086800B61A754640EADC0055EA060E18D04FEA7B
:10087800051545EA16754FEA06164FEAC30343EA1B
:1008880052734FEAC2025FEA1C1CC0D111F4801FE8
:100898000BD141EA00014FF000004FF0004CB6E7E1
:1008A80011F4801F04BF01430020B4F1FD0C88BF80
:1008B800BCF5E06F3FF6AFAEB5EB030C04BFB6EB8B
:1008C800020C5FEA500C50F1000041EB045170BD7E
:1008D8000EF0004E4EEA113114EB5C04C2BFD4EBAB
:1008E8000C0541EA045170BD41F480114FF0000E2F
:1008F800013C90E645EA060E8DE60CEA135594EAAB
:100908000C0F08BF95EA0C0F3FF43BAF94EA0C0FAD
:100918000AD150EA01347FF434AF95EA0C0F7FF422
:1009280025AF104619462CE795EA0C0F06D152EA76
:1009380003353FF4FDAE1046194622E750EA41065A
:1009480018BF52EA43067FF4C5AE50EA41047FF46B
:100958000DAF52EA43057FF4EBAE12E74FEA4102CE
:10096800B2F1E04324BFB3F5001CDCF1FE5C0DD905
:1009780001F0004C4FEAC0024CEA5070B2F1004F4F
:1009880040EB830008BF20F00100704711F0804F52
:1009980021D113F13872BCBF01F00040704741F417
:1009A80080114FEA5252C2F11802C2F1200C10FA1B
:1009B8000CF320FA02F018BF40F001004FEAC123FF
:1009C8004FEAD32303FA0CFC40EA0C0023FA02F3A3
:1009D8004FEA4303CCE77FEA625307D150EA013379
:1009E8001EBF4FF0FE4040F44000704701F0004049
:1009F80040F0FE4040F40000704700BF80F0004027
:100A080002E000BF81F0004142001FBF5FEA4103DE
:100A180092EA030F7FEA226C7FEA236C6AD04FEADE
:100A28001262D2EB1363C1BFD21841404840414023
:100A3800B8BF5B42192B88BF704710F0004F40F4D5
:100A4800000020F07F4018BF404211F0004F41F4F1
:100A5800000121F07F4118BF494292EA030F3FD0BD
:100A6800A2F1010241FA03FC10EB0C00C3F12003D0
:100A780001FA03F100F0004302D5494260EB40005F
:100A8800B0F5000F13D3B0F1807F06D340084FEACA
:100A9800310102F10102FE2A51D2B1F1004F40EBBF
:100AA800C25008BF20F0010040EA03007047490027
:100AB80040EB000010F4000FA2F10102EDD1B0FAF2
:100AC80080FCACF1080CB2EB0C0200FA0CF0AABFE7
:100AD80000EBC25052421843BCBFD0401843704785
:100AE80092F0000F81F4000106BF80F4000001328B
:100AF800013BB5E74FEA41037FEA226C18BF7FEA62
:100B0800236C21D092EA030F04D092F0000F08BFA3
:100B18000846704790EA010F1CBF0020704712F08A
:100B28007F4F04D1400028BF40F00040704712F1C9
:100B380000723CBF00F50000704700F0004343F02E
:100B4800FE4040F4000070477FEA226216BF084664
:100B58007FEA23630146420206BF5FEA412390EA27
:100B6800010F40F4800070474FF0000304E000BF1D
:100B780010F0004348BF40425FEA000C08BF7047CE
:100B880043F0964301464FF000001CE050EA010292
:100B980008BF70474FF000030AE000BF50EA0102A7
:100BA80008BF704711F0004302D5404261EB410194
:100BB8005FEA010C02BF84460146002043F0B643B9
:100BC80008BFA3F18053A3F50003BCFA8CF2083ADE
:100BD800A3EBC25310DB01FA02FC634400FA02FCE7
:100BE800C2F12002BCF1004F20FA02F243EB0200EE
:100BF80008BF20F00100704702F1200201FA02FC50
:100C0800C2F1200250EA4C0021FA02F243EB020042
:100C180008BF20EADC7070474FF0FF0C1CEAD05286
:100C28001EBF1CEAD15392EA0C0F93EA0C0F6FD047
:100C38001A4480EA010C400218BF5FEA41211ED025
:100C48004FF0006343EA501043EA5111A0FB013111
:100C58000CF00040B1F5000F3EBF490041EAD371E6
:100C68005B0040EA010062F17F02FD2A1DD8B3F162
:100C7800004F40EBC25008BF20F00100704790F0D1
:100C8800000F0CF0004C08BF49024CEA502040EA23
:100C980051207F3AC2BFD2F1FF0340EAC2507047E9
:100CA80040F400004FF00003013A5DDC12F1190F27
:100CB800DCBF00F000407047C2F10002410021FA99
:100CC80002F1C2F1200200FA02FC5FEA310040F1B1
:100CD800000053EA4C0308BF20EADC70704792F02A
:100CE800000F00F0004C02BF400010F4000F013A62
:100CF800F9D040EA0C0093F0000F01F0004C02BF5D
:100D0800490011F4000F013BF9D041EA0C018FE7CB
:100D18000CEAD15392EA0C0F18BF93EA0C0F0AD0D1
:100D280030F0004C18BF31F0004CD8D180EA0100F7
:100D380000F00040704790F0000F17BF90F0004F90
:100D4800084691F0000F91F0004F14D092EA0C0F72
:100D580001D142020FD193EA0C0F03D14B0218BF05
:100D6800084608D180EA010000F0004040F0FE404B
:100D780040F40000704740F0FE4040F440007047E7
:100D88004FF0FF0C1CEAD0521EBF1CEAD15392EA66
:100D98000C0F93EA0C0F69D0A2EB030280EA010C56
:100DA80049024FEA402037D04FF0805343EA1111EF
:100DB80043EA10130CF000408B4238BF5B0042F14D
:100DC8007D024FF4000C8B4224BF5B1A40EA0C00F2
:100DD800B3EB510F24BFA3EB510340EA5C00B3EB24
:100DE800910F24BFA3EB910340EA9C00B3EBD10F12
:100DF80024BFA3EBD10340EADC001B0118BF5FEA64
:100E08001C1CE0D1FD2A3FF650AF8B4240EBC2508C
:100E180008BF20F0010070470CF0004C4CEA50204D
:100E28007F32C2BFD2F1FF0340EAC250704740F49C
:100E380000004FF00003013A37E792F0000F00F08E
:100E4800004C02BF400010F4000F013AF9D040EA0C
:100E58000C0093F0000F01F0004C02BF490011F4A0
:100E6800000F013BF9D041EA0C0195E70CEAD15398
:100E780092EA0C0F08D142027FF47DAF93EA0C0F7F
:100E88007FF470AF084676E793EA0C0F04D14B0263
:100E98003FF44CAF08466EE730F0004C18BF31F015
:100EA800004CCAD130F000427FF45CAF31F000430F
:100EB8007FF43CAF5FE700BF53B94AB9002908BFC8
:100EC80000281CBF4FF0FF314FF0FF3000F074B91D
:100ED800ADF1080C6DE904CE00F006F8DDF804E089
:100EE800DDE9022304B070472DE9F0478C4604463B
:100EF800089E002B4BD18A42154667D9B2FA82F276
:100F08004AB1C2F1200701FA02F320FA07F7954027
:100F180047EA030C94404FEA154EBCFBFEF71FFA54
:100F280085F80EFB17C307FB08F9210C41EA0343B8
:100F3800994509D9EB1807F1FF3180F01C819945D3
:100F480040F21981023F2B44A3EB0903B3FBFEF0E7
:100F58000EFB103300FB08F1A4B244EA0344A1429B
:100F680009D92C1900F1FF3380F00781A14240F222
:100F7800048102382C4440EA07400027641A1EB155
:100F88000023D440C6E900433946BDE8F0878B42C8
:100F980009D9002E00F0EC800027C6E90001384688
:100FA8003946BDE8F087B3FA83F7002F48D18B4262
:100FB80002D3824200F2FB80841A61EB0303012012
:100FC8009C46002EE0D0C6E9004CDDE702B9FFDE02
:100FD800B2FA82F2002A40F08F800127491B4FEABB
:100FE80015481FFA85F9B1FBF8FE08FB1E1109FB2D
:100FF8000EF04FEA144C4CEA0143984207D9EB181B
:101008000EF1FF3102D2984200F2CD808E461B1AB3
:10101800B3FBF8F008FB103309FB00F9A4B244EA6B
:101028000344A14507D92C1900F1FF3302D2A14589
:1010380000F2B6801846A4EB090440EA0E409EE789
:10104800C7F12005BB4022FA05FC4CEA030C21FA43
:1010580005F44FEA1C4EB4FBFEF91FFA8CF80EFBA0
:10106800194420FA05F3B94009FB08FA19430B0C97
:1010780043EA0444A24502FA07F200FA07F30BD93F
:101088001CEB040409F1FF3080F08880A24540F28F
:101098008580A9F102096444A4EB0A04B4FBFEF0BC
:1010A8000EFB104400FB08FA89B241EA0444A24549
:1010B80008D91CEB040400F1FF316BD2A24569D9B1
:1010C8000238644440EA0940A0FB0289A4EB0A0400
:1010D8004C454146CE4654D351D0002E69D05A1AB9
:1010E80064EB0E0404FA05F522FA07F3FC401D43ED
:1010F800C6E90054002747E79540C2F1200321FACA
:1011080003F04FEA1548B0FBF8F71FFA85F908FB1A
:10111800170024FA03F3914007FB09FC0B43190C51
:1011280041EA00418C4504FA02F407D9691807F12D
:10113800FF3031D28C452FD9023F2944A1EB0C0155
:10114800B1FBF8F008FB101C00FB09FE99B241EA5C
:101158000C418E4507D9691800F1FF3318D28E4526
:1011680016D902382944A1EB0E0140EA07473AE7AD
:101178003746304608E70F46E6E61846FBE643459D
:10118800ABD2B8EB020169EB0C0201389646A4E732
:101198001846E8E7084695E70746CFE781467BE724
:1011A80002382C4447E7AEF1020E2B442FE73846AD
:1011B80007E73746E8E600BF704700BF034613F865
:1011C800012B002AFBD1181A0138704710B50446C4
:1011D800074B1868074BA3FB0030800900F098F80C
:1011E800002221464FF0FF3000F052F8002010BDD9
:1011F80000000020D34D621008B50B4B1A6842F46A
:1012080000721A601A6842F480621A601A6842F41E
:1012180080721A60032000F029F80020FFF7D6FF3B
:1012280003F01EFC002008BD003C0240024A13687F
:1012380001331360704700BF94000020014B186809
:10124800704700BF9400002030B583B00190FFF7CD
:10125800F5FF0546019CB4F1FF3F00D00134FFF7CC
:10126800EDFF401BA042FAD303B030BD074AD36854
:1012780023F4E0631B041B0C000200F4E060184335
:1012880040F0BF6040F40030D060704700ED00E0EF
:1012980030B4174BDB68C3F30223C3F10704042CF3
:1012A80028BF04241D1D062D18D9033B4FF0FF3518
:1012B80005FA04F421EA0401994005FA03F322EA45
:1012C8000303194300280BDB0901C9B200F1604090
:1012D80000F5614080F8001330BC70470023E5E753
:1012E80000F00F000901C9B2024B1954F4E700BF1E
:1012F80000ED00E014ED00E000F01F0240090123BA
:101308009340024A42F82030704700BF00E100E0F5
:101318000138B0F1807F0AD2064B5860064AF021A6
:1013280082F823100020986007221A607047012075
:10133800704700BF10E000E000ED00E090F83530A5
:10134800DBB2022B03D080234365012070470523BD
:1013580080F835300268136823F001031360002019
:10136800704700005079137943EA002307480B506F
:10137800D07893781B0443EA0063507843EA00234B
:1013880012781343024A8B50704700BF40800240D6
:101398004480024070B59EB0044629B14FF4006302
:1013A800C3604FF480438360E369002B6AD14FF434
:1013B8008063079321680B68394A1A40A368E0687C
:1013C80003430798034343F4007313430B602368F4
:1013D8001D680120FFF738FF23681D60236840223D
:1013E8005A6023685D680120FFF72EFF23685D605F
:1013F800236800259D602368DD602268936923F0D7
:10140800BE031B041B0C43F08003936123689E6991
:101418000120FFF719FF23689E612368DD612368B7
:10142800DD690120FFF710FF2368DD61226841F2C2
:10143800180551591B4B0B4043F0087343F0040344
:10144800535123685E590120FFF7FEFE23685E5161
:10145800236803F58053144A1A60236803F5805300
:101468001D680120FFF7F0FE236803F580531D6017
:10147800A369012B09D0626900212046FFF772FF9A
:101488001EB070BD0023079394E7216841F21C0247
:101498008B5843F4803343F040038B50EBE700BF95
:1014A8000F8120FF233FDEF88020C102F8B590F8B5
:1014B8004430DBB2822B33D016460546822380F8AF
:1014C80044300268136903F01C03048AE402A4B2DE
:1014D80023438C0104F4F8641C4344F001041461B0
:1014E800FFF7ACFE074614F0010F10D0FFF7A6FE79
:1014F800C01BB0F5803F02D22B681C69F3E70123BB
:1015080085F84430002385F84530032007E02B6830
:101518005B699BB23360012385F844300020F8BD35
:101528000220FCE790F84430DBB2422B32D070B591
:101538000546422380F844300068036903F01C0321
:101548002C8AE402A4B223438C0104F4F8641C43FB
:1015580044F0030492B242612B681C61FFF76EFEEF
:10156800064614F0010F10D0FFF768FE801BB0F597
:10157800803F02D22B681C69F3E7012385F84430C9
:10158800002385F84530032003E0012385F8443023
:10159800002070BD0220704770B582B0002301930F
:1015A800002800F00681044690F84430002B34D01F
:1015B80000230093804B5A6C42F480425A645B6C5F
:1015C80003F480430093009B7C4B5A6822F400028A
:1015D8005A605A68216A0A435A60236803F580539F
:1015E8001A6842F001021A60FFF728FE05462368D0
:1015F80003F58052126812F0010F13D0FFF71EFE98
:10160800401BB0F5FA7FF2D9032584F84450002333
:1016180084F84530284602B070BD80F8453003F0A4
:101628003BFAC5E71D6925F01C0501F03DFD644B3B
:101638000344644A934255D845F0080523681D6160
:101648004FF4004200212046FFF76CFF05460028B2
:1016580058D1FF20FFF7F8FD6368002B00F0898060
:10166800FFF7ECFD064601AA01212046FFF71EFF01
:10167800FFF7E4FD801B41F2883398424AD8019B6A
:1016880013F0040FEFD04FF4805200212046FFF7EB
:1016980049FF00284AD1FFF7D1FD064601AA0121DA
:1016A8002046FFF703FFFFF7C9FD801B41F288338F
:1016B800984243D8019B13F0200FEFD001AA1F21B5
:1016C8002046FFF7F3FE002844D1019B13F0100FCA
:1016D80048D04FF40062E26013F0040F45D00023B5
:1016E800A36056E0384B0344384A934202D845F089
:1016F8000C05A3E7364B0344364A93429ED945F07E
:1017080004059BE701212046FFF744FE012584F8E4
:1017180044507FE701212046FFF73CFE012384F86F
:101728004430002384F84530032573E7012120461F
:10173800FFF730FE012584F844506BE7012120466D
:10174800FFF728FE012384F84430002384F845304D
:1017580003255FE701212046FFF71CFE012584F8D9
:10176800445057E70022E260B6E74FF48043A36095
:101778000FE0E268C2F3CF02A368C3F34F031A4332
:1017880000212046FFF7CEFE58B940F6FF70FFF75C
:101798005BFD00212046FFF7FDFD012384F844305E
:1017A80038E701212046FFF7F5FD012584F844506C
:1017B80030E701252EE700BF00380240003801401D
:1017C80000D3CEFEBFE1E40040F1E9FD3F787D01A2
:1017D80000796CFCFF59620200230F2B00F2DD80B8
:1017E800F0B482B039E0082200E00022B2403A4367
:1017F80002346A4E46F82420694A1468EA4302EA29
:1018080004064F6817F4803F01D045EA0406644C8B
:101818002660646802EA04064F6817F4003F01D0A6
:1018280045EA04065E4C6660A46802EA04064F684E
:1018380017F4801F01D045EA0406594CA660E468F5
:1018480022404E6816F4001F01D045EA0402544CA9
:10185800E26001330F2B00F29D8001229A400C6850
:1018680004EA0205AA42F4D14C68022C01D0122CD9
:1018780010D1DE08083650F826C003F00704A70088
:101888000F24BC402CEA040C0C69BC4044EA0C044C
:1018980040F8264004685F000326BE40F64306EA87
:1018A800040C4C6804F00304BC4044EA0C040460D3
:1018B8004C6804F1FF3CBCF1010F03D9112C01D095
:1018C800122C10D1846806EA040CCC68BC4044EAA7
:1018D8000C048460446824EA02024C68C4F30014CF
:1018E8009C4014434460C26816408A68BA40324338
:1018F800C2604A6812F0805FABD000220192294A88
:10190800546C44F480445464526C02F48042019252
:10191800019A9C08A61C214A52F8267003F003027B
:1019280096000F22B24027EA02071F4A90423FF46E
:101938005CAF02F5806290421ED002F58062904250
:101948001CD002F5806290421AD002F58062904263
:1019580018D002F58062904216D002F5806290425B
:1019680014D002F58062904212D002F58062904253
:101978003FF439AF092239E7012237E7022235E778
:10198800032233E7042231E705222FE706222DE759
:1019980007222BE702B0F0BC7047704700380140BF
:1019A800003C0140003802400000024012B909041E
:1019B800816170478161704703685A6912F4806FCA
:1019C8000DD06FF480625A6104230364002303631B
:1019D800202280F83D2080F83C300120704700200C
:1019E8007047F8B506460C4617461D461EE02DB151
:1019F800FFF724FC069BC01AA84217D900233363BB
:101A0800202286F83D2086F83E3086F83C300320B8
:101A18001AE033685B6924EA03039BB2B3FA83F3E1
:101A28005B099F420FD1B5F1FF3FE0D1C4F30743F3
:101A3800012BEED033689B6924EA03039BB2B3FA07
:101A480083F35B09EDE70020F8BDF8B504460D46C1
:101A580016461F4632E01A6842F400721A6023687C
:101A68006FF480625A6104232364002323632022D5
:101A780084F83D2084F83C3001202DE026B1FFF7A2
:101A8800DDFBC01BB04219D900232363202284F850
:101A98003D2084F83C3003201EE023685B6925EA7A
:101AA80003039BB2003318BF0123A3B123685A690B
:101AB80012F4806FCFD1B6F1FF3FDFD1C5F30743F2
:101AC800012BEAD023689B6925EA03039BB2003304
:101AD80018BF0123E9E70020F8BD0000F0B583B086
:101AE80004460D4616461F46C36A042B0DD0012B2B
:101AF8000BD013F5803F08D0036B122B0AD1026874
:101B0800136843F48073136004E02268136843F495
:101B1800807313600097334600224FF0011120466E
:101B2800FFF75FFF58BB2369B3F5804F10D12368D7
:101B380005F0FE051D613B46324615492046FFF774
:101B480084FF0346E0B1236C042B1ED1012317E068
:101B5800EB11226803F0060343F0F00313613B46E0
:101B680032460C492046FFF770FF20B1236C042B46
:101B780009D1012304E02368EDB21D61DBE70323EB
:101B8800184603B0F0BD0323FAE70323F8E700BFC4
:101B980002000100080001002DE9F04184B004466C
:101BA8000D4616461F46C26A01680B6843F48063F7
:101BB8000B60042A0DD0012A0BD012F5803F08D003
:101BC800036B112B0AD10268136843F48073136006
:101BD80004E02268136843F4807313600097334667
:101BE80000224FF001112046FFF7FBFE002852D1DA
:101BF8002369B3F5804F12D1236845F00105EDB292
:101C08001D613B4632462A492046FFF71EFF034620
:101C1800002841D0236C042B48D101233CE04FEA33
:101C2800E51808F00608236848F0F0021A613B46F8
:101C3800324620492046FFF708FF20B1236C042BC9
:101C48002ED1012328E02368EDB21D613B463246C0
:101C580017492046FFF7F9FE20B1236C042B21D148
:101C6800012319E0002203922368596903919969B5
:101C780003910399196841F48071196000973346FC
:101C88004FF001112046FFF7ACFE68B9226848F012
:101C9800F1031361B5E70323184604B0BDE8F081EA
:101CA8000323F9E70323F7E70323F5E70323F3E720
:101CB800020001000800010070B504460D461646F2
:101CC80023685B6913F0800F19D12046FFF774FE73
:101CD800B8B9B5F1FF3FF3D025B1FFF7AFFA801BD4
:101CE800A842EDD9236C43F0200323640023236327
:101CF800202284F83D2084F83C30032000E00020B6
:101D080070BD0120FCE700002DE9F04184B00446D5
:101D18000E46174698460B9D0268136843F4807375
:101D2800136000950A9B00224FF00111FFF759FE3E
:101D3800002847D1236806F0FE061E612B460A9A42
:101D480026492046FFF781FE20B1236C042B3ED1A3
:101D5800012338E00023039323685A6903929B699F
:101D68000393039B2A460A992046FFF7A5FF0346DB
:101D780048B1236C042B2CD12268136843F40073F8
:101D8800136001231FE0B8F1010F13D023683A0A4A
:101D98001A612A460A992046FFF78EFF034668B162
:101DA800236C042B17D12268136843F40073136063
:101DB800012308E02268FFB2176104E02268FFB23D
:101DC800176100E00323184604B0BDE8F08103233F
:101DD800F9E70323F7E70323F5E700BF0200010053
:101DE8002DE9F04184B004460E46174698460B9DEF
:101DF8000268136843F4806313600268136843F44D
:101E08008073136000950A9B00224FF00111FFF7C1
:101E1800E8FD002874D1F6B2236806F0FE021A61C4
:101E28002B460A9A3F492046FFF70FFE20B1236C44
:101E3800042B6AD1012364E00023039323685A69C1
:101E480003929B690393039B2A460A992046FFF74E
:101E580033FF48B1236C042B59D12268136843F42B
:101E68000073136001234CE0B8F1010F12D123680D
:101E7800FFB21F612A460A992046FFF71DFF00B3EB
:101E8800236C042B47D12268136843F40073136052
:101E9800012336E023683A0A1A612A460A9920463D
:101EA800FFF70AFF48B1236C042B32D1226813686C
:101EB80043F400731360012323E02368FFB21F611A
:101EC800D8E72268136843F48073136000950A9B6F
:101ED80000224FF001112046FFF783FDE8B923687F
:101EE80046F001061E612B460A9A0E492046FFF766
:101EF800ACFD034628B1236C042B10D1012300E06C
:101F08000323184604B0BDE8F0810323F9E703234F
:101F1800F7E70323F5E70323F3E70323F1E70323B5
:101F2800EFE700BF0200010070B504460D461646F3
:101F380023685B6913F0040F19D12046FFF73CFDB5
:101F4800B8B9B5F1FF3FF3D025B1FFF777F9801B9A
:101F5800A842EDD9236C43F02003236400232363B4
:101F6800202284F83D2084F83C30032000E0002043
:101F780070BD0120FCE770B505460C4616462B6877
:101F88005A6912F0400F22D15A6912F0100F11D17C
:101F980024B1FFF753F9801BA042F0D92B6C43F012
:101FA80020032B64202385F83D30002385F83C303E
:101FB800032070BD6FF010025A6100232B642B635D
:101FC800202285F83D2085F83C300120F1E70020EB
:101FD800EFE70000002800F0828010B5044690F872
:101FE8003D30002B41D0242384F83D30226813680B
:101FF80023F00103136001F05DF83A4BA3FB0023C3
:102008009B0C226853606168374A914232D8013389
:10201800226813626368344A934235D85B00B0FB88
:10202800F3F0C0F30B03032B00D804202368D86116
:10203800E369216A22680B4313602369E168226817
:102048000B4393606369A16922680B43D3602268DC
:10205800136843F00103136000202064202384F8F0
:102068003D30206384F83E0010BD80F83C3002F01B
:102078008BFDB8E74FF4967202FB03F31B4AA2FBF1
:1020880003239B090133C3E7A16889B903EB430222
:10209800B0FBF2F2C2F30B02B2FA82F25209E2B9D1
:1020A80091B903EB4303B0FBF3F040F40040BDE704
:1020B80003EB830202EB8202B0FBF2F2C2F30B02E3
:1020C800B2FA82F25209EAE703EB830303EB8303D4
:1020D800B0FBF3F040F44040A8E70120A6E7012058
:1020E800704700BF83DE1B43A0860100D34D6210FA
:1020F8002DE9F04184B004460E4690461F46FFF78E
:102108009DF894F83D30DBB2202B04D002263046EF
:1021180004B0BDE8F0810546009019230122544916
:102128002046FFF75EFC002840F0998094F83C3088
:10213800012B00F09680012384F83C3023681A684C
:1021480012F0010F03D11A6842F001021A602268E6
:10215800136823F400631360212384F83D301023AF
:1021680084F83E3000232364C4F824806785A3F5EF
:102178008033E362638D23852B460A9A31462046D5
:10218800FFF7ACFC064660B1236C042B04D1002396
:1021980084F83C300126BAE7002384F83C30032653
:1021A800B5E70023039323685A6903929B69039355
:1021B800039B10E0236C042B55D12268136843F469
:1021C800007313600126A2E72A460A992046FFF702
:1021D800ABFE00282BD1238D002B32D02A460A993A
:1021E8002046FFF769FD0028E4D1636A5A1C626241
:1021F80022681B781361638D013B9BB26385238D35
:10220800013B9BB223852268516911F0040FDBD092
:10221800002BD9D0636A591C61621B781361638DE6
:10222800013B9BB26385238D013B2385CCE7236C5F
:10223800042B1AD12268136843F400731360012633
:1022480065E72268136843F400731360202384F859
:102258003D30002384F83E3084F83C3057E70226AE
:1022680055E7022653E7032651E703264FE700BF49
:10227800020010002DE9F04186B004460E46904653
:102288001F46FEF7DBFF94F83D30DBB2202B04D06D
:102298000226304606B0BDE8F081054600901923B5
:1022A80001228C492046FFF79CFB002840F04B8117
:1022B80094F83C30012B00F04881012384F83C302D
:1022C80023681A6812F0010F03D11A6842F001025C
:1022D8001A602268136823F400631360222384F8C9
:1022E8003D30102384F83E3000232364C4F8248052
:1022F8006785A3F58033E362638D23852B460C9AAB
:1023080031462046FFF748FC064660B1236C042B93
:1023180004D1002384F83C300126BAE7002384F86E
:102328003C300326B5E7238D5BB9029323685A69CD
:1023380002929A690292029A1A6842F400721A602A
:102348007AE0012B0FD0022B1FD02268136843F4C8
:10235800806313600023059323685A6905929B697B
:102368000593059B68E02268136823F48063136073
:102378000023039323685A6903929A690392039A84
:102388001A6842F400721A6056E02268136823F44F
:10239800806313602268136843F4006313600023AA
:1023A800049323685A6904929B690493049B43E04D
:1023B8002A460C992046FFF7DEFD68B923681A699A
:1023C800636A591C61621A70238D013B2385638DF2
:1023D800013B9BB263852FE0236C202B01D00126A3
:1023E80057E7032655E700950C9B00223A492046FB
:1023F800FFF7F7FA002840F0AA802268136843F430
:102408000073136023681A69636A591C61621A7041
:10241800238D013B2385638D013B9BB26385236834
:102428001A69636A591C61621A70238D013B2385FE
:10243800638D013B9BB26385238D002B7AD0032BE0
:102448004CD8012BB4D0022BCDD000950C9B002288
:1024580021492046FFF7C5FA00287AD12268136877
:1024680023F48063136023681A69636A591C6162E4
:102478001A70238D013B2385638D013B9BB26385D5
:1024880000950C9B002214492046FFF7AAFA002861
:1024980061D12268136843F40073136023681A69D2
:1024A800636A591C61621A70238D013B2385638D11
:1024B800013B9BB2638523681A69636A591C616290
:1024C8001A70238D013B2385638D013B9BB2638585
:1024D800B2E700BF02001000040001002A460C9970
:1024E8002046FFF748FDF0B923681A69636A591C4A
:1024F80061621A70238D013B2385638D013B9BB27A
:10250800638523685A6912F0040F95D01A69636AC3
:10251800591C61621A70238D013B2385638D013B31
:102528009BB2638588E7236C202B01D00126B0E697
:102538000326AEE6202384F83D30002384F83E309D
:1025480084F83C30A5E60226A3E60226A1E6032687
:102558009FE603269DE603269BE600BF2DE9F04192
:1025680082B004460E4617469846FEF767FE94F872
:102578003D30DBB2202B04D00223184602B0BDE860
:10258800F081054600901923012251492046FFF7A2
:1025980028FA002840F0938094F83C30012B00F092
:1025A8009080012384F83C3023681A6812F0010FE8
:1025B80003D11A6842F001021A602268136823F4F2
:1025C80000631360212384F83D30402384F83E30B3
:1025D80000232364089B6362BDF8243063853D4B68
:1025E800E362638D238501950A9B009343463A462F
:1025F80031462046FFF788FBB0B1236C042B04D189
:10260800002384F83C300123B7E7002384F83C30EA
:102618000323B2E7236C042B55D12268136843F4D3
:10262800007313600123A8E7238D002B28D02A46C6
:102638000A992046FFF740FB0028EBD1636A5A1C31
:10264800626222681B781361238D013B9BB223854C
:10265800628D013A92B262852268516911F0040FC5
:10266800E2D0002BE0D0636A591C61621B781361C9
:10267800238D013B2385638D013B9BB26385D3E7A3
:102688002A460A992046FFF74FFC034648B1236CB7
:10269800042B1AD12268136843F4007313600123D2
:1026A8006BE721680A6842F400720A60202284F805
:1026B8003D20002284F83E2084F83C205DE7022378
:1026C8005BE7022359E7032357E7032355E700BFD6
:1026D800020010000000FFFF2DE9F04186B004461B
:1026E8000E4617469846FEF7A9FD94F83D30DBB232
:1026F800202B04D00226304606B0BDE8F0810546FE
:102708000090192301228B492046FFF76AF9002817
:1027180040F04B8194F83C30012B00F048810123B4
:1027280084F83C3023681A6812F0010F03D11A6844
:1027380042F001021A602268136823F400631360F0
:10274800222384F83D30402384F83E30002323645C
:102758000C9B6362BDF834306385774BE362638D0D
:10276800238501950E9B009343463A463146204601
:10277800FFF736FB064660B1236C042B04D1002317
:1027880084F83C300126B6E7002384F83C30032661
:10279800B1E7238D5BB9029323685A6902929A695B
:1027A8000292029A1A6842F400721A6075E0012BCC
:1027B8000AD0022B1AD00023059323685A69059280
:1027C8009B690593059B68E02268136823F480637E
:1027D80013600023039323685A6903929A6903924A
:1027E800039A1A6842F400721A6056E02268136865
:1027F80023F4806313602268136843F40063136052
:102808000023049323685A6904929B690493049BE8
:1028180043E02A460E992046FFF7ADFB68B92368C6
:102828001A69636A591C61621A70238D013B2385FA
:10283800638D013B9BB263852FE0236C202B01D075
:10284800012658E7032656E700950E9B00223B49D0
:102858002046FFF7C6F8002840F0AB8022681368CE
:1028680043F40073136023681A69636A591C616230
:102878001A70238D013B2385638D013B9BB26385D1
:1028880023681A69636A591C61621A70238D013BB7
:102898002385638D013B9BB26385238D002B7BD001
:1028A800032B4DD8012BB4D0022BCDD000950E9B15
:1028B800002222492046FFF794F800287BD122689D
:1028C800136823F48063136023681A69636A591CC8
:1028D80061621A70238D013B2385638D013B9BB296
:1028E800638500950E9B002214492046FFF779F86E
:1028F800002862D12268136843F4007313602368C8
:102908001A69636A591C61621A70238D013B238519
:10291800638D013B9BB2638523681A69636A591CFE
:1029280061621A70238D013B2385638D013B9BB245
:102938006385B2E7020010000000FFFF04000100F9
:102948002A460E992046FFF716FBF0B923681A6944
:10295800636A591C61621A70238D013B2385638D5C
:10296800013B9BB2638523685A6912F0040F94D027
:102978001A69636A591C61621A70238D013B2385A9
:10298800638D013B9BB2638587E7236C202B01D0C5
:102998000126B0E60326AEE6202384F83D30002366
:1029A80084F83E3084F83C30A5E60226A3E60226E9
:1029B800A1E603269FE603269DE603269BE600BFC5
:1029C8002DE9F04385B00446884691461D46FEF73A
:1029D80035FC94F83D30DBB2202B04D00223184696
:1029E80005B0BDE8F0830646009019230122564938
:1029F8002046FEF7F6FF002840F09B8094F83C3014
:102A0800012B00F09880012384F83C3023681A6871
:102A180012F0010F03D11A6842F001021A6022680D
:102A2800136823F400631360242384F83D300023E3
:102A38002364A3F58033E362012735E0A02384F8FB
:102A48003D3022685369C3F340035269C2F38022C0
:102A580094F83D10C9B253B94AB9A02907D0002D3E
:102A6800ECD0FEF7EBFB801BA842EAD9E6E720236F
:102A780084F83D3023685A6912F0020F35D11A687C
:102A880042F400721A6023686FF480625A610096FB
:102A9800192301222C492046FEF7A3FF002850D114
:102AA8007B1C4F453DD21F462268136843F4807350
:102AB800136000962B4600224FF001112046FEF7C6
:102AC80090FF002839D1236808F0FE021A61FEF74A
:102AD800B5FB064622685369C3F340035269C2F343
:102AE800802294F83D10C9B2B5E71A6842F4007222
:102AF8001A600023039323685A6903929B6903931E
:102B0800039B0096192301220F492046FEF769FF0F
:102B18000346A0B9202284F83D20002284F83C20F6
:102B28005DE7202384F83D30002384F83C300123FE
:102B380055E7022353E7022351E703234FE7032313
:102B48004DE703234BE700BF02001000002800F008
:102B5800978130B583B00446036813F0010F2ED077
:102B6800A34B9B6803F00C03042B1FD0A04B9B685E
:102B780003F00C03082B14D022799E4B1A7063685B
:102B8800002B40D0FEF75AFB0546994B1B6813F4FF
:102B9800003F14D1FEF752FB401B6428F5D90320EF
:102BA80073E1934B5B6813F4800FE5D0904B1B687F
:102BB80013F4003F03D06368002B00F0638123689F
:102BC80013F0020F4BD08A4B9B6813F00C0F2ED0DA
:102BD800874B9B6803F00C03082B23D0E368002B7A
:102BE80064D0854B01221A60FEF728FB0546804B0E
:102BF8001B6813F0020F4AD1FEF720FB401B022886
:102C0800F5D9032041E1FEF719FB0546784B1B680F
:102C180013F4003FD3D0FEF711FB401B6428F5D90D
:102C2800032032E1724B5B6813F4800FD6D1704BEE
:102C38001B6813F0020F04D0E368012B01D00120B8
:102C480023E16B48036823F0F8032169F82292FA1C
:102C5800A2F2B2FA82F201FA02F213430360236885
:102C680013F0080F46D0636993B3644B01221A60CE
:102C7800FEF7E4FA05465E4B5B6F13F0020F39D19D
:102C8800FEF7DCFA401B0228F5D90320FDE058487E
:102C9800036823F0F8032169F82292FAA2F2B2FA43
:102CA80082F201FA02F213430360D8E7524B002282
:102CB8001A60FEF7C3FA05464D4B1B6813F0020F66
:102CC800CDD0FEF7BBFA401B0228F5D90320DCE083
:102CD8004A4B00221A60FEF7B1FA0546444B5B6F77
:102CE80013F0020F06D0FEF7A9FA401B0228F5D907
:102CF8000320CAE0236813F0040F1FD1A369002B37
:102D080000F0C2803A4A926802F00C02082A00F0E9
:102D1800BE80022B59D03A4B00221A60FEF78EFA79
:102D28000446334B1B6813F0007F00F0A780FEF7C2
:102D380085FA001B6428F4D90320A6E00023019338
:102D48002B4B1A6C42F080521A641B6C03F08053B0
:102D58000193019B2B4A136843F480731360FEF7B9
:102D68006DFA0546274B1B6813F4807F06D1FEF7E2
:102D780065FA401B0228F5D9032086E0227A224B07
:102D88001A70A36883B1FEF759FA0546184B1B6FF2
:102D980013F0020FB2D1FEF751FA401B41F288330B
:102DA8009842F3D9032070E0FEF748FA0546104B25
:102DB8001B6F13F0020FA1D0FEF740FA401B41F23F
:102DC80088339842F3D903205FE00D4B00221A6044
:102DD800FEF734FA0546064B1B6813F0007F15D042
:102DE800FEF72CFA401B6428F5D903204DE000BFFC
:102DF800003802400238024000004742800E474235
:102E0800600047420070004070380240E369226A5F
:102E18001343616A47F6C07292FAA2F2B2FA82F2DA
:102E280001FA02F21343A26A5208013A4FF4403100
:102E380091FAA1F1B1FA81F18A401343E16A4FF0A6
:102E4800706292FAA2F2B2FA82F201FA02F2134323
:102E5800104A5360104B01221A60FEF7EFF904463E
:102E68000C4B1B6813F0007F06D1FEF7E7F9001B37
:102E78006428F5D9032008E0002006E0002004E0DB
:102E880001207047012000E0002003B030BD012080
:102E9800FBE700BF0038024060004742264B9B68B2
:102EA80003F00C03042B44D0082B01D023487047AF
:102EB8002DE9F04B204B5A6802F03F025B6813F48F
:102EC800800F13D01C4B5968C1F3881100231C488C
:102ED800A1FB0001FDF7F0FF174B5B68C3F301434B
:102EE80001335B00B0FBF3F0BDE8F08B124B5B687D
:102EF800C3F388131E4600275C010025E41A65EB1E
:102F08000705A90141EA9461A001001B61EB0501D5
:102F1800CB0043EA5073C400A01943EB07018B02AE
:102F280043EA90538402204619460023FDF7C4FF64
:102F3800D2E70348704700BF003802400024F4007D
:102F480040787D01002800F0A28070B50446524BFD
:102F58001B6803F00F038B4209D2CBB24E4A1370A1
:102F6800136803F00F038B4201D0012070BD236862
:102F780013F0020F17D013F0040F04D0474A9368D8
:102F880043F4E0539360236813F0080F04D0434AD6
:102F9800936843F460439360404A936823F0F003D6
:102FA800A068034393600D46236813F0010F31D0E6
:102FB8006368012B20D0022B25D0384A126812F002
:102FC800020F66D035498A6822F0030213438B60EA
:102FD800FEF734F90646314B9B6803F00C03626830
:102FE800B3EB820F16D0FEF729F9801B41F2883324
:102FF8009842F0D90320B9E7284A126812F4003F32
:10300800E0D10120B2E7254A126812F0007FD9D139
:103018000120ABE7204B1B6803F00F03AB4209D933
:10302800EAB21D4B1A701B6803F00F03AB4201D0C4
:1030380001209BE7236813F0040F06D0174A936812
:1030480023F4E053E1680B439360236813F0080FFF
:1030580007D0124A936823F46043216943EAC10305
:103068009360FFF71BFF0D4B9B6803F0F003F02202
:1030780092FAA2F2B2FA82F2D340094AD35CD8405B
:10308800084B18600020FEF7A1F800206EE7012029
:10309800704701206AE700BF003C02400038024048
:1030A800C065000800000020014B1868704700BF89
:1030B8000000002008B5FFF7F7FF074B9B6803F4F3
:1030C800E0534FF4E05292FAA2F2B2FA82F2D340FD
:1030D800024AD35CD84008BD00380240D0650008D9
:1030E80008B5FFF7E1FF074B9B6803F460434FF413
:1030F800604292FAA2F2B2FA82F2D340024AD35C58
:10310800D84008BD00380240D065000800283BD0F0
:1031180010B504460023836290F85130002B2ED05E
:10312800022384F851302268136823F040031360A7
:103138006368A2681343E268134322691343626910
:103148001343A26902F400721343E2691343226A2B
:103158001343A16A22680B431360638B03F00403D3
:10316800616A22680B4353602268D36923F40063C1
:10317800D36100206065012384F8513010BD80F8C8
:10318800503001F087FDCBE7012070470268D36813
:1031980023F49073D3600268536923F001035361E9
:1031A800202380F83A30704790F83930DBB2212B71
:1031B8002AD18368B3F5805F16D0036A5A1C02626D
:1031C8001A7803685A60C38C013B9BB2C384EBB97D
:1031D8000268D36823F08003D3600268D36843F0A1
:1031E8004003D36000207047036A1B880268C3F35A
:1031F8000803536003691BB9036A02330362E2E7F9
:10320800036A01330362DEE702207047002070473B
:103218002DE9F843044601680A6922F44052C3685C
:1032280013430B610168CA6822F4164222F00C02AB
:1032380083680069034360690343E06903431343F8
:10324800CB6021684A6922F44072A36913434B6139
:10325800E369B3F5004F60D02368B84A934200F0A1
:10326800148102F58062934200F00F81FFF722FF7C
:1032780000EB800000EB80006568AD00B0FBF5F561
:10328800AF4FA7FB05356D092E01FFF713FF00EBC4
:10329800800000EB80006568AD00B0FBF5F9FFF732
:1032A80009FF00EB800000EB80006568AD00B0FB13
:1032B800F5F5A7FB05356D094FF0640808FB159572
:1032C8002D013235A7FB05356D0905F0F0053544AC
:1032D800FFF7F0FE00EB800000EB80006668B600A8
:1032E800B0FBF6F6FFF7E6FE00EB800000EB80008F
:1032F80063689B00B0FBF3F0A7FB0030400908FBB4
:1033080010684FEA081808F13208A7FB0837C7F316
:10331800431723682F449F600DE12368874A93422F
:103328005BD002F58062934257D0FFF7C3FE00EBF3
:10333800800000EB800065686D00B0FBF5F5804FFC
:10334800A7FB05356D092E01FFF7B4FE00EB8000E1
:1033580000EB800065686D00B0FBF5F9FFF7AAFE89
:1033680000EB800000EB800065686D00B0FBF5F5B0
:10337800A7FB05356D094FF0640808FB1595ED00AE
:103388003235A7FB05356D096D0005F4F875354430
:10339800FFF790FE00EB800000EB80006668760087
:1033A800B0FBF6F6FFF786FE00EB800000EB80002E
:1033B80063685B00B0FBF3F3A7FB03235B0908FB1F
:1033C80013684FEAC80808F13208A7FB0837C7F3A3
:1033D800421723682F449F60ADE0FFF781FE00EBA2
:1033E800800000EB800065686D00B0FBF5F5544F78
:1033F800A7FB05356D092E01FFF772FE00EB800073
:1034080000EB800065686D00B0FBF5F9FFF768FE1A
:1034180000EB800000EB800065686D00B0FBF5F5FF
:10342800A7FB05356D094FF0640808FB1595ED00FD
:103438003235A7FB05356D096D0005F4F87535447F
:10344800FFF74EFE00EB800000EB80006668760018
:10345800B0FBF6F6FFF744FE00EB800000EB8000BF
:1034680063685B00B0FBF3F3A7FB03235B0908FB6E
:1034780013684FEAC80808F13208A7FB0837C7F3F2
:10348800421723682F449F6055E0FFF729FE00EBA1
:10349800800000EB80006568AD00B0FBF5F5284FB3
:1034A800A7FB05356D092E01FFF71AFE00EB80001A
:1034B80000EB80006568AD00B0FBF5F9FFF710FE82
:1034C80000EB800000EB80006568AD00B0FBF5F50F
:1034D800A7FB05356D094FF0640808FB15952D010C
:1034E8003235A7FB05356D0905F0F0053544FFF7C2
:1034F800F7FD00EB800000EB80006668B600B0FBCB
:10350800F6F6FFF7EDFD00EB800000EB8000636846
:103518009B00B0FBF3F0A7FB0030400908FB1068E4
:103528004FEA081808F13208A7FB0837C7F3431712
:1035380023682F449F60BDE8F88300BF0010014056
:103548001F85EB512DE9F04105460F461646984672
:10355800069C2B681B6837EA03030CBF0123002372
:10356800B3421DD1B4F1FF3FF3D02CB1FDF766FE95
:10357800A0EB0800A042ECD92A68D36823F4D073E2
:10358800D3602A68536923F001035361202385F827
:10359800393085F83A30002385F83830032000E0C8
:1035A8000020BDE8F08158B310B5044690F83930D2
:1035B8000BB3242384F839302268D36823F40053EA
:1035C800D3602046FFF724FE2268136923F4904352
:1035D80013612268536923F02A0353612268D36870
:1035E80043F40053D3600020E063202384F839308B
:1035F80084F83A3010BD80F8383001F0D7FBD8E7AE
:10360800012070472DE9F04182B01E4690F839300C
:10361800DBB2202B55D104460D469046002955D0E3
:10362800002A55D090F83830012B53D0012380F868
:1036380038300023C363212380F83930FDF7FEFDBD
:103648000746A4F82480A4F8268010E000963B469C
:10365800002280212046FFF775FF00283CD12B88E7
:103668002268C3F3080353602369C3B90235E38CA6
:103678009BB2B3B1E38C013B9BB2E384A368B3F57F
:10368800805FE3D000963B46002280212046FFF76A
:1036980059FF18BB2A7823685A600135E7E70135D6
:1036A800E5E700963B46002240212046FFF74AFF07
:1036B8000346A8B9202284F83920002284F838204B
:1036C80000E00223184602B0BDE8F0810123F9E7C3
:1036D8000123F7E70223F5E70323F3E70323F1E7E1
:1036E8000323EFE72DE9F04182B01E4690F83A3007
:1036F800DBB2202B5AD104460D469046002959D0FA
:10370800002A59D090F83830012B57D0012380F87F
:1037180038300023C363222380F83A30FDF78EFD4A
:103728000746A4F82C80A4F82E801DE000963B469E
:10373800002220212046FFF705FF002840D12369F9
:1037480033B923685B68C3F3080325F8023B0BE031
:1037580023685B68DBB225F8013B05E023685B68FA
:1037680003F07F032B700135E38D9BB2BBB1E38D72
:10377800013B9BB2E385A368B3F5805FD6D0009682
:103788003B46002220212046FFF7DCFED0B9236902
:10379800002BE3D123685B682B700135E4E7202315
:1037A80084F83A30002084F8380000E0022002B0A3
:1037B800BDE8F0810120FAE70120F8E70220F6E7EA
:1037C8000320F4E70320F2E7704708B50168CB68E7
:1037D80023F04003CB60202380F83930FFF7F4FF53
:1037E800002008BD704708B590F83A30DBB2222BAC
:1037F80040D18368B3F5805F0ED0036903BB0368CB
:103808005A68836A591C81621A70C38D013B9BB246
:10381800C385F3B100202EE0826A036943B90368C7
:103828005B68C3F308031380836A02338362ECE79F
:1038380003685B68DBB21380836A01338362E4E761
:1038480003685B68826A511C816203F07F0313700E
:10385800DBE70268D36823F49073D3600268536986
:1038680023F001035361202380F83A30FFF7BAFFB1
:10387800002000E0022008BD7047000010B5044693
:1038880002681368D168526913F00F0005D113F06C
:10389800200F02D011F0200F53D1002867D012F06A
:1038A800010202D111F4907F61D013F0010F06D00C
:1038B80011F4807F03D0E06B40F00100E06313F067
:1038C800040F04D01AB1E06B40F00200E06313F07B
:1038D800020F04D01AB1E06B40F00400E06313F06B
:1038E800080F04D01AB1E26B42F00802E263E26BFF
:1038F800002A48D013F0200F02D011F0200F24D155
:1039080023685B6903F04003E26B12F0080F00D1F3
:103918003BB32046FFF73AFC23685A6912F0400F80
:103928001BD05A6922F040025A61636B8BB11A4A64
:103938001A65606BFDF702FD28B3606B036D98474D
:1039480021E02046FFF74FFF1DE02046FFF74BFF21
:10395800D6E72046FFF790FF15E02046FFF78CFFDB
:1039680011E02046FFF788FF0023E3630BE013F024
:10397800800F02D011F0800F06D113F0400F02D053
:1039880011F0400F04D110BD2046FFF70DFCFAE7F7
:103998002046FFF71AFFF6E7A539000808B5806B3F
:1039A8000023C385C384FFF767FF08BD072800D934
:1039B800704700B583B0012303FA00F002AA02F8A9
:1039C800010DE021022000F051FE03B05DF804FB78
:1039D80030B583B0054614468DF8041011460848E2
:1039E80001F076FB8DF80540240A8DF80640032384
:1039F80001AA2946022000F039FE03B030BD00BFFD
:103A0800D865000870B582B00546164602AC04F8C1
:103A1800041D012322460146022000F027FE02234E
:103A280022462946184600F069FE9DF804209DF8B4
:103A3800053043EA02233380002002B070BD000045
:103A480010B582B0164B0A221A60164B4FF080420E
:103A58001A6044F27C6205218420FFF7B9FF40F622
:103A68009F11114801F034FB40F69F120021842079
:103A7800FFF7AEFF0024ADF806400DE00DF1060299
:103A880021468420FFF7BEFFBDF8062021460748DF
:103A980001F01EFB0134E4B2062CEFD902B010BDD0
:103AA800980000209C000020D8650008F4650008F4
:103AB80008B5FFF7C5FF08BD00B583B002AA00230B
:103AC80022F8023D0221FFF79DFFBDF80600C0085D
:103AD800800003B05DF804FB10B582B00024ADF897
:103AE80006400DE00DF1060221468420FFF78AFF0B
:103AF800BDF806202146054801F0EAFA0134E4B28F
:103B0800062CEFD9BDF9060002B010BDF465000817
:103B180010B5FFF7D1FF04460146094801F0D8FA6D
:103B28002046FCF79FFC04A3D3E90023FCF704FD1F
:103B3800FCF714FF10BD00BFFCA9F1D24D62503F45
:103B48001066000810B5FFF7C7FF0446014609488C
:103B580001F0BEFA2046FDF70BF80446064B18683C
:103B6800FDF702F801462046FDF70AF90349FDF77B
:103B780007F910BD206600089800002000007A446C
:103B880030B585B004AC202304F8013D012500952B
:103B9800234640229021022000F088FD31238DF831
:103BA8000F300095234640229021022000F07EFD30
:103BB80044238DF80F30009523464022902102209F
:103BC80000F074FD65238DF80F30009523464022E0
:103BD8009021022000F06AFD8DF80F5000952346D1
:103BE80041229021022000F061FD05B030BD0000A7
:103BF80030B585B0002413E004F15005012300938B
:103C08000DF10F03EAB29021022000F097FD9DF814
:103C18000F3022462946044801F05AFA0134E4B22A
:103C2800072CE9D905B030BD30660008F0B583B07F
:103C380005460C4617461E4602AA02F8041D012333
:103C48000146002000F012FD032C2FD8DFE804F015
:103C58000222020276B1022301AA2946002000F0BE
:103C68004DFD9DF804209DF8053043EA0223DB0949
:103C78003B601BE08DF804403B685A108DF8052026
:103C8800DB018DF80630032301AA2946002000F045
:103C9800EDFC0BE066B98DF804403B688DF8053003
:103CA800022301AA2946002000F0E0FC03B0F0BD81
:103CB800012301AA2946002000F020FD9DF80430C8
:103CC8003B60F3E710B584B00C460123009303ABC7
:103CD800C2B25821002000F031FD01280CBF01209C
:103CE800002002D09DF80C30236004B010BD000005
:103CF80010B58EB0002406E00B21134800F07EFCBE
:103D08000EB010BD01343F2CFAD803A92046FFF7A6
:103D1800D9FF0028F0D1039B009323460B4A2821A2
:103D280004A801F065FA04A8FDF748FA014604A8BA
:103D380000F064FC04F00303032BE3D102210448E0
:103D480000F05CFCDEE700BF7066000880660008D3
:103D58001C68000808B50123FFF768FF08BD10B507
:103D680082B002AC44F8042D00232246FFF75EFF20
:103D780002B010BD70B59AB0064613AC1B4D0FCDFE
:103D88000FC495E8030044F8040B21800DAC184DCE
:103D98000FCD0FC495E8030084E8030000240EE06B
:103DA800009533460DAA282103A801F021FA03A89B
:103DB800FDF704FA014603A800F020FC0134032CA7
:103DC80012DC0C4B1D5D19AA29463046FFF7C2FFCD
:103DD8000028E5D1199B01930095334613AA2821A1
:103DE80003A801F005FAE2E71AB070BD986600086A
:103DF800B0660008D8630008F0B58DB0002528E04B
:103E0800922C01D0962C06D102230BAA2146002021
:103E180000F074FC0646002E40D12346244A28218F
:103E280001A801F0E5F901A8FDF7C8F9014601A8C4
:103E380000F0E4FB9DF82C301E4A282101A801F06F
:103E4800D7F901A8FDF7BAF9014601A800F0D6FB99
:103E58000135032D29DC184B2B441C79582C15D01F
:103E6800CED8502CD7D10CAF092307F8043D012335
:103E78003A462146002000F0F9FB064602233A465E
:103E88002146002000F03AFC0644C4E701230BAAAF
:103E98002146002000F032FC0646BCE72346074ACC
:103EA800282101A801F0A4F9BDE70DB0F0BD00BFBD
:103EB800E063000814640008D8630008F863000889
:103EC80010B584B000238DF80F300DF10E0200E01C
:103ED8000A460B4BA3FB0013DB081C4603EB8303CA
:103EE8005900431A511E303313702046002CEFD16D
:103EF8000DF10E03591A104600F080FB04B010BDF6
:103F0800CDCCCCCC38B50546002407E001210748C4
:103F180000F074FB285DFFF7D3FF0134092CF5D9B5
:103F28000221034800F06AFB38BD00BFC8660008DC
:103F38001C68000810B582B04821214800F05EFBDB
:103F480001210DF1070000F065FB0028F8D09DF86D
:103F58000730C3F34013002B0CBF012400241BD1EE
:103F68000421184800F04AFB9DF80730413B212BFB
:103F780020D8DFE803F0161B1F1F1F1F1F1F1F1F5E
:103F88001F1F1F1F1F1F1F1F1F1F1F1F1F1F1F1F39
:103F98001F1F1F1F1F1F161B05210B4800F02EFB9C
:103FA800E2E7204600F04AFB02B010BD204600F0D0
:103FB800D5FCF9E71221054800F020FBF4E700BF23
:103FC8001C640008CC660008D46600086864000811
:103FD80000B583B002AB43F8040D0121184600F088
:103FE8000DFB019803B05DF804FB000010B5002438
:103FF80009E0E0B200F0CAFB02462146034801F09E
:1040080067F80134A4B2032CF3D910BDDC660008AC
:1040180000B585B0002000F0BBFC844C01AB04F176
:10402800600207CA03C31A801A2104F16C0000F069
:10403800E5FA17E07E4801F0D3F803E09DF8033075
:104048001B2B0CD001210DF1030000F0E3FA00282E
:10405800F4D001210DF1030000F0D0FAEEE7754825
:1040680001F0BEF8744801F0BBF801210DF103001E
:1040780000F0D0FA0028F8D09DF80330303B342BFC
:1040880000F2CF8001A252F823F000BF3D400008A3
:10409800694100086F410008754100088341000824
:1040A800894100088F4100089D410008A941000886
:1040B800C54100082B4200082B4200082B4200088B
:1040C8002B4200082B4200082B4200082B42000814
:1040D8002B4200082B4200082B4200082B42000804
:1040E8002B4200082B4200082B4200082B420008F4
:1040F8002B4200082B4200082B4200082B420008E4
:104108002B4200082B4200082B4200082B420008D3
:104118002B4200082B4200082B4200082B420008C3
:104128002B4200082B4200082B4200082B420008B3
:104138002B4200082B4200082B4200082B420008A3
:104148002B4200082B4200082B4200082B42000893
:10415800D7410008E3410008F94100081742000868
:10416800FFF744FF7EE7FFF747FE7BE7FDF766F8BA
:104178000146324800F0ACFF74E7FFF7DBFE71E759
:1041880000F06EFA6EE701A8FFF7BCFE2C4801F0BC
:1041980027F867E72B4801F023F8FFF7A9FD61E747
:1041A800C82203219220FFF7DAFD02220121922082
:1041B800FFF7D5FD9220FFF7DDFD53E7C822032165
:1041C8009620FFF7CCFD9620FFF7D4FD4AE71E485E
:1041D80001F006F800F0EEFA44E71C4801F000F898
:1041E8000220FFF7E3FBFFF7CBFCFFF701FD39E700
:1041F800174800F0F5FF0620FFF7D8FBFFF758FC3B
:104208008420FFF785FC8420FFF79CFC2AE71148EF
:1042180000F0E6FF01224FF480610F48FDF7C6FB6E
:1042280020E70E4800F0DCFF1CE700BF1C64000814
:10423800F06700086C680008F46600080C6800085D
:1042480020680008286800083068000840680008EE
:104258004C680008586800080010024070680008A0
:10426800704700002DE9F0478CB0002407940894AB
:1042780009940A940B9401945E4B1A6B42F0100255
:104288001A631A6B02F010020192019A02941A6BD7
:1042980042F080021A631A6B02F080020292029ABC
:1042A80003941A6B42F004021A631A6B02F00402B8
:1042B8000392039A04941A6B42F001021A631A6B70
:1042C80002F001020492049A05941A6B42F0020269
:1042D8001A631A6B02F002020592059A06941A6B89
:1042E80042F008021A631B6B03F008030693069B4F
:1042F800DFF80C9122464FF627714846FDF756FB2A
:104308003D4E224607213046FDF750FBDFF8F4808A
:10431800224640F606614046FDF748FB374F2246E5
:104328004FF480513846FDF741FB4FF6277307934A
:104338000125089509940A9407A94846FDF74CFAFF
:1043480040F2811307930894099407A93846FDF7AA
:1043580043FA079508940994DFF8ACA007A95046DA
:10436800FDF73AFA08230793DFF8A090CDF82090DC
:10437800099407A95046FDF72FFA072307930895D4
:1043880009940A9407A93046FDF726FA4FF48043AA
:104398000793CDF82090099407A93046FDF71CFA39
:1043A8004FF4004307930894099407A93046FDF792
:1043B80013FA40F606630793089509940A9407A927
:1043C8004046FDF709FA4FF2190307930894099438
:1043D80007A94046FDF700FA4FF480530793089564
:1043E80009940A9407A93846FDF7F6F90CB0BDE818
:1043F800F08700BF00380240000402400008024075
:1044080000100240000C02400000024000001110A1
:1044180008B50A480A4B03604FF4E13343600023B0
:104428008360C36003610C2242618361C361FFF74B
:10443800BAF800B908BDFFF713FFFBE7E001002059
:104448000010014008B50A480A4B03604FF4E133F5
:10445800436000238360C36003610C22426183616F
:10446800C361FFF7A0F800B908BDFFF7F9FEFBE745
:10447800780200200044004008B50A480A4B03604F
:104488004FF4E133436000238360C36003610C226F
:1044980042618361C361FFF786F800B908BDFFF781
:1044A800DFFEFBE74C0100200048004000B583B068
:1044B8001248134B036000234360012202828DF8E7
:1044C800003080228DF80120E1228DF802208DF83D
:1044D80003308DF804308DF80530C0F814D08361AE
:1044E800C3614FF400030362FDF756F810B903B037
:1044F8005DF804FBFFF7B4FEF9E700BFB80200203F
:104508000080024008B50B480B4B03600B4B43601F
:1045180000238360C3604FF480420261436183617A
:10452800C3610362FDF756FD00B908BDFFF798FEA9
:10453800FBE700BF8C01002000540040A08601006A
:1045480008B50B480B4B03600B4B4360002383609B
:10455800C3604FF48042026143618361C3610362B7
:10456800FDF738FD00B908BDFFF77AFEFBE700BF8D
:10457800A0000020005C0040A086010008B50D489E
:104588000D4B03604FF48273436000238360C36064
:10459800036143614FF480228261C3610362436215
:1045A80083620A23C362FEF7B1FD00B908BDFFF7B5
:1045B80057FEFBE7200200200030014008B50D48F7
:1045C8000D4B03604FF48273436000238360C36024
:1045D800036143614FF480228261C36103624362D5
:1045E80083620A23C362FEF791FD00B908BDFFF795
:1045F80037FEFBE7F40000200038004008B54FF410
:104608007A738AB201460248FEF7FCFF012008BD12
:10461800E001002008B5084B1B681B6813F0200F49
:1046280001D1002008BD0A460146642392B202481F
:10463800FFF758F80120F5E7E001002038B50546F6
:10464800064C02464FF400712046FDF7AFF92A46A2
:104658004FF480612046FDF7A9F938BD000C0240EF
:10466800142300E0013B002BFCDC7047012817D025
:1046780000B583B020B102280AD003B05DF804FB6E
:104688004FF0FF3000909BB20648FDF731FDF4E78C
:104698004FF0FF3000909BB20348FDF729FDECE78F
:1046A80000207047A00000208C01002001281FD0A6
:1046B80000B585B020B102280ED005B05DF804FB26
:1046C8004FF0FF300290069880B2019000930123CA
:1046D8000848FDF743FFF0E74FF0FF3002900698D7
:1046E80080B20190009301230348FDF737FFE4E708
:1046F80000207047A00000208C010020012817D05E
:1047080000B583B020B102280AD003B05DF804FBDD
:104718004FF0FF3000909BB20648FDF7ABFDF4E781
:104728004FF0FF3000909BB20348FDF7A3FDECE784
:1047380000207047A00000208C01002001281FD015
:1047480000B585B020B102280ED005B05DF804FB95
:104758004FF0FF300290069880B201900093012339
:104768000848FDF7B9FFF0E74FF0FF3002900698D0
:1047780080B20190009301230348FDF7ADFFE4E701
:1047880000207047A00000208C01002000B583B0F5
:1047980001AA01460548FCF789FE0146044800F0D5
:1047A80097FC019803B05DF804FB00BFB802002035
:1047B8008468000870B5294800F012FD012405E05E
:1047C8002E2000F09DFC0DE00134E4B214F0800FBF
:1047D8000FD102231A4661002148FEF7F1F8054679
:1047E8000028EDD1002DEFD161001E4800F070FCCB
:1047F800EAE71D4800F0F4FC1C4800F0F1FC002634
:104808001AE02E2000F07CFC0DE00134E4B214F034
:10481800800F0FD102231A4661001548FEF7D0F821
:1048280005460028EDD1002DEFD161000D4800F0BC
:104838004FFCEAE70136F6B2072E0BD831460D4891
:1048480000F046FC3046FFF7B1F86420FCF7FCFCAA
:104858000124DCE7044800F0C3FC70BD9C68000834
:10486800A0000020B46800086C680008BC68000854
:104878008C010020D468000800B593B00023089389
:1048880009930A930B93019302930393049305935B
:10489800012306930523079302230C934FF4800208
:1048A8000D9214220E92C0220F921093042311939A
:1048B80006A8FEF74BF998B90F2301930223029338
:1048C800002303934FF4A05304934FF480530593AC
:1048D800032101A8FEF736FB28B913B05DF804FBE5
:1048E800FFF7BEFCE8E7FFF7BBFCF6E700B593B0BF
:1048F8000023079308930B930D930193029303935B
:1049080004930593022306930122099210220A9226
:104918000C930D220E92C3220F921093042311932D
:1049280006A8FEF713F998B90F23019302230293FF
:10493800002303934FF4A05304934FF4805305933B
:10494800032101A8FEF7FEFA28B913B05DF804FBAD
:10495800FFF786FCE8E7FFF783FCF6E710B50446A7
:1049680040B102464FF400610848FDF71FF8FFF711
:1049780083FF10BDFFF7BAFF3220FCF765FC224623
:104988004FF400610148FDF711F8F2E7000C02400E
:1049980008B5FCF731FCFFF7A9FF244800F020FC1C
:1049A800FFF760FC0120FFF7D9FF214800F018FC51
:1049B800204800F015FCFFF72BFD1F4800F010FC05
:1049C800FFF740FD1D4800F00BFCFFF755FD1C48A4
:1049D80000F006FCFFF76AFD1A4800F001FCFFF73B
:1049E80091FD194800F0FCFBFFF7AAFD174800F0FD
:1049F800F7FBFFF7C3FD164800F0F2FBFFF7DEFDFB
:104A0800FFF756F8FFF7BCF8124B1B68013BB3F1F0
:104A1800807F09D2104A5360104BF02183F823108D
:104A2800002393600723136008BD00BFEC680008EB
:104A3800FC6800081069000820690008306900084F
:104A4800406900084C6900085C6900086C69000846
:104A58007C6900080000002010E000E000ED00E0A4
:104A680082B0002100910B4B5A6C42F480425A6488
:104A78005A6C02F480420092009A01911A6C42F03A
:104A880080521A641B6C03F080530193019B02B09F
:104A9800704700BF00380240F0B58DB0002307937F
:104AA800089309930A930B930268334B9A4201D0F7
:104AB8000DB0F0BD00240194A3F590431A6B42F0A9
:104AC80000721A631A6B02F000720192019A029442
:104AD8001A6B42F080621A631A6B02F080620292CB
:104AE800029A03941A6B42F000621A631A6B02F07E
:104AF80000620392039A04941A6B42F004021A6348
:104B08001A6B02F004020492049A05941A6B42F09C
:104B180001021A631A6B02F001020592059A0694C3
:104B28001A6B42F002021A631B6B03F0020306932E
:104B3800069B322307930227089703260A960B251C
:104B48000B9507A90D48FCF747FE8623079308979E
:104B580009940A960B9507A90948FCF73DFE4FF4FE
:104B680060530793089709940A960B9507A9054877
:104B7800FCF732FE9CE700BF0080024000080240BC
:104B880000000240000402402DE9F0438BB00023EE
:104B9800059306930793089309930368374A93424A
:104BA80005D0374A934227D00BB0BDE8F0830025E3
:104BB8000095344C236B43F002032363236B03F00B
:104BC80002030093009BC02305931223069301233D
:104BD8000793032308930423099305A92A48FCF79C
:104BE800FBFD0195236C43F400132364236C03F449
:104BF80000130193019BD7E700250295214C236BF5
:104C080043F004032363236B03F004030293029B22
:104C18000395236B43F001032363236B03F0010324
:104C28000393039B4FF4007305934FF01209CDF8DB
:104C380018904FF00108CDF81C8003270897042628
:104C4800099605A91148FCF7C7FD4FF48073059331
:104C5800CDF81890CDF81C800897099605A90C483E
:104C6800FCF7BAFD0495236C43F400032364236C1A
:104C780003F400030493049B96E700BF005400402C
:104C8800005C004000380240000402400008024076
:104C980000000240F0B58DB00023079308930993F4
:104CA8000A930B9303683B4A934204D03A4A9342CF
:104CB80038D00DB0F0BD00240194384B5A6C42F442
:104CC80080525A645A6C02F480520192019A0294FA
:104CD8001A6B42F001021A631A6B02F00102029287
:104CE800029A03941A6B42F002021A631B6B03F0D8
:104CF80002030393039B7023079302270897032655
:104D08000A9605250B9507A92548FCF765FD20237C
:104D18000793089709940A960B9507A92148FCF769
:104D28005BFDC6E7002404941C4B1A6C42F48042D5
:104D38001A641A6C02F480420492049A05941A6B5D
:104D480042F004021A631A6B02F004020592059AF3
:104D580006941A6B42F002021A631B6B03F00203FB
:104D68000693069B0C2307930227089703260A96A7
:104D780005250B9507A90C48FCF72EFD4FF4C063D9
:104D88000793089709940A960B9507A90548FCF715
:104D980023FD8EE700300140003800400038024013
:104DA80000000240000402400008024010B58CB028
:104DB80000230793089309930A930B9303684A4ABD
:104DC800934207D0494A934232D0494A93425CD031
:104DD8000CB010BD00240194464B5A6C42F01002EE
:104DE8005A645A6C02F010020192019A02941A6BEA
:104DF80042F001021A631B6B03F001030293029B4A
:104E08004FF4C063079302230893012309930323F4
:104E18000A9307230B9307A93748FCF7DDFC2246C2
:104E280021462520FCF734FA2520FCF765FACFE760
:104E3800002403942F4B1A6C42F400321A641A6C43
:104E480002F400320392039A04941A6B42F00802A7
:104E58001A631B6B03F008030493049B60230793F6
:104E6800022308930123099303230A9307230B932F
:104E780007A92248FCF7B0FC224621462620FCF769
:104E880007FA2620FCF738FAA2E700240594194B04
:104E98001A6C42F480221A641A6C02F48022059279
:104EA800059A06941A6B42F004021A631B6B03F00E
:104EB80004030693069B4FF4406307930223089369
:104EC8000123099303230A9307230B9307A90C488B
:104ED800FCF782FC224621462720FCF7D9F9272037
:104EE800FCF70AFA74E700BF0010014000440040D4
:104EF800004800400038024000000240000C024018
:104F0800000802407047FEE7FEE7FEE7FEE770474D
:104F18007047704708B5FCF789F908BD08B502481D
:104F2800FEF7ACFC08BD00BFE001002008B5024850
:104F3800FEF7A4FC08BD00BF7802002008B50248AF
:104F4800FEF79CFC08BD00BF4C01002070B50D4663
:104F58001646002404E0AFF30080287001340135C0
:104F6800B442F8DB304670BD70B51646002405E043
:104F78004D1C0878FFF72CF801342946B442F7DBBA
:104F8800304670BD08B503460B4A126842B10A4A5A
:104F9800106803446A46934206D8074A136008BD5E
:104FA800054A06491160F2E700F060F80C23036037
:104FB8004FF0FF30F3E700BF840000200803002013
:104FC8004FF0FF3070474FF400534B60002070479C
:104FD80001207047002070470C4B1A6842F001020C
:104FE8001A60002199601A6822F0847222F48032D3
:104FF8001A60074A5A601A6822F480221A60D96037
:10500800044B4FF000629A60704700BF00380240BE
:105018001030002400ED00E0DFF834D0002103E078
:105028000C4B5B58435004310B480C4B42189A42C6
:10503800F6D30B4A02E0002342F8043B094B9A429C
:10504800F9D3FFF7C9FF00F017F8FEF7E1FF704743
:1050580000000220346A00080000002068000020D8
:105068006800002004030020FEE70000014B1868D8
:10507800704700BF0400002070B500250C4E0D4C91
:10508800A41BA410A54209D101F096F900250A4EE7
:105098000A4CA41BA410A54205D170BD56F82530B2
:1050A80098470135EEE756F8253098470135F2E77D
:1050B8002C6A00082C6A00082C6A0008306A00086C
:1050C80003460244934200D1704703F8011BF9E7F5
:1050D8000FB40A4B13B51C6824B1A36913B9204651
:1050E80000F06AFA05AB049AA1682046019300F023
:1050F80071FD02B0BDE8104004B070470400002004
:1051080038B5084B05461C6824B1A36913B9204675
:1051180000F052FAA26829462046BDE8384000F05F
:10512800F7BF00BF0400002070B50E46054618B151
:1051380083690BB900F040FAAB69AC6813B928462B
:1051480000F03AFA234B9C4217D16C68A3891B07DD
:105158001DD52369DBB1013EA36816F8011F013B89
:10516800A360E9B9002B2EDA22460A21284600F06E
:1051780073F8013011D00A2011E0174B9C4201D17D
:10518800AC68E3E7154B9C4208BFEC68DEE72146B4
:10519800284600F0B3F80028DDD04FF0FF3070BD8E
:1051A800002B04DAA2699A4206DC0A2904D0236893
:1051B8005A1C22601970CFE72246284600F04CF8A6
:1051C8000130C9D1E9E70A2023685A1C2260187007
:1051D800E5E700BFB0690008D069000890690008D9
:1051E800024B01461868FFF79FBF00BF040000206C
:1051F8000CB430B5174B0C1E9DB01D6808DA8B2314
:105208004FF0FF302B601DB0BDE8304002B0704752
:105218004FF40273ADF814300CBF234604F1FF338A
:10522800049307934FF6FF7302900690ADF816307B
:10523800209A21AB02A92846019300F0ABFB431C3E
:10524800BCBF8B232B60002CDDD00022029B1A7080
:10525800D9E700BF04000020F8B50E4614460546FD
:1052680018B183690BB900F0A7F9214B9C422AD1E8
:105278006C68A369A360A3891A072ED5236963B351
:1052880023692068F6B2C01A63693746834204DC92
:105298002146284600F026F928BBA3680130013BC7
:1052A800A36023685A1C22601E706369834204D07D
:1052B800A389DB0719D50A2E17D12146284600F005
:1052C80011F990B10FE00B4B9C4201D1AC68D0E7CB
:1052D800094B9C4208BFEC68CBE72146284600F002
:1052E8000DF80028CCD04FF0FF373846F8BD00BF86
:1052F800B0690008D069000890690008324B70B5A1
:105308001D6806460C4625B1AB6913B9284600F05E
:1053180053F92E4B9C420FD16C68B4F90C309AB2F9
:1053280015072CD4D00611D40922326043F040036B
:10533800A3814FF0FF303EE0254B9C4201D1AC6881
:10534800EBE7244B9C4208BFEC68E6E7510712D50F
:10535800616B41B104F14403994202D0304600F038
:1053680019FA00236363A38923F02403A38100238C
:10537800636023692360A38943F00803A381236939
:105388004BB9A38903F42073B3F5007F03D02146FA
:10539800304600F0BFF9A28912F001030CD00023B7
:1053A800A36063695B42A361236953B9B4F90C3004
:1053B80013F08000BAD170BD920758BF6369A3602B
:1053C800F2E70020F7E700BF04000020B0690008FA
:1053D800D0690008906900088A892DE9F0410546DE
:1053E80010070C4658D44B68002B05DC0B6C002BBF
:1053F80002DC0020BDE8F081E66A002EF9D0002327
:1054080012F480522F68216A2B6032D0606DA38914
:105418005A0705D56368C01A636B0BB1236CC01AB1
:1054280000230246E66A216A2846B047431CA3893E
:1054380006D129681D2948D8294ACA40D60744D523
:10544800002262602269D904226004D5421C01D17D
:105458002B6803B96065616B2F600029C9D004F11E
:105468004403994202D0284600F094F90020606372
:10547800C0E701232846B047411CC8D12B68002B40
:10548800C5D01D2B01D0162B01D12F60B1E7A38900
:1054980043F04003A381ADE70F69002FA9D093071C
:1054A80018BF00230E6808BF4B69A6EB07080F60FA
:1054B8008B60B8F1000F9CDD43463A46216A2846C6
:1054C800A66AB047002806DCA38943F04003A381FD
:1054D8004FF0FF308EE70744A8EB0008E9E700BF6C
:1054E8000100402038B50B6905460C46DBB118B100
:1054F80083690BB900F060F80C4B9C4209D16C68C9
:10550800B4F90C307BB121462846BDE83840FFF796
:1055180063BF074B9C4201D1AC68F1E7054B9C4245
:1055280008BFEC68ECE7002038BD00BFB069000890
:10553800D069000890690008002310B50446C0E946
:105548000033836081814366C281C0E9043383618B
:10555800194608225C30FFF7B3FD054B24626362ED
:10556800044BA362044BE362044B236310BD00BFEA
:10557800A5610008C7610008FF61000823620008F0
:10558800014900F085B800BFED54000870B56825E2
:105598004A1E55430E4605F1740100F047F90446CA
:1055A80040B10021C0E900160C30A06005F1680286
:1055B800FFF786FD204670BD836910B5044633BBEE
:1055C800C0E912330365124B124A1B688262984283
:1055D80004BF0123836100F01FF86060204600F0DB
:1055E8001BF8A060204600F017F80022E0600421B4
:1055F8006068FFF7A1FF01220921A068FFF79CFF5F
:1056080002221221E068FFF797FF0123A36110BD72
:105618008C69000889550008F8B51B4B07461E68B9
:10562800B36913B93046FFF7C7FF4836D6E90134E6
:10563800013B03D5336833B13668F7E7B4F90C504A
:105648006DB16834F4E704213846FFF79FFF3060F6
:105658000028F1D10C2304463B602046F8BD0B4BD3
:105668006566C4E90055A560C4E90335C4E9055574
:105678000822294604F15C00FFF722FDC4E90D5514
:10568800C4E91255E9E700BF8C6900080100FFFF73
:105698002DE9F84380468946002600F1480414B9EC
:1056A8003046BDE8F883D4E90175013F01D5246887
:1056B800F5E7AB89012B07D9B5F90E30013303D0D3
:1056C80029464046C84706436835EEE770B50E469A
:1056D800B1F90E1096B0002914461D4607DA0023CA
:1056E8002B60B3891A0610D44FF480630EE06A4623
:1056F80000F0BAFD0028F2DB019A02F47042A2F52C
:1057080000535A425A412A60EEE7402300202360A2
:1057180016B070BD8B8973B59D0706460C4607D534
:1057280004F14703236023610123636102B070BD64
:1057380001AB6A46FFF7CAFF00990546304600F0FC
:1057480075F848B9B4F90C309A05EFD423F003037F
:1057580043F00203A381E3E70D4BB362A389206002
:1057680043F08003A381009B20616361019B5BB1CF
:10577800B4F90E10304600F089FD28B1A38923F052
:10578800030343F00103A381A3891D43A581CDE74A
:105798008955000838B50546002943D051F8043C1E
:1057A8000C1F002BB8BFE41800F0C4FD1E4A136894
:1057B800104633B9636014602846BDE8384000F0ED
:1057C800BABDA3420BD921686218934201BF1A6877
:1057D8005B685218226063600460EDE713465A68FC
:1057E8000AB1A242FAD919685818A0420BD1206808
:1057F8000144581882421960DED110685268014489
:1058080019605A60D8E702D90C232B60D4E72068C6
:1058180021188A4201BF1168526809182160626024
:105828005C60C9E738BD00BF8C00002070B5CD1C96
:1058380025F0030508350C2D38BF0C25002D06462C
:1058480001DBA94203D90C233360002070BD00F0AE
:1058580071FD214A1468214691B9204C23681BB96F
:10586800304600F08BFC20602946304600F086FC6C
:10587800431C24D10C233046336000F05CFDE4E780
:105888000B685B1B18D40B2B0FD90B60CC18CD50B1
:10589800304600F050FD04F10B00231D20F00700F6
:1058A800C31AD3D05A42E250D0E74B688C4216BF95
:1058B800636013600C46EBE70C464968CCE7C41CF0
:1058C80024F00304A04205D0211A304600F056FC0B
:1058D8000130CFD02560DBE78C000020900000204D
:1058E8002DE9F0478E6882469E420C4690469946BE
:1058F80037D88A8912F4906F31D002232568096954
:105908006F1A656905EB450595FBF3F509F1010388
:105918003B449D4238BF1D46530530D52946FFF705
:1059280085FF064650B90C234FF0FF30CAF8003007
:10593800A38943F04003A381BDE8F0873A46216973
:1059480000F0D4FCA38923F4906343F08003A3817F
:1059580026613E4426604E466561ED1BA5604E45B6
:1059680000D94E4632464146206800F0CAFCA3687A
:1059780000209B1BA36023681E442660DCE72A46A0
:1059880000F0DAFC06460028E2D121695046FFF70C
:1059980001FFC8E72DE9F04F1D468B899DB01F0612
:1059A80080460C4616460FD50B696BB94021FFF7A8
:1059B8003DFF2060206128B90C23C8F800304FF063
:1059C800FF30C8E0402363610023099320238DF84A
:1059D800293030234FF0010B8DF82A3003953746D4
:1059E8003D4615F8013B0BB1252B3ED1B7EB060A16
:1059F8000BD05346324621464046FFF771FF01302F
:105A080000F0A480099B534409933B78002B00F0D5
:105A18009D8000234FF0FF32CDE9052304930793BF
:105A28008DF853301A932F46052217F8011B50485A
:105A380000F04EFC049BD0B9D90644BF20228DF853
:105A480053201A0744BF2B228DF853202A782A2A7C
:105A580015D02F4600200A25079A394611F8013B30
:105A6800303B092B4DD9B8B10FE02F46B8E7404A73
:105A78003D46801A0BFA00F018430490D3E7039AC6
:105A8800111D12680391002A01DB079204E05242BB
:105A980043F00203079204933B782E2B0CD17B78BA
:105AA8002A2B33D1039B02371A1D1B680392002B44
:105AB800B8BF4FF0FF3305932E4D0322397828469F
:105AC80000F006FC38B14023401B03FA00F0049BA9
