:020000040800F2
:100000000000022045570008395600083B560008FA
:100010003D5600083F560008415600080000000009
:10002000000000000000000000000000435600082F
:10003000455600080000000047560008B54F00086C
:1000400095570008955700089557000895570008E0
:100050009557000895570008854E000895570008E9
:1000600095570008955700089557000895570008C0
:1000700095570008955700089557000895570008B0
:1000800095570008955700089557000895570008A0
:100090009557000895570008955700089557000890
:1000A0009557000895570008955700089557000880
:1000B0009557000895570008955700089557000870
:1000C0009557000895570008955700089557000860
:1000D0009557000849560008595600086956000807
:1000E0009557000895570008955700089557000840
:1000F0009557000895570008955700089557000830
:10010000955700089557000895570008955700081F
:10011000955700089557000895570008955700080F
:1001200095570008955700089557000895570008FF
:1001300095570008955700089557000895570008EF
:1001400095570008955700089557000895570008DF
:1001500095570008955700089557000895570008CF
:1001600095570008955700089557000895570008BF
:1001700095570008955700089557000800000000A3
:040180009557000887
:1001840010B5054C237833B9044B13B10448AFF3CD
:1001940000800123237010BD7400002000000000C3
:1001A400DC6A000808B5034B1BB103490348AFF3ED
:1001B400008008BD0000000078000020DC6A000810
:1001C40053B94AB9002908BF00281CBF4FF0FF31BA
:1001D4004FF0FF3000F074B9ADF1080C6DE904CEB6
:1001E40000F006F8DDF804E0DDE9022304B070470E
:1001F4002DE9F0478C460446089E002B4BD18A42D9
:10020400154667D9B2FA82F24AB1C2F1200701FA5F
:1002140002F320FA07F7954047EA030C94404FEAAB
:10022400154EBCFBFEF71FFA85F80EFB17C307FB40
:1002340008F9210C41EA0343994509D9EB1807F160
:10024400FF3180F01C81994540F21981023F2B4413
:10025400A3EB0903B3FBFEF00EFB103300FB08F124
:10026400A4B244EA0344A14209D92C1900F1FF3392
:1002740080F00781A14240F2048102382C4440EA14
:1002840007400027641A1EB10023D440C6E9004386
:100294003946BDE8F0878B4209D9002E00F0EC8086
:1002A4000027C6E9000138463946BDE8F087B3FAAD
:1002B40083F7002F48D18B4202D3824200F2FB80A5
:1002C400841A61EB030301209C46002EE0D0C6E9AA
:1002D400004CDDE702B9FFDEB2FA82F2002A40F0F8
:1002E4008F800127491B4FEA15481FFA85F9B1FB96
:1002F400F8FE08FB1E1109FB0EF04FEA144C4CEA01
:100304000143984207D9EB180EF1FF3102D298420B
:1003140000F2CD808E461B1AB3FBF8F008FB1033B5
:1003240009FB00F9A4B244EA0344A14507D92C19F6
:1003340000F1FF3302D2A14500F2B6801846A4EBC7
:10034400090440EA0E409EE7C7F12005BB4022FAAB
:1003540005FC4CEA030C21FA05F44FEA1C4EB4FBED
:10036400FEF91FFA8CF80EFB194420FA05F3B94084
:1003740009FB08FA19430B0C43EA0444A24502FAA8
:1003840007F200FA07F30BD91CEB040409F1FF3060
:1003940080F08880A24540F28580A9F10209644476
:1003A400A4EB0A04B4FBFEF00EFB104400FB08FAB5
:1003B40089B241EA0444A24508D91CEB040400F1C3
:1003C400FF316BD2A24569D90238644440EA09403E
:1003D400A0FB0289A4EB0A044C454146CE4654D303
:1003E40051D0002E69D05A1A64EB0E0404FA05F5B4
:1003F40022FA07F3FC401D43C6E90054002747E7EF
:100404009540C2F1200321FA03F04FEA1548B0FBEE
:10041400F8F71FFA85F908FB170024FA03F3914053
:1004240007FB09FC0B43190C41EA00418C4504FA13
:1004340002F407D9691807F1FF3031D28C452FD95E
:10044400023F2944A1EB0C01B1FBF8F008FB101C9E
:1004540000FB09FE99B241EA0C418E4507D969189F
:1004640000F1FF3318D28E4516D902382944A1EB86
:100474000E0140EA07473AE73746304608E70F4699
:10048400E6E61846FBE64345ABD2B8EB020169EB5E
:100494000C0201389646A4E71846E8E7084695E7B3
:1004A4000746CFE781467BE702382C4447E7AEF1A5
:1004B400020E2B442FE7384607E73746E8E600BF2D
:1004C400704700BF034613F8012B002AFBD1181A0A
:1004D4000138704710B50446074B1868074BA3FB57
:1004E4000030800900F098F8002221464FF0FF30D8
:1004F40000F052F8002010BD0C000020D34D621013
:1005040008B50B4B1A6842F400721A601A6842F478
:1005140080621A601A6842F480721A60032000F044
:1005240029F80020FFF7D6FF04F032FE002008BDB2
:10053400003C0240024A136801331360704700BF55
:10054400B0000020014B1868704700BFB0000020C5
:1005540030B583B00190FFF7F5FF0546019CB4F177
:10056400FF3F00D00134FFF7EDFF401BA042FAD358
:1005740003B030BD074AD36823F4E0631B041B0CAB
:10058400000200F4E060184340F0BF6040F4003023
:10059400D060704700ED00E030B4174BDB68C3F364
:1005A4000223C3F10704042C28BF04241D1D062DB7
:1005B40018D9033B4FF0FF3505FA04F421EA04018E
:1005C400994005FA03F322EA0303194300280BDBDD
:1005D4000901C9B200F1604000F5614080F80013E0
:1005E40030BC70470023E5E700F00F000901C9B2F1
:1005F400024B1954F4E700BF00ED00E014ED00E0F5
:1006040000F01F02400901239340024A42F82030BF
:10061400704700BF00E100E00138B0F1807F0AD2EA
:10062400064B5860064AF02182F823100020986097
:1006340007221A6070470120704700BF10E000E0F5
:1006440000ED00E090F83530DBB2022B03D08023BC
:10065400436501207047052380F83530026813682C
:1006640023F00103136000207047000050791379D0
:1006740043EA002307480B50D07893781B0443EADD
:100684000063507843EA002312781343024A8B50E4
:10069400704700BF408002404480024070B59EB065
:1006A400044629B14FF40063C3604FF48043836070
:1006B400E369002B6AD14FF48063079321680B68C8
:1006C400394A1A40A368E06803430798034343F494
:1006D400007313430B6023681D680120FFF738FF84
:1006E40023681D60236840225A6023685D680120E6
:1006F400FFF72EFF23685D60236800259D60236853
:10070400DD602268936923F0BE031B041B0C43F0D5
:100714008003936123689E690120FFF719FF236812
:100724009E612368DD612368DD690120FFF710FF06
:100734002368DD61226841F2180551591B4B0B40B7
:1007440043F0087343F00403535123685E590120B6
:10075400FFF7FEFE23685E51236803F58053144AB5
:100764001A60236803F580531D680120FFF7F0FE2B
:10077400236803F580531D60A369012B09D06269C6
:1007840000212046FFF772FF1EB070BD00230793BF
:1007940094E7216841F21C028B5843F4803343F000
:1007A40040038B50EBE700BF0F8120FF233FDEF8AF
:1007B4008020C102F8B590F84430DBB2822B33D0EC
:1007C40016460546822380F844300268136903F014
:1007D4001C03048AE402A4B223438C0104F4F864E5
:1007E4001C4344F001041461FFF7ACFE074614F007
:1007F400010F10D0FFF7A6FEC01BB0F5803F02D258
:100804002B681C69F3E7012385F84430002385F83D
:100814004530032007E02B685B699BB233600123FA
:1008240085F844300020F8BD0220FCE790F84430FD
:10083400DBB2422B32D070B50546422380F84430F7
:100844000068036903F01C032C8AE402A4B2234366
:100854008C0104F4F8641C4344F0030492B2426132
:100864002B681C61FFF76EFE064614F0010F10D0D2
:10087400FFF768FE801BB0F5803F02D22B681C692D
:10088400F3E7012385F84430002385F8453003203D
:1008940003E0012385F84430002070BD0220704736
:1008A40070B582B000230193002800F0068104464D
:1008B40090F84430002B34D000230093804B5A6CC2
:1008C40042F480425A645B6C03F480430093009BBF
:1008D4007C4B5A6822F400025A605A68216A0A431F
:1008E4005A60236803F580531A6842F001021A60C3
:1008F400FFF728FE0546236803F58052126812F0BC
:10090400010F13D0FFF71EFE401BB0F5FA7FF2D99A
:10091400032584F84450002384F84530284602B067
:1009240070BD80F8453004F04FFCC5E71D6925F023
:100934001C0501F027FF644B0344644A934255D8D5
:1009440045F0080523681D614FF40042002120464C
:10095400FFF76CFF0546002858D1FF20FFF7F8FD8C
:100964006368002B00F08980FFF7ECFD064601AABE
:1009740001212046FFF71EFFFFF7E4FD801B41F233
:10098400883398424AD8019B13F0040FEFD04FF4F8
:10099400805200212046FFF749FF00284AD1FFF783
:1009A400D1FD064601AA01212046FFF703FFFFF708
:1009B400C9FD801B41F28833984243D8019B13F050
:1009C400200FEFD001AA1F212046FFF7F3FE0028D5
:1009D40044D1019B13F0100F48D04FF40062E26041
:1009E40013F0040F45D00023A36056E0384B0344B2
:1009F400384A934202D845F00C05A3E7364B03442A
:100A0400364A93429ED945F004059BE701212046CE
:100A1400FFF744FE012584F844507FE70121204676
:100A2400FFF73CFE012384F84430002384F845306A
:100A3400032573E701212046FFF730FE012584F8E2
:100A440044506BE701212046FFF728FE012384F878
:100A54004430002384F8453003255FE70121204614
:100A6400FFF71CFE012584F8445057E70022E2609A
:100A7400B6E74FF48043A3600FE0E268C2F3CF020D
:100A8400A368C3F34F031A4300212046FFF7CEFEA9
:100A940058B940F6FF70FFF75BFD00212046FFF7D1
:100AA400FDFD012384F8443038E701212046FFF797
:100AB400F5FD012584F8445030E701252EE700BFF9
:100AC400003802400038014000D3CEFEBFE1E4000C
:100AD40040F1E9FD3F787D0100796CFCFF59620229
:100AE40010B408490C6924F440740C610C6944F492
:100AF40040740C610C6944F001040C6102604360B1
:100B040010BC7047003C0240074B1A6922F4407243
:100B14001A611A6942F400721A611A6942F00102F8
:100B24001A610160704700BF003C0240074B1A691C
:100B340022F440721A611A6942F480721A611A69C5
:100B440042F001021A610180704700BF003C02407C
:100B5400064B1A6922F440721A611A691A611A69F9
:100B640042F001021A610170704700BF003C02406C
:100B7400204BDB6813F0100F07D01F4AD36943F0F2
:100B84000803D3611B4B1022DA601A4BDB6813F0A5
:100B9400200F07D0184AD36943F00403D361154BDF
:100BA4002022DA60134BDB6813F0400F07D0124A9F
:100BB400D36943F00203D3610E4B4022DA600D4B3C
:100BC400DB6813F0800F07D00B4AD36943F00103AD
:100BD400D361084B8022DA60064BDB6813F0020F06
:100BE40007D0054AD36943F01003D361014B0222B5
:100BF400DA607047003C0240B4000020064B1B69D9
:100C0400002B01DB01207047034B044A5A6002F1B8
:100C140088325A6000207047003C02402301674537
:100C2400034A136943F0004313610020704700BF77
:100C3400003C024038B50446154B0022DA61FFF748
:100C440081FC0546134BDB6813F4803F0AD0B4F1F2
:100C5400FF3FF7D0CCB1FFF775FC401BA042F1D9A0
:100C640003200DE00B4BDB6813F0010F02D0094B9E
:100C74000122DA60074BDB6813F0F20F01D1002088
:100C840038BDFFF775FF0120FAE70320F8E700BF3E
:100C9400B4000020003C0240F8B51D4C247E012C19
:100CA40034D01F4616460D460446194B01221A76C7
:100CB4004CF25030FFF7BEFF014698B9BCB1012C8D
:100CC4001AD0022C1DD032463B462846FFF708FFB7
:100CD4004CF25030FFF7AEFF01460E4A136923F081
:100CE400010313610A4B00221A760846F8BDF1B2DB
:100CF4002846FFF72DFFEBE7B1B22846FFF716FFB2
:100D0400E6E731462846FFF7FFFEE1E70221ECE77C
:100D1400B4000020003C0240074B1A6922F44072E0
:100D24001A611A6942F004021A611A6942EA00203F
:100D340040F4803018617047003C024010B449B15F
:100D4400012925D0022902D04FF4407403E04FF466
:100D5400007400E00024104B196921F440711961FA
:100D64001A6922431A611A6922F0F8021A61F822F8
:100D740092FAA2F2B2FA82F2904040F002001A69AA
:100D8400104318611A6942F480321A6110BC70472A
:100D94004FF48074DFE700BF003C0240164B1B6831
:100DA40013F4007F10D0144B1A6822F400721A60F6
:100DB4001A6842F400621A601A6822F400621A6027
:100DC4001A6842F400721A600B4B1B6813F4806FAC
:100DD40010D0094B1A6822F480621A601A6842F42F
:100DE40080521A601A6822F480521A601A6842F417
:100DF40080621A60704700BF003C0240F8B5224B85
:100E04001B7E012B3ED00E4604461F4B01221A7650
:100E14004CF25030FFF70EFF074670BB4FF0FF3324
:100E240033602368012B16D0A568E368A2681344D5
:100E3400AB4220D9217C2846FFF780FF4CF250308A
:100E4400FFF7F8FE114A136923F0FA03136107460A
:100E540080B90135E9E76168207CFFF75DFF4CF25A
:100E64005030FFF7E7FE0746084A136923F00403EE
:100E7400136100E03560FFF791FF034B00221A76FF
:100E84003846F8BD0227FBE7B4000020003C0240CE
:100E940000230F2B00F2DD80F0B482B039E0082289
:100EA40000E00022B2403A4302346A4E46F824205D
:100EB400694A1468EA4302EA04064F6817F4803F5B
:100EC40001D045EA0406644C2660646802EA04061C
:100ED4004F6817F4003F01D045EA04065E4C666093
:100EE400A46802EA04064F6817F4801F01D045EA9B
:100EF4000406594CA660E46822404E6816F4001FAC
:100F040001D045EA0402544CE26001330F2B00F295
:100F14009D8001229A400C6804EA0205AA42F4D199
:100F24004C68022C01D0122C10D1DE08083650F87F
:100F340026C003F00704A7000F24BC402CEA040CCD
:100F44000C69BC4044EA0C0440F8264004685F0085
:100F54000326BE40F64306EA040C4C6804F003047E
:100F6400BC4044EA0C0404604C6804F1FF3CBCF14E
:100F7400010F03D9112C01D0122C10D1846806EA78
:100F8400040CCC68BC4044EA0C048460446824EA41
:100F940002024C68C4F300149C4014434460C268C9
:100FA40016408A68BA403243C2604A6812F0805FD1
:100FB400ABD000220192294A546C44F48044546416
:100FC400526C02F480420192019A9C08A61C214AA8
:100FD40052F8267003F0030296000F22B24027EA6B
:100FE40002071F4A90423FF45CAF02F580629042D0
:100FF4001ED002F5806290421CD002F580629042BD
:101004001AD002F58062904218D002F580629042B4
:1010140016D002F58062904214D002F580629042AC
:1010240012D002F5806290423FF439AF092239E7C9
:10103400012237E7022235E7032233E7042231E7AE
:1010440005222FE706222DE707222BE702B0F0BC8A
:101054007047704700380140003C014000380240AE
:101064000000024012B90904816170478161704730
:10107400436959404161704708B5054B5B690342B8
:1010840000D108BD024B586103F000FFF9E700BF2F
:10109400003C014003685A6912F4806F0DD06FF46C
:1010A40080625A610423036400230363202280F8CE
:1010B4003D2080F83C300120704700207047F8B58F
:1010C40006460C4617461D461EE02DB1FFF73AFAB8
:1010D400069BC01AA84217D900233363202286F83E
:1010E4003D2086F83E3086F83C3003201AE0336811
:1010F4005B6924EA03039BB2B3FA83F35B099F425F
:101104000FD1B5F1FF3FE0D1C4F30743012BEED07B
:1011140033689B6924EA03039BB2B3FA83F35B0944
:10112400EDE70020F8BDF8B504460D4616461F4607
:1011340032E01A6842F400721A6023686FF4806225
:101144005A610423236400232363202284F83D206E
:1011540084F83C3001202DE026B1FFF7F3F9C01BE1
:10116400B04219D900232363202284F83D2084F857
:101174003C3003201EE023685B6925EA03039BB22D
:10118400003318BF0123A3B123685A6912F4806F96
:10119400CFD1B6F1FF3FDFD1C5F30743012BEAD02E
:1011A40023689B6925EA03039BB2003318BF01231C
:1011B400E9E70020F8BD0000F0B583B004460D4611
:1011C40016461F46C36A042B0DD0012B0BD013F512
:1011D400803F08D0036B122B0AD10268136843F4D2
:1011E4008073136004E02268136843F4807313600F
:1011F4000097334600224FF001112046FFF75FFFAE
:1012040058BB2369B3F5804F10D1236805F0FE0560
:101214001D613B46324615492046FFF784FF0346CD
:10122400E0B1236C042B1ED1012317E0EB112268DB
:1012340003F0060343F0F00313613B4632460C49C6
:101244002046FFF770FF20B1236C042B09D1012342
:1012540004E02368EDB21D61DBE70323184603B005
:10126400F0BD0323FAE70323F8E700BF02000100FF
:10127400080001002DE9F04184B004460D461646ED
:101284001F46C26A01680B6843F480630B60042A3A
:101294000DD0012A0BD012F5803F08D0036B112B1F
:1012A4000AD10268136843F48073136004E022686F
:1012B400136843F4807313600097334600224FF0A1
:1012C40001112046FFF7FBFE002852D12369B3F534
:1012D400804F12D1236845F00105EDB21D613B46F4
:1012E40032462A492046FFF71EFF0346002841D014
:1012F400236C042B48D101233CE04FEAE51808F0A5
:101304000608236848F0F0021A613B463246204939
:101314002046FFF708FF20B1236C042B2ED10123B4
:1013240028E02368EDB21D613B463246174920464A
:10133400FFF7F9FE20B1236C042B21D1012319E01E
:1013440000220392236859690391996903910399CF
:10135400196841F480711960009733464FF0011108
:101364002046FFF7ACFE68B9226848F0F103136128
:10137400B5E70323184604B0BDE8F0810323F9E779
:101384000323F7E70323F5E70323F3E70200010050
:101394000800010070B504460D46164623685B69D3
:1013A40013F0800F19D12046FFF774FEB8B9B5F1D8
:1013B400FF3FF3D025B1FFF7C5F8801BA842EDD954
:1013C400236C43F02003236400232363202284F846
:1013D4003D2084F83C30032000E0002070BD012053
:1013E400FCE700002DE9F04184B004460E461746A0
:1013F40098460B9D0268136843F48073136000954C
:101404000A9B00224FF00111FFF759FE002847D133
:10141400236806F0FE061E612B460A9A26492046DA
:10142400FFF781FE20B1236C042B3ED1012338E069
:101434000023039323685A6903929B690393039BD4
:101444002A460A992046FFF7A5FF034648B1236CB4
:10145400042B2CD12268136843F400731360012316
:101464001FE0B8F1010F13D023683A0A1A612A4623
:101474000A992046FFF78EFF034668B1236C042BBC
:1014840017D12268136843F400731360012308E042
:101494002268FFB2176104E02268FFB2176100E01E
:1014A4000323184604B0BDE8F0810323F9E70323BE
:1014B400F7E70323F5E700BF020001002DE9F0413F
:1014C40084B004460E46174698460B9D026813687E
:1014D40043F4806313600268136843F480731360F9
:1014E40000950A9B00224FF00111FFF7E8FD002848
:1014F40074D1F6B2236806F0FE021A612B460A9AEA
:101504003F492046FFF70FFE20B1236C042B6AD11C
:10151400012364E00023039323685A6903929B69BF
:101524000393039B2A460A992046FFF733FF48B1E9
:10153400236C042B59D12268136843F4007313609D
:1015440001234CE0B8F1010F12D12368FFB21F61EF
:101554002A460A992046FFF71DFF00B3236C042B8B
:1015640047D12268136843F400731360012336E003
:1015740023683A0A1A612A460A992046FFF70AFFA5
:1015840048B1236C042B32D12268136843F40073EE
:101594001360012323E02368FFB21F61D8E72268A8
:1015A400136843F48073136000950A9B00224FF084
:1015B40001112046FFF783FDE8B9236846F00106D0
:1015C4001E612B460A9A0E492046FFF7ACFD0346DE
:1015D40028B1236C042B10D1012300E00323184607
:1015E40004B0BDE8F0810323F9E70323F7E70323FD
:1015F400F5E70323F3E70323F1E70323EFE700BF52
:101604000200010070B504460D46164623685B6966
:1016140013F0040F19D12046FFF73CFDB8B9B5F11A
:10162400FF3FF3D025B1FEF78DFF801BA842EDD913
:10163400236C43F02003236400232363202284F8D3
:101644003D2084F83C30032000E0002070BD0120E0
:10165400FCE770B505460C4616462B685A6912F02D
:10166400400F22D15A6912F0100F11D124B1FEF7A4
:1016740069FF801BA042F0D92B6C43F020032B643C
:10168400202385F83D30002385F83C30032070BDCD
:101694006FF010025A6100232B642B63202285F81B
:1016A4003D2085F83C300120F1E70020EFE7000001
:1016B400002800F0828010B5044690F83D30002BDD
:1016C40041D0242384F83D302268136823F00103B9
:1016D400136001F05DF83A4BA3FB00239B0C2268D6
:1016E40053606168374A914232D8013322681362E9
:1016F4006368344A934235D85B00B0FBF3F0C0F31F
:101704000B03032B00D804202368D861E369216A02
:1017140022680B4313602369E16822680B439360DA
:101724006369A16922680B43D3602268136843F09C
:101734000103136000202064202384F83D302063DB
:1017440084F83E0010BD80F83C3003F0B5FDB8E7E6
:101754004FF4967202FB03F31B4AA2FB03239B097B
:101764000133C3E7A16889B903EB4302B0FBF2F28A
:10177400C2F30B02B2FA82F25209E2B991B903EB55
:101784004303B0FBF3F040F40040BDE703EB8302F6
:1017940002EB8202B0FBF2F2C2F30B02B2FA82F263
:1017A4005209EAE703EB830303EB8303B0FBF3F093
:1017B40040F44040A8E70120A6E70120704700BF9D
:1017C40083DE1B43A0860100D34D62102DE9F04156
:1017D40084B004460E4690461F46FEF7B3FE94F8C6
:1017E4003D30DBB2202B04D00226304604B0BDE8E5
:1017F400F081054600901923012254492046FFF741
:101804005EFC002840F0998094F83C30012B00F0F5
:101814009680012384F83C3023681A6812F0010F83
:1018240003D11A6842F001021A602268136823F493
:1018340000631360212384F83D30102384F83E3084
:1018440000232364C4F824806785A3F58033E3620E
:10185400638D23852B460A9A31462046FFF7ACFC5C
:10186400064660B1236C042B04D1002384F83C3079
:101874000126BAE7002384F83C300326B5E70023A9
:10188400039323685A6903929B690393039B10E0B3
:10189400236C042B55D12268136843F4007313603E
:1018A4000126A2E72A460A992046FFF7ABFE002844
:1018B4002BD1238D002B32D02A460A992046FFF7DC
:1018C40069FD0028E4D1636A5A1C626222681B78AD
:1018D4001361638D013B9BB26385238D013B9BB2F6
:1018E40023852268516911F0040FDBD0002BD9D075
:1018F400636A591C61621B781361638D013B9BB25F
:101904006385238D013B2385CCE7236C042B1AD1FB
:101914002268136843F400731360012665E72268A4
:10192400136843F400731360202384F83D300023CC
:1019340084F83E3084F83C3057E7022655E7022607
:1019440053E7032651E703264FE700BF02001000C8
:101954002DE9F04186B004460E4690461F46FEF738
:10196400F1FD94F83D30DBB2202B04D00226304642
:1019740006B0BDE8F08105460090192301228C4988
:101984002046FFF79CFB002840F04B8194F83C3044
:10199400012B00F04881012384F83C3023681A6845
:1019A40012F0010F03D11A6842F001021A60226892
:1019B400136823F400631360222384F83D3010235A
:1019C40084F83E3000232364C4F824806785A3F59B
:1019D4008033E362638D23852B460C9A314620467F
:1019E400FFF748FC064660B1236C042B04D10023A6
:1019F40084F83C300126BAE7002384F83C300326FF
:101A0400B5E7238D5BB9029323685A6902929A69F8
:101A14000292029A1A6842F400721A607AE0012B68
:101A24000FD0022B1FD02268136843F48063136025
:101A34000023059323685A6905929B690593059BC6
:101A440068E02268136823F480631360002303931F
:101A540023685A6903929A690392039A1A6842F4B2
:101A640000721A6056E02268136823F480631360DE
:101A74002268136843F4006313600023049323680B
:101A84005A6904929B690493049B43E02A460C9987
:101A94002046FFF7DEFD68B923681A69636A591C9A
:101AA40061621A70238D013B2385638D013B9BB2D8
:101AB40063852FE0236C202B01D0012657E70326F2
:101AC40055E700950C9B00223A492046FFF7F7FAA8
:101AD400002840F0AA802268136843F4007313605E
:101AE40023681A69636A591C61621A70238D013B69
:101AF4002385638D013B9BB2638523681A69636AFE
:101B0400591C61621A70238D013B2385638D013B4F
:101B14009BB26385238D002B7AD0032B4CD8012BE9
:101B2400B4D0022BCDD000950C9B00222149204635
:101B3400FFF7C5FA00287AD12268136823F480637A
:101B4400136023681A69636A591C61621A70238DD1
:101B5400013B2385638D013B9BB2638500950C9B00
:101B6400002214492046FFF7AAFA002861D122680E
:101B7400136843F40073136023681A69636A591C79
:101B840061621A70238D013B2385638D013B9BB2F7
:101B9400638523681A69636A591C61621A70238D0C
:101BA400013B2385638D013B9BB26385B2E700BF94
:101BB40002001000040001002A460C992046FFF799
:101BC40048FDF0B923681A69636A591C61621A7086
:101BD400238D013B2385638D013B9BB26385236881
:101BE4005A6912F0040F95D01A69636A591C61622C
:101BF4001A70238D013B2385638D013B9BB2638562
:101C040088E7236C202B01D00126B0E60326AEE63C
:101C1400202384F83D30002384F83E3084F83C309F
:101C2400A5E60226A3E60226A1E603269FE60326EE
:101C34009DE603269BE600BF2DE9F04182B00446F1
:101C44000E4617469846FEF77DFC94F83D30DBB20D
:101C5400202B04D00223184602B0BDE8F0810546CB
:101C640000901923012251492046FFF728FA002841
:101C740040F0938094F83C30012B00F090800123D5
:101C840084F83C3023681A6812F0010F03D11A68F3
:101C940042F001021A602268136823F4006313609F
:101CA400212384F83D30402384F83E30002323640C
:101CB400089B6362BDF8243063853D4BE362638D0A
:101CC400238501950A9B009343463A4631462046B4
:101CD400FFF788FBB0B1236C042B04D1002384F8F4
:101CE4003C300123B7E7002384F83C300323B2E7F8
:101CF400236C042B55D12268136843F400731360DA
:101D04000123A8E7238D002B28D02A460A992046D0
:101D1400FFF740FB0028EBD1636A5A1C6262226819
:101D24001B781361238D013B9BB22385628D013A9D
:101D340092B262852268516911F0040FE2D0002B3F
:101D4400E0D0636A591C61621B781361238D013BE7
:101D54002385638D013B9BB26385D3E72A460A99A9
:101D64002046FFF74FFC034648B1236C042B1AD1DD
:101D74002268136843F40073136001236BE721683E
:101D84000A6842F400720A60202284F83D2000228E
:101D940084F83E2084F83C205DE702235BE70223BD
:101DA40059E7032357E7032355E700BF0200100058
:101DB4000000FFFF2DE9F04186B004460E461746A9
:101DC4009846FEF7BFFB94F83D30DBB2202B04D0DD
:101DD4000226304606B0BDE8F0810546009019237E
:101DE40001228B492046FFF76AF9002840F04B8115
:101DF40094F83C30012B00F04881012384F83C30F6
:101E040023681A6812F0010F03D11A6842F0010224
:101E14001A602268136823F400631360222384F891
:101E24003D30402384F83E30002323640C9B6362DE
:101E3400BDF834306385774BE362638D2385019568
:101E44000E9B009343463A4631462046FFF736FB45
:101E5400064660B1236C042B04D1002384F83C3083
:101E64000126B6E7002384F83C300326B1E7238D2E
:101E74005BB9029323685A6902929A690292029AA0
:101E84001A6842F400721A6075E0012B0AD0022B22
:101E94001AD00023059323685A6905929B69059318
:101EA400059B68E02268136823F4806313600023B1
:101EB400039323685A6903929A690392039A1A68EE
:101EC40042F400721A6056E02268136823F48063B7
:101ED40013602268136843F40063136000230493BF
:101EE40023685A6904929B690493049B43E02A463D
:101EF4000E992046FFF7ADFB68B923681A69636A37
:101F0400591C61621A70238D013B2385638D013B4B
:101F14009BB263852FE0236C202B01D0012658E768
:101F2400032656E700950E9B00223B492046FFF707
:101F3400C6F8002840F0AB802268136843F40073AD
:101F4400136023681A69636A591C61621A70238DCD
:101F5400013B2385638D013B9BB2638523681A692A
:101F6400636A591C61621A70238D013B2385638D5A
:101F7400013B9BB26385238D002B7BD0032B4DD873
:101F8400012BB4D0022BCDD000950E9B0022224908
:101F94002046FFF794F800287BD12268136823F4C5
:101FA4008063136023681A69636A591C61621A703A
:101FB400238D013B2385638D013B9BB26385009593
:101FC4000E9B002214492046FFF779F8002862D1BD
:101FD4002268136843F40073136023681A69636A00
:101FE400591C61621A70238D013B2385638D013B6B
:101FF4009BB2638523681A69636A591C61621A700B
:10200400238D013B2385638D013B9BB26385B2E73E
:10201400020010000000FFFF040001002A460E9990
:102024002046FFF716FBF0B923681A69636A591C46
:1020340061621A70238D013B2385638D013B9BB242
:10204400638523685A6912F0040F94D01A69636A8D
:10205400591C61621A70238D013B2385638D013BFA
:102064009BB2638587E7236C202B01D00126B0E661
:102074000326AEE6202384F83D30002384F83E3066
:1020840084F83C30A5E60226A3E60226A1E6032650
:102094009FE603269DE603269BE600BF2DE9F04359
:1020A40085B00446884691461D46FEF74BFA94F8DF
:1020B4003D30DBB2202B04D00223184605B0BDE826
:1020C400F083064600901923012256492046FEF764
:1020D400F6FF002840F09B8094F83C30012B00F080
:1020E4009880012384F83C3023681A6812F0010FA9
:1020F40003D11A6842F001021A602268136823F4BB
:1021040000631360242384F83D3000232364A3F583
:102114008033E362012735E0A02384F83D30226850
:102124005369C3F340035269C2F3802294F83D100B
:10213400C9B253B94AB9A02907D0002DECD0FEF793
:1021440001FA801BA842EAD9E6E7202384F83D304F
:1021540023685A6912F0020F35D11A6842F40072EA
:102164001A6023686FF480625A6100961923012271
:102174002C492046FEF7A3FF002850D17B1C4F4575
:102184003DD21F462268136843F48073136000969F
:102194002B4600224FF001112046FEF790FF002845
:1021A40039D1236808F0FE021A61FEF7CBF906461E
:1021B40022685369C3F340035269C2F3802294F83E
:1021C4003D10C9B2B5E71A6842F400721A600023E0
:1021D400039323685A6903929B690393039B0096B4
:1021E400192301220F492046FEF769FF0346A0B9CF
:1021F400202284F83D20002284F83C205DE720233F
:1022040084F83D30002384F83C30012355E7022351
:1022140053E7022351E703234FE703234DE7032347
:102224004BE700BF02001000002800F0978130B592
:1022340083B00446036813F0010F2ED0A34B9B68B0
:1022440003F00C03042B1FD0A04B9B6803F00C037A
:10225400082B14D022799E4B1A706368002B40D04F
:10226400FEF770F90546994B1B6813F4003F14D12F
:10227400FEF768F9401B6428F5D9032073E1934BFA
:102284005B6813F4800FE5D0904B1B6813F4003F98
:1022940003D06368002B00F06381236813F0020FFE
:1022A4004BD08A4B9B6813F00C0F2ED0874B9B6846
:1022B40003F00C03082B23D0E368002B64D0854B78
:1022C40001221A60FEF73EF90546804B1B6813F0A5
:1022D400020F4AD1FEF736F9401B0228F5D9032034
:1022E40041E1FEF72FF90546784B1B6813F4003FD4
:1022F400D3D0FEF727F9401B6428F5D9032032E137
:10230400724B5B6813F4800FD6D1704B1B6813F0CB
:10231400020F04D0E368012B01D0012023E16B48B4
:10232400036823F0F8032169F82292FAA2F2B2FAC0
:1023340082F201FA02F213430360236813F0080FD8
:1023440046D0636993B3644B01221A60FEF7FAF82E
:1023540005465E4B5B6F13F0020F39D1FEF7F2F8BE
:10236400401B0228F5D90320FDE05848036823F0F8
:10237400F8032169F82292FAA2F2B2FA82F201FA7F
:1023840002F213430360D8E7524B00221A60FEF7AF
:10239400D9F805464D4B1B6813F0020FCDD0FEF75C
:1023A400D1F8401B0228F5D90320DCE04A4B002277
:1023B4001A60FEF7C7F80546444B5B6F13F0020F33
:1023C40006D0FEF7BFF8401B0228F5D90320CAE067
:1023D400236813F0040F1FD1A369002B00F0C280FF
:1023E4003A4A926802F00C02082A00F0BE80022BDE
:1023F40059D03A4B00221A60FEF7A4F80446334B36
:102404001B6813F0007F00F0A780FEF79BF8001B09
:102414006428F4D90320A6E0002301932B4B1A6C03
:1024240042F080521A641B6C03F080530193019BA9
:102434002B4A136843F480731360FEF783F8054650
:10244400274B1B6813F4807F06D1FEF77BF8401BF3
:102454000228F5D9032086E0227A224B1A70A36859
:1024640083B1FEF76FF80546184B1B6F13F0020F8C
:10247400B2D1FEF767F8401B41F288339842F3D992
:10248400032070E0FEF75EF80546104B1B6F13F057
:10249400020FA1D0FEF756F8401B41F28833984250
:1024A400F3D903205FE00D4B00221A60FEF74AF8CF
:1024B4000546064B1B6813F0007F15D0FEF742F863
:1024C400401B6428F5D903204DE000BF00380240CA
:1024D4000238024000004742800E474260004742F3
:1024E4000070004070380240E369226A1343616A55
:1024F40047F6C07292FAA2F2B2FA82F201FA02F23A
:102504001343A26A5208013A4FF4403191FAA1F1FF
:10251400B1FA81F18A401343E16A4FF0706292FA92
:10252400A2F2B2FA82F201FA02F21343104A5360A1
:10253400104B01221A60FEF705F804460C4B1B6889
:1025440013F0007F06D1FDF7FDFF001B6428F5D9C9
:10255400032008E0002006E0002004E0012070478A
:10256400012000E0002003B030BD0120FBE700BFE4
:102574000038024060004742264B9B6803F00C037E
:10258400042B44D0082B01D0234870472DE9F04B8D
:10259400204B5A6802F03F025B6813F4800F13D09B
:1025A4001C4B5968C1F3881100231C48A1FB00018E
:1025B400FDF706FE174B5B68C3F3014301335B0071
:1025C400B0FBF3F0BDE8F08B124B5B68C3F38813E8
:1025D4001E4600275C010025E41A65EB0705A901E6
:1025E40041EA9461A001001B61EB0501CB0043EAC1
:1025F4005073C400A01943EB07018B0243EA9053C4
:102604008402204619460023FDF7DAFDD2E7034889
:10261400704700BF003802400024F40040787D0178
:10262400002800F0A28070B50446524B1B6803F0EA
:102634000F038B4209D2CBB24E4A1370136803F0D6
:102644000F038B4201D0012070BD236813F0020FE9
:1026540017D013F0040F04D0474A936843F4E053AF
:102664009360236813F0080F04D0434A936843F43B
:1026740060439360404A936823F0F003A0680343E7
:1026840093600D46236813F0010F31D06368012B6A
:1026940020D0022B25D0384A126812F0020F66D0DF
:1026A40035498A6822F0030213438B60FDF74AFF21
:1026B4000646314B9B6803F00C036268B3EB820F50
:1026C40016D0FDF73FFF801B41F288339842F0D9C2
:1026D4000320B9E7284A126812F4003FE0D1012030
:1026E400B2E7254A126812F0007FD9D10120ABE786
:1026F400204B1B6803F00F03AB4209D9EAB21D4B10
:102704001A701B6803F00F03AB4201D001209BE752
:10271400236813F0040F06D0174A936823F4E05398
:10272400E1680B439360236813F0080F07D0124A43
:10273400936823F46043216943EAC1039360FFF77C
:102744001BFF0D4B9B6803F0F003F02292FAA2F2F8
:10275400B2FA82F2D340094AD35CD840084B1860DD
:102764000020FDF7B7FE00206EE70120704701202E
:102774006AE700BF003C024000380240747300085E
:102784000C000020014B1868704700BF0C000020AB
:1027940008B5FFF7F7FF074B9B6803F4E0534FF4CA
:1027A400E05292FAA2F2B2FA82F2D340024AD35C25
:1027B400D84008BD003802408473000808B5FFF70C
:1027C400E1FF074B9B6803F460434FF4604292FAC5
:1027D400A2F2B2FA82F2D340024AD35CD84008BDD6
:1027E400003802408473000800283BD010B504462A
:1027F4000023836290F85130002B2ED0022384F8FA
:1028040051302268136823F0400313606368A268A0
:102814001343E26813432269134362691343A269B1
:1028240002F400721343E2691343226A1343A16A58
:1028340022680B431360638B03F00403616A22680C
:102844000B4353602268D36923F40063D3610020EF
:102854006065012384F8513010BD80F8503002F0D7
:10286400B1FDCBE7012070470268D36823F490736D
:10287400D3600268536923F001035361202380F875
:102884003A30704790F83930DBB2212B2AD1836873
:10289400B3F5805F16D0036A5A1C02621A78036883
:1028A4005A60C38C013B9BB2C384EBB90268D36802
:1028B40023F08003D3600268D36843F04003D360FD
:1028C40000207047036A1B880268C3F3080353603F
:1028D40003691BB9036A02330362E2E7036A013343
:1028E4000362DEE702207047002070472DE9F843B9
:1028F400044601680A6922F44052C36813430B6119
:102904000168CA6822F4164222F00C028368006946
:10291400034360690343E06903431343CB602168C5
:102924004A6922F44072A36913434B61E369B3F526
:10293400004F60D02368B84A934200F0148102F536
:102944008062934200F00F81FFF722FF00EB8000CA
:1029540000EB80006568AD00B0FBF5F5AF4FA7FB59
:1029640005356D092E01FFF713FF00EB800000EB26
:1029740080006568AD00B0FBF5F9FFF709FF00EBD7
:10298400800000EB80006568AD00B0FBF5F5A7FBA7
:1029940005356D094FF0640808FB15952D01323596
:1029A400A7FB05356D0905F0F0053544FFF7F0FE8A
:1029B40000EB800000EB80006668B600B0FBF6F622
:1029C400FFF7E6FE00EB800000EB800063689B00ED
:1029D400B0FBF3F0A7FB0030400908FB10684FEA96
:1029E400081808F13208A7FB0837C7F34317236810
:1029F4002F449F600DE12368874A93425BD002F520
:102A04008062934257D0FFF7C3FE00EB800000EBD7
:102A1400800065686D00B0FBF5F5804FA7FB0535B8
:102A24006D092E01FFF7B4FE00EB800000EB80007F
:102A340065686D00B0FBF5F9FFF7AAFE00EB8000B6
:102A440000EB800065686D00B0FBF5F5A7FB05356C
:102A54006D094FF0640808FB1595ED003235A7FBAE
:102A640005356D096D0005F4F8753544FFF790FEE2
:102A740000EB800000EB800066687600B0FBF6F6A1
:102A8400FFF786FE00EB800000EB800063685B00CC
:102A9400B0FBF3F3A7FB03235B0908FB13684FEABE
:102AA400C80808F13208A7FB0837C7F342172368A0
:102AB4002F449F60ADE0FFF781FE00EB800000EB48
:102AC400800065686D00B0FBF5F5544FA7FB053534
:102AD4006D092E01FFF772FE00EB800000EB800011
:102AE40065686D00B0FBF5F9FFF768FE00EB800048
:102AF40000EB800065686D00B0FBF5F5A7FB0535BC
:102B04006D094FF0640808FB1595ED003235A7FBFD
:102B140005356D096D0005F4F8753544FFF74EFE73
:102B240000EB800000EB800066687600B0FBF6F6F0
:102B3400FFF744FE00EB800000EB800063685B005D
:102B4400B0FBF3F3A7FB03235B0908FB13684FEA0D
:102B5400C80808F13208A7FB0837C7F342172368EF
:102B64002F449F6055E0FFF729FE00EB800000EB47
:102B740080006568AD00B0FBF5F5284FA7FB05356F
:102B84006D092E01FFF71AFE00EB800000EB8000B8
:102B94006568AD00B0FBF5F9FFF710FE00EB8000AF
:102BA40000EB80006568AD00B0FBF5F5A7FB0535CB
:102BB4006D094FF0640808FB15952D013235A7FB0C
:102BC40005356D0905F0F0053544FFF7F7FD00EB19
:102BD400800000EB80006668B600B0FBF6F6FFF7F5
:102BE400EDFD00EB800000EB800063689B00B0FB10
:102BF400F3F0A7FB0030400908FB10684FEA0818FF
:102C040008F13208A7FB0837C7F3431723682F449A
:102C14009F60BDE8F88300BF001001401F85EB51A1
:102C24002DE9F04105460F4616469846069C2B684A
:102C34001B6837EA03030CBF01230023B3421DD1F1
:102C4400B4F1FF3FF3D02CB1FDF77CFCA0EB0800FE
:102C5400A042ECD92A68D36823F4D073D3602A68DD
:102C6400536923F001035361202385F8393085F833
:102C74003A30002385F83830032000E00020BDE816
:102C8400F08158B310B5044690F839300BB32423BF
:102C940084F839302268D36823F40053D360204683
:102CA400FFF724FE2268136923F49043136122681A
:102CB400536923F02A0353612268D36843F4005311
:102CC400D3600020E063202384F8393084F83A305C
:102CD40010BD80F8383002F001FCD8E701207047BD
:102CE4002DE9F04182B01E4690F83930DBB2202B3A
:102CF40055D104460D469046002955D0002A55D09A
:102D040090F83830012B53D0012380F83830002359
:102D1400C363212380F83930FDF714FC0746A4F877
:102D24002480A4F8268010E000963B4600228021EF
:102D34002046FFF775FF00283CD12B882268C3F397
:102D4400080353602369C3B90235E38C9BB2B3B162
:102D5400E38C013B9BB2E384A368B3F5805FE3D0CB
:102D640000963B46002280212046FFF759FF18BBFE
:102D74002A7823685A600135E7E70135E5E70096CC
:102D84003B46002240212046FFF74AFF0346A8B9EC
:102D9400202284F83920002284F8382000E002231D
:102DA400184602B0BDE8F0810123F9E70123F7E7F3
:102DB4000223F5E70323F3E70323F1E70323EFE714
:102DC4002DE9F04182B01E4690F83A30DBB2202B58
:102DD4005AD104460D469046002959D0002A59D0AC
:102DE40090F83830012B57D0012380F83830002375
:102DF400C363222380F83A30FDF7A4FB0746A4F806
:102E04002C80A4F82E801DE000963B460022202151
:102E14002046FFF705FF002840D1236933B9236812
:102E24005B68C3F3080325F8023B0BE023685B6887
:102E3400DBB225F8013B05E023685B6803F07F0300
:102E44002B700135E38D9BB2BBB1E38D013B9BB28B
:102E5400E385A368B3F5805FD6D000963B46002295
:102E640020212046FFF7DCFED0B92369002BE3D1F3
:102E740023685B682B700135E4E7202384F83A303B
:102E8400002084F8380000E0022002B0BDE8F081A0
:102E94000120FAE70120F8E70220F6E70320F4E72F
:102EA4000320F2E7704708B50168CB6823F04003BC
:102EB400CB60202380F83930FFF7F4FF002008BDF1
:102EC400704708B590F83A30DBB2222B40D18368C2
:102ED400B3F5805F0ED0036903BB03685A68836A45
:102EE400591C81621A70C38D013B9BB2C385F3B137
:102EF40000202EE0826A036943B903685B68C3F368
:102F040008031380836A02338362ECE703685B6817
:102F1400DBB21380836A01338362E4E703685B688E
:102F2400826A511C816203F07F031370DBE702683D
:102F3400D36823F49073D3600268536923F00103C8
:102F44005361202380F83A30FFF7BAFF002000E0F5
:102F5400022008BD7047000010B5044602681368DB
:102F6400D168526913F00F0005D113F0200F02D07D
:102F740011F0200F53D1002867D012F0010202D1C2
:102F840011F4907F61D013F0010F06D011F4807F0B
:102F940003D0E06B40F00100E06313F0040F04D0B1
:102FA4001AB1E06B40F00200E06313F0020F04D0AA
:102FB4001AB1E06B40F00400E06313F0080F04D092
:102FC4001AB1E26B42F00802E263E26B002A48D0D5
:102FD40013F0200F02D011F0200F24D123685B6975
:102FE40003F04003E26B12F0080F00D13BB320461C
:102FF400FFF73AFC23685A6912F0400F1BD05A6954
:1030040022F040025A61636B8BB11A4A1A65606BF5
:10301400FDF718FB28B3606B036D984721E0204649
:10302400FFF74FFF1DE02046FFF74BFFD6E7204692
:10303400FFF790FF15E02046FFF78CFF11E02046D4
:10304400FFF788FF0023E3630BE013F0800F02D047
:1030540011F0800F06D113F0400F02D011F0400F91
:1030640004D110BD2046FFF70DFCFAE72046FFF718
:103074001AFFF6E77D30000808B5806B0023C3858E
:10308400C384FFF767FF08BD074B984207D803883E
:103094009BB24FF6FF72934203D10430F4E7012050
:1030A40070470020704700BF0F270108114B1B8891
:1030B4009BB2114A128892B288B1012813D13AB94D
:1030C4004EF6EE618B4201D001230DE013460BE076
:1030D40063B94EF6EE618A4206D1012304E01BB1C6
:1030E40032B9012300E0002318467047AB23FBE705
:1030F400AB23F9E7000001080000020810B586B010
:1031040000230593009304230293012303930223D2
:1031140004931148FFF7B8FF28B905A96846FDF7DD
:103124006DFE044638B9002200230B490120FDF747
:10313400B3FD044610B1204606B010BD052302932A
:103144000648FFF7A1FF0028F5D105A96846FDF759
:1031540055FE0446EFE700BF000001080000020826
:1031640038B504460D460020FFF7A0FFAB2817D062
:1031740042F2107303FB00F100FB0330094B0344DC
:10318400094A0A449A420AD21A8892B2A24201D047
:10319400043BF5E733F8023C2B80002000E00120DB
:1031A40038BD00BFFEFF00080200010870B50546E7
:1031B4000E460120FFF77AFFAB2825D042F21073A8
:1031C40003FB00F404F1006404F5803400FB0333D2
:1031D4000E4A1A44944216D22368B3F1FF3F01D039
:1031E4000434F7E7B2B2002321460120FDF754FD71
:1031F40008B180B208E0AAB20023A11C0120FDF7A7
:103204004BFD80B200E0802070BD00BFFFFF0008CE
:1032140070B586B000220592914B1B6891490968EC
:1032240000920422029201220392022204924EF698
:10323400EE62934240D04FF6FF7293420BD0002BC4
:1032440000F0A180FFF75AFF002800F0078184B244
:10325400204606B070BD51B14EF6EE63994215D0CA
:10326400FFF74CFF002800F0F18084B2F0E77C48BF
:10327400FFF70AFF044608B10024E9E705A96846F8
:10328400FDF7BCFD0028E3D084B2E1E77448FFF702
:10329400FBFE20B905A96846FDF7B0FD50B9002230
:1032A400002370490120FDF7F7FC002800F0CC80D2
:1032B40084B2CDE784B2CBE759B34FF6FF7399429A
:1032C4004AD0FFF71BFF002800F0C48084B2BFE798
:1032D4002EB20CE00135ADB2022D1ED8624B1B8814
:1032E4009BB22C46614A32F815008342F0D0B442B6
:1032F400F0D05F49FFF734FF0128EBD05C4B19880D
:103304005A4B33F81400FFF751FF04460028E1D06C
:103314009EE74FF0FF360025DEE7002200235049E8
:103324000120FDF7B9FC08B184B291E705230293AB
:1033340001230393022304934A48FFF7A5FE04469E
:1033440008B1002484E705A96846FDF757FD002865
:103354003FF47EAF84B27BE7052302934148FFF735
:1033640093FE20B905A96846FDF748FD48B9002237
:1033740000233B490120FDF78FFC002868D084B26C
:1033840066E784B264E739B14FF6FF73994209D016
:103394004FF0FF3600251BE0FFF7B0FE00285BD09E
:1033A40084B255E7052302932E48FFF76DFE0446C9
:1033B40008B100244CE705A96846FDF71FFD002865
:1033C4003FF446AF84B243E72EB20CE00135ADB210
:1033D400022D1AD8274B1B889BB22C46234A32F85D
:1033E40015008342F0D0B442F0D02149FFF7B8FE73
:1033F4000128EBD01E4B19881C4B33F81400FFF73F
:10340400D5FE04460028E1D022E700220023154916
:103414000120FDF741FC08B184B219E704230293AB
:1034240001230393022304930D48FFF72DFE044662
:1034340008B100240CE705A96846FDF7DFFC002865
:103444003FF406AF84B203E7002401E70024FFE65B
:103454000024FDE60024FBE60024F9E60024F7E658
:103464000000010800000208060001080000002016
:1034740090000020060002082DE9F04186B00646BF
:103484000D4600200590FFF711FE012811D00028F9
:103494004DD14FF00408274F4EF6EE620023394613
:1034A4000120FDF7F9FB40B184B2204606B0BDE827
:1034B400F0814FF00508204FEEE729463046FFF72C
:1034C40075FE044610B1F0E70134A4B2022C14D8FE
:1034D4001A4B33F81400B042F6D01949FFF740FEF6
:1034E4000128F1D0164B1988144B33F81400FFF758
:1034F4005DFE0028E8D00446D7E700230093CDF80A
:103504000880012303930223049305A96846FDF769
:1035140075FC08B184B2C8E70022002339460120B3
:10352400FDF7BAFB08B984B2BFE784B2BDE7AB24A8
:10353400BBE700BF000002080000010800000020F3
:103544009000002038B504460D46FFF72FFE802872
:1035540000D038BD29462046FFF78EFFF9E7A0F1D9
:103564003003DBB2092B0BD9A0F16103DBB2052BCD
:1035740008D9A0F14103DBB2052B05D827387047E1
:103584002038704747387047002070472DE9F843CA
:1035940007460E4690461D46002400E00134AC4226
:1035A4000BD231194DF222039942F7D018F80420B6
:1035B40089B2384600F0F0FBF0E70024A14600E0B1
:1035C4000134AC421AD22E2002F034F931194DF2F2
:1035D40022039942F4D04FF6AD739942F0D089B2E8
:1035E400384600F01BFC18F804208242E8D001465B
:1035F400074802F007F94FF00109E1E7B9F1000FBC
:1036040002D04846BDE8F883024802F083F9F8E79F
:103614008C730008A473000870B50B784A788E7810
:1036240046EA0226CD7825B916F4004F07D02C4679
:103634000DE029460E4802F0E5F8022003E00D48AB
:1036440002F068F9012070BD0A5D154401345A1D69
:10365400A242F9D815F0FF0504D10A1D3146FFF73F
:1036640095FFF0E72946044802F0CCF80120EAE788
:10367400A8730008B4730008D873000830B5A9B063
:103684000546A0220B49684602F0A8F8002401234D
:10369400272C0BD828AB03EB840353F8A01C284633
:1036A400FFF7BAFF034608B90134F1E703F001005C
:1036B40029B030BDF46A00082DE9F04192B080468B
:1036C4000146274802F09EF800263746354620E09A
:1036D400002802DD074602251BE0042E01D8002540
:1036E40017E069464046FFF797FF054688B100F0AA
:1036F400010032E000282ADD00F00F0040EA071044
:10370400C7B2462E1ED812AB334403F8480C013618
:10371400012501210DF1470001F040FB0028F8D0FC
:103724009DF847401B2C17D02046FFF718FF012DAA
:10373400CED0022DDED0002DEBD13A2CE9D10026DB
:103744000125E6E7074802F0E5F8012005E0064810
:1037540002F0E0F80025DCE7012012B0BDE8F081BA
:10376400FC730008247400082C740008072800D98E
:10377400704700B583B0012303FA00F002AA02F8EF
:10378400010DE0210348006801F0B2FB03B05DF8CD
:1037940004FB00BFD800002038B5164802F0BAF880
:1037A400002514E06100144802F02CF801347F2C49
:1037B4000CD8610001F0FE01104B186801F092FB77
:1037C4000028EFD02E2002F035F8EFE70135072D61
:1037D4000BD829460A4802F015F8E8B2FFF7C6FFED
:1037E400642001F015FC0124E1E7064802F092F898
:1037F40038BD00BF3474000864740008D800002089
:103804004C740008887B0008F0B583B00646174660
:1038140002AC04F8041D124D012322460146286817
:1038240001F066FBDE238DF80430AD238DF80530FE
:10383400022322463146286801F072FB00280CBF9F
:103844000120002004D04BF6EF633B8003B0F0BDB1
:103854009DF804209DF8053043EA02233B80F5E7F8
:10386400D8000020F0B583B00546002702AC24F848
:10387400027D0146144801F0C5FF22463946284618
:10388400FFF7C2FF114E0346BDF806203946304605
:1038940001F0B8FF224601212846FFF7B5FF034691
:1038A400BDF806200121304601F0ACFF224602217A
:1038B4002846FFF7A9FF0346BDF80620022130463B
:1038C40001F0A0FF03B0F0BD6C7400089074000810
:1038D40070B584B00220FFF749FF642001F098FB23
:1038E40004AC202304F8013D284E0125009523460D
:1038F40040229021306801F005FB31238DF80F3010
:103904000095234640229021306801F0FBFA4423BD
:103914008DF80F300095234640229021306801F045
:10392400F1FA65238DF80F30306800952346402264
:10393400902101F0E7FA002515E0ECB25834E4B226
:10394400124B1868012300930DF10E0322469021B7
:1039540001F0F0FA9DF80E300090224629460C48FA
:1039640001F050FF0135032DE7D9012204AB03F820
:10397400012D0649086800924122902101F0C2FA03
:103984000146044801F03EFF04B070BDD800002099
:10399400EC7400082075000830B585B0002514E0EB
:1039A400ECB25034E4B20B4B1868012300930DF1D0
:1039B4000F032246902101F0BDFA9DF80F302A46EC
:1039C4002146054801F01EFF0135072DE8D905B051
:1039D40030BD00BFD80000203C750008F0B583B0AE
:1039E40005460C4617461E4602AA02F8041D01238A
:1039F40001462348006801F07BFA032C32D8DFE843
:103A040004F0022402027EB1022301AA29461C48C2
:103A1400006801F085FA9DF804209DF8053043EA1A
:103A24000223DB093B601DE08DF804403B685A101B
:103A34008DF80520DB018DF80630032301AA294601
:103A44000F48006801F054FA0CE06EB98DF8044098
:103A54003B688DF80530022301AA2946084800680E
:103A640001F046FA03B0F0BD012301AA2946044837
:103A7400006801F055FA9DF804303B60F2E700BF9E
:103A8400D400002070B584B00E461446130A8DF895
:103A94000C308DF80D200C4B1D680223009303ABF2
:103AA4000A460146284601F02DFA054610B9284673
:103AB40004B070BD002300930346224631460348F8
:103AC40001F0A0FEF3E700BFD40000207C750008DD
:103AD40070B584B006460D461446FFF7D3FF0A209E
:103AE40001F096FADE238DF80C30AD238DF80D30FD
:103AF400114B18680223009303AB2A46314601F0A8
:103B040019FA30B129460D4801F07CFE002004B0BA
:103B140070BD9DF80C609DF80D0040EA06260094E7
:103B2400334632462946064801F06CFEB44214BFBF
:103B340000200120EBE700BFD4000020D875000866
:103B4400A875000810B50E4801F0E4FE012404E055
:103B540061000C4801F056FE01347F2C0CD8610042
:103B640001F0FE01084B186801F0BCF90028EFD001
:103B74002E2001F05FFEEFE7044801F0CBFE10BDFC
:103B8400EC75000864740008D4000020887B0008E9
:103B940030B585B00D46094B1C680123009303AB77
:103BA400C2B25821204601F0C5F9034618B915B12F
:103BB4009DF80C202A60184605B030BDD4000020C2
:103BC40010B58EB0002406E00B21134801F0DAF89A
:103BD4000EB010BD01343F2CFAD803A92046FFF7DC
:103BE400D7FF0028F0D1039B009323460B4A2821DA
:103BF40004A801F097FE04A8FCF764FC014604A89D
:103C040001F0C0F804F00303032BE3D102210448BC
:103C140001F0B8F8DEE700BF047600081476000867
:103C2400747E000808B50123FFF7D8FE08BD10B55F
:103C340082B002AC44F8042D00232246FFF7CEFEE6
:103C440002B010BD70B59AB0064613AC1B4D0FCD33
:103C54000FC495E8030044F8040B21800DAC184D03
:103C64000FCD0FC495E8030084E8030000240EE0A0
:103C7400009533460DAA282103A801F053FE03A89A
:103C8400FCF720FC014603A801F07CF80134032C66
:103C940012DC0C4B1D5D19AA29463046FFF7C2FF02
:103CA4000028E5D1199B01930095334613AA2821D6
:103CB40003A801F037FEE2E71AB070BD2C760008C5
:103CC40044760008846E0008F0B58DB000263546B1
:103CD40029E0922C01D0962C07D102230BAA21466D
:103CE4002848006801F01CF90646002E41D12346FD
:103CF400254A282101A801F015FE01A8FCF7E2FBE2
:103D0400014601A801F03EF89DF82C301F4A2821F5
:103D140001A801F007FE01A8FCF7D4FB014601A8A5
:103D240001F030F80135032D2ADC194B2B441C79A2
:103D3400582C15D0CDD8502CD7D10CAE092306F869
:103D4400043D104F012332462146386801F0D0F873
:103D5400022332462146386801F0E2F80646C4E7F9
:103D640001230BAA21460748006801F0D9F806464A
:103D7400BBE72346074A282101A801F0D3FDBCE78D
:103D84000DB0F0BDD40000208C6E0008C06E000899
:103D9400846E0008A46E000870B586B006460C4612
:103DA40006AB03F8092D1A4A1068012200920A464C
:103DB400314601F0CDF800BB0A2001F029F906AB29
:103DC400552203F8012D124A10680122009222465E
:103DD400314601F0CBF8054628B99DF80F209DF82F
:103DE40017309A4210D09DF817309DF80F20009597
:103DF4002146084801F006FD06E005469DF80F201F
:103E04002146054801F0FEFC284606B070BD00BFFF
:103E1400D40000208C7600085C76000830B585B0AC
:103E24000C4604AB552203F8012D0A4A15680122F9
:103E340000920A460146284601F098F818B99DF800
:103E44000F0005B030BD2146034801F0DBFC002023
:103E5400F7E700BFD4000020C076000870B5A8B012
:103E6400064601461C4801F0CDFC90221B4904A8DB
:103E740001F0B4FC002409E028AB03EBC40353F8BD
:103E84008C2C2946164801F0BDFC0134112C21D894
:103E940028AB03EBC40353F8905C124B186802235D
:103EA400009303ABEAB2314601F044F80028E3D1B1
:103EB4009DF80C309DF80D2042EA032228AB03EB59
:103EC400C40353F88C3C009313462946064801F07A
:103ED40099FCDAE728B070BDE4760008C86E0008E3
:103EE40020770008D4000020FC76000830B585B0A7
:103EF4000C460D4B1D680223009303AB09220146B7
:103F0400284601F017F860B99DF80C109DF80D30A3
:103F140021EA0301013C214111F0010F02D00120EB
:103F240000E0002005B030BDD40000202DE9F04FA2
:103F340087B00290039115461F465B4801F062FC6E
:103F440017F0010A03D0012007B0BDE8F08F039AEF
:103F540040210298FFF7BCFD00283FD0534801F0F0
:103F640051FC5446B9464C4551D20C2001F050F84E
:103F740005EB04082B5D8DF81030661C05EB060B71
:103F8400AB5D8DF811304A4B18680223009304ABE3
:103F94004122029900F0B6FF28BB2E2001F04AFC12
:103FA4000C2001F035F8424B18680223009305AB4E
:103FB4004222029900F0BEFF07460C2001F028F8C7
:103FC400AFB99DF8142098F800309A420FD19DF8AB
:103FD4001520AB5D9A420AD10234C4E7354801F09A
:103FE40099FC0120B0E7344801F094FC0DE09DF801
:103FF400142098F800309DF815109BF800000190EB
:10400400009139462D4801F0FDFB01209CE74F4605
:104014002B4801F07FFC0C2000F0FAFF039A4021AA
:104024000298FFF755FD28B3264801F0EBFBBA458B
:1040340034D20A2000F0ECFF1D4B186802230093D1
:1040440005AB4222029900F075FF0146B8B99DF80C
:10405400142015F80A309A4211D19DF8152005EB69
:104064000A035B789A420AD12E2001F0E3FB0AF19D
:10407400020ADCE70F4801F04DFC012064E79DF8DB
:10408400142015F80A309DF8150055446C780194F5
:1040940000900A4801F0B6FB012055E70A4801F0F8
:1040A40039FC002050E700BF4477000880770008FF
:1040B400D40000206077000888770008987700080B
:1040C400D0770008DC770008A47300082DE9F04FCE
:1040D40089B006468A46039205934FF0000BBBF164
:1040E400040F00F28180FF2248F268013046FFF796
:1040F40053FE00238DF81C30059B8DF81D30424B78
:1041040018680223009307AB4D22314600F0FAFEF3
:104114008146049000286AD1322000F079FF0CE037
:10412400434622465146394801F06CFB012D36D0F6
:10413400B8F1FF0F38D109F10109B9F1090F33DCE6
:1041440000238DF81C308DF81DA02F4B18689DF8A6
:104154000C700223009307AB3A46314600F0D2FEBE
:104164000446002846D14FF4FA7000F051FF132C96
:10417400D6DC254B18680223009307AB3A46314638
:1041840000F0D8FE002838D19DF81C809DF81D5001
:10419400002DC5D0129800F03BFF0134E7E71C481E
:1041A40001F0B8FB04952AE0B8F1FF0F11D01948CB
:1041B40001F0B0FB48F268013046FFF72FFE0146DC
:1041C400FF280CD05A46144801F01CFB0BF1010BDC
:1041D40085E7124801F09EFB012304930FE051464A
:1041E4000F4801F00FFB0AE00123049307E00123C9
:1041F400049304E00123049301E00123049304984D
:1042040009B0BDE8F08F00BFD4000020EC770008AF
:1042140014780008387800085878000820780008D6
:1042240044780008F0B583B005460C4616461F4690
:104234002D4801F0E7FA0A23009301234E22214678
:104244002846FFF743FF18B10124204603B0F0BD10
:104254002146264801F0D6FA3223009305234F2243
:1042640021462846FFF732FF08B10124EDE7FF227B
:1042740048F268012846FFF78FFD0C2000F0C8FEC5
:1042840048F268012846FFF7C9FDFF2805D001461A
:10429400174801F0B7FA0124D7E70C2000F0B8FE64
:1042A40001224D212846FFF7EDFB08B10124CCE79C
:1042B4000A2000F0ADFEA10189B23B4632462846F1
:1042C400FFF734FE044608B10124BEE748F2680152
:1042D4002846FFF7A3FDFF28B7D00146054801F0A3
:1042E40091FA0124B1E700BF90780008A87800088B
:1042F400C0780008F878000830B5F3B0054640F2FD
:10430400C1120D4901A801F069FA0C4801F002FB41
:104314000024062C0AD8402301AA02EB8412214669
:104324002846FFF77FFF20B90134F2E7044801F083
:10433400F1FA73B030BD00BF586F00082C79000843
:104344004079000838B504460146164801F05AFA87
:1043540000220E212046FFF7BBFB93224FF40041BD
:104364002046FFF719FD2046FFF788F90546014668
:104374000D4801F047FA05B138BD4FF4004120461D
:10438400FFF74CFD932804D00146084801F03AFA9F
:10439400F2E7074801F0BEFA01220E212046FFF79A
:1043A40097FBE9E7607900087479000890790008C0
:1043B400B479000838B504460146184801F022FAD9
:1043C400174801F0A7FA00220E212046FFF780FBD0
:1043D40095224FF400412046FFF7DEFC2046FFF70C
:1043E4006BF9054601460F4801F00CFA05B138BDDA
:1043F4004FF400412046FFF711FD952804D00146F3
:10440400094801F0FFF9F2E7084801F083FA0122B4
:104414000E212046FFF75CFBE9E700BFC0790008E6
:10442400E0790008087A00081C7A0008B4790008CA
:10443400024A136801331360704700BF94000020E0
:1044440008B5124B5A6801325A601B8993B1B3F50F
:10445400A57F13D0B3F5257F14D00C490A89013206
:104464000B4B83FB02039B114FF47A7000FB132365
:104474000B8108BD002000F0E3FCEEE7012000F012
:10448400DFFCEAE7022000F0DBFCE6E79400002012
:10449400D34D621010B584B000238DF80F300DF1A8
:1044A4000E0200E00A460B4BA3FB0013DB081C467C
:1044B40003EB83035900431A511E30331370204613
:1044C400002CEFD10DF10E03591A104600F05AFCDE
:1044D40004B010BDCDCCCCCC38B50546002407E0E3
:1044E4000121074800F04EFC285DFFF7D3FF01349B
:1044F400092CF5D90221034800F044FC38BD00BF63
:10450400E8770008747E000808B501215020FFF701
:10451400EDFC00B908BDFFF7DBF9FBE710B582B08D
:104524004821214800F02EFC01210DF1070000F084
:1045340035FC0028F8D09DF80730C3F34013002B56
:104544000CBF012400241BD10421184800F01AFCDC
:104554009DF80730413B212B20D8DFE803F0161BE0
:104564001F1F1F1F1F1F1F1F1F1F1F1F1F1F1F1F57
:104574001F1F1F1F1F1F1F1F1F1F1F1F1F1F161B54
:1045840005210B4800F0FEFBE2E7204600F066FC44
:1045940002B010BD204600F0C3FDF9E71221054822
:1045A40000F0F0FBF4E700BF1C710008547B000826
:1045B4005C7B00086871000808B50620FFF7D6F890
:1045C4008420FFF74FF98020FFF74CF98220FFF792
:1045D40049F908BD08B59220FFF734FB9620FFF790
:1045E40031FB5020FFF73AFC08BD000038B5012527
:1045F400002406E0E9B25020FFF778FC0443E4B25B
:104604000135042DF6DD3CB95020FFF79BFE4FF435
:104614007A7000F0FDFC38BD014801F07BF9FAE73F
:10462400647B000800B583B002AB43F8040D01219C
:10463400184600F0A7FB019803B05DF804FB0000E6
:1046440010B5002409E0E0B200F09EFC02462146C9
:10465400034801F0D7F80134A4B2032CF3D910BDF8
:104664008C7B000830B589B0002405940694ADF81D
:104674001C40BF4D02AB05F1600207CA03C31A8098
:10468400204600F067FD0121204600F0C9FB01210E
:10469400084600F0C5FB0121022000F0C1FBFFF732
:1046A40033FFB44800F018FCB34800F08DFC32200E
:1046B40000F090FC152105F16C0000F063FB02E0B2
:1046C400AE4801F027F9AE4801F024F901210DF1BB
:1046D400070000F063FB0028F8D09DF80730303B5A
:1046E4003B2B00F2418101A252F823F0E14700087C
:1046F40013480008194800081F48000837480008F4
:104704003D48000843480008514800085D48000837
:10471400794800086D4900086D4900086D49000892
:104724006D4900086D490008C54600086D49000838
:104734006D4900086D4900086D4900086D4900087D
:104744006D4900086D4900086D4900086D4900086D
:104754006D4900086D4900086D4900086D4900085D
:104764006D4900086D4900086D4900086D4900084D
:104774006D4900086D4900086D4900086D4900083D
:104784006D4900086D4900086D4900086D4900082D
:104794006D4900086D4900086D4900086D4900081D
:1047A4006D4900086D4900086D4900086D4900080D
:1047B4008B4800089B480008AB480008B74800082D
:1047C400CB480008D7480008E5480008F14800082D
:1047D400174900081B4900083D490008694801F0D1
:1047E40099F803E09DF807301B2B0CD001210DF143
:1047F400070000F0D3FA0028F4D001210DF10700DE
:1048040000F0C0FAEEE7604801F084F85BE7FFF7D8
:1048140017FF58E7FFF758FA55E7FBF793FE0146F1
:104824005A4800F0EFFF5A4B19685A4800F0EAFF63
:1048340049E7FFF773FE46E700F0EEFB43E702A803
:10484400FFF74AFE544801F065F83CE7534801F08D
:1048540061F8FFF7B5F936E7C82203219220FFF784
:10486400E6F9022201219220FFF7E1F99220FFF7F5
:10487400E9F928E7C82203219620FFF7D8F9962002
:10488400FFF7E0F91FE7464801F044F8FFF75AF94B
:10489400FEF782FF17E7434801F03CF8FFF718F8EA
:1048A400FFF77AF80FE7404801F034F8FFF784FE89
:1048B40009E73E4801F02EF801224FF480613C489C
:1048C400FCF7D0FBFFE63B4801F024F8FFF782FE3B
:1048D400F9E6394801F01EF85020FFF70DFDF2E625
:1048E400364801F017F8FFF781FEECE6344801F092
:1048F40011F85020FFF75EFDE5E62146314800F04F
:1049040081FF4FF47A7000F083FB0134092CF4D951
:10491400D9E60024FAE700F055FA002407E008ABD2
:104924002344214613F8180C00F052FA0134092CE0
:10493400F5D900F071FAC6E60A2105A800F05AFA82
:1049440000240AE00121204800F01CFA08AB2344AB
:1049540013F80C0CFFF79EFD0134092CF2D9022147
:104964001A4800F00FFAAEE6194800F0D3FFAAE6A1
:104974001C7100083544000845440008CC7B00083D
:10498400A47B0008807D0008887B00089C7D0008CB
:1049940094000020B07D0008C87D0008D07D000888
:1049A400D87D0008E87D0008F47D0008007E00083A
:1049B40000100240187E0008287E0008347E00089B
:1049C4003C7E00088C790008E8770008747E0008B3
:1049D4004C7E0008704770477047000008B50A48CD
:1049E4000A4B03604FF4E133436000238360C360E8
:1049F40003610C2242618361C361FEF742F900B98D
:104A040008BDFFF7E7FFFBE71C0200200010014090
:104A140008B50A480A4B03604FF4E13343600023AE
:104A24008360C36003610C2242618361C361FEF74A
:104A340028F900B908BDFFF7CDFFFBE7B402002059
:104A4400004400402DE9F0478CB0002407940894FA
:104A540009940A940B940194694B1A6B42F0100266
:104A64001A631A6B02F010020192019A02941A6BF3
:104A740042F080021A631A6B02F080020292029AD8
:104A840003941A6B42F004021A631A6B02F00402D4
:104A94000392039A04941A6B42F001021A631A6B8C
:104AA40002F001020492049A05941A6B42F0020285
:104AB4001A631A6B02F002020592059A06941A6BA5
:104AC40042F008021A631B6B03F008030693069B6B
:104AD400DFF83C9122464FF627714846FCF7C2FAAC
:104AE400484F224607213846FCF7BCFADFF82481F8
:104AF400224640F606614046FCF7B4FA424E22468E
:104B04004FF480513046FCF7ADFA4FF60773079324
:104B14000125089509940A9407A94846FCF7B8F9B1
:104B2400202307934FF0110ACDF820A009940A948A
:104B340007A94846FCF7ACF94FF4C07307930894EF
:104B4400099407A93046FCF7A3F90795CDF820A0EE
:104B540009940A942A4629463046FCF783FA07A9A1
:104B64003046FCF795F9079508940994A9F58059FE
:104B740007A94846FCF78CF908230793089409947D
:104B840007A94846FCF784F9072307930895099475
:104B94000A9407A93846FCF77BF94FF4804307933E
:104BA4001A4B0893099407A93846FCF771F94FF496
:104BB400004307930894099407A93846FCF768F959
:104BC40040F606630793089509940A9407A940469A
:104BD400FCF75EF94FF2180307930894099407A9A8
:104BE4004046FCF755F94FF4805307930895099410
:104BF4000A9407A93046FCF74BF90CB0BDE8F087DE
:104C04000038024000040240000802400000111075
:104C140000100240000C024000B583B01248134B50
:104C2400036000234360012202828DF80030802259
:104C34008DF80120E1228DF802208DF803308DF8E3
:104C440004308DF80530C0F814D08361C3614FF48B
:104C540000030362FBF724FE10B903B05DF804FB04
:104C6400FFF7B8FEF9E700BFF4020020008002401D
:104C740008B50C480C4B03600C4B43600023836065
:104C8400C3604FF48042026143618361C361036284
:104C9400FCF70EFD18B9064B024A1A6008BDFFF76F
:104CA40099FEF8E7C801002000540040A0860100E6
:104CB400D800002008B50C480C4B03600C4B436033
:104CC40000238360C3604FF48042026143618361C7
:104CD400C3610362FCF7ECFC18B9064B024A1A6084
:104CE40008BDFFF777FEF8E7DC000020005C004019
:104CF400A0860100D400002008B50D480D4B0360C8
:104D04004FF48273436000238360C3600361436193
:104D14004FF480228261C3610362436283620A2387
:104D2400C362FDF761FD00B908BDFFF753FEFBE761
:104D34005C0200200030014008B50D480D4B0360B3
:104D44004FF48273436000238360C3600361436153
:104D54004FF480228261C3610362436283620A2347
:104D6400C362FDF741FD00B908BDFFF733FEFBE761
:104D7400300100200038004008B5FFF72FFEFFF790
:104D840047FE08BD08B54FF47A738AB2014602485B
:104D9400FDF7A6FF012008BD1C02002008B5084B42
:104DA4001B681B6813F0200F01D1002008BD0A46C0
:104DB4000146642392B20248FEF702F80120F5E7A7
:104DC4001C02002008B5FBF719FFFEF721FA08BD05
:104DD40010B50446054B188808442146FEF7B2FB7B
:104DE40022460146024800F00DFD10BD00000020DF
:104DF400607E000870B506460D46002406E0054BAB
:104E0400188831192044FEF7ABF90134A542F6D8CD
:104E140070BD00BF0000002008B5FBF701FF08BD0E
:104E2400022800D9704708B581F00102024B195CD1
:104E34000248FCF717F908BD70730008001002401F
:104E4400022800D9704708B5024B195C0248FCF7E8
:104E54000FF908BD707300080010024038B505460C
:104E6400064C02464FF400712046FCF7FBF82A4634
:104E74004FF480612046FCF7F5F838BD000C024081
:104E840008B50120FCF7F8F808BD0000012804D19A
:104E940008B5024B5B68984708BD704700000020C6
:104EA40010B586B00024039404940594012301935F
:104EB400074B029301A90748FBF7EAFF2246214664
:104EC4000620FBF769FB0620FBF79AFB06B010BD32
:104ED40000001110000C0240014B5860704700BFE5
:104EE4000000002008B502231A46FDF7D7F808BDD4
:104EF40010B582B04FF0FF3400949BB2FCF766FC0F
:104F040002B010BD10B584B04FF0FF340294BDF868
:104F14001840019400930123FCF78EFE04B010BDE9
:104F240010B582B04FF0FF3400949BB2FCF710FD33
:104F340002B010BD10B584B04FF0FF340294BDF838
:104F44001840019400930123FCF734FF04B010BD12
:104F540010B584B04FF0FF340294BDF818400194AA
:104F640000930223FCF768FE04B010BD10B584B0B2
:104F74004FF0FF340294BDF81840019400930223CB
:104F8400FCF718FF04B010BD00B583B001AA0146B8
:104F94000548FBF70FFC0146044800F033FC019878
:104FA40003B05DF804FB00BFF4020020787E000823
:104FB40008B5FBF7BFFA034B9B6813B1014B9B6821
:104FC400984708BD00000020014B9860704700BF5F
:104FD400000000200A4B1B680A4AA2FB03239B091A
:104FE400013BB3F1807F09D2074A5360074BF0219C
:104FF40083F8231000239360072313600020704775
:105004000C000020D34D621010E000E000ED00E041
:1050140008B5FBF79DFA08BD10B5074C0022012125
:105024002046FCF71FF83220FFF7F2FF0122114659
:105034002046FCF717F810BD0008024000B593B0F5
:105044000023089309930A930B9301930293039308
:1050540004930593012306930523079302230C93DA
:105064004FF480020D9214220E92C0220F921093DC
:105074000423119306A8FDF7D7F898B90F230193D9
:1050840002230293002303934FF4A05304934FF499
:1050940080530593032101A8FDF7C2FA28B913B080
:1050A4005DF804FBFFF796FCE8E7FFF793FCF6E7EF
:1050B40000B593B00023079308930B930D930193CA
:1050C4000293039304930593022306930122099206
:1050D40010220A920C930D220E92C3220F92109367
:1050E4000423119306A8FDF79FF898B90F230193A1
:1050F40002230293002303934FF4A05304934FF429
:1051040080530593032101A8FDF78AFA28B913B047
:105114005DF804FBFFF75EFCE8E7FFF75BFCF6E7EE
:1051240010B5044640B102464FF400610848FBF74D
:1051340099FFFFF783FF10BDFFF7BAFF3220FFF797
:1051440067FF22464FF400610148FBF78BFFF2E74B
:10515400000C024008B5FBF7D3F9FFF7A9FFFFF7EE
:1051640071FCFFF79DFE0120FFF7DAFFFFF754FD06
:10517400FFF77EFDFFF79EFDFFF7BEFDFFF7DCFDA9
:10518400FFF7FAFD014800F0C5FB08BD907E00085A
:1051940082B0002100910B4B5A6C42F480425A6455
:1051A4005A6C02F480420092009A01911A6C42F007
:1051B40080521A641B6C03F080530193019B02B06C
:1051C400704700BF00380240F0B58DB0002307934C
:1051D400089309930A930B930268334B9A4201D0C4
:1051E4000DB0F0BD00240194A3F590431A6B42F076
:1051F40000721A631A6B02F000720192019A02940F
:105204001A6B42F080621A631A6B02F08062029297
:10521400029A03941A6B42F000621A631A6B02F04A
:1052240000620392039A04941A6B42F004021A6314
:105234001A6B02F004020492049A05941A6B42F069
:1052440001021A631A6B02F001020592059A069490
:105254001A6B42F002021A631B6B03F002030693FB
:10526400069B322307930227089703260A960B25E9
:105274000B9507A90D48FBF70BFE862307930897A8
:1052840009940A960B9507A90948FBF701FE4FF408
:1052940060530793089709940A960B9507A9054844
:1052A400FBF7F6FD9CE700BF0080024000080240C7
:1052B40000000240000402402DE9F0438BB00023BB
:1052C400059306930793089309930368374A934217
:1052D40005D0374A934227D00BB0BDE8F0830025B0
:1052E4000095344C236B43F002032363236B03F0D8
:1052F40002030093009BC02305931223069301230A
:105304000793032308930423099305A92A48FBF769
:10531400BFFD0195236C43F400132364236C03F451
:1053240000130193019BD7E700250295214C236BC1
:1053340043F004032363236B03F004030293029BEF
:105344000395236B43F001032363236B03F00103F1
:105354000393039B4FF4007305934FF01209CDF8A8
:1053640018904FF00108CDF81C80032708970426F5
:10537400099605A91148FBF78BFD4FF4807305933B
:10538400CDF81890CDF81C800897099605A90C480B
:10539400FBF77EFD0495236C43F400032364236C24
:1053A40003F400030493049B96E700BF00540040F9
:1053B400005C004000380240000402400008024043
:1053C40000000240F0B58DB00023079308930993C1
:1053D4000A930B9303683B4A934204D03A4A93429C
:1053E40038D00DB0F0BD00240194384B5A6C42F40F
:1053F40080525A645A6C02F480520192019A0294C7
:105404001A6B42F001021A631A6B02F00102029253
:10541400029A03941A6B42F002021A631B6B03F0A4
:1054240002030393039B7023079302270897032621
:105434000A9605250B9507A92548FBF729FD202386
:105444000793089709940A960B9507A92148FBF737
:105454001FFDC6E7002404941C4B1A6C42F48042DE
:105464001A641A6C02F480420492049A05941A6B2A
:1054740042F004021A631A6B02F004020592059AC0
:1054840006941A6B42F002021A631B6B03F00203C8
:105494000693069B0C2307930227089703260A9674
:1054A40005250B9507A90C48FBF7F2FC4FF4C063E4
:1054B4000793089709940A960B9507A90548FBF7E3
:1054C400E7FC8EE70030014000380040003802401D
:1054D40000000240000402400008024010B58CB0F5
:1054E40000230793089309930A930B9303684A4A8A
:1054F400934207D0494A934232D0494A93425CD0FE
:105504000CB010BD00240194464B5A6C42F01002BA
:105514005A645A6C02F010020192019A02941A6BB6
:1055240042F001021A631B6B03F001030293029B16
:105534004FF4C063079302230893012309930323C1
:105544000A9307230B9307A93748FBF7A1FC2246CC
:1055540021462520FBF720F82520FBF751F8CFE75B
:10556400002403942F4B1A6C42F400321A641A6C10
:1055740002F400320392039A04941A6B42F0080274
:105584001A631B6B03F008030493049B60230793C3
:10559400022308930123099303230A9307230B93FC
:1055A40007A92248FBF774FC224621462620FAF775
:1055B400F3FF2620FBF724F8A2E700240594194BF7
:1055C4001A6C42F480221A641A6C02F48022059246
:1055D400059A06941A6B42F004021A631B6B03F0DB
:1055E40004030693069B4FF4406307930223089336
:1055F4000123099303230A9307230B9307A90C4858
:10560400FBF746FC224621462720FAF7C5FF272050
:10561400FAF7F6FF74E700BF0010014000440040B1
:10562400004800400038024000000240000C0240E4
:10563400000802407047FEE7FEE7FEE7FEE770471A
:105644007047704708B50248FDF786FC08BD00BFE7
:105654001C02002008B50248FDF77EFC08BD00BF0F
:10566400B402002008B50248FDF776FC08BD00BF6F
:105674008801002070B50D461646002404E0AFF3FF
:105684000080287001340135B442F8DB304670BD27
:1056940070B51646002405E04D1C0878FEF7C2FFDD
:1056A40001342946B442F7DB304670BD03460B4A49
:1056B400126842B1094A106803446A46934206D804
:1056C400064A13607047054A05491160F2E7054B25
:1056D4000C221A604FF0FF30704700BFA00000207A
:1056E400400300203C0300204FF0FF3070474FF48C
:1056F40000534B6000207047012070470020704722
:105704000C4B1A6842F001021A60002199601A6871
:1057140022F0847222F480321A60074A5A601A68AE
:1057240022F480221A60D960044B4FF000629A6020
:10573400704700BF003802401030002400ED00E044
:10574400DFF834D0002103E00C4B5B5843500431A4
:105754000B480C4B42189A42F6D30B4A02E0002342
:1057640042F8043B094B9A42F9D3FFF7C9FF00F012
:1057740011F8FEF777FF704700000220507F000801
:10578400000000207400002074000020400300206A
:10579400FEE7000070B500250C4E0D4CA41BA410B0
:1057A400A54209D101F098F900250A4E0A4CA41B20
:1057B400A410A54205D170BD56F82530984701358F
:1057C400EEE756F8253098470135F2E7487F0008A0
:1057D400487F0008487F00084C7F000810B5431E2E
:1057E4000A44914200D110BD11F8014B03F8014F56
:1057F400F7E703460244934200D1704703F8011BC4
:10580400F9E700000FB40A4B13B51C6824B1A3696F
:1058140013B9204600F06AFA05AB049AA168204641
:10582400019300F071FD02B0BDE8104004B0704770
:105834001000002038B5084B05461C6824B1A36944
:1058440013B9204600F052FAA26829462046BDE862
:10585400384000F0F7BF00BF1000002070B50E46BE
:10586400054618B183690BB900F040FAAB69AC681E
:1058740013B9284600F03AFA234B9C4217D16C68BE
:10588400A3891B071DD52369DBB1013EA36816F864
:10589400011F013BA360E9B9002B2EDA22460A213D
:1058A400284600F073F8013011D00A2011E0174B9C
:1058B4009C4201D1AC68E3E7154B9C4208BFEC68FD
:1058C400DEE72146284600F0B3F80028DDD04FF08B
:1058D400FF3070BD002B04DAA2699A4206DC0A2963
:1058E40004D023685A1C22601970CFE72246284648
:1058F40000F04CF80130C9D1E9E70A2023685A1CAA
:1059040022601870E5E700BFCC7E0008EC7E00083A
:10591400AC7E0008024B01461868FFF79FBF00BF2A
:10592400100000200CB430B5174B0C1E9DB01D6840
:1059340008DA8B234FF0FF302B601DB0BDE83040F8
:1059440002B070474FF40273ADF814300CBF234615
:1059540004F1FF33049307934FF6FF73029006900C
:10596400ADF81630209A21AB02A92846019300F025
:10597400ABFB431CBCBF8B232B60002CDDD000226F
:10598400029B1A70D9E700BF10000020F8B50E463C
:105994001446054618B183690BB900F0A7F9214BE9
:1059A4009C422AD16C68A369A360A3891A072ED5E7
:1059B400236963B323692068F6B2C01A6369374662
:1059C400834204DC2146284600F026F928BBA3685C
:1059D4000130013BA36023685A1C22601E70636976
:1059E400834204D0A389DB0719D50A2E17D1214697
:1059F400284600F011F990B10FE00B4B9C4201D105
:105A0400AC68D0E7094B9C4208BFEC68CBE7214661
:105A1400284600F00DF80028CCD04FF0FF37384668
:105A2400F8BD00BFCC7E0008EC7E0008AC7E000808
:105A3400324B70B51D6806460C4625B1AB6913B9E7
:105A4400284600F053F92E4B9C420FD16C68B4F9F0
:105A54000C309AB215072CD4D00611D40922326026
:105A640043F04003A3814FF0FF303EE0254B9C42BE
:105A740001D1AC68EBE7244B9C4208BFEC68E6E735
:105A8400510712D5616B41B104F14403994202D02C
:105A9400304600F019FA00236363A38923F024033A
:105AA400A3810023636023692360A38943F008036F
:105AB400A38123694BB9A38903F42073B3F5007F51
:105AC40003D02146304600F0BFF9A28912F0010349
