:020000040800F2
:100000000000022025470008BD450008BF45000844
:10001000C1450008C3450008C545000800000000B0
:10002000000000000000000000000000C7450008BC
:10003000C945000800000000CB450008CD45000878
:1000400075470008754700087547000875470008A0
:100050007547000875470008754700087547000890
:100060007547000875470008754700087547000880
:100070007547000875470008754700087547000870
:100080007547000875470008754700087547000860
:100090007547000875470008754700087547000850
:1000A0007547000875470008754700087547000840
:1000B0007547000875470008754700087547000830
:1000C0007547000875470008754700087547000820
:1000D00075470008294600083946000849460008C7
:1000E0007547000875470008754700087547000800
:1000F00075470008754700087547000875470008F0
:1001000075470008754700087547000875470008DF
:1001100075470008754700087547000875470008CF
:1001200075470008754700087547000875470008BF
:1001300075470008754700087547000875470008AF
:10014000754700087547000875470008754700089F
:10015000754700087547000875470008754700088F
:10016000754700087547000875470008754700087F
:100170007547000875470008754700080000000033
:0401800075470008B7
:1001840010B5054C237833B9044B13B10448AFF3CD
:1001940000800123237010BD6800002000000000CF
:1001A400BC5A000808B5034B1BB103490348AFF31D
:1001B400008008BD000000006C000020BC5A00084C
:1001C40053B94AB9002908BF00281CBF4FF0FF31BA
:1001D4004FF0FF3000F074B9ADF1080C6DE904CEB6
:1001E40000F006F8DDF804E0DDE9022304B070470E
:1001F4002DE9F0478C460446089E002B4BD18A42D9
:10020400154667D9B2FA82F24AB1C2F1200701FA5F
:1002140002F320FA07F7954047EA030C94404FEAAB
:10022400154EBCFBFEF71FFA85F80EFB17C307FB40
:1002340008F9210C41EA0343994509D9EB1807F160
:10024400FF3180F01C81994540F21981023F2B4413
:10025400A3EB0903B3FBFEF00EFB103300FB08F124
:10026400A4B244EA0344A14209D92C1900F1FF3392
:1002740080F00781A14240F2048102382C4440EA14
:1002840007400027641A1EB10023D440C6E9004386
:100294003946BDE8F0878B4209D9002E00F0EC8086
:1002A4000027C6E9000138463946BDE8F087B3FAAD
:1002B40083F7002F48D18B4202D3824200F2FB80A5
:1002C400841A61EB030301209C46002EE0D0C6E9AA
:1002D400004CDDE702B9FFDEB2FA82F2002A40F0F8
:1002E4008F800127491B4FEA15481FFA85F9B1FB96
:1002F400F8FE08FB1E1109FB0EF04FEA144C4CEA01
:100304000143984207D9EB180EF1FF3102D298420B
:1003140000F2CD808E461B1AB3FBF8F008FB1033B5
:1003240009FB00F9A4B244EA0344A14507D92C19F6
:1003340000F1FF3302D2A14500F2B6801846A4EBC7
:10034400090440EA0E409EE7C7F12005BB4022FAAB
:1003540005FC4CEA030C21FA05F44FEA1C4EB4FBED
:10036400FEF91FFA8CF80EFB194420FA05F3B94084
:1003740009FB08FA19430B0C43EA0444A24502FAA8
:1003840007F200FA07F30BD91CEB040409F1FF3060
:1003940080F08880A24540F28580A9F10209644476
:1003A400A4EB0A04B4FBFEF00EFB104400FB08FAB5
:1003B40089B241EA0444A24508D91CEB040400F1C3
:1003C400FF316BD2A24569D90238644440EA09403E
:1003D400A0FB0289A4EB0A044C454146CE4654D303
:1003E40051D0002E69D05A1A64EB0E0404FA05F5B4
:1003F40022FA07F3FC401D43C6E90054002747E7EF
:100404009540C2F1200321FA03F04FEA1548B0FBEE
:10041400F8F71FFA85F908FB170024FA03F3914053
:1004240007FB09FC0B43190C41EA00418C4504FA13
:1004340002F407D9691807F1FF3031D28C452FD95E
:10044400023F2944A1EB0C01B1FBF8F008FB101C9E
:1004540000FB09FE99B241EA0C418E4507D969189F
:1004640000F1FF3318D28E4516D902382944A1EB86
:100474000E0140EA07473AE73746304608E70F4699
:10048400E6E61846FBE64345ABD2B8EB020169EB5E
:100494000C0201389646A4E71846E8E7084695E7B3
:1004A4000746CFE781467BE702382C4447E7AEF1A5
:1004B400020E2B442FE7384607E73746E8E600BF2D
:1004C400704700BF034613F8012B002AFBD1181A0A
:1004D4000138704710B50446074B1868074BA3FB57
:1004E4000030800900F098F8002221464FF0FF30D8
:1004F40000F052F8002010BD00000020D34D62101F
:1005040008B50B4B1A6842F400721A601A6842F478
:1005140080621A601A6842F480721A60032000F044
:1005240029F80020FFF7D6FF03F0F4FD002008BDF2
:10053400003C0240024A136801331360704700BF55
:1005440098000020014B1868704700BF98000020F5
:1005540030B583B00190FFF7F5FF0546019CB4F177
:10056400FF3F00D00134FFF7EDFF401BA042FAD358
:1005740003B030BD074AD36823F4E0631B041B0CAB
:10058400000200F4E060184340F0BF6040F4003023
:10059400D060704700ED00E030B4174BDB68C3F364
:1005A4000223C3F10704042C28BF04241D1D062DB7
:1005B40018D9033B4FF0FF3505FA04F421EA04018E
:1005C400994005FA03F322EA0303194300280BDBDD
:1005D4000901C9B200F1604000F5614080F80013E0
:1005E40030BC70470023E5E700F00F000901C9B2F1
:1005F400024B1954F4E700BF00ED00E014ED00E0F5
:1006040000F01F02400901239340024A42F82030BF
:10061400704700BF00E100E00138B0F1807F0AD2EA
:10062400064B5860064AF02182F823100020986097
:1006340007221A6070470120704700BF10E000E0F5
:1006440000ED00E090F83530DBB2022B03D08023BC
:10065400436501207047052380F83530026813682C
:1006640023F00103136000207047000050791379D0
:1006740043EA002307480B50D07893781B0443EADD
:100684000063507843EA002312781343024A8B50E4
:10069400704700BF408002404480024070B59EB065
:1006A400044629B14FF40063C3604FF48043836070
:1006B400E369002B6AD14FF48063079321680B68C8
:1006C400394A1A40A368E06803430798034343F494
:1006D400007313430B6023681D680120FFF738FF84
:1006E40023681D60236840225A6023685D680120E6
:1006F400FFF72EFF23685D60236800259D60236853
:10070400DD602268936923F0BE031B041B0C43F0D5
:100714008003936123689E690120FFF719FF236812
:100724009E612368DD612368DD690120FFF710FF06
:100734002368DD61226841F2180551591B4B0B40B7
:1007440043F0087343F00403535123685E590120B6
:10075400FFF7FEFE23685E51236803F58053144AB5
:100764001A60236803F580531D680120FFF7F0FE2B
:10077400236803F580531D60A369012B09D06269C6
:1007840000212046FFF772FF1EB070BD00230793BF
:1007940094E7216841F21C028B5843F4803343F000
:1007A40040038B50EBE700BF0F8120FF233FDEF8AF
:1007B4008020C102F8B590F84430DBB2822B33D0EC
:1007C40016460546822380F844300268136903F014
:1007D4001C03048AE402A4B223438C0104F4F864E5
:1007E4001C4344F001041461FFF7ACFE074614F007
:1007F400010F10D0FFF7A6FEC01BB0F5803F02D258
:100804002B681C69F3E7012385F84430002385F83D
:100814004530032007E02B685B699BB233600123FA
:1008240085F844300020F8BD0220FCE790F84430FD
:10083400DBB2422B32D070B50546422380F84430F7
:100844000068036903F01C032C8AE402A4B2234366
:100854008C0104F4F8641C4344F0030492B2426132
:100864002B681C61FFF76EFE064614F0010F10D0D2
:10087400FFF768FE801BB0F5803F02D22B681C692D
:10088400F3E7012385F84430002385F8453003203D
:1008940003E0012385F84430002070BD0220704736
:1008A40070B582B000230193002800F0068104464D
:1008B40090F84430002B34D000230093804B5A6CC2
:1008C40042F480425A645B6C03F480430093009BBF
:1008D4007C4B5A6822F400025A605A68216A0A431F
:1008E4005A60236803F580531A6842F001021A60C3
:1008F400FFF728FE0546236803F58052126812F0BC
:10090400010F13D0FFF71EFE401BB0F5FA7FF2D99A
:10091400032584F84450002384F84530284602B067
:1009240070BD80F8453003F011FCC5E71D6925F062
:100934001C0501F041FD644B0344644A934255D8BD
:1009440045F0080523681D614FF40042002120464C
:10095400FFF76CFF0546002858D1FF20FFF7F8FD8C
:100964006368002B00F08980FFF7ECFD064601AABE
:1009740001212046FFF71EFFFFF7E4FD801B41F233
:10098400883398424AD8019B13F0040FEFD04FF4F8
:10099400805200212046FFF749FF00284AD1FFF783
:1009A400D1FD064601AA01212046FFF703FFFFF708
:1009B400C9FD801B41F28833984243D8019B13F050
:1009C400200FEFD001AA1F212046FFF7F3FE0028D5
:1009D40044D1019B13F0100F48D04FF40062E26041
:1009E40013F0040F45D00023A36056E0384B0344B2
:1009F400384A934202D845F00C05A3E7364B03442A
:100A0400364A93429ED945F004059BE701212046CE
:100A1400FFF744FE012584F844507FE70121204676
:100A2400FFF73CFE012384F84430002384F845306A
:100A3400032573E701212046FFF730FE012584F8E2
:100A440044506BE701212046FFF728FE012384F878
:100A54004430002384F8453003255FE70121204614
:100A6400FFF71CFE012584F8445057E70022E2609A
:100A7400B6E74FF48043A3600FE0E268C2F3CF020D
:100A8400A368C3F34F031A4300212046FFF7CEFEA9
:100A940058B940F6FF70FFF75BFD00212046FFF7D1
:100AA400FDFD012384F8443038E701212046FFF797
:100AB400F5FD012584F8445030E701252EE700BFF9
:100AC400003802400038014000D3CEFEBFE1E4000C
:100AD40040F1E9FD3F787D0100796CFCFF59620229
:100AE40000230F2B00F2DD80F0B482B039E008223D
:100AF40000E00022B2403A4302346A4E46F8242011
:100B0400694A1468EA4302EA04064F6817F4803F0E
:100B140001D045EA0406644C2660646802EA0406CF
:100B24004F6817F4003F01D045EA04065E4C666046
:100B3400A46802EA04064F6817F4801F01D045EA4E
:100B44000406594CA660E46822404E6816F4001F5F
:100B540001D045EA0402544CE26001330F2B00F249
:100B64009D8001229A400C6804EA0205AA42F4D14D
:100B74004C68022C01D0122C10D1DE08083650F833
:100B840026C003F00704A7000F24BC402CEA040C81
:100B94000C69BC4044EA0C0440F8264004685F0039
:100BA4000326BE40F64306EA040C4C6804F0030432
:100BB400BC4044EA0C0404604C6804F1FF3CBCF102
:100BC400010F03D9112C01D0122C10D1846806EA2C
:100BD400040CCC68BC4044EA0C048460446824EAF5
:100BE40002024C68C4F300149C4014434460C2687D
:100BF40016408A68BA403243C2604A6812F0805F85
:100C0400ABD000220192294A546C44F480445464C9
:100C1400526C02F480420192019A9C08A61C214A5B
:100C240052F8267003F0030296000F22B24027EA1E
:100C340002071F4A90423FF45CAF02F58062904283
:100C44001ED002F5806290421CD002F58062904270
:100C54001AD002F58062904218D002F58062904268
:100C640016D002F58062904214D002F58062904260
:100C740012D002F5806290423FF439AF092239E77D
:100C8400012237E7022235E7032233E7042231E762
:100C940005222FE706222DE707222BE702B0F0BC3E
:100CA4007047704700380140003C01400038024062
:100CB4000000024012B909048161704781617047E4
:100CC400436959404161704703685A6912F4806F5F
:100CD4000DD06FF480625A6104230364002303631C
:100CE400202280F83D2080F83C300120704700200D
:100CF4007047F8B506460C4617461D461EE02DB152
:100D0400FFF720FC069BC01AA84217D900233363BF
:100D1400202286F83D2086F83E3086F83C300320B9
:100D24001AE033685B6924EA03039BB2B3FA83F3E2
:100D34005B099F420FD1B5F1FF3FE0D1C4F30743F4
:100D4400012BEED033689B6924EA03039BB2B3FA08
:100D540083F35B09EDE70020F8BDF8B504460D46C2
:100D640016461F4632E01A6842F400721A6023687D
:100D74006FF480625A6104232364002323632022D6
:100D840084F83D2084F83C3001202DE026B1FFF7A3
:100D9400D9FBC01BB04219D900232363202284F855
:100DA4003D2084F83C3003201EE023685B6925EA7B
:100DB40003039BB2003318BF0123A3B123685A690C
:100DC40012F4806FCFD1B6F1FF3FDFD1C5F30743F3
:100DD400012BEAD023689B6925EA03039BB2003305
:100DE40018BF0123E9E70020F8BD0000F0B583B087
:100DF40004460D4616461F46C36A042B0DD0012B2C
:100E04000BD013F5803F08D0036B122B0AD1026874
:100E1400136843F48073136004E02268136843F496
:100E2400807313600097334600224FF0011120466F
:100E3400FFF75FFF58BB2369B3F5804F10D12368D8
:100E440005F0FE051D613B46324615492046FFF775
:100E540084FF0346E0B1236C042B1ED1012317E069
:100E6400EB11226803F0060343F0F00313613B46E1
:100E740032460C492046FFF770FF20B1236C042B47
:100E840009D1012304E02368EDB21D61DBE70323EC
:100E9400184603B0F0BD0323FAE70323F8E700BFC5
:100EA40002000100080001002DE9F04184B004466D
:100EB4000D4616461F46C26A01680B6843F48063F8
:100EC4000B60042A0DD0012A0BD012F5803F08D004
:100ED400036B112B0AD10268136843F48073136007
:100EE40004E02268136843F4807313600097334668
:100EF40000224FF001112046FFF7FBFE002852D1DB
:100F04002369B3F5804F12D1236845F00105EDB292
:100F14001D613B4632462A492046FFF71EFF034621
:100F2400002841D0236C042B48D101233CE04FEA34
:100F3400E51808F00608236848F0F0021A613B46F9
:100F4400324620492046FFF708FF20B1236C042BCA
:100F54002ED1012328E02368EDB21D613B463246C1
:100F640017492046FFF7F9FE20B1236C042B21D149
:100F7400012319E0002203922368596903919969B6
:100F840003910399196841F48071196000973346FD
:100F94004FF001112046FFF7ACFE68B9226848F013
:100FA400F1031361B5E70323184604B0BDE8F081EB
:100FB4000323F9E70323F7E70323F5E70323F3E721
:100FC400020001000800010070B504460D461646F3
:100FD40023685B6913F0800F19D12046FFF774FE74
:100FE400B8B9B5F1FF3FF3D025B1FFF7ABFA801BD9
:100FF400A842EDD9236C43F0200323640023236328
:10100400202284F83D2084F83C30032000E00020B6
:1010140070BD0120FCE700002DE9F04184B00446D6
:101024000E46174698460B9D0268136843F4807376
:10103400136000950A9B00224FF00111FFF759FE3F
:10104400002847D1236806F0FE061E612B460A9A43
:1010540026492046FFF781FE20B1236C042B3ED1A4
:10106400012338E00023039323685A6903929B69A0
:101074000393039B2A460A992046FFF7A5FF0346DC
:1010840048B1236C042B2CD12268136843F40073F9
:10109400136001231FE0B8F1010F13D023683A0A4B
:1010A4001A612A460A992046FFF78EFF034668B163
:1010B400236C042B17D12268136843F40073136064
:1010C400012308E02268FFB2176104E02268FFB23E
:1010D400176100E00323184604B0BDE8F081032340
:1010E400F9E70323F7E70323F5E700BF0200010054
:1010F4002DE9F04184B004460E46174698460B9DF0
:101104000268136843F4806313600268136843F44D
:101114008073136000950A9B00224FF00111FFF7C2
:10112400E8FD002874D1F6B2236806F0FE021A61C5
:101134002B460A9A3F492046FFF70FFE20B1236C45
:10114400042B6AD1012364E00023039323685A69C2
:1011540003929B690393039B2A460A992046FFF74F
:1011640033FF48B1236C042B59D12268136843F42C
:101174000073136001234CE0B8F1010F12D123680E
:10118400FFB21F612A460A992046FFF71DFF00B3EC
:10119400236C042B47D12268136843F40073136053
:1011A400012336E023683A0A1A612A460A9920463E
:1011B400FFF70AFF48B1236C042B32D1226813686D
:1011C40043F400731360012323E02368FFB21F611B
:1011D400D8E72268136843F48073136000950A9B70
:1011E40000224FF001112046FFF783FDE8B9236880
:1011F40046F001061E612B460A9A0E492046FFF767
:10120400ACFD034628B1236C042B10D1012300E06C
:101214000323184604B0BDE8F0810323F9E7032350
:10122400F7E70323F5E70323F3E70323F1E70323B6
:10123400EFE700BF0200010070B504460D461646F4
:1012440023685B6913F0040F19D12046FFF73CFDB6
:10125400B8B9B5F1FF3FF3D025B1FFF773F9801B9F
:10126400A842EDD9236C43F02003236400232363B5
:10127400202284F83D2084F83C30032000E0002044
:1012840070BD0120FCE770B505460C4616462B6878
:101294005A6912F0400F22D15A6912F0100F11D17D
:1012A40024B1FFF74FF9801BA042F0D92B6C43F017
:1012B40020032B64202385F83D30002385F83C303F
:1012C400032070BD6FF010025A6100232B642B635E
:1012D400202285F83D2085F83C300120F1E70020EC
:1012E400EFE70000002800F0828010B5044690F873
:1012F4003D30002B41D0242384F83D30226813680C
:1013040023F00103136001F05DF83A4BA3FB0023C3
:101314009B0C226853606168374A914232D801338A
:10132400226813626368344A934235D85B00B0FB89
:10133400F3F0C0F30B03032B00D804202368D86117
:10134400E369216A22680B4313602369E168226818
:101354000B4393606369A16922680B43D3602268DD
:10136400136843F00103136000202064202384F8F1
:101374003D30206384F83E0010BD80F83C3002F01C
:101384005DFFB8E74FF4967202FB03F31B4AA2FB1E
:1013940003239B090133C3E7A16889B903EB430223
:1013A400B0FBF2F2C2F30B02B2FA82F25209E2B9D2
:1013B40091B903EB4303B0FBF3F040F40040BDE705
:1013C40003EB830202EB8202B0FBF2F2C2F30B02E4
:1013D400B2FA82F25209EAE703EB830303EB8303D5
:1013E400B0FBF3F040F44040A8E70120A6E7012059
:1013F400704700BF83DE1B43A0860100D34D6210FB
:101404002DE9F04184B004460E4690461F46FFF78E
:1014140099F894F83D30DBB2202B04D002263046F4
:1014240004B0BDE8F0810546009019230122544917
:101434002046FFF75EFC002840F0998094F83C3089
:10144400012B00F09680012384F83C3023681A684D
:1014540012F0010F03D11A6842F001021A602268E7
:10146400136823F400631360212384F83D301023B0
:1014740084F83E3000232364C4F824806785A3F5F0
:101484008033E362638D23852B460A9A31462046D6
:10149400FFF7ACFC064660B1236C042B04D1002397
:1014A40084F83C300126BAE7002384F83C30032654
:1014B400B5E70023039323685A6903929B69039356
:1014C400039B10E0236C042B55D12268136843F46A
:1014D400007313600126A2E72A460A992046FFF703
:1014E400ABFE00282BD1238D002B32D02A460A993B
:1014F4002046FFF769FD0028E4D1636A5A1C626242
:1015040022681B781361638D013B9BB26385238D35
:10151400013B9BB223852268516911F0040FDBD093
:10152400002BD9D0636A591C61621B781361638DE7
:10153400013B9BB26385238D013B2385CCE7236C60
:10154400042B1AD12268136843F400731360012634
:1015540065E72268136843F400731360202384F85A
:101564003D30002384F83E3084F83C3057E70226AF
:1015740055E7022653E7032651E703264FE700BF4A
:10158400020010002DE9F04186B004460E46904654
:101594001F46FEF7D7FF94F83D30DBB2202B04D072
:1015A4000226304606B0BDE8F081054600901923B6
:1015B40001228C492046FFF79CFB002840F04B8118
:1015C40094F83C30012B00F04881012384F83C302E
:1015D40023681A6812F0010F03D11A6842F001025D
:1015E4001A602268136823F400631360222384F8CA
:1015F4003D30102384F83E3000232364C4F8248053
:101604006785A3F58033E362638D23852B460C9AAB
:1016140031462046FFF748FC064660B1236C042B94
:1016240004D1002384F83C300126BAE7002384F86F
:101634003C300326B5E7238D5BB9029323685A69CE
:1016440002929A690292029A1A6842F400721A602B
:101654007AE0012B0FD0022B1FD02268136843F4C9
:10166400806313600023059323685A6905929B697C
:101674000593059B68E02268136823F48063136074
:101684000023039323685A6903929A690392039A85
:101694001A6842F400721A6056E02268136823F450
:1016A400806313602268136843F4006313600023AB
:1016B400049323685A6904929B690493049B43E04E
:1016C4002A460C992046FFF7DEFD68B923681A699B
:1016D400636A591C61621A70238D013B2385638DF3
:1016E400013B9BB263852FE0236C202B01D00126A4
:1016F40057E7032655E700950C9B00223A492046FC
:10170400FFF7F7FA002840F0AA802268136843F430
:101714000073136023681A69636A591C61621A7042
:10172400238D013B2385638D013B9BB26385236835
:101734001A69636A591C61621A70238D013B2385FF
:10174400638D013B9BB26385238D002B7AD0032BE1
:101754004CD8012BB4D0022BCDD000950C9B002289
:1017640021492046FFF7C5FA00287AD12268136878
:1017740023F48063136023681A69636A591C6162E5
:101784001A70238D013B2385638D013B9BB26385D6
:1017940000950C9B002214492046FFF7AAFA002862
:1017A40061D12268136843F40073136023681A69D3
:1017B400636A591C61621A70238D013B2385638D12
:1017C400013B9BB2638523681A69636A591C616291
:1017D4001A70238D013B2385638D013B9BB2638586
:1017E400B2E700BF02001000040001002A460C9971
:1017F4002046FFF748FDF0B923681A69636A591C4B
:1018040061621A70238D013B2385638D013B9BB27A
:10181400638523685A6912F0040F95D01A69636AC4
:10182400591C61621A70238D013B2385638D013B32
:101834009BB2638588E7236C202B01D00126B0E698
:101844000326AEE6202384F83D30002384F83E309E
:1018540084F83C30A5E60226A3E60226A1E6032688
:101864009FE603269DE603269BE600BF2DE9F04193
:1018740082B004460E4617469846FEF763FE94F877
:101884003D30DBB2202B04D00223184602B0BDE861
:10189400F081054600901923012251492046FFF7A3
:1018A40028FA002840F0938094F83C30012B00F093
:1018B4009080012384F83C3023681A6812F0010FE9
:1018C40003D11A6842F001021A602268136823F4F3
:1018D40000631360212384F83D30402384F83E30B4
:1018E40000232364089B6362BDF8243063853D4B69
:1018F400E362638D238501950A9B009343463A4630
:1019040031462046FFF788FBB0B1236C042B04D189
:10191400002384F83C300123B7E7002384F83C30EB
:101924000323B2E7236C042B55D12268136843F4D4
:10193400007313600123A8E7238D002B28D02A46C7
:101944000A992046FFF740FB0028EBD1636A5A1C32
:10195400626222681B781361238D013B9BB223854D
:10196400628D013A92B262852268516911F0040FC6
:10197400E2D0002BE0D0636A591C61621B781361CA
:10198400238D013B2385638D013B9BB26385D3E7A4
:101994002A460A992046FFF74FFC034648B1236CB8
:1019A400042B1AD12268136843F4007313600123D3
:1019B4006BE721680A6842F400720A60202284F806
:1019C4003D20002284F83E2084F83C205DE7022379
:1019D4005BE7022359E7032357E7032355E700BFD7
:1019E400020010000000FFFF2DE9F04186B004461C
:1019F4000E4617469846FEF7A5FD94F83D30DBB237
:101A0400202B04D00226304606B0BDE8F0810546FE
:101A14000090192301228B492046FFF76AF9002818
:101A240040F04B8194F83C30012B00F048810123B5
:101A340084F83C3023681A6812F0010F03D11A6845
:101A440042F001021A602268136823F400631360F1
:101A5400222384F83D30402384F83E30002323645D
:101A64000C9B6362BDF834306385774BE362638D0E
:101A7400238501950E9B009343463A463146204602
:101A8400FFF736FB064660B1236C042B04D1002318
:101A940084F83C300126B6E7002384F83C30032662
:101AA400B1E7238D5BB9029323685A6902929A695C
:101AB4000292029A1A6842F400721A6075E0012BCD
:101AC4000AD0022B1AD00023059323685A69059281
:101AD4009B690593059B68E02268136823F480637F
:101AE40013600023039323685A6903929A6903924B
:101AF400039A1A6842F400721A6056E02268136866
:101B040023F4806313602268136843F40063136052
:101B14000023049323685A6904929B690493049BE9
:101B240043E02A460E992046FFF7ADFB68B92368C7
:101B34001A69636A591C61621A70238D013B2385FB
:101B4400638D013B9BB263852FE0236C202B01D076
:101B5400012658E7032656E700950E9B00223B49D1
:101B64002046FFF7C6F8002840F0AB8022681368CF
:101B740043F40073136023681A69636A591C616231
:101B84001A70238D013B2385638D013B9BB26385D2
:101B940023681A69636A591C61621A70238D013BB8
:101BA4002385638D013B9BB26385238D002B7BD002
:101BB400032B4DD8012BB4D0022BCDD000950E9B16
:101BC400002222492046FFF794F800287BD122689E
:101BD400136823F48063136023681A69636A591CC9
:101BE40061621A70238D013B2385638D013B9BB297
:101BF400638500950E9B002214492046FFF779F86F
:101C0400002862D12268136843F4007313602368C8
:101C14001A69636A591C61621A70238D013B23851A
:101C2400638D013B9BB2638523681A69636A591CFF
:101C340061621A70238D013B2385638D013B9BB246
:101C44006385B2E7020010000000FFFF04000100FA
:101C54002A460E992046FFF716FBF0B923681A6945
:101C6400636A591C61621A70238D013B2385638D5D
:101C7400013B9BB2638523685A6912F0040F94D028
:101C84001A69636A591C61621A70238D013B2385AA
:101C9400638D013B9BB2638587E7236C202B01D0C6
:101CA4000126B0E60326AEE6202384F83D30002367
:101CB40084F83E3084F83C30A5E60226A3E60226EA
:101CC400A1E603269FE603269DE603269BE600BFC6
:101CD4002DE9F04385B00446884691461D46FEF73B
:101CE40031FC94F83D30DBB2202B04D0022318469B
:101CF40005B0BDE8F0830646009019230122564939
:101D04002046FEF7F6FF002840F09B8094F83C3014
:101D1400012B00F09880012384F83C3023681A6872
:101D240012F0010F03D11A6842F001021A6022680E
:101D3400136823F400631360242384F83D300023E4
:101D44002364A3F58033E362012735E0A02384F8FC
:101D54003D3022685369C3F340035269C2F38022C1
:101D640094F83D10C9B253B94AB9A02907D0002D3F
:101D7400ECD0FEF7E7FB801BA842EAD9E6E7202374
:101D840084F83D3023685A6912F0020F35D11A687D
:101D940042F400721A6023686FF480625A610096FC
:101DA400192301222C492046FEF7A3FF002850D115
:101DB4007B1C4F453DD21F462268136843F4807351
:101DC400136000962B4600224FF001112046FEF7C7
:101DD40090FF002839D1236808F0FE021A61FEF74B
:101DE400B1FB064622685369C3F340035269C2F348
:101DF400802294F83D10C9B2B5E71A6842F4007223
:101E04001A600023039323685A6903929B6903931E
:101E1400039B0096192301220F492046FEF769FF10
:101E24000346A0B9202284F83D20002284F83C20F7
:101E34005DE7202384F83D30002384F83C300123FF
:101E440055E7022353E7022351E703234FE7032314
:101E54004DE703234BE700BF02001000002800F009
:101E6400978130B583B00446036813F0010F2ED078
:101E7400A34B9B6803F00C03042B1FD0A04B9B685F
:101E840003F00C03082B14D022799E4B1A7063685C
:101E9400002B40D0FEF756FB0546994B1B6813F404
:101EA400003F14D1FEF74EFB401B6428F5D90320F4
:101EB40073E1934B5B6813F4800FE5D0904B1B6880
:101EC40013F4003F03D06368002B00F063812368A0
:101ED40013F0020F4BD08A4B9B6813F00C0F2ED0DB
:101EE400874B9B6803F00C03082B23D0E368002B7B
:101EF40064D0854B01221A60FEF724FB0546804B13
:101F04001B6813F0020F4AD1FEF71CFB401B02288A
:101F1400F5D9032041E1FEF715FB0546784B1B6814
:101F240013F4003FD3D0FEF70DFB401B6428F5D912
:101F3400032032E1724B5B6813F4800FD6D1704BEF
:101F44001B6813F0020F04D0E368012B01D00120B9
:101F540023E16B48036823F0F8032169F82292FA1D
:101F6400A2F2B2FA82F201FA02F213430360236886
:101F740013F0080F46D0636993B3644B01221A60CF
:101F8400FEF7E0FA05465E4B5B6F13F0020F39D1A2
:101F9400FEF7D8FA401B0228F5D90320FDE0584883
:101FA400036823F0F8032169F82292FAA2F2B2FA44
:101FB40082F201FA02F213430360D8E7524B002283
:101FC4001A60FEF7BFFA05464D4B1B6813F0020F6B
:101FD400CDD0FEF7B7FA401B0228F5D90320DCE088
:101FE4004A4B00221A60FEF7ADFA0546444B5B6F7C
:101FF40013F0020F06D0FEF7A5FA401B0228F5D90C
:102004000320CAE0236813F0040F1FD1A369002B37
:1020140000F0C2803A4A926802F00C02082A00F0EA
:10202400BE80022B59D03A4B00221A60FEF78AFA7E
:102034000446334B1B6813F0007F00F0A780FEF7C3
:1020440081FA001B6428F4D90320A6E0002301933D
:102054002B4B1A6C42F080521A641B6C03F08053B1
:102064000193019B2B4A136843F480731360FEF7BA
:1020740069FA0546274B1B6813F4807F06D1FEF7E7
:1020840061FA401B0228F5D9032086E0227A224B0C
:102094001A70A36883B1FEF755FA0546184B1B6FF7
:1020A40013F0020FB2D1FEF74DFA401B41F2883310
:1020B4009842F3D9032070E0FEF744FA0546104B2A
:1020C4001B6F13F0020FA1D0FEF73CFA401B41F244
:1020D40088339842F3D903205FE00D4B00221A6045
:1020E400FEF730FA0546064B1B6813F0007F15D047
:1020F400FEF728FA401B6428F5D903204DE000BF01
:10210400003802400238024000004742800E474235
:10211400600047420070004070380240E369226A60
:102124001343616A47F6C07292FAA2F2B2FA82F2DB
:1021340001FA02F21343A26A5208013A4FF4403101
:1021440091FAA1F1B1FA81F18A401343E16A4FF0A7
:10215400706292FAA2F2B2FA82F201FA02F2134324
:10216400104A5360104B01221A60FEF7EBF9044643
:102174000C4B1B6813F0007F06D1FEF7E3F9001B3C
:102184006428F5D9032008E0002006E0002004E0DC
:1021940001207047012000E0002003B030BD012081
:1021A400FBE700BF0038024060004742264B9B68B3
:1021B40003F00C03042B44D0082B01D023487047B0
:1021C4002DE9F04B204B5A6802F03F025B6813F490
:1021D400800F13D01C4B5968C1F3881100231C488D
:1021E400A1FB0001FDF7ECFF174B5B68C3F3014350
:1021F40001335B00B0FBF3F0BDE8F08B124B5B687E
:10220400C3F388131E4600275C010025E41A65EB1E
:102214000705A90141EA9461A001001B61EB0501D6
:10222400CB0043EA5073C400A01943EB07018B02AF
:1022340043EA90538402204619460023FDF7C0FF69
:10224400D2E70348704700BF003802400024F4007E
:1022540040787D01002800F0A28070B50446524BFE
:102264001B6803F00F038B4209D2CBB24E4A1370A2
:10227400136803F00F038B4201D0012070BD236863
:1022840013F0020F17D013F0040F04D0474A9368D9
:1022940043F4E0539360236813F0080F04D0434AD7
:1022A400936843F460439360404A936823F0F003D7
:1022B400A068034393600D46236813F0010F31D0E7
:1022C4006368012B20D0022B25D0384A126812F003
:1022D400020F66D035498A6822F0030213438B60EB
:1022E400FEF730F90646314B9B6803F00C03626835
:1022F400B3EB820F16D0FEF725F9801B41F2883329
:102304009842F0D90320B9E7284A126812F4003F32
:10231400E0D10120B2E7254A126812F0007FD9D13A
:102324000120ABE7204B1B6803F00F03AB4209D934
:10233400EAB21D4B1A701B6803F00F03AB4201D0C5
:1023440001209BE7236813F0040F06D0174A936813
:1023540023F4E053E1680B439360236813F0080F00
:1023640007D0124A936823F46043216943EAC10306
:102374009360FFF71BFF0D4B9B6803F0F003F02203
:1023840092FAA2F2B2FA82F2D340094AD35CD8405C
:10239400084B18600020FEF79DF800206EE701202E
:1023A400704701206AE700BF003C02400038024049
:1023B4002061000800000020014B1868704700BF2E
:1023C4000000002008B5FFF7F7FF074B9B6803F4F4
:1023D400E0534FF4E05292FAA2F2B2FA82F2D340FE
:1023E400024AD35CD84008BD00380240306100087E
:1023F40008B5FFF7E1FF074B9B6803F460434FF414
:10240400604292FAA2F2B2FA82F2D340024AD35C58
:10241400D84008BD003802403061000800283BD095
:1024240010B504460023836290F85130002B2ED05F
:10243400022384F851302268136823F040031360A8
:102444006368A2681343E268134322691343626911
:102454001343A26902F400721343E2691343226A2C
:102464001343A16A22680B431360638B03F00403D4
:10247400616A22680B4353602268D36923F40063C2
:10248400D36100206065012384F8513010BD80F8C9
:10249400503001F059FFCBE7012070470268D36840
:1024A40023F49073D3600268536923F001035361EA
:1024B400202380F83A30704790F83930DBB2212B72
:1024C4002AD18368B3F5805F16D0036A5A1C02626E
:1024D4001A7803685A60C38C013B9BB2C384EBB97E
:1024E4000268D36823F08003D3600268D36843F0A2
:1024F4004003D36000207047036A1B880268C3F35B
:102504000803536003691BB9036A02330362E2E7F9
:10251400036A01330362DEE702207047002070473C
:102524002DE9F843044601680A6922F44052C3685D
:1025340013430B610168CA6822F4164222F00C02AC
:1025440083680069034360690343E06903431343F9
:10255400CB6021684A6922F44072A36913434B613A
:10256400E369B3F5004F60D02368B84A934200F0A2
:10257400148102F58062934200F00F81FFF722FF7D
:1025840000EB800000EB80006568AD00B0FBF5F562
:10259400AF4FA7FB05356D092E01FFF713FF00EBC5
:1025A400800000EB80006568AD00B0FBF5F9FFF733
:1025B40009FF00EB800000EB80006568AD00B0FB14
:1025C400F5F5A7FB05356D094FF0640808FB159573
:1025D4002D013235A7FB05356D0905F0F0053544AD
:1025E400FFF7F0FE00EB800000EB80006668B600A9
:1025F400B0FBF6F6FFF7E6FE00EB800000EB800090
:1026040063689B00B0FBF3F0A7FB0030400908FBB4
:1026140010684FEA081808F13208A7FB0837C7F317
:10262400431723682F449F600DE12368874A934230
:102634005BD002F58062934257D0FFF7C3FE00EBF4
:10264400800000EB800065686D00B0FBF5F5804FFD
:10265400A7FB05356D092E01FFF7B4FE00EB8000E2
:1026640000EB800065686D00B0FBF5F9FFF7AAFE8A
:1026740000EB800000EB800065686D00B0FBF5F5B1
:10268400A7FB05356D094FF0640808FB1595ED00AF
:102694003235A7FB05356D096D0005F4F875354431
:1026A400FFF790FE00EB800000EB80006668760088
:1026B400B0FBF6F6FFF786FE00EB800000EB80002F
:1026C40063685B00B0FBF3F3A7FB03235B0908FB20
:1026D40013684FEAC80808F13208A7FB0837C7F3A4
:1026E400421723682F449F60ADE0FFF781FE00EBA3
:1026F400800000EB800065686D00B0FBF5F5544F79
:10270400A7FB05356D092E01FFF772FE00EB800073
:1027140000EB800065686D00B0FBF5F9FFF768FE1B
:1027240000EB800000EB800065686D00B0FBF5F500
:10273400A7FB05356D094FF0640808FB1595ED00FE
:102744003235A7FB05356D096D0005F4F875354480
:10275400FFF74EFE00EB800000EB80006668760019
:10276400B0FBF6F6FFF744FE00EB800000EB8000C0
:1027740063685B00B0FBF3F3A7FB03235B0908FB6F
:1027840013684FEAC80808F13208A7FB0837C7F3F3
:10279400421723682F449F6055E0FFF729FE00EBA2
:1027A400800000EB80006568AD00B0FBF5F5284FB4
:1027B400A7FB05356D092E01FFF71AFE00EB80001B
:1027C40000EB80006568AD00B0FBF5F9FFF710FE83
:1027D40000EB800000EB80006568AD00B0FBF5F510
:1027E400A7FB05356D094FF0640808FB15952D010D
:1027F4003235A7FB05356D0905F0F0053544FFF7C3
:10280400F7FD00EB800000EB80006668B600B0FBCB
:10281400F6F6FFF7EDFD00EB800000EB8000636847
:102824009B00B0FBF3F0A7FB0030400908FB1068E5
:102834004FEA081808F13208A7FB0837C7F3431713
:1028440023682F449F60BDE8F88300BF0010014057
:102854001F85EB512DE9F04105460F461646984673
:10286400069C2B681B6837EA03030CBF0123002373
:10287400B3421DD1B4F1FF3FF3D02CB1FDF762FE9A
:10288400A0EB0800A042ECD92A68D36823F4D073E3
:10289400D3602A68536923F001035361202385F828
:1028A400393085F83A30002385F83830032000E0C9
:1028B4000020BDE8F08158B310B5044690F83930D3
:1028C4000BB3242384F839302268D36823F40053EB
:1028D400D3602046FFF724FE2268136923F4904353
:1028E40013612268536923F02A0353612268D36871
:1028F40043F40053D3600020E063202384F839308C
:1029040084F83A3010BD80F8383001F0A9FDD8E7DA
:10291400012070472DE9F04182B01E4690F839300D
:10292400DBB2202B55D104460D469046002955D0E4
:10293400002A55D090F83830012B53D0012380F869
:1029440038300023C363212380F83930FDF7FAFDC2
:102954000746A4F82480A4F8268010E000963B469D
:10296400002280212046FFF775FF00283CD12B88E8
:102974002268C3F3080353602369C3B90235E38CA7
:102984009BB2B3B1E38C013B9BB2E384A368B3F580
:10299400805FE3D000963B46002280212046FFF76B
:1029A40059FF18BB2A7823685A600135E7E70135D7
:1029B400E5E700963B46002240212046FFF74AFF08
:1029C4000346A8B9202284F83920002284F838204C
:1029D40000E00223184602B0BDE8F0810123F9E7C4
:1029E4000123F7E70223F5E70323F3E70323F1E7E2
:1029F4000323EFE72DE9F04182B01E4690F83A3008
:102A0400DBB2202B5AD104460D469046002959D0FA
:102A1400002A59D090F83830012B57D0012380F880
:102A240038300023C363222380F83A30FDF78AFD4F
:102A34000746A4F82C80A4F82E801DE000963B469F
:102A4400002220212046FFF705FF002840D12369FA
:102A540033B923685B68C3F3080325F8023B0BE032
:102A640023685B68DBB225F8013B05E023685B68FB
:102A740003F07F032B700135E38D9BB2BBB1E38D73
:102A8400013B9BB2E385A368B3F5805FD6D0009683
:102A94003B46002220212046FFF7DCFED0B9236903
:102AA400002BE3D123685B682B700135E4E7202316
:102AB40084F83A30002084F8380000E0022002B0A4
:102AC400BDE8F0810120FAE70120F8E70220F6E7EB
:102AD4000320F4E70320F2E7704708B50168CB68E8
:102AE40023F04003CB60202380F83930FFF7F4FF54
:102AF400002008BD704708B590F83A30DBB2222BAD
:102B040040D18368B3F5805F0ED0036903BB0368CB
:102B14005A68836A591C81621A70C38D013B9BB247
:102B2400C385F3B100202EE0826A036943B90368C8
:102B34005B68C3F308031380836A02338362ECE7A0
:102B440003685B68DBB21380836A01338362E4E762
:102B540003685B68826A511C816203F07F0313700F
:102B6400DBE70268D36823F49073D3600268536987
:102B740023F001035361202380F83A30FFF7BAFFB2
:102B8400002000E0022008BD7047000010B5044694
:102B940002681368D168526913F00F0005D113F06D
:102BA400200F02D011F0200F53D1002867D012F06B
:102BB400010202D111F4907F61D013F0010F06D00D
:102BC40011F4807F03D0E06B40F00100E06313F068
:102BD400040F04D01AB1E06B40F00200E06313F07C
:102BE400020F04D01AB1E06B40F00400E06313F06C
:102BF400080F04D01AB1E26B42F00802E263E26B00
:102C0400002A48D013F0200F02D011F0200F24D155
:102C140023685B6903F04003E26B12F0080F00D1F4
:102C24003BB32046FFF73AFC23685A6912F0400F81
:102C34001BD05A6922F040025A61636B8BB11A4A65
:102C44001A65606BFDF7FEFC28B3606B036D984753
:102C540021E02046FFF74FFF1DE02046FFF74BFF22
:102C6400D6E72046FFF790FF15E02046FFF78CFFDC
:102C740011E02046FFF788FF0023E3630BE013F025
:102C8400800F02D011F0800F06D113F0400F02D054
:102C940011F0400F04D110BD2046FFF70DFCFAE7F8
:102CA4002046FFF71AFFF6E7B12C000808B5806B41
:102CB4000023C385C384FFF767FF08BD072800D935
:102CC400704700B583B0012303FA00F002AA02F8AA
:102CD400010DE0210348006801F08EF803B05DF8AF
:102CE40004FB00BFA800002030B583B0054614469D
:102CF4008DF804101146084801F074FD8DF8054064
:102D0400240A8DF80640032301AA294603480068D3
:102D140001F072F803B030BD38610008A80000204B
:102D2400F0B583B00646174602AC04F8041D124DF4
:102D3400012322460146286801F05EF8DE238DF85F
:102D44000430AD238DF8053002232246314628682D
:102D540001F06AF800280CBF0120002004D04BF6D3
:102D6400EF633B8003B0F0BD9DF804209DF805306F
:102D740043EA02233B80F5E7A8000020F0B583B0C6
:102D84000546002702AC24F8027D0146144801F0F0
:102D940029FD224639462846FFF7C2FF114E034655
:102DA400BDF806203946304601F01CFD22460121BB
:102DB4002846FFF7B5FF0346BDF80620012130463B
:102DC40001F010FD224602212846FFF7A9FF034621
:102DD400BDF806200221304601F004FD03B0F0BD29
:102DE400546100087861000808B50A4B0A221A6089
:102DF400094B4FF080421A6044F27C620521842022
:102E0400FFF772FF40F69F1200218420FFF76CFF4A
:102E140008BD00BF9C000020A400002008B5FFF7F7
:102E2400E3FF08BD70B584B004AC202304F8013D71
:102E3400184E01250095234640229021306800F069
:102E4400E5FF31238DF80F30009523464022902171
:102E5400306800F0DBFF44238DF80F3000952346E3
:102E640040229021306800F0D1FF65238DF80F30A7
:102E74000095234640229021306800F0C7FF8DF86A
:102E84000F503068009523464122902100F0BEFF88
:102E940004B070BDA800002030B585B0002414E053
:102EA40004F150050B4B1868012300930DF10F0337
:102EB400EAB2902100F0C2FF9DF80F302246294665
:102EC400054801F08FFC0134E4B2072CE8D905B0C1
:102ED40030BD00BFA8000020D4610008F0B583B065
:102EE40005460C4617461E4602AA02F8041D012395
:102EF40001462348006800F07FFF032C32D8DFE846
:102F040004F0022402027EB1022301AA29461C48CD
:102F1400006800F089FF9DF804209DF8053043EA1D
:102F24000223DB093B601DE08DF804403B685A1026
:102F34008DF80520DB018DF80630032301AA29460C
:102F44000F48006800F058FF0CE06EB98DF804409B
:102F54003B688DF80530022301AA29460848006819
:102F640000F04AFF03B0F0BD012301AA294604483A
:102F7400006800F059FF9DF804303B60F2E700BFA1
:102F8400A000002070B586B006460C4606AB03F8D8
:102F9400092D1A4A1068012200920A46314600F0AF
:102FA4005BFF00BB0A20FDF7D3FA06AB552203F8FA
:102FB400012D124A1068012200922246314600F087
:102FC40059FF054628B99DF80F209DF817309A42FD
:102FD40010D09DF817309DF80F2000952146084821
:102FE40001F000FC06E005469DF80F202146054847
:102FF40001F0F8FB284606B070BD00BFA000002019
:10300400446200081462000830B585B00C4604AB75
:10301400552203F8012D0A4A1568012200920A4636
:103024000146284600F026FF18B99DF80F0005B0A8
:1030340030BD2146034801F0D5FB0020F7E700BF6F
:10304400A00000207862000870B584B00E461446D3
:10305400130A8DF80C308DF80D200C4B1D680223DB
:10306400009303AB0A460146284600F0CFFE05460E
:1030740010B9284604B070BD0023009303462246CD
:103084003146034801F0AEFBF3E700BFA000002087
:103094009C62000870B584B006460D461446FFF7DE
:1030A400D3FF0A20FDF754FADE238DF80C30AD234C
:1030B4008DF80D30114B18680223009303AB2A4698
:1030C400314600F0BBFE30B129460D4801F08AFBC1
:1030D400002004B070BD9DF80C609DF80D0040EA1E
:1030E40006260094334632462946064801F07AFB08
:1030F400B44214BF00200120EBE700BFA000002071
:10310400F8620008C86200082DE9F8430C4691F8FB
:1031140000804B788E7846EA0326C97829B9074699
:1031240016F4004F06D00B460DE0264801F05AFB7A
:10313400012003E0244801F0DDFB0120BDE8F88311
:10314400E25C1144013308F105029A42F8D811F007
:10315400FF0101D104250AE01C4801F043FB0120D2
:10316400ECE7625D89B23846FFF70CFF013508F1E0
:103174000409A94506D9711904394DF2220399426B
:10318400EFD1F3E7042500E00135A94514D92E2039
:1031940001F040FB711904394DF222039942F3D036
:1031A40089B23846FFF730FF625D8242ECD00146B7
:1031B400074801F017FBE7E7064801F09BFB0020F6
:1031C400BCE700BF0C630008186300083C630008F8
:1031D400606300087863000870B5A8B00646A022B2
:1031E4000A49684601F0EAFA0024272C0BD828ABD8
:1031F40003EB840353F8A01C3046FFF785FF054614
:1032040008B90134F1E7284628B070BDD45A000843
:1032140030B585B00D460A4B1C680123009303ABFF
:10322400C2B25821204600F009FE01280CBF01203B
:10323400002002D09DF80C302B6005B030BD00BFDB
:10324400A000002010B58EB0002406E00B21134826
:1032540000F098FD0EB010BD01343F2CFAD803A93C
:103264002046FFF7D5FF0028F0D1039B00932346A7
:103274000B4A282104A801F045FB04A8FDF722F914
:10328400014604A800F07EFD04F00303032BE3D100
:103294000221044800F076FDDEE700BF7C630008ED
:1032A4008C630008A463000808B50123FFF716FE29
:1032B40008BD10B582B002AC44F8042D00232246A8
:1032C400FFF70CFE02B010BD70B59AB0064613AC01
:1032D4001C4D0FCD0FC495E8030044F8040B218066
:1032E4000DAC194D0FCD0FC495E8030084E803001D
:1032F40000240EE0009533460DAA282103A801F00E
:1033040001FB03A8FDF7DEF8014603A800F03AFD2F
:103314000134032C14DC0D4B234493F8A05019AA58
:1033240029463046FFF7C0FF0028E3D1199B0193DB
:103334000095334613AA282103A801F0E3FAE0E735
:103344001AB070BDA8630008C0630008D45A00080E
:103354002DE9F0418CB00026354629E0922C01D0AD
:10336400962C07D102230BAA21462C48006800F0B2
:103374005BFD0646002E46D12346294A282101A892
:1033840001F0C0FA01A8FDF79DF8014601A800F07C
:10339400F9FC9DF82C30234A282101A801F0B2FA47
:1033A40001A8FDF78FF8014601A800F0EBFC0135F8
:1033B400032D2FDC1C4B2B4493F8A440582C19D01C
:1033C400CCD8502CD6D10CAF092307F8043DDFF834
:1033D4004C8001233A462146D8F8000000F00CFD49
:1033E400064602233A462146D8F8000000F01CFDA8
:1033F4000644BFE701230BAA21460848006800F0F1
:1034040013FD0646B6E72346084A282101A801F021
:1034140079FAB7E70CB0BDE8F08100BFA000002046
:103424007C5B0008B05B0008D45A0008945B000879
:1034340070B5A8B0064601461C4801F0D3F99022A5
:103444001B4904A801F0BAF9002409E028AB03EBF6
:10345400C40353F88C2C2946164801F0C3F90134EF
:10346400112C21D828AB03EBC40353F8905C124B06
:1034740018680223009303ABEAB2314600F0DEFC85
:103484000028E3D19DF80C309DF80D2042EA032278
:1034940028AB03EBC40353F88C3C00931346294632
:1034A400064801F09FF9DAE728B070BDD863000838
:1034B400B85B000814640008A0000020F063000852
:1034C40010B50446074801F015FAFF2248F26801D6
:1034D4002046FFF757FD4CF2100240212046FFF72B
:1034E400D9FD10BD3864000810B5044601461348E0
:1034F40001F078F900220E212046FFF7CBFD93223C
:103504004FF400412046FFF73DFD2046FFF764FEDF
:103514004FF400412046FFF777FD932804D001467D
:10352400074801F05FF910BD064801F0E3F90122F4
:103534000E212046FFF7AEFDF5E700BF64640008E6
:1035440080640008A464000810B5044601460F48CE
:1035540001F048F900221E212046FFF775FD4FF4C3
:1035640080721E212046FFF76FFD4FF400721E216A
:103574002046FFF769FD4FF440721E212046FFF7F5
:1035840063FD034801F0B6F910BD00BFB064000844
:10359400C864000810B584B000238DF80F300DF115
:1035A4000E0200E00A460B4BA3FB0013DB081C468B
:1035B40003EB83035900431A511E30331370204622
:1035C400002CEFD10DF10E03591A104600F0DAFB6E
:1035D40004B010BDCDCCCCCC38B50546002407E0F2
:1035E4000121074800F0CEFB285DFFF7D3FF01342B
:1035F400092CF5D90221034800F0C4FB38BD00BFF3
:103604000C660008A463000810B582B04821214864
:1036140000F0B8FB01210DF1070000F0BFFB00280A
:10362400F8D09DF80730C3F34013002B0CBF0124DE
:1036340000241BD10421184800F0A4FB9DF8073096
:10364400413B212B20D8DFE803F0161B1F1F1F1F4F
:103654001F1F1F1F1F1F1F1F1F1F1F1F1F1F1F1F76
:103664001F1F1F1F1F1F1F1F1F1F161B05210B4876
:1036740000F088FBE2E7204600F0A4FB02B010BD96
:10368400204600F0EDFCF9E71221054800F07AFB32
:10369400F4E700BF385F00081066000818660008E9
:1036A400845F000808B50620FFF708FB8420FFF7B5
:1036B40065FB8020FFF762FB8220FFF75FFB08BDFC
:1036C40008B59220FFF700FE9620FFF7FDFD50207D
:1036D400FFF7AEFE08BD00B583B002AB43F8040D9E
:1036E4000121184600F04EFB019803B05DF804FB7D
:1036F40010B5002409E0E0B200F0CAFB02462146FE
:10370400034801F06FF80134A4B2032CF3D910BDBF
:103714002066000800B585B0002000F0BBFC924C88
:1037240001AB04F1600207CA03C31A801A2104F131
:103734006C0000F027FB02E08C4801F0DBF88C48B9
:1037440001F0D8F801210DF1030000F027FB002857
:10375400F8D09DF80330303B382B00F2018101A2F0
:1037640052F823F04D3800087F38000885380008E7
:103774008B380008993800089F380008A5380008DD
:10378400B3380008BF380008DB3800086539000882
:10379400653900086539000865390008653900088D
:1037A4003D370008653900086539000865390008A7
:1037B400653900086539000865390008653900086D
:1037C400653900086539000865390008653900085D
:1037D400653900086539000865390008653900084D
:1037E400653900086539000865390008653900083D
:1037F400653900086539000865390008653900082D
:10380400653900086539000865390008653900081C
:10381400653900086539000865390008653900080C
:103824006539000865390008ED380008F9380008E2
:103834000F3900081B3900082F3900083B390008EC
:1038440049390008573900084A4801F053F803E0A1
:103854009DF803301B2B0CD001210DF1030000F067
:103864009DFA0028F4D001210DF1030000F08AFA3A
:10387400EEE7414801F03EF861E7FFF739FF5EE704
:10388400FFF766FD5BE7FCF75DFE01463B4800F091
:10389400A9FF54E7FFF7B8FE51E700F0A5FA4EE799
:1038A40001A8FFF799FE364801F024F847E73548A8
:1038B40001F020F8FFF7C6FC41E7C822032192205B
:1038C400FFF7F7FC022201219220FFF7F2FC92207D
:1038D400FFF7FAFC33E7C82203219620FFF7E9FC3F
:1038E4009620FFF7F1FC2AE7274801F003F800F0DF
:1038F400E3FA24E7254800F0FDFF0220FFF7DEF994
:10390400FFF790FAFFF7C8FA19E7214800F0F2FF31
:10391400FFF7C8FE13E71F4800F0ECFF01224FF445
:1039240080611D48FDF7C6F909E71C4800F0E2FF75
:10393400FFF7C6FE03E71A4800F0DCFF5020FFF74C
:10394400BFFDFCE6174800F0D5FF5020FFF7CCFD83
:10395400F5E6154800F0CEFF5020FFF7F5FDEEE642
:10396400124800F0C7FFEAE6385F00086066000806
:1039740038660008A467000820680008C0670008CB
:10398400D4670008DC670008E4670008F4670008EF
:10399400006800080C680008001002402468000851
:1039A4003468000840680008486800085468000843
:1039B400704700002DE9F0478CB000240794089468
:1039C40009940A940B940194684B1A6B42F0100208
:1039D4001A631A6B02F010020192019A02941A6B94
:1039E40042F080021A631A6B02F080020292029A79
:1039F40003941A6B42F004021A631A6B02F0040275
:103A04000392039A04941A6B42F001021A631A6B2C
:103A140002F001020492049A05941A6B42F0020225
:103A24001A631A6B02F002020592059A06941A6B45
:103A340042F008021A631B6B03F008030693069B0B
:103A4400DFF8349122464FF627714846FDF732F9E4
:103A5400474F224607213846FDF72CF9DFF81C8131
:103A6400224640F606614046FDF724F9414E2246BF
:103A74004FF480513046FDF71DF94FF60773079355
:103A84000125089509940A9407A94846FDF728F8E2
:103A9400202307934FF0110ACDF820A009940A942B
:103AA40007A94846FDF71CF84FF4C0730793089420
:103AB400099407A93046FDF713F80795CDF820A01F
:103AC40009940A9407A93046FDF70AF80795089463
:103AD4000994DFF8ACA007A95046FDF701F80823C4
:103AE4000793DFF8A090CDF82090099407A95046D9
:103AF400FCF7F6FF07230793089509940A9407A98E
:103B04003846FCF7EDFF4FF480430793CDF820903F
:103B1400099407A93846FCF7E3FF4FF400430793E1
:103B24000894099407A93846FCF7DAFF40F60663BF
:103B34000793089509940A9407A94046FCF7D0FF17
:103B44004FF2190307930894099407A94046FCF718
:103B5400C7FF4FF480530793089509940A9407A963
:103B64003046FCF7BDFF0CB0BDE8F08700380240DA
:103B7400000402400008024000100240000C024011
:103B8400000002400000111008B50A480A4B036007
:103B94004FF4E133436000238360C36003610C226C
:103BA40042618361C361FEF786FE00B908BDFFF779
:103BB400FFFEFBE7EC0100200010014008B50A48B5
:103BC4000A4B03604FF4E133436000238360C36016
:103BD40003610C2242618361C361FEF76CFE00B98C
:103BE40008BDFFF7E5FEFBE7840200200044004027
:103BF40008B50A480A4B03604FF4E13343600023DD
:103C04008360C36003610C2242618361C361FEF778
:103C140052FE00B908BDFFF7CBFEFBE758010020B8
:103C24000048004000B583B01248134B03600023E2
:103C34004360012202828DF8003080228DF8012039
:103C4400E1228DF802208DF803308DF804308DF8D0
:103C54000530C0F814D08361C3614FF400030362DC
:103C6400FCF71EFE10B903B05DF804FBFFF7A0FEDD
:103C7400F9E700BFC40200200080024008B50C48E8
:103C84000C4B03600C4B436000238360C3604FF410
:103C94008042026143618361C3610362FDF722FBD9
:103CA40018B9064B024A1A6008BDFFF781FEF8E70F
:103CB4009801002000540040A0860100A8000020C4
:103CC40008B50C480C4B03600C4B43600023836025
:103CD400C3604FF48042026143618361C361036244
:103CE400FDF700FB18B9064B024A1A6008BDFFF73E
:103CF4005FFEF8E7AC000020005C0040A0860100F5
:103D0400A000002008B50D480D4B03604FF48273EA
:103D1400436000238360C360036143614FF48022E6
:103D24008261C3610362436283620A23C362FEF752
:103D340075FB00B908BDFFF73BFEFBE72C02002032
:103D44000030014008B50D480D4B03604FF48273F9
:103D5400436000238360C360036143614FF48022A6
:103D64008261C3610362436283620A23C362FEF712
:103D740055FB00B908BDFFF71BFEFBE7000100205F
:103D84000038004008B54FF47A738AB201460248FD
:103D9400FEF7C0FD012008BDEC01002008B5084B6A
:103DA4001B681B6813F0200F01D1002008BD0A46D0
:103DB4000146642392B20248FEF71CFE0120F5E797
:103DC400EC01002038B50546064C02464FF400715C
:103DD4002046FCF76FFF2A464FF480612046FCF72B
:103DE40069FF38BD000C024008B501210148FCF709
:103DF40067FF08BD0008024010B582B04FF0FF34E1
:103E040000949BB2FDF7FCFA02B010BD10B584B06B
:103E14004FF0FF340294BDF818400194009301233D
:103E2400FDF724FD04B010BD10B582B04FF0FF348F
:103E340000949BB2FDF7A6FB02B010BD10B584B090
:103E44004FF0FF340294BDF818400194009301230D
:103E5400FDF7CAFD04B010BD10B584B04FF0FF34B7
:103E64000294BDF81840019400930223FDF7FEFC70
:103E740004B010BD10B584B04FF0FF340294BDF807
:103E84001840019400930223FDF7AEFD04B010BD69
:103E940000B583B001AA01460548FCF78BFC014636
:103EA400044800F09FFC019803B05DF804FB00BFD8
:103EB400C40200206868000870B5294800F01AFDA3
:103EC400012405E02E2000F0A5FC0DE00134E4B24D
:103ED40014F0800F0FD102231A4661002148FDF728
:103EE400F7FE05460028EDD1002DEFD161001E48F4
:103EF40000F078FCEAE71D4800F0FCFC1C4800F0E8
:103F0400F9FC00261AE02E2000F084FC0DE00134B8
:103F1400E4B214F0800F0FD102231A466100154851
:103F2400FDF7D6FE05460028EDD1002DEFD1610046
:103F34000D4800F057FCEAE70136F6B2072E0BD81D
:103F440031460D4800F04EFC3046FEF7B7FE6420C3
:103F5400FCF7FEFA0124DCE7044800F0CBFC70BD5A
:103F640080680008AC0000209868000820680008F9
:103F7400A068000898010020B868000800B593B054
:103F84000023089309930A930B93019302930393D9
:103F940004930593012306930523079302230C93AB
:103FA4004FF480020D9214220E92C0220F921093AD
:103FB4000423119306A8FDF751FF98B90F23019329
:103FC40002230293002303934FF4A05304934FF46A
:103FD40080530593032101A8FEF73CF928B913B0D7
:103FE4005DF804FBFFF7E4FCE8E7FFF7E1FCF6E724
:103FF40000B593B00023079308930B930D9301939B
:1040040002930393049305930223069301220992D6
:1040140010220A920C930D220E92C3220F92109337
:104024000423119306A8FDF719FF98B90F230193F0
:1040340002230293002303934FF4A05304934FF4F9
:1040440080530593032101A8FEF704F928B913B09E
:104054005DF804FBFFF7ACFCE8E7FFF7A9FCF6E723
:1040640010B5044640B102464FF400610848FCF71D
:1040740021FEFFF783FF10BDFFF7BAFF3220FCF7E4
:1040840067FA22464FF400610148FCF713FEF2E799
:10409400000C024008B5FCF733FAFFF7A9FFFFF75D
:1040A40089FC0120FFF7DCFFFFF76EFDFFF786FDBB
:1040B400FFF79EFDFFF7B6FDFFF7E0FDFFF700FEFB
:1040C400FFF720FEFFF73EFEFEF7A8FEFEF7AAFE6E
:1040D4000B4800F00FFC0B4800F00CFC0A4B1B686B
:1040E400013BB3F1807F09D2084A5360084BF021A9
:1040F40083F82310002393600723136008BD00BFD7
:10410400D0680008E46800080000002010E000E027
:1041140000ED00E082B0002100910B4B5A6C42F498
:1041240080425A645A6C02F480420092009A0191CF
:104134001A6C42F080521A641B6C03F08053019392
:10414400019B02B0704700BF00380240F0B58DB04B
:1041540000230793089309930A930B930268334B44
:104164009A4201D00DB0F0BD00240194A3F5904310
:104174001A6B42F000721A631A6B02F00072019219
:10418400019A02941A6B42F080621A631A6B02F06D
:1041940080620292029A03941A6B42F000621A63DC
:1041A4001A6B02F000620392039A04941A6B42F0B1
:1041B40004021A631A6B02F004020492049A05942E
:1041C4001A6B42F001021A631A6B02F001020592A3
:1041D400059A06941A6B42F002021A631B6B03F0F1
:1041E40002030693069B32230793022708970326AC
:1041F4000A960B250B9507A90D48FCF771FC86233D
:104204000793089709940A960B9507A90948FCF7A0
:1042140067FC4FF460530793089709940A960B952B
:1042240007A90548FCF75CFC9CE700BF008002403E
:104234000008024000000240000402402DE9F0435F
:104244008BB000230593069307930893099303689F
:10425400374A934205D0374A934227D00BB0BDE882
:10426400F08300250095344C236B43F00203236351
:10427400236B03F002030093009BC02305931223D6
:10428400069301230793032308930423099305A9A1
:104294002A48FCF725FC0195236C43F4001323649E
:1042A400236C03F400130193019BD7E700250295C7
:1042B400214C236B43F004032363236B03F00403B7
:1042C4000293029B0395236B43F001032363236B47
:1042D40003F001030393039B4FF4007305934FF022
:1042E4001209CDF818904FF00108CDF81C8003276F
:1042F40008970426099605A91148FCF7F1FB4FF429
:1043040080730593CDF81890CDF81C800897099612
:1043140005A90C48FCF7E4FB0495236C43F4000363
:104324002364236C03F400030493049B96E700BF07
:1043340000540040005C0040003802400004024089
:104344000008024000000240F0B58DB0002307933E
:10435400089309930A930B9303683B4A934204D04E
:104364003A4A934238D00DB0F0BD00240194384B42
:104374005A6C42F480525A645A6C02F4805201928C
:10438400019A02941A6B42F001021A631A6B02F04A
:1043940001020292029A03941A6B42F002021A6317
:1043A4001B6B03F002030393039B70230793022701
:1043B400089703260A9605250B9507A92548FCF7B7
:1043C4008FFB20230793089709940A960B9507A956
:1043D4002148FCF785FBC6E7002404941C4B1A6CA7
:1043E40042F480421A641A6C02F480420492049AE1
:1043F40005941A6B42F004021A631A6B02F0040269
:104404000592059A06941A6B42F002021A631B6B1A
:1044140003F002030693069B0C23079302270897D5
:1044240003260A9605250B9507A90C48FCF758FBAB
:104434004FF4C0630793089709940A960B9507A94C
:104444000548FCF74DFB8EE7003001400038004082
:10445400003802400000024000040240000802400C
:1044640010B58CB000230793089309930A930B9318
:1044740003684A4A934207D0494A934232D0494A90
:1044840093425CD00CB010BD00240194464B5A6C8E
:1044940042F010025A645A6C02F010020192019A1E
:1044A40002941A6B42F001021A631B6B03F00103BE
:1044B4000293029B4FF4C0630793022308930123E2
:1044C400099303230A9307230B9307A93748FCF79F
:1044D40007FB224621462520FCF75EF82520FCF741
:1044E4008FF8CFE7002403942F4B1A6C42F4003268
:1044F4001A641A6C02F400320392039A04941A6B3D
:1045040042F008021A631B6B03F008030493049B34
:1045140060230793022308930123099303230A9337
:1045240007230B9307A92248FCF7DAFA224621460F
:104534002620FCF731F82620FCF762F8A2E70024D5
:104544000594194B1A6C42F480221A641A6C02F412
:1045540080220592059A06941A6B42F004021A63AB
:104564001B6B03F004030693069B4FF4406307930D
:10457400022308930123099303230A9307230B932C
:1045840007A90C48FCF7ACFA224621462720FCF781
:1045940003F82720FCF734F874E700BF001001404B
:1045A400004400400048004000380240000002403F
:1045B400000C0240000802407047FEE7FEE7FEE7F9
:1045C400FEE770477047704708B5FBF7B3FF124B1F
:1045D4001B8893B1B3F5A57F14D0B3F5257F16D00E
:1045E4000D490A8801320D4B83FB02039B114FF4E2
:1045F4007A7000FB13230B8008BD01210848FCF7E7
:104604005FFBEDE702210648FCF75AFBE8E70421CB
:104614000348FCF755FBE3E784000020D34D621008
:104624000010024008B50248FEF7B0FA08BD00BF0A
:10463400EC01002008B50248FEF7A8FA08BD00BF47
:104644008402002008B50248FEF7A0FA08BD00BFA6
:104654005801002070B50D461646002404E0AFF35F
:104664000080287001340135B442F8DB304670BD57
:1046740070B51646002405E04D1C0878FFF72BF8AA
:1046840001342946B442F7DB304670BD03460B4A79
:10469400126842B1094A106803446A46934206D834
:1046A400064A13607047054A05491160F2E7054B55
:1046B4000C221A604FF0FF30704700BF88000020C2
:1046C400100300200C0300204FF0FF3070474FF41C
:1046D40000534B6000207047012070470020704752
:1046E4000C4B1A6842F001021A60002199601A68A2
:1046F40022F0847222F480321A60074A5A601A68DF
:1047040022F480221A60D960044B4FF000629A6050
:10471400704700BF003802401030002400ED00E074
:10472400DFF834D0002103E00C4B5B5843500431D4
:104734000B480C4B42189A42F6D30B4A02E0002372
:1047440042F8043B094B9A42F9D3FFF7C9FF00F042
:1047540011F8FEF7DFFF7047000002209C69000893
:1047640000000020680000206800002010030020E2
:10477400FEE7000070B500250C4E0D4CA41BA410E0
:10478400A54209D101F098F900250A4E0A4CA41B50
:10479400A410A54205D170BD56F8253098470135BF
:1047A400EEE756F8253098470135F2E7946900089A
:1047B40094690008946900089869000810B5431EBC
:1047C4000A44914200D110BD11F8014B03F8014F86
:1047D400F7E703460244934200D1704703F8011BF4
:1047E400F9E700000FB40A4B13B51C6824B1A369A0
:1047F40013B9204600F06AFA05AB049AA168204672
:10480400019300F071FD02B0BDE8104004B07047A0
:104814000400002038B5084B05461C6824B1A36980
:1048240013B9204600F052FAA26829462046BDE892
:10483400384000F0F7BF00BF0400002070B50E46FA
:10484400054618B183690BB900F040FAAB69AC684E
:1048540013B9284600F03AFA234B9C4217D16C68EE
:10486400A3891B071DD52369DBB1013EA36816F894
:10487400011F013BA360E9B9002B2EDA22460A216D
:10488400284600F073F8013011D00A2011E0174BCC
:104894009C4201D1AC68E3E7154B9C4208BFEC682D
:1048A400DEE72146284600F0B3F80028DDD04FF0BB
:1048B400FF3070BD002B04DAA2699A4206DC0A2993
:1048C40004D023685A1C22601970CFE72246284678
:1048D40000F04CF80130C9D1E9E70A2023685A1CDA
:1048E40022601870E5E700BF1869000838690008FD
:1048F400F8680008024B01461868FFF79FBF00BF25
:10490400040000200CB430B5174B0C1E9DB01D687C
:1049140008DA8B234FF0FF302B601DB0BDE8304028
:1049240002B070474FF40273ADF814300CBF234645
:1049340004F1FF33049307934FF6FF73029006903C
:10494400ADF81630209A21AB02A92846019300F055
:10495400ABFB431CBCBF8B232B60002CDDD000229F
:10496400029B1A70D9E700BF04000020F8B50E4678
:104974001446054618B183690BB900F0A7F9214B19
:104984009C422AD16C68A369A360A3891A072ED517
:10499400236963B323692068F6B2C01A6369374692
:1049A400834204DC2146284600F026F928BBA3688C
:1049B4000130013BA36023685A1C22601E706369A6
:1049C400834204D0A389DB0719D50A2E17D12146C7
:1049D400284600F011F990B10FE00B4B9C4201D135
:1049E400AC68D0E7094B9C4208BFEC68CBE7214692
:1049F400284600F00DF80028CCD04FF0FF37384699
:104A0400F8BD00BF1869000838690008F868000894
:104A1400324B70B51D6806460C4625B1AB6913B917
:104A2400284600F053F92E4B9C420FD16C68B4F920
:104A34000C309AB215072CD4D00611D40922326056
:104A440043F04003A3814FF0FF303EE0254B9C42EE
:104A540001D1AC68EBE7244B9C4208BFEC68E6E765
:104A6400510712D5616B41B104F14403994202D05C
:104A7400304600F019FA00236363A38923F024036A
:104A8400A3810023636023692360A38943F008039F
:104A9400A38123694BB9A38903F42073B3F5007F81
:104AA40003D02146304600F0BFF9A28912F0010379
:104AB4000CD00023A36063695B42A361236953B9EB
:104AC400B4F90C3013F08000BAD170BD920758BF0E
:104AD4006369A360F2E70020F7E700BF0400002049
:104AE4001869000838690008F86800088A892DE9FF
:104AF400F041054610070C4658D44B68002B05DCE2
:104B04000B6C002B02DC0020BDE8F081E66A002E6D
:104B1400F9D0002312F480522F68216A2B6032D01E
:104B2400606DA3895A0705D56368C01A636B0BB11E
:104B3400236CC01A00230246E66A216A2846B0475D
:104B4400431CA38906D129681D2948D8294ACA408B
:104B5400D60744D5002262602269D904226004D5B4
:104B6400421C01D12B6803B96065616B2F60002979
:104B7400C9D004F14403994202D0284600F094F9C4
:104B840000206063C0E701232846B047411CC8D118
:104B94002B68002BC5D01D2B01D0162B01D12F6003
:104BA400B1E7A38943F04003A381ADE70F69002F68
:104BB400A9D0930718BF00230E6808BF4B69A6EB62
:104BC40007080F608B60B8F1000F9CDD43463A463E
:104BD400216A2846A66AB047002806DCA38943F068
:104BE4004003A3814FF0FF308EE70744A8EB000891
:104BF400E9E700BF0100402038B50B6905460C46C3
:104C0400DBB118B183690BB900F060F80C4B9C421E
:104C140009D16C68B4F90C307BB121462846BDE853
:104C24003840FFF763BF074B9C4201D1AC68F1E702
:104C3400054B9C4208BFEC68ECE7002038BD00BF80
:104C44001869000838690008F8680008002310B5DE
:104C54000446C0E90033836081814366C281C0E9B0
:104C640004338361194608225C30FFF7B2FD054B1B
:104C740024626362044BA362044BE362044B236328
:104C840010BD00BFB5580008D75800080F590008D8
:104C940033590008014900F085B800BFFD4B0008F6
:104CA40070B568254A1E55430E4605F1740100F09F
:104CB40047F9044640B10021C0E900160C30A06059
:104CC40005F16802FFF785FD204670BD836910B5C4
:104CD400044633BBC0E912330365124B124A1B6806
:104CE4008262984204BF0123836100F01FF8606070
:104CF400204600F01BF8A060204600F017F80022C0
:104D0400E06004216068FFF7A1FF01220921A06887
:104D1400FFF79CFF02221221E068FFF797FF0123AF
:104D2400A36110BDF4680008994C0008F8B51B4B4A
:104D340007461E68B36913B93046FFF7C7FF483604
:104D4400D6E90134013B03D5336833B13668F7E75C
:104D5400B4F90C506DB16834F4E704213846FFF718
:104D64009FFF30600028F1D10C2304463B602046AD
:104D7400F8BD0B4B6566C4E90055A560C4E903356D
:104D8400C4E905550822294604F15C00FFF721FD1A
:104D9400C4E90D55C4E91255E9E700BFF4680008F9
:104DA4000100FFFF2DE9F84380468946002600F103
:104DB400480414B93046BDE8F883D4E90175013FCD
:104DC40001D52468F5E7AB89012B07D9B5F90E3075
:104DD400013303D029464046C84706436835EEE709
:104DE40070B50E46B1F90E1096B0002914461D4652
:104DF40007DA00232B60B3891A0610D44FF48063BA
:104E04000EE06A4600F0BAFD0028F2DB019A02F4D3
:104E14007042A2F500535A425A412A60EEE74023F9
:104E24000020236016B070BD8B8973B59D070646BC
:104E34000C4607D504F14703236023610123636112
:104E440002B070BD01AB6A46FFF7CAFF0099054680
:104E5400304600F075F848B9B4F90C309A05EFD42F
:104E640023F0030343F00203A381E3E70D4BB36292
:104E7400A389206043F08003A381009B20616361C8
:104E8400019B5BB1B4F90E10304600F089FD28B1E6
:104E9400A38923F0030343F00103A381A3891D43E2
:104EA400A581CDE7994C000838B50546002943D0C3
:104EB40051F8043C0C1F002BB8BFE41800F0B9FDF6
:104EC4001E4A1368104633B9636014602846BDE86F
:104ED400384000F0AFBDA3420BD921686218934259
:104EE40001BF1A685B685218226063600460EDE7D2
:104EF40013465A680AB1A242FAD919685818A0424E
:104F04000BD120680144581882421960DED1106820
:104F14005268014419605A60D8E702D90C232B6007
:104F2400D4E7206821188A4201BF11685268091821
:104F3400216062605C60C9E738BD00BF900000205A
:104F440070B5CD1C25F0030508350C2D38BF0C2594
:104F5400002D064601DBA94203D90C23336000204F
:104F640070BD00F066FD214A1468214691B9204CB9
:104F740023681BB9304600F08BFC2060294630467C
:104F840000F086FC431C24D10C233046336000F02F
:104F940051FDE4E70B685B1B18D40B2B0FD90B6096
:104FA400CC18CD50304600F045FD04F10B00231D14
:104FB40020F00700C31AD3D05A42E250D0E74B681E
:104FC4008C4216BF636013600C46EBE70C464968DD
:104FD400CCE7C41C24F00304A04205D0211A3046B7
:104FE40000F056FC0130CFD02560DBE790000020B4
:104FF400940000202DE9F0478E6882469E420C46BC
:105004009046994637D88A8912F4906F31D002239A
:10501400256809696F1A656905EB450595FBF3F584
:1050240009F101033B449D4238BF1D46530530D569
:105034002946FFF785FF064650B90C234FF0FF3091
:10504400CAF80030A38943F04003A381BDE8F08788
:105054003A462169FFF7B2FBA38923F4906343F036
:105064008003A38126613E4426604E466561ED1BA4
:10507400A5604E4500D94E4632464146206800F0B0
:10508400BFFCA36800209B1BA36023681E4426600A
:10509400DCE72A4600F0CFFC06460028E2D121696D
:1050A4005046FFF701FFC8E72DE9F04F1D468B89F5
:1050B4009DB01F0680460C4616460FD50B696BB98A
:1050C4004021FFF73DFF2060206128B90C23C8F878
:1050D40000304FF0FF30C8E04023636100230993A0
:1050E40020238DF8293030234FF0010B8DF82A301E
:1050F400039537463D4615F8013B0BB1252B3ED1B0
:10510400B7EB060A0BD05346324621464046FFF71A
:1051140071FF013000F0A480099B534409933B784C
:10512400002B00F09D8000234FF0FF32CDE90523D2
:10513400049307938DF853301A932F46052217F8DA
:10514400011B504800F04EFC049BD0B9D90644BF63
:1051540020228DF853201A0744BF2B228DF85320A8
:105164002A782A2A15D02F4600200A25079A39467C
:1051740011F8013B303B092B4DD9B8B10FE02F4654
:10518400B8E7404A3D46801A0BFA00F018430490F1
:10519400D3E7039A111D12680391002A01DB0792D9
:1051A40004E0524243F00203079204933B782E2B0F
:1051B4000CD17B782A2B33D1039B02371A1D1B6831
:1051C4000392002BB8BF4FF0FF3305932E4D0322FB
:1051D4003978284600F006FC38B14023401B03FA16
:1051E40000F0049B013703430493397806222748CF
:1051F4007E1C8DF8281000F0F5FB002838D0244BD5
:1052040013BB039B073323F0070308330393099B62
:105214004B4409936DE705FB023201200F46A6E7D4
:1052240000230A25194601370593384610F8012B47
:10523400303A092A03D9002BC8D00591C6E705FBEB
:10524400012101230746F0E703AB00932246114BEB
:1052540004A94046AFF30080B0F1FF3F8146D6D1A8
:10526400A3895B063FF535AF09981DB0BDE8F08F03
:1052740003AB00932246074B04A9404600F0C0F953
:10528400EAE700BF586900085E690008626900081F
:1052940000000000F94F0008936810B4013B002B94
:1052A400936007DA9469A34201DB0A2902D110BC96
:1052B400FFF75CBB1368581C10601970084610BCDB
:1052C4007047F8B506460F461446D518AC4201D1CE
:1052D400002007E03A4614F8011B3046FFF7DCFFD4
:1052E400431CF3D1F8BD00002DE9F04F0C469DB0EE
:1052F40017461D46064618B183690BB9FFF7E6FC4D
:105304007C4B9C4258D17468A38918075ED52369E5
:10531400002B5BD00023099320238DF82930302300
:105324004FF0010B8DF82A300395B846454615F821
:10533400013B0BB1252B54D1B8EB070A0BD05346D4
:105344003A4621463046FFF7BCFF013000F0C280E8
:10535400099B5344099398F80030002B00F0BA805D
:1053640000234FF0FF32CDE90523049307938DF812
:1053740053301A93A846052218F8011B5E4800F022
:1053840031FB049B78BBD90644BF20228DF85320FF
:105394001A0744BF2B228DF853202A782A2A2AD0B0
:1053A400A84600200A25079A414611F8013B303BE4
:1053B400092B69D960B324E0504B9C4201D1B468F5
:1053C400A2E74F4B9C4208BFF4689DE72146304654
:1053D400FFF71EFB00289DD04FF0FF301DB0BDE845
:1053E400F08FA846A2E7444A4546801A0BFA00F01B
:1053F40018430490BEE7039A111D12680391002A12
:1054040001DB079204E0524243F002030792049343
:1054140098F800302E2B0ED198F801302A2B38D171
:10542400039B08F102081A1D1B680392002BB8BFE6
:105434004FF0FF330593334D032298F800102846AC
:1054440000F0D0FA40B14023401B03FA00F0049B63
:1054540008F101080343049398F8001006222A482F
:1054640008F101078DF8281000F0BCFA002837D0A5
:10547400264B1BBB039B073323F00703083303931B
:10548400099B4B44099350E705FB023201208846EF
:105494008AE700230A25194608F1010805934046C6
:1054A40010F8012B303A092A03D9002BC3D00591F7
:1054B400C1E705FB012101238046F0E703AB00931C
:1054C4002246134B04A93046AFF30080B0F1FF3FEE
:1054D4008146D5D1A3895B063FF57EAF09987DE768
:1054E40003AB009322460A4B04A9304600F088F827
:1054F400ECE700BF1869000858690008386900081B
:10550400F86800085E69000862690008000000008D
:10551400C75200082DE9F04791461F468A680B6977
:1055240006469342B8BF1346C9F8003091F84320A9
:105534000C46DDF8208012B10133C9F8003023682D
:10554400990642BFD9F800300233C9F80030256803
:1055540015F0060507D104F1190AE368D9F800200B
:105564009B1AAB4229DC94F843302268003318BFFD
:10557400012392062ED404F1430239463046C04733
:10558400013021D02368E56803F00603042B18BF1B
:105594000025D9F800204FF0000908BFAD1AA36810
:1055A400226908BF25EAE5759342C4BF9B1AED182A
:1055B4001A344D451AD1002008E0012352463946D9
:1055C4003046C047013003D14FF0FF30BDE8F087CB
:1055D4000135C2E73020E11881F843005A1C94F8E1
:1055E40045102244023382F84310C4E701232246C3
:1055F40039463046C0470130E6D009F10109D8E701
:105604002DE9F04301F1430C0C46097E85B06E2967
:105614001746064698460C9A00F0B38022D86329B0
:1056240036D00AD8002900F0B980582900F08380C8
:1056340004F1420584F8421032E0642901D069295A
:10564400F6D120681368050603F104012AD51B6806
:105654001160002B03DA2D225B4284F843206F484B
:105664000A2239E0732900F09D8008D86F2920D0E0
:105674007029DDD1236843F02003236003E07529FA
:1056840017D07829D4D17823654884F8453055E07B
:10569400136804F14205191D1B68116084F8423037
:1056A40001238CE01B6810F0400F116018BF1BB27F
:1056B400CFE713682568181D1060280601D51B68FC
:1056C40002E06806FBD51B886F2914BF0A22082252
:1056D4005248002184F843106568002DA560C0F28B
:1056E4009580216821F004012160002B3DD1002D1B
:1056F40040F08E806546082A0BD12368DB0708D565
:10570400236962689A42DEBF302305F8013C05F143
:10571400FF35ACEB05032361CDF800803B4603AABB
:1057240021463046FFF7F6FE01304DD14FF0FF30F1
:1057340005B0BDE8F083394884F845101368216842
:105744001D1D1B6815600A060BD5CA0744BF41F02E
:10575400200121601BB9226822F02002226010225D
:10576400B7E74D0648BF9BB2EFE76546B3FBF2F1DE
:1057740002FB1133C35C05F8013D0B460029F5D14A
:10578400B9E713682568181D6169106028061B684D
:1057940001D5196002E06A06FBD51980002365462D
:1057A4002361B9E71368191D11601D68626800213F
:1057B400284600F017F908B1401B60606368236154
:1057C400002384F84330A7E723692A463946304644
:1057D400C0470130AAD023689B0713D4E068039B19
:1057E4009842B8BF1846A3E701234A4639463046D3
:1057F400C04701309AD00135E368039A9B1AAB4243
:10580400F2DCEBE7002504F11909F5E7002BACD134
:10581400037804F1420584F842306CE769690008B2
:105824007A69000870B50D461446064618B18369B6
:105834000BB9FFF74BFA134B9C4212D17468A3685F
:10584400013B002BA36016DAA269934202DBEBB2A0
:105854000A2B10D1224629463046BDE87040FFF796
:1058640085B8094B9C4201D1B468E8E7074B9C42D8
:1058740008BFF468E3E72368E8B25A1C22601D708D
:1058840070BD00BF1869000838690008F86800088E
:1058940038B50023054C054608462360FEF7F6FE9E
:1058A400431C02D1236803B12B6038BD0C030020D4
:1058B40010B50C46B1F90E1000F0E4F80028ABBFA7
:1058C400636DA3891B1823F48053ACBF6365A38164
:1058D40010BD2DE9F0411F468B890546DB050C46BA
:1058E400164605D502230022B1F90E1000F068F81F
:1058F400A389324623F48053A381B4F90E103B46A6
:105904002846BDE8F04100F017B810B50C46B1F9CF
:105914000E1000F055F8431CA38915BF606523F4ED
:10592400805343F48053A38118BFA38110BDB1F900
:105934000E1000F013B8000038B5054608461146AD
:105944000022054C22601A46FEF792FE431C02D147
:10595400236803B12B6038BD0C03002038B5002345
:10596400054C054608462360FEF7AEFE431C02D1F3
:10597400236803B12B6038BD0C03002038B5002325
:10598400064C0546084611462360FEF7A0FE431C5C
:1059940002D1236803B12B6038BD00BF0C03002083
:1059A40038B50023054C054608462360FEF794FEEF
:1059B400431C02D1236803B12B6038BD0C030020C3
:1059C40038B50546084611460022054C22601A46A1
:1059D400FEF784FE431C02D1236803B12B6038BD5B
:1059E4000C03002010B5C9B202449042034601D111
:1059F400002303E01C7801308C42F6D1184610BD18
:105A0400884210B501EB020307D8421E99420AD01E
:105A140011F8014B02F8014FF8E78342F5D98118D8
:105A2400D21AD34200D110BD13F8014D01F8014D33
:105A3400F7E770477047F8B5074614460E4621B994
:105A4400BDE8F8401146FFF77BBA22B9FFF72CFAFC
:105A540025462846F8BD00F027F8A0420FD221467B
:105A64003846FFF76DFA05460028F2D03146224643
:105A7400FEF7A4FE31463846FFF716FAE9E7354645
:105A8400E7E7000038B50546084611460022054CF4
:105A940022601A46FEF7DEFD431C02D1236803B1DF
:105AA4002B6038BD0C03002051F8043C181F002B58
:105AB400BCBF0B58C0187047F8B500BFF8BC08BC91
:105AC4009E467047F8B500BFF8BC08BC9E467047B8
