:020000040800F2
:10000000000002200D250008F1290008F32900084E
:10001000F5290008F7290008F92900080000000068
:10002000000000000000000000000000FB290008A4
:10003000FD29000800000000FF290008052E000827
:100040005D2500085D2500085D2500085D25000888
:100050005D2500085D250008392C00085D25000895
:100060005D2500085D2500085D2500085D25000868
:100070005D2500085D2500085D2500085D25000858
:100080005D2500085D2500085D2500085D25000848
:100090005D2500085D2500085D2500085D25000838
:1000A0005D2500085D2500085D2500085D25000828
:1000B0005D2500085D2500085D2500085D25000818
:1000C0005D2500085D2500085D2500085D25000808
:1000D0005D250008012A00080D2A0008192A0008D9
:1000E0005D2500085D2500085D2500085D250008E8
:1000F0005D2500085D2500085D2500085D250008D8
:100100005D2500085D2500085D2500085D250008C7
:100110005D2500085D2500085D2500085D250008B7
:100120005D2500085D2500085D2500085D250008A7
:100130005D2500085D2500085D2500085D25000897
:100140005D2500085D2500085D2500085D25000887
:100150005D2500085D2500085D2500085D25000877
:100160005D2500085D2500085D2500085D25000867
:100170005D2500085D2500085D25000800000000E1
:040180005D250008F1
:100184000348044B834202D0034B03B11847704722
:10019400E4000020E40000200000000005480649B7
:1001A4000B1AD90F01EBA301491002D0034B03B181
:1001B40018477047E4000020E4000020000000001D
:1001C40010B5064C237843B9FFF7DAFF044B13B19B
:1001D4000448AFF300800123237010BDE400002025
:1001E40000000000CC6E000808B5044B1BB10449A4
:1001F4000448AFF30080BDE80840CFE700000000EA
:10020400E8000020CC6E000870B50D4E0D4D761B35
:10021400B61006D00024013455F8043B9847A64292
:10022400F9D1094E094D06F04FFE761BB61006D0E3
:100234000024013455F8043B9847A642F9D170BD17
:100244001C8200081C820008208200081C8200080E
:10025400F0B4860746D0541E002A3CD0CAB20346E6
:1002640002E014F1FF3436D303F8012B9D07F8D1D3
:10027400032C29D9CDB245EA05250F2C45EA0545BD
:1002840033D9A4F11006360903F1200707EB06174A
:1002940003F1100242E9045542E902551032BA4210
:1002A400F8D1721C14F00C0F03EB021204F00F06C9
:1002B40013D0331F23F003030433134442F8045BC5
:1002C4009342FBD106F003042CB1C9B21C4403F8D9
:1002D400011B9C42FBD1F0BC704734461346002CF2
:1002E400F3D1F8E714460346C2E71A462646E0E788
:1002F40053B94AB9002908BF00281CBF4FF0FF3189
:100304004FF0FF3000F06EB9ADF1080C6DE904CE8A
:1003140000F006F8DDF804E0DDE9022304B07047DC
:100324002DE9F047089E0D4604468E46002B40F00A
:1003340083808A42174647D9B2FA82F34BB1C3F19C
:10034400200105FA03FE20FA01F19F4041EA0E0E56
:100354009C404FEA1748BEFBF8FC1FFA87F908FBDC
:100364001CE20CFB09F0210C41EA024290420AD93A
:10037400BA180CF1FF3180F01881904240F21581D7
:10038400ACF1020C3A44121AB2FBF8F008FB10224A
:1003940000FB09F1A4B244EA0244A14209D93C1980
:1003A40000F1FF3280F00381A14240F20081023863
:1003B4003C44641A002140EA0C401EB10022DC4097
:1003C400C6E90042BDE8F08702B9FFDEB2FA82F363
:1003D400002B4FD18D1A01214FEA124E1FFA82F8D9
:1003E400B5FBFEFC0EFB1C5508FB0CF0220C42EA8C
:1003F4000545A84207D97D190CF1FF3202D2A84263
:1004040000F2E98094462D1AB5FBFEF00EFB105560
:1004140008FB00F8A4B244EA0544A04507D93C19F6
:1004240000F1FF3202D2A04500F2D9801046A4EBBD
:10043400080440EA0C40C0E78B4208D9002E00F0C3
:10044400B1800021C6E900050846BDE8F087B3FA8B
:1004540083F100294BD1AB4202D3824200F2B9802E
:10046400841A65EB030301209E46002EAAD0C6E938
:10047400004EA7E79F40C3F12002D1404FEA174E38
:10048400B1FBFEF01FFA87F80EFB101124FA02F2FA
:100494009D4000FB08FC2A43150C45EA0145AC4588
:1004A40004FA03F409D97D1900F1FF3180F08F803B
:1004B400AC4540F28C8002383D44A5EB0C05B5FBFD
:1004C400FEF10EFB115C01FB08F995B245EA0C45FF
:1004D400A94507D97D1901F1FF3274D2A94572D912
:1004E40002393D44A5EB090541EA004178E7C1F131
:1004F40020078B4022FA07FC4CEA030C25FA07F488
:100504004FEA1C4EB4FBFEF91FFA8CF80EFB19449B
:1005140020FA07F309FB08FA8D401D432B0C43EA2C
:100524000444A24502FA01F200FA01F309D91CEBD2
:10053400040409F1FF3048D2A24546D9A9F10209C1
:100544006444A4EB0A04B4FBFEF00EFB104400FB6D
:1005540008FAADB245EA0444A24508D91CEB0404E8
:1005640000F1FF352DD2A2452BD90238644440EA6C
:100574000940A0FB0289A4EB0A044C45C6464D463B
:1005840019D316D05EB1B3EB0E0264EB050404FA82
:1005940007F722FA01F31F43CC40C6E90074002197
:1005A400BDE8F087314630460CE78C46EBE6104652
:1005B400FFE64345E6D2B8EB020E69EB0C050138C1
:1005C400E0E72846D3E711468CE78146B9E70846B9
:1005D40073E7084649E7ACF1020C3D4413E70238DF
:1005E4003C4424E7704700BF844641EA000313F00B
:1005F400030349D1403A23D30B6803604B6843603B
:100604008B688360CB68C3600B6903614B6943618A
:100614008B698361CB69C3610B6A03624B6A436272
:100624008B6A8362CB6AC3620B6B03634B6B43635A
:100634008B6B8363CB6BC36340304031403ADBD276
:1006440030320BD30B6803604B6843608B68836064
:10065400CB68C36010301031103AF3D20C3205D39A
:1006640051F8043B40F8043B043AF9D2043208D070
:10067400D2071CBF11F8013B00F8013B01D30B88E2
:1006840003806046704700BF082A13D38B07B1D09C
:1006940010F00303AED0C3F10403D21ADB071CBF6E
:1006A40011F8013B00F8013BA4D331F8023B20F8D8
:1006B400023B9FE7043AD9D3013A11F8013B00F811
:1006C400013BF9D20B7803704B7843708B788370BD
:1006D400604670470EB430B5044682B008B18369F1
:1006E40063B106AD2B46059AA1682046019501F039
:1006F40005F802B0BDE8304003B0704700F006FCD6
:10070400EFE700BF0FB430B50B4B83B01C680CB1DE
:10071400A36963B107AD2B46069AA16820460195EB
:1007240000F0ECFF03B0BDE8304004B07047204651
:1007340000F0ECFBEEE700BF0000002010B504461B
:1007440082B008B1836933B12046A26802B0BDE823
:10075400104001F021BB019100F0D8FB0199F3E7AF
:1007640038B50B4B05461C680CB1A36933B1294657
:10077400A2682046BDE8384001F00EBB204600F0D8
:10078400C5FB2946A2682046BDE8384001F004BBF9
:1007940000000020836970B506460D4613B38468D3
:1007A4002A4B9C422AD02A4B9C4232D0294B9C4251
:1007B40008BFF468A3891B0724D5236913B3013D3B
:1007C400A36815F8011F013BA36069B3002B04DA89
:1007D400A2699A421FDC0A291DD023685A1C226090
:1007E4001970EDE700F092FBB369B468002BD7D120
:1007F400304600F08BFB154B9C42D4D17468A3891E
:100804001B07DAD42146304600F040F90028D6D040
:1008140007E0B468CEE72246304600F0D7F801304E
:10082400CED14FF0FF3070BD002B08DA224630469F
:100834000A2100F0CBF80130F3D00A2070BD0A225F
:1008440023681046591C21601A7070BDC0740008DA
:10085400A074000880740008024B01461868FFF772
:1008640099BF00BF0000002008B430B5002A9CB036
:10087400044633DB4FF4027302910691ADF8143051
:100884004FF6FF7120AD16D0013A04920792ADF8ED
:1008940016101F9A2B4602A9019500F0B1FD421CC7
:1008A40001DA8B2323600022029B1A701CB0BDE87E
:1008B400304001B070472B4604920792ADF81610F1
:1008C4001F9A02A9019500F09BFD431C01DA8B23BA
:1008D40023601CB0BDE8304001B070478B224FF05C
:1008E400FF302260F5E700BF0CB430B51F4B002980
:1008F4009DB01C6835DB4FF4027302900690ADF88E
:1009040014304FF6FF7021AD17D00139209A0491AD
:100914000791ADF816002B4602A92046019500F078
:100924006FFD421C01DA8B2323600022029B1A70A4
:100934001DB0BDE8304002B070472B4604910791CA
:10094400ADF81600209A02A92046019500F058FD42
:10095400431C01DA8B2323601DB0BDE8304002B094
:1009640070478B234FF0FF302360F5E70000002031
:1009740020F0030110F00300C0F1000051F8043B23
:1009840000F1040C4FEACC0C6FF000021CBF22FAF9
:100994000CF213434FF0010C4CEA0C2C4CEA0C4CB7
:1009A400A3EB0C0222EA030212EACC1204BF51F8B0
:1009B400043B0430F4D0C2F1000102EA0102B2FAAD
:1009C40082F2C2F11F0200EBD2007047F8B50D4667
:1009D4001446064608B1836943B3254B9C422AD08A
:1009E400244B9C4229D0244B9C4208BFF468A26942
:1009F400A389A2601A0722D5236903B32268616917
:100A0400D31AEDB299422F4629DD0133A168501C57
:100A14000139A1602060157062699A4216D0A389D9
:100A2400DB0701D50A2D11D03846F8BD00F06EFA67
:100A34000F4B9C42D4D17468D9E7B468D7E72146F8
:100A4400304600F023F838B92369D7E72146304609
:100A540000F032F90028E7D04FF0FF37E4E72146F1
:100A6400304600F029F90028F6D101232268CDE7A9
:100A7400C0740008A074000880740008024B0A4681
:100A840001461868FFF7A2BF000000203B4B70B579
:100A94001D6806460C460DB1AB69DBB1384B9C4270
:100AA4001ED0384B9C424AD0374B9C4208BFEC685E
:100AB400B4F90C2093B2190718D5206908B313F0C0
:100AC40001022CD000226369A2605B42A36160B37F
:100AD400002070BD284600F019FA294B9C42E0D151
:100AE4006C68B4F90C2093B21907E6D4DD063CD542
:100AF400580726D4206942F00803A3819BB200283A
:100B0400DDD103F42072B2F5007FD8D030462146FF
:100B140000F096FAA389206913F00102D2D1990753
:100B240058BF6269A2600028D2D1B4F90C301A0609
:100B3400CFD543F04003A3814FF0FF3070BDAC68C4
:100B4400B6E7616B51B104F14403994204D03046D5
:100B540000F0C0FAB4F90C20002363630023206979
:100B640022F02402C4E90003C5E7092342F040024D
:100B740033604FF0FF30A28170BD00BF0000002041
:100B8400C0740008A0740008807400082DE9F041C6
:100B94008F890C463A07804641D44B68002B59DDB7
:100BA400E66A002E53D0002317F48052D8F8005080
:100BB400216AC8F8003051D101234046B047431C94
:100BC4005FD0A789E66A216A7F0705D56268636BEF
:100BD400801A0BB1236CC01A024600234046B0476A
:100BE400461C45D1D8F80030B4F90C20002B55D060
:100BF4001D2B01D0162B5AD100222369C4E90032DF
:100C0400616BC8F8005011B304F14403994202D057
:100C1400404600F05FFA00206063BDE8F0810E6991
:100C2400AEB10D680E60B90714BF00236369AD1B34
:100C3400A3600AE02B463246A76A216A4046B847B9
:100C44000028A5EB000506440ADD002DF2DC002097
:100C5400BDE8F0810B6C002BA2DCF8E7606DB3E714
:100C6400A3894FF0FF3043F04003A381BDE8F08136
:100C7400002322696360A3892260DA04C0D5606519
:100C8400BEE7D8F80030002B9BD01D2B0CD0162BC0
:100C94000AD0A38943F04003A381D9E72169C4E9B9
:100CA4000013D304ACD5EAE7C8F80050CFE742F00C
:100CB4004002A281CCE700BF0B6923B310B5044600
:100CC40082B008B18369BBB1104B994212D0104B6A
:100CD400994216D00F4B994208BFE168B1F90C3024
:100CE4002BB1204602B0BDE81040FFF74FBF0020F3
:100CF40002B010BD6168F1E7019100F007F90199B4
:100D0400E2E7A168EAE70020704700BFC07400086A
:100D1400A07400088074000820B1054B01461868CF
:100D2400FFF7CABF034B0449186800F033B900BF8A
:100D340000000020E46E0008BD0C0008002070478D
:100D4400014900F027B900BFBD0C0008002070471E
:100D540070B568254A1E05FB02F50E4605F17401BF
:100D640000F00CFA044640B100210C30666005F135
:100D740068022160A060FFF76BFA204670BD00BFD7
:100D84001E4B70B51D680646AB6943B34835D5E9BB
:100D94000134013B05D51EE0013B5A1C04F16804F3
:100DA40019D0B4F90C20002AF6D10025144B65663D
:100DB400C4E90055A560C4E90455A5612946E3606A
:100DC400082204F15C00FFF743FAC4E90D55C4E9B5
:100DD4001255204670BD2C682CB12546D7E728460D
:100DE40000F010F8D2E704213046FFF7B1FF0446C3
:100DF40028600028F1D10C233360EAE7E46E000890
:100E04000100FFFF2DE9F84F0023334AC0E91233F4
:100E140012680365904208BF0123304908BF83610B
:100E240081620546FFF7ACFF68602846FFF7A8FF1C
:100E3400A86028460024FFF7A3FF04236E68E86037
:100E44002146F3607466C6E90044B460C6E904440C
:100E5400B46106F15C000822FFF7FAF9DFF888B004
:100E6400AF68DFF888A0DFF88890DFF888801C4B33
:100E7400C6E9086BC6E90AA9C6F830802146FB60BA
:100E840008227C66C7E90044BC60C7E90444BC612D
:100E940007F15C00FFF7DCF9EE68124BC7E9087B49
:100EA400C7E90AA9C7F830802146F3607466C6E929
:100EB4000044B460C6E90444B46106F15C0008224D
:100EC400FFF7C6F90123C6E9086BC6E90AA9C6F803
:100ED4003080AB61BDE8F88FE46E0008450D000872
:100EE4000900010012000200CD1E0008F51E0008D2
:100EF400351F0008551F0008024B0349186800F00D
:100F040049B800BFE46E0008BD0C0008836903B94A
:100F140078E77047704700BF704700BF704700BF55
:100F2400704700BF024B0349186800F00FB800BFB8
:100F340000000020410D0008024B0349186800F02E
:100F440005B800BF00000020510D00082DE9F04154
:100F540010F148071AD088460026D7E90154013D0C
:100F64000ED4A389013D012B06D9B4F90E30013307
:100F740002D02046C04706436B1C04F16804F0D13C
:100F84003F68002FE9D13046BDE8F0813E46304647
:100F9400BDE8F0812DE9F84310F148061ED08846DB
:100FA40007464FF00009D6E90154013D10D4A38946
:100FB400013D012B08D9B4F90E30013304D0214688
:100FC4003846C04749EA00096B1C04F16804EED1B5
:100FD4003668002EE7D14846BDE8F883B146484656
:100FE400BDE8F88370B50C46B1F90E1096B000292F
:100FF40016461D4613DB6A4600F0D6FF00280EDBBA
:10100400019A4FF4806302F47042A2F50052B2FADE
:1010140082F2002052092A60336016B070BD0022AB
:10102400A3892A601B0604D540230020336016B030
:1010340070BD4FF480630020336016B070BD00BFF4
:101044008A890B46920706D5012103F147025961AB
:101054001A601A61704770B582B001AB6A460C46DB
:101064000646FFF7BFFF00990546304600F086F8B4
:10107400B4F90C3070B1164A0099B262019A43F087
:101084008003A3812060C4E904018AB92B43A381AE
:1010940002B070BD9A05FBD4012123F0030304F1CF
:1010A400470243F00203A381616122602261EFE7FA
:1010B4003046B4F90E1001F00BF910B9B4F90C3044
:1010C400E4E7A38923F0030343F001031BB2DDE744
:1010D400450D000800293AD038B551F8043C0C1FDE
:1010E400002BB8BFE418054601F0C6F9224B1A6874
:1010F4002AB1A2420DD921686018824221D06260CF
:1011040028461C60BDE8384001F0B8B9A34203D8B2
:101114001A465368002BF9D111685018A04217D011
:1011240022D821686018834203BFD3E90003091859
:10113400C4E90013636054602846BDE8384001F0F8
:101144009DB9D2E900020144C4E90012D8E770470E
:1011540020680144501883421160EDD1D3E90003A3
:101164000144C2E90013E7E70C2328462B60BDE8DD
:10117400384001F083B900BF00010020F8B5CD1C50
:1011840025F0030508350C2D38BF0C25002D064627
:1011940033DBA94231D82A4F01F06EF93A6852B1D3
:1011A40013685B1B04D43FE023685B1B29D52246EC
:1011B4005468002CF8D1796800293BD02946304680
:1011C40000F070FE431C28D0C41C24F00304A04289
:1011D40005D0211A304600F065FE01301DD025608F
:1011E400304601F04BF904F10B0020F00700231DF9
:1011F400C21A01D01B1AA350F8BD0C220020326081
:10120400F8BD0B2B05D8A242636811D05360E7E701
:10121400144623601C442560E2E70C233046336007
:1012240001F02CF90020F8BD0B2BF1D814465368BB
:101234003B60D5E7304600F035FE7860BEE700BF7E
:10124400000100202DE9F0478E6880469E420C463E
:101254001D461746086836D8B1F80CC01CF4906FC8
:101264000DD135462A46394601F0A0F80020A2687F
:101274002368961B2B44A6602360BDE8F087D1E960
:10128400041606EB460606EBD676A0EB01090133FD
:1012940076104B44B342324684BF1E4632461CF499
:1012A400806F12D011464046FFF768FF824600B3B4
:1012B4004A462169FFF798F9A38923F4906343F020
:1012C4008003A38106E01E46CCE7404601F0D8F82F
:1012D400824650B1A6EB09030AEB09006661C4F823
:1012E40010A02060A3602E46BCE721694046FFF7AA
:1012F400F1FE0C23C8F80030A3894FF0FF3043F00F
:101304004003A381B9E700BF2DE9F04F936883B090
:101314009046002B6DD0176882460C460868083743
:101324008D6843E0A38913F4906F2ED0D4E904159B
:1013340005EB4505A0EB010B05EBD5750BEB0600A2
:101344006D100130A8422A4684BF05462A465B0533
:1013540036D511465046FFF711FF00283AD05A46B9
:1013640021690190FFF740F9A289019B22F4906260
:1013740042F08002A281A5EB0B0203EB0B00656136
:10138400B346354623612060A2605A46494601F0BF
:101394000DF8D8F80830A2682068551B58449E1BE5
:1013A400A5602060C8F808601EB3083757E90296A4
:1013B400AB46002EF9D0AE42B4D23546B346E4E78C
:1013C400504601F05DF803460028D4D12169504607
:1013D400FFF780FE0C2300224FF0FF30CAF80030E4
:1013E400A38943F04003A381C8E9012203B0BDE807
:1013F400F08F0020C8F8040003B0BDE8F08F00BFF0
:101404002DE9F04F8B4689899FB00C0690460290D7
:1014140004D5DBF81020002A00F00D8100202021E3
:101424003022059398F8003001270B908DF8311085
:101434008C4E8DF83220002B00F08680252B00F096
:10144400F880454603E0252B00F0888025466B781C
:101454006C1C002BF7D1B4EB080A75D042465346F6
:1014640059460298FFF7EEFE01306DD00B9B6A7867
:1014740053440B93002A67D000234FF0FF3201340A
:101484000693CDE908338DF85B301C93079206E090
:101494002C46069B801B07FA00F01843069025464D
:1014A400052215F8011B304600F03AFFAA46002831
:1014B400EED1069BD90644BF20228DF85B201A0783
:1014C40048BF2B22217848BF8DF85B202A2949D1B7
:1014D400059A11680432002905927FDB099161782D
:1014E400A51C2E2957D0604C0322204600F018FF7B
:1014F400002869D04022069B001B02FA00F0034337
:10150400069305F101082B780622194657488DF8F1
:10151400303000F005FF002866D0554B002B56D024
:1015240005AB00935A46534B06A90298AFF30080CB
:101534008146B9F1FF3F07D00B9B4B440B9398F8BE
:101544000030002B7FF47AAFBBF80C305B064CBF45
:101554004FF0FF300B981FB0BDE8F08FB4EB080AD2
:101564008AD07BE7A1F13002092A88BFA246B8D805
:10157400099B01E02C460135297803EB830302EB38
:101584004303A1F13002092AAA46F3D92E2904F112
:1015940002050993A7D19AF801102A292ED1059B97
:1015A4000AF102001A680433002A079205939AF894
:1015B40002100AF1030537DB2B4C82460322204636
:1015C40000F0AEFE002895D1A84655469BE7059B42
:1015D400073323F0070308330593ADE7494243F08B
:1015E4000203099106937AE705AB00935A46214B0F
:1015F40006A9029800F086FA81469AE70023A1F131
:101604003002092A079301D923E05546697803EB90
:10161400830302EB4303A1F13002092A05F1010A15
:10162400F3D9023507935EE74FF0FF338246079301
:1016340059E7444620E740210393FFF79FFD039BAE
:10164400CBF80000CBF8100030B14022CBF81420C6
:10165400E4E6AA46013546E70C23029A4FF0FF3030
:10166400136078E7D8810008E0810008E48100086D
:1016740000000000491200089368013B002B9360AE
:101684000FDA10B49469A34208DB0A2906D0136860
:10169400581C10601970084610BC704710BCFFF746
:1016A40095B91368581C106019700846704700BF3C
:1016B4009BB1F8B513440F4606465D1E541E01E067
:1016C400AC4208D03A4614F8011F3046FFF7D4FF65
:1016D400431CF5D1F8BD0020F8BD0020704700BFC1
:1016E400936810B5144613B95360184610BD00F042
:1016F4006FFC0023C4E9013310BD00BF2DE9F04F96
:101704009FB08B4690461C46039018B18369002B0A
:1017140000F0B980A34B9B4500F0BB80A24B9B45D6
:1017240000F0C980A14B9B4504BF039BD3F80CB0C8
:10173400BBF80C30180740F1B480DBF81030002BF4
:1017440000F0AF803023002120228DF8323098F849
:10175400003005940B918DF83120954E0127002B14
:1017640000F08980252B00F01781454603E0252BE6
:1017740000F0A58025466B786C1C002BF7D1B4EBE8
:10178400080A78D04246534659460398FFF790FF1B
:10179400013070D00B9B6A7853440B93002A6AD0B3
:1017A40000234FF0FF3201340693CDE908338DF85E
:1017B4005B301C93079206E02C46069B801B07FABD
:1017C40000F0184306902546052215F8011B304603
:1017D40000F0A6FDAA460028EED1069BD90644BF18
:1017E40020228DF85B201A0748BF2B22217848BF9E
:1017F4008DF85B202A2967D1059A116804320029E3
:101804000592C0F29E8009916178A51C2E2974D09E
:10181400684C0322204600F083FD002800F08780F6
:101824004022069B001B02FA00F00343069305F1D5
:1018340001082B78062219465F488DF8303000F0F5
:101844006FFD002800F083805C4B002B72D005AB49
:1018540000935A465A4B06A90398AFF30080814679
:10186400B9F1FF3F07D00B9B4B440B9398F8003022
:10187400002B7FF477AFBBF80C305B0618D40B98C1
:101884001FB0BDE8F08FFFF741FB464B9B457FF44B
:1018940045AF039BD3F804B0BBF80C3018073FF5F1
:1018A4004CAF59460398FFF7F1F800283FF44AAFCC
:1018B4004FF0FF30E4E7039BD3F808B038E7B4EB0C
:1018C400080A3FF46DAF5DE7A1F13002092A88BF31
:1018D400A2469BD8099B01E02C460135297803EBED
:1018E400830302EB4303A1F13002092AAA46F3D988
:1018F4002E2904F1020509938AD19AF801102A29A4
:101904002FD1059B0AF102001A680433002A0792BA
:1019140005939AF802100AF1030538DB254C824638
:101924000322204600F0FCFC00287FF479AFA8468F
:1019340055467EE7059B073323F0070308330593D9
:1019440091E7494243F00203099106935CE705AB32
:1019540000935A461A4B06A9039800F0D3F881461F
:101964007EE70023A1F13002092A079301D915E08B
:101974005546697803EB830302EB4303A1F130027C
:10198400092A05F1010AF3D90235079340E74FF01C
:10199400FF33824607933BE7444601E7AA460135F5
:1019A40036E700BFC0740008A07400088074000803
:1019B400D8810008E0810008E481000800000000EC
:1019C400B516000810B4044C13460A4601462068B4
:1019D40010BCFFF793BE00BF000000202DE9F047C4
:1019E4000C460969A56891468D42B8BF0D4615603D
:1019F40094F8431006461F46DDF8208011B16A1C96
:101A0400C9F80020236899065CD5D9F80020023271
:101A1400C9F80020236813F0060F19461DD1E168A8
:101A24008A1A002AD8BF194617DD002504F1190ABD
:101A340005E0E368D9F800209B1AAB420CDD0123D2
:101A4400524639463046C047013005F10105F0D110
:101A54004FF0FF30BDE8F087216894F8433000333D
:101A640018BF01238A060AD53021E21882F84310F0
:101A740094F845105A1C224482F84310023304F1AE
:101A8400430239463046C0470130E1D02368A2689A
:101A940003F00603042B21691DD08A4226DD4FF092
:101AA4000009521A914400251A3401E04D451DDA0B
:101AB4000123224639463046C047013005F101056D
:101AC400F4D1C5E713F0060F13D094F84330003374
:101AD40018BF0123D3E7D9F80000E3688A42A3EBD7
:101AE400000323EAE379DCDC002BDCDC0020BDE826
:101AF400F087E168D9F800208A1A002AD8BF19466D
:101B040093DCAAE72DE9F0430C46097E85B06E29E3
:101B140006461746984604F1430C0C986DD039D903
:101B2400732900F0F48044D9752900F002817829E2
:101B340040F00F8178232268DFF854E284F84530BE
:101B44000168150651F8043B016040F1A180D107FA
:101B540044BF42F020022260002B00F09380102248
:101B6400002184F8431060680028A060C0F2C68099
:101B7400216821F004012160002B40F0A28000289C
:101B840040F0BE806546082A00F0AB80ACEB05034C
:101B9400236141E0632900F0E3801AD8002938D09A
:101BA400582940F0D68084F845102268DFF8E4E133
:101BB400C6E76F2900F0BD80702940F0CA80782301
:101BC4002268DFF8CCE142F02002226084F845303C
:101BD400B6E7642902D0692940F0BB802268036813
:101BE400110603F1040557D5196805600B46002951
:101BF40059DB0A22DFF89CE1B5E7036822681D1D62
:101C04006169056015061B6802D4500600F1BB80AB
:101C14001960002365462361CDF800803B4603AA82
:101C240021463046FFF7DAFE013020D02A462369E8
:101C340039463046C047013019D0226803989207CC
:101C4400E36819D51A1A002A16DD002504F11909CA
:101C540004E0E36803981A1AAA420DDD01234A46F8
:101C640039463046C047013005F10105F1D14FF046
:101C7400FF3005B0BDE8F0839842B8BF184605B000
:101C8400BDE8F0832168102221F02001216067E77C
:101C9400500648BF9BB25AE75106A5D5B3F90030A8
:101CA40005601946A3E72D2061685B42002984F88A
:101CB4004300A16002DB22F0040222600A22DFF862
:101CC400D4E0654600E00B46B3FBF2F102FB1130B1
:101CD4001EF80000934205F8010DF4D2082A7FF49F
:101CE40055AF2368DB077FF551AF626823699A42D9
:101CF4003FF74CAF3023013D2B7047E7002BE0D179
:101D04009EF8003004F1420584F842303BE7036852
:101D14006268191D01601D680021284600F000FB5F
:101D2400002832D0401B60602061002384F84330D7
:101D340072E72268036812F0800F03F104051AD0D9
:101D44001B6805606F290CBF08220A22DFF844E0F3
:101D540006E7012384F84210236104F14205E4E715
:101D64000122036804F14205191D1B68016084F80F
:101D740042302261D9E712F0400F0DBF1B680560A5
:101D84001B880560DEE7198043E76068CCE700BF85
:101D940000820008EC81000810B5044682B008B146
:101DA4008369D3B1194B9A4220D0194B9A4225D05A
:101DB400184B9A4208BFE2689368013B002B93607A
:101DC4001ADA906983421BDBC8B20A2818D0136858
:101DD4005C1C1460197002B010BDCDE90012FFF74D
:101DE40095F8DDE90012094B9A42DED162689368E6
:101DF400013B002B9360E4DBC8B2E8E7A268DBE7B1
:101E0400204602B0BDE81040FEF7E0BDC0740008F3
:101E1400A0740008807400081E4B70B51D68064647
:101E24000C460DB1AB69CBB11B4B9C421CD01B4B78
:101E34009C4225D01A4B9C4208BFEC68A368013B26
:101E4400002BA36016DAA26993421BDBF0B20A28C6
:101E540018D023685A1C22601E7070BD2846FFF7F4
:101E640055F80D4B9C42E2D16C68A368013B002BF2
:101E7400A360E8DB2368F0B25A1C22601E7070BDB8
:101E8400AC68DBE7224631462846BDE87040FEF7E1
:101E94009DBD00BF00000020C0740008A0740008AD
:101EA4008074000838B50023064C054608462360B4
:101EB40004F076FD431C00D038BD2368002BFBD012
:101EC4002B6038BD9C03002010B50C46B1F90E10F0
:101ED40000F0FCFA002803DB636D0344636510BD66
:101EE400A38923F48053A38110BD00BF0020704751
:101EF4002DE9F041B1F90C409846E3050D4617462B
:101F0400B1F90E10064609D424F48054AC8143463A
:101F14003A463046BDE8F04100F01EB802230022E4
:101F240000F0E8F9B5F90C40B5F90E10ECE700BF84
:101F340010B50C46B1F90E1000F0DCF9A389421C6F
:101F44000EBF23F4805343F480536065A38110BD16
:101F5400B1F90E1000F016B8F8B50E460025084C7D
:101F6400114607461A463046256004F00CFD431C12
:101F740000D0F8BD2368002BFBD03B60F8BD00BF48
:101F84009C03002038B50023064C05460846236010
:101F940004F020FD431C00D038BD2368002BFBD087
:101FA4002B6038BD9C03002070B50D460023074C00
:101FB400064611462846236004F00FFD431C00D05A
:101FC40070BD2368002BFBD0336070BD9C030020E0
:101FD4009368002B00F0FC802DE9F04FB1F90C3030
:101FE4000C469BB2190783B0824690462BD52269D2
:101FF4004AB313F00202D8F8006033D000273D46FC
:10200400D4F828B0216ADFF8C492C5B14D452B46F7
:102014003A4628BF4B465046D847002840F3CE8066
:10202400D8F8083007441B1A2D1AC8F80830002BBA
:1020340000F0B380D4F828B0216A002DE6D1D6E9A7
:1020440000750836E1E721465046FEF71FFD0028DB
:1020540040F03781B4F90C30D8F800609BB213F02B
:102064000202CBD113F0010940F0B4804D46A768B9
:102074002068002D55D09A0540F1C080AF42BB4680
:1020840000F2EE8013F4906F2FD0D4E9041707EB1D
:102094004707A0EB010B07EBD777681C7F10584468
:1020A400B8423A4684BF07463A465B0540F1F080A1
:1020B40011465046FFF762F8002800F0FC805A46AB
:1020C40021690190FEF790FAA289019B22F49062A3
:1020D40042F08002A281A7EB0B0203EB0B006761C5
:1020E400AB462F4623612060A2605A46494600F061
:1020F4005DF92368A2685B44AB460025D71BA76043
:102104002360D8F80870D944A7EB0B07C8F8087007
:10211400002F42D0B4F90C30A7689BB22068002D80
:10212400A9D1D6E900950836A3E70BF1080353F8C3
:10213400047C9B4653F8086C0833002FF7D03A46CA
:102144000A21304600F0ECF8002854D00130A0EB0E
:1021540006094B4620682169BB4228BF3B4688429A
:10216400626903D9A5681544AB421ADC9A4200F3AC
:1021740081801346A56A3246216A5046A847051E47
:102184001CDDB9EB05096ED00120D8F808302E44C7
:102194005B1B7F1BC8F8083013BB002003B0BDE8ED
:1021A400F08F31462A4600F001F9236821462B447A
:1021B40023605046FEF780FD0028E2D0B4F90C30CD
:1021C4004FF0FF3043F04003A38103B0BDE8F08F2C
:1021D4000020704733469146104617464E469B46AC
:1021E400002FA2D00028B4D13A460A21304600F08C
:1021F40097F80028AAD17B1C9946ABE72369834250
:1022040017D36269AA4214D82F4BA76A9D4294BF80
:102214002B466FF0004393FBF2F3216A02FB03F3B6
:1022240050464A46B847B0F1000BC7DDA5EB0B0595
:1022340067E7AF4228BF2F4649463A4600F0B6F852
:10224400A3682268DB1B3A44BB46A3602260002BD0
:10225400ECD121465046FEF72FFD0028E6D0ADE72D
:102264002F46AB4641E721465046FEF725FD0028A0
:102274008BD0A3E71A4631461D46019300F096F829
:10228400A1682268019BC91A1344A160236078E7FE
:10229400504600F0F5F8034600287FF41CAF21698E
:1022A4005046FEF717FF0C22B4F90C30CAF8002090
:1022B40023F0800384E70C22B4F90C30CAF8002020
:1022C4007EE74FF0FF3069E7FEFFFF7F00FCFF7FF2
:1022D40038B50023064C05460846236004F082FB0B
:1022E400431C00D038BD2368002BFBD02B6038BDC5
:1022F4009C030020F8B50E460025084C11460746FD
:102304001A463046256004F06FFB431C00D0F8BD2C
:102314002368002BFBD03B60F8BD00BF9C0300206A
:10232400830770B4CDB23DD0541E0AB30378AB42D8
:102334001FD0431C05E014F1FF3419D30278AA42DC
:1023440017D013F0030F184603F10103F3D1032C44
:1023540011D84CB30378AB420BD00444431C02E0C5
:102364000278AA4205D09C42184603F10103F7D132
:10237400002070BC704702460E02B6B22E4346EAF5
:102384000646136810467340A3F1013121EA0303A2
:1023940013F0803F02F10402DCD1043C032C10460C
:1023A400EFD8D6E71446D2E72046E2E78842F0B4F5
:1023B4000DD98B1883420AD9841832B1224613F8F6
:1023C400014D994202F8014DF9D1F0BC70470F2A32
:1023D4000ED80346541E002AF7D001340C44013BA6
:1023E40011F8012BA14203F8012FF9D1F0BC704779
:1023F40040EA01039B073AD1A2F110073F0901F11A
:10240400200606EB071601F1100300F1100453F83F
:10241400105C103344F8105C53F81C5C103444F81E
:102424001C5C53F8185C44F8185C53F8145CB34211
:1024340044F8145CEBD17B1C1B0112F00C0F194403
:1024440002F00F05034415D00E46043DAD0803EB1E
:10245400850C1C1F56F8047B44F8047F6445F9D1AD
:102464000135AD002B44294402F00302B2E7541EA7
:102474000346B2E72A46ADE7704700BF704700BF86
:1024840009B3F8B51446CAB106460D4600F034F84F
:10249400A04202D32F463846F8BD21463046FEF707
:1024A4006DFE07460028F6D022462946FEF79CF822
:1024B40030462946FEF70EFE3846F8BD2746FEF79D
:1024C40009FE3846F8BD1146FEF758BEF8B50E466B
:1024D4000025084C114607461A463046256004F08C
:1024E40045FA431C00D0F8BD2368002BFBD03B60A9
:1024F400F8BD00BF9C03002051F8043C181F002BBA
:10250400BCBF0B58C0187047DFF834D0002103E07B
:102514000C4B5B58435004310B480C4B42189A4205
:10252400F6D30B4A02E0002342F8043B094B9A42DB
:10253400F9D300F075FAFDF767FE04F0F5FA704779
:10254400000002202482000800000020E400002093
:10255400E4000020A0030020FEE70000002182B078
:102564000B4B00915A6C42F480425A645A6C02F448
:1025740080420092009A01911A6C42F080521A64CF
:102584001B6C03F080530193019B02B0704700BFA2
:1025940000380240F0B504468DB01422002107A88B
:1025A400FDF756FE2268324B9A425FD10024A3F510
:1025B400904301941A6B022742F000721A631A6B5B
:1025C400032602F000720192019A02941A6B0B2501
:1025D40042F080621A631A6B264802F0806202920B
:1025E400029A03941A6B07A942F000621A631A6BE9
:1025F40002F000620392039A04941A6B42F00402FC
:102604001A631A6B02F004020492049A05941A6B7A
:1026140042F001021A631A6B02F001020592059A54
:1026240006941A6B42F002021A631B6BCDE90A6529
:1026340003F002030693069B3223CDE9073701F02A
:10264400FBF986230C4807A9CDE90737CDE90946EC
:102654000B9501F0F1F94FF46053084807A9CDE94F
:102664000737CDE909460B9501F0E6F90DB0F0BD49
:1026740000800240000802400000024000040240C2
:1026840014222DE9F04304468BB00DEB0200002127
:10269400FDF7DEFD2368354A934226D10025344CEC
:1026A4000095236BC02243F002032363236B0121B3
:1026B40003F002030093009B1223CDE905230323B7
:1026C400CDE9071304232B4805A9099301F0B4F9B4
:1026D4000195236C43F400132364236C03F4001367
:1026E4000193019B0BB0BDE8F083234A9342F9D1D7
:1026F40000251F4C0295236B4FF0120943F004038D
:102704002363236B4FF0010803F004030293029B3D
:102714000395236B032743F001032363236B0426F0
:1027240003F001030393039B4FF40073134805A9BB
:10273400CDE90539CDE90787099601F07DF94FF414
:1027440080730F4805A9CDE90539CDE907870996B6
:1027540001F072F90495236C43F400032364236CA1
:1027640003F400030493049BBCE700BF005400403F
:102774000038024000040240005C004000080240AF
:1027840000000240F0B504468DB01422002107A8D1
:10279400FDF75EFD23683B4A934240D100243A4B47
:1027A40001945A6C394842F480525A645A6C07A90D
:1027B40002F480520192019A02941A6B022742F0A9
:1027C40001021A631A6B032602F001020292029AB2
:1027D40003941A6B052542F002021A631B6B102244
:1027E40003F002030393039B0123CDE9072301F0C4
:1027F40023F96023254807A9CDE90737CDE90A6500
:10280400099401F019F92023214807A9CDE90737D4
:10281400CDE909460B9501F00FF90DB0F0BD1D4A45
:102824009342FAD10024184B04941A6C022742F400
:1028340080421A641A6C032602F480420492049AB9
:1028440005941A6B052542F004021A631A6B1248A8
:1028540002F004020592059A06941A6B07A942F045
:1028640002021A631B6BCDE90A6503F002030693A7
:10287400069B0C23CDE9073701F0DEF84FF4C06363
:10288400C2E700BF003001400038024000000240AF
:1028940000040240003800400008024010B504461D
:1028A4008CB01422002107A8FDF7D2FC2368484A03
:1028B40093422ED10024474B01945A6C4FF4C06EBE
:1028C40042F010025A645A6C434802F0100201921A
:1028D400019A02941A6B07A942F001021A631B6B56
:1028E400012203F001030293029B0223CDE907E3D3
:1028F4000323CDE9092307230B9301F09DF8252039
:102904002246214600F01AFD252000F049FD0CB0B6
:1029140010BD324A93422BD100242E4B03941A6CDF
:10292400602042F400321A641A6C4FF0010C02F475
:1029340000320392039A04941A6B07A942F0080226
:102944001A631B6B03F008030493049B0223CDE971
:1029540007030323CDE909C3072321480B9301F09F
:102964006BF826202246214600F0E8FC2620CCE71E
:102974001C4A9342CBD10024164B05941A6C0121B6
:1029840042F480221A641A6C174802F480220592D9
:10299400059A06941A6B42F004021A631B6B4FF4F7
:1029A400406203F004030693069B0223CDE9072348
:1029B4000323CDE90913072307A90B9301F03CF87E
:1029C40027202246214600F0B9FC27209DE700BFBE
:1029D4000010014000380240000002400044004062
:1029E400000C024000480040000802407047FEE727
:1029F400FEE7FEE7FEE7704770477047014800F0C6
:102A040073BF00BFB8020020014800F06DBF00BFD3
:102A1400F8020020014800F067BF00BF380300201F
:102A240000210C4B1A6842F001021A6099601A687E
:102A340022F0847222F480321A60074A5A601A68BB
:102A440022F480221A604FF00062D960034B9A602E
:102A5400704700BF003802401030002400ED00E051
:102A6400054B0A461B6883420BBF10214FF40071CB
:102A74000248034801F0D2B81001002000000240CF
:102A8400000402407047704770B500244FF4E136EB
:102A94000C250D480D4BC0E90244C0E90036C0E9DD
:102AA40005540461C46100F0FFFD0948094BC0E905
:102AB4000244C0E90036C0E90445C0E90644BDE863
:102AC400704000F0F1BD00BFB802002000100140CA
:102AD400F80200200044004008B58AB24FF47A732B
:102AE4000146024800F00EFE012008BDB802002095
:102AF40010B50446074803681B6813F0200306D08A
:102B04008AB26423214600F058FE012010BD184605
:102B1400FCE700BFB8020020022806D8034B81F06E
:102B24000102195C024801F079B870472575000864
:102B340000100240022804D8024B195C024801F03C
:102B440072B87047257500080010024038B5044675
:102B5400074D02464FF40071284601F05FF8224603
:102B64002846BDE838404FF4806101F057B800BFF3
:102B7400000C0240F8B5134D4FF48061284601F073
:102B840047F8114F04464FF48061384601F040F88D
:102B94004FF400710646284601F03AF805464FF412
:102BA4000061384601F034F824F0020444EA460394
:102BB40023F0040343EA850323F0080343EAC00037
:102BC400C0B2F8BD000C02400008024070B54FF4DA
:102BD40000610C4801F01CF80B4E04464FF4807160
:102BE400304601F015F805468021304601F010F812
:102BF40024F0020444EA450424F0040444EA800076
:102C0400C0B270BD000C02400008024010B5084C70
:102C140000220121204601F001F8322000F06CFB73
:102C240001222046BDE81040114600F0F7BF00BF66
:102C340000080240012000F0FBBF0000012802D17F
:102C4400014B1B68184770476800002010B501222B
:102C5400002486B0094B01A90948CDE90123CDE937
:102C64000344059400F0E8FE22462146062000F0C5
:102C740065FB062000F094FB06B010BD00001110A7
:102C8400000C0240014B1860704700BF6800002030
:102C94000138C0B202280A4605D8034B33F8101095
:102CA400024800F0BBBF70472875000800100240BE
:102CB40038B50C4D4FF48071284600F0A9FF4FF44D
:102CC40000710446284600F0A3FF4FF4806144EAF3
:102CD4004004284600F09CFF64B244EA8000C0B27D
:102CE40038BD00BF0010024008B502231A4602F0A6
:102CF40025F808BD13B54FF0FF349BB2009401F0E2
:102D04003DFC02B010BD1FB54FF0FF340294BDF876
:102D14001840CDE90034012301F070FE04B010BD69
:102D240013B54FF0FF349BB2009401F001FD02B0E3
:102D340010BD1FB54FF0FF340294BDF81840CDE923
:102D44000034012301F0F0FE04B010BD1FB54FF0B4
:102D5400FF340294BDF81840CDE90034022301F099
:102D64004DFE04B010BD1FB54FF0FF340294BDF802
:102D74001840CDE90034022301F0D6FE04B010BDA2
:102D840070B504460D4616460021FFF769FE4FF064
:102D9400FF332946B2B2204602F0EDFA054601217E
:102DA4002046FFF75DFE284670BDF7B50D460021AD
:102DB40004461F461646FFF753FE4FF0FF333246D4
:102DC400294600932046BBB202F084FB054601214C
:102DD4002046FFF745FE284603B0F0BD07B501467F
:102DE40001AA054802F0D0F801460448FDF78AFC20
:102DF400019803B05DF804FB18010020F874000882
:102E040010B500F06BFA044B1A681AB1BDE8104013
:102E14001B68184710BD00BF6C000020014B1860F0
:102E2400704700BF6C0000204FF47A720E4B196893
:102E34006FF07F4302FB01F0984228BFB1FBF2F32D
:102E440003F1FF332CBF01200020B3F1807F0AD2AD
:102E54004FF0E022F0215361044B83F82310002348
:102E640093610723136170476400002000ED00E0C4
:102E740000F042BA30B5142593B01022002108A8FE
:102E8400FDF7E6F92A46002101A8FDF7E1F9012240
:102E940005230224CDE906234FF48003CDE90C4336
:102EA400C023CDE90F34042306A811930E9500F036
:102EB400CBFE0F230021CDE901344FF4A053CDE91B
:102EC40003134FF48053032101A8059301F052F832
:102ED40013B030BD1C2210B592B00DEB02000021DE
:102EE400FDF7B6F91422002101A8FDF7B1F901227A
:102EF40010230D21CDE90923C3230224CDE90E13A8
:102F0400042306A8119306940C94109400F09CFEDC
:102F14000F230020CDE901344FF4A053CDE903037E
:102F24004FF48053032101A8059301F023F812B054
:102F340010BD000010B5044660B9FFF7CBFF322086
:102F440000F0DAF92246BDE810404FF4006106486B
:102F540000F064BE01224FF40061034800F05EFEFD
:102F6400BDE81040FFF786BF000C02402DE9F04F8A
:102F740000248DB007AD00F097F9FFF7ABFF1422E2
:102F840000212846FDF764F9A74B01941A6BDFF87A
:102F94009C9242F010021A631A6BDFF8948202F0DA
:102FA40010020192019A02941A6BDFF888A242F08F
:102FB40080021A631A6B484602F080020292029A57
:102FC40003941A6B4FF6277142F004021A631A6BCA
:102FD400994F02F004020392039A04941A6B012697
:102FE40042F001021A631A6B4FF0110B02F0010256
:102FF4000492049A05941A6B42F002021A631A6B43
:1030040002F002020592059A06941A6B42F0080235
:103014001A631B6B224603F008030693069B00F019
:10302400FDFD22464046072100F0F8FD22465046A9
:1030340040F6066100F0F2FD224638464FF4805116
:1030440000F0ECFD4FF6077329464846CDE90736F4
:10305400CDE9094400F0F0FC202132464846CDE990
:10306400071BCDE9094400F0D9FD2946484600F084
:10307400E3FC4FF4C07329463846CDE9073409947C
:1030840000F0DAFC324631463846CDE9076BA9F543
:103094008059CDE9094400F0C1FD2946384600F0C5
:1030A400CBFC29464846CDE90764099400F0C4FCEA
:1030B400082329464846CDE90734099400F0BCFCAE
:1030C40007234FF4804929464046CDE90736CDE928
:1030D400094400F0B1FC594B29464046CDE9079319
:1030E400099400F0A9FC4FF4004329464046CDE979
:1030F4000734099400F0A0FC40F6066329465046C4
:10310400CDE90736CDE9094400F096FC4FF21803E7
:1031140029465046CDE90734099400F08DFC4FF45C
:10312400805329463846CDE90736CDE9094400F0F5
:1031340083FCFFF78BFD3046FFF7FCFE4048414B14
:10314400C0E90554C0E9003480238DF81D30E12323
:103154008DF81E304FF400033B4D06828DF81C4061
:103164003A4E8DF81F408DF820408DF82140C461FF
:10317400036201F07BFF364B2846C5E90036C5E9FA
:103184000494C5E90244C5E906442C6201F088F9B7
:10319400304B4FF4827B1D602F4D304BC5E90494B6
:1031A400C5E900364FF4006A4FF002094FF4007885
:1031B40030270A262846C5E90244C5E906442C629C
:1031C40001F06EF9264B1D60264D274B2846C5E9B4
:1031D400003BC5E903A9C5E90687C5E90844AC6015
:1031E4006C61AC62EE6202F089F8204B1D60204DE8
:1031F400204B2846C5E9003BC5E9024AC5E90494C9
:10320400C5E90687C5E90844C5E90A4602F076F827
:10321400194B1D60FFF738FC1848FDF71DFB2046CD
:103224000DB0BDE8F08F00BF00380240001002402E
:1032340000040240000C024000080240000011108B
:10324400180100200080024060010020A0860100D7
:103254000054004008010020B4010020005C00403C
:103264000C01002008020020003001401001002061
:103274006002002000380040140100200D75000891
:10328400084B10B5044618684FF47A73B0FBF3F09A
:1032940000F092F8002221464FF0FF3000F04EF883
:1032A400002010BD6400002008B50B4B03201A68F1
:1032B40042F400721A601A6842F480621A601A6852
:1032C40042F480721A6000F027F80020FFF7D8FF5C
:1032D400FFF744F9002008BD003C0240024A13688D
:1032E40001331360704700BF78030020014B186856
:1032F400704700BF7803002037B50190FFF7F6FF51
:103304000546019C631C18BF0134FFF7EFFF431B04
:10331400A342FAD303B030BD07490302CA6803F4D9
:10332400E06322F4E0621204120C134343F0BF631F
:1033340043F40033CB60704700ED00E0164B30B52A
:10334400DC68C4F30224C4F10703251D042B28BF41
:103354000423062D4FF0FF3598BF002405FA03F32C
:1033640088BF033C21EA0303A34005FA04F422EADC
:103374000402002843EA0203ACBF00F16040074A9C
:103384004FEA0313DBB2B5BF00F00F0000F5614054
:10339400135480F8003330BD00ED00E014ED00E07C
:1033A4000123420900F01F0003FA00F0014B43F827
:1033B4002200704700E100E00138B0F1807F0BD2B9
:1033C4004FF0E023F021054A586182F823100020D1
:1033D400072298611A6170470120704700ED00E0F0
:1033E4000368DA6822F49072DA605A6922F0010202
:1033F4005A61202380F83A30704700002DE9F843E1
:1034040004460368C1681A69256922F440520A43D4
:103414001A61A268D9682A436569C06921F4164112
:103424002A4321F00C0102430A43DA605A69A16974
:1034340022F440720A43B0F5004F5A61844A40F0C6
:103444008680934203D002F5806293424AD100F011
:103454004BFE4FF0190909FB00F367684FF064084D
:103464007F00B3FBF7F3B3FBF8F31F0100F03CFE5E
:1034740009FB00F065686D00B0FBF5F500F034FE63
:1034840009FB00F663685B00B6FBF3F6B6FBF8F6DF
:1034940008FB165600F028FEF6003236B6FBF8F6A6
:1034A40009FB00F5636876005B00B5FBF3F506F4F1
:1034B400F87600F019FE09FB00F3606822684FEA11
:1034C4004009B3FBF9F3B3FBF8F308FB1353DB0038
:1034D4003233B3FBF8F303F007033B443344936004
:1034E400BDE8F88300F0E8FD4FF0190909FB00F38B
:1034F40067684FF064087F00B3FBF7F3B3FBF8F39E
:103504001F0100F0D9FD09FB00F065686D00B0FBF8
:10351400F5F500F0D1FD09FB00F663685B00B6FB2E
:10352400F3F6B6FBF8F608FB165600F0C5FDF600F8
:103534003236B6FBF8F609FB00F5636876005B00EB
:10354400B5FBF3F506F4F87600F0B6FDB3E7934265
:1035540002D0404A934247D100F0C6FD4FF019090A
:1035640009FB00F367684FF06408BF00B3FBF7F38F
:10357400B3FBF8F31F0100F0B7FD09FB00F0656829
:10358400AD00B0FBF5F500F0AFFD09FB00F3626898
:103594009200B3FBF2F3B3FBF8F308FB13531B01E4
:1035A4003233B3FBF8F303F0F00600F09DFD09FBA2
:1035B40000F563689B00B5FBF3F500F095FD09FB8E
:1035C40000F3606822684FEA8009B3FBF9F3B3FBA8
:1035D400F8F308FB13531B013233B3FBF8F303F086
:1035E4000F0333433B447AE700F066FD4FF01909BB
:1035F40009FB00F367684FF06408BF00B3FBF7F3FF
:10360400B3FBF8F31F0100F057FD09FB00F06568F8
:10361400AD00B0FBF5F500F04FFD09FB00F3626867
:103624009200B3FBF2F3B3FBF8F308FB13531B0153
:103634003233B3FBF8F303F0F00600F03DFD09FB71
:1036440000F563689B00B5FBF3F500F035FDB6E7C4
:103654000010014000140140F8B504460E46174618
:103664001D462268136836EA030301D1002014E0E2
:103674006B1CF7D095B923680320DA6822F4D07262
:10368400DA605A6922F001025A61202384F8393041
:1036940084F83A30002384F83830F8BDFFF726FE6A
:1036A400C01B8542DDD2E6E710B5044640B390F86E
:1036B400393003F0FF021BB980F83820FFF7EEF829
:1036C4002423226884F83930D368204623F4005335
:1036D400D360FFF793FE236800201A6922F4904216
:1036E4001A615A6922F02A025A61DA6842F40052D5
:1036F400DA602023E06384F8393084F83A3010BD6E
:103704000120FCE72DE9F0411F4690F839300446CA
:10371400202B0D4690464ED100294AD0002A48D08D
:1037240090F83830012B46D0012380F8383000233C
:10373400C363212380F83930FFF7D8FD0646A4F887
:103744002480A4F82680E38C9BB263B93B463246BE
:1037540040212046FFF780FFA0B9202384F83800D9
:1037640084F839300FE0E38C3246013B9BB2E384AA
:10377400A3688021B3F5805F20463B4610D1FFF754
:103784006BFF10B10320BDE8F0812B882268C3F3DE
:103794000803536023690BB90235D4E70135D2E736
:1037A400FFF75AFF0028EDD1236815F8012B5A6062
:1037B400C9E70120E7E70220E5E72DE9F0411E46CD
:1037C40090F83A300446202B0D46904652D10029F9
:1037D4004ED0002A4CD090F83830012B4AD0012327
:1037E40080F838300023C363222380F83A30FFF78F
:1037F4007DFD0746A4F82C80A4F82E80E08D80B2CD
:1038040028B9202384F8380084F83A3010E0E18D98
:10381400A368013989B2B3F5805FE18533463A463E
:103824004FF02001204615D1FFF716FF10B10320F9
:10383400BDE8F081236822695B6832B92946C3F385
:10384400080321F8023B0D46D8E72946DBB221F8EC
:10385400013BF8E7FFF700FF0028E8D1236822695D
:103864005B68691C0AB92B70EDE703F07F03FAE784
:103874000120DDE70220DBE77047704790F83A301B
:1038840010B5222B20D181680469B1F5805F0268EC
:10389400836A1ED15268C4B9C2F3080223F8022B0A
:1038A4008362C38D013B9BB2C3856BB90368DA683D
:1038B40022F49072DA605A6922F001025A612023DC
:1038C40080F83A30FFF7D9FF10BDD2B223F8012BAC
:1038D400E6E7591C526881620CB91A70E1E702F0FC
:1038E4007F02FAE770470000036870B51A6804465F
:1038F4001607D9685D6907D1960659D58D0657D53F
:10390400BDE87040FFF7BABF05F0010001F49075FF
:1039140005434DD0D60705D5CD0542BFE36B43F033
:103924000103E363530704D518B1E36B43F00203C7
:10393400E363960704D518B1E36B43F00403E36330
:10394400150704D518B1E36B43F00803E363E36B95
:103954004BB3900604D5890602D52046FFF78EFFA7
:10396400236820465B69E56B03F0400305F0080516
:103974001D4319D0FFF734FD23685A6952060FD549
:103984005A69606B22F040025A6148B1254B0365C5
:1039940001F092FE38B1606BBDE87040036D1847CA
:1039A4002046FFF79FFF70BDFFF79CFFE563FAE732
:1039B400160628D50D0626D594F83920212AF2D1E9
:1039C400A168226AB1F5805F18D11188C1F308019A
:1039D4005960216981B902322262E28C013A92B2C1
:1039E400E284002ADFD1DA6822F08002DA60DA6841
:1039F40042F04002DA60D6E70132EDE7511C216261
:103A040012785A60E9E75006CDD54A06CBD5DA6874
:103A1400204622F04002DA60202384F83930FFF790
:103A24002BFFC0E72D3A000808B50023806BC3853F
:103A3400C384FFF757FF08BD00232DE9F74FDFF8D4
:103A4400C081704ADFF8C09101270C689F4007EAE3
:103A5400040537EA040440F0BD804C6824F0100AE1
:103A6400BAF1020F16D14FF00F0C4FEAD30E00EB50
:103A74008E0E03F0070BDEF820604FEA8B0B0CFA76
:103A84000BFC26EA0C0C0E6906FA0BF646EA0C0649
:103A9400CEF820604FF0030CD0F800B04FEA430E8C
:103AA4000CFA0EFC2BEA0C0B6FEA0C0604F0030C68
:103AB4000CFA0EFC0AF1FF3A4CEA0B0CBAF1010FB6
:103AC400C0F800C016D8D0F808C0D1F80CA006EA97
:103AD4000C0C0AFA0EFA4AEA0C0CC0F808C0D0F82A
:103AE40004C02CEA0707C4F3001C0CFA03FC4CEADC
:103AF40007074760C76837408E6806FA0EF63E43EC
:103B0400C660E60066D500264FF00F0C0196D8F883
:103B1400447003F0030E47F48047C8F84470D8F8A3
:103B240044704FEA8E0E07F480470197019F23F0FB
:103B3400030707F1804707F59C37D7F808A00CFA6C
:103B44000EFC2AEA0C0CDFF8C4A0504521D006F183
:103B5400804606F50136B04243D006F58066B04291
:103B640041D006F58066B0423FD006F58066B0428B
:103B74003DD048453DD006F50066B0423BD006F541
:103B84008066B04239D006F58066B0420CBF082684
:103B9400092606FA0EF646EA0C06BE60EF431668DE
:103BA40014F4803F0CBF3E402E431660566814F454
:103BB400003F0CBF3E402E435660966814F4801FAD
:103BC4000CBF3E402E439660D668A40254BF3E40CC
:103BD4002E43D6600133102B7FF436AF03B0BDE81B
:103BE400F08F0126D5E70226D3E70326D1E7042682
:103BF400CFE70526CDE70626CBE70726C9E700BFB2
:103C040000380240003C0140001402400000024021
:103C14000369194214BF0120002070470AB1816171
:103C240070470904FBE7436959404161704700004C
:103C3400044A08B55169014202D05061FEF7FEFF03
:103C440008BD00BF003C0140F7B5044610B901208F
:103C540003B0F0BD0368D80738D4236899076AD441
:103C640023681E0700F1B78023685D0728D5002369
:103C74000193A64BA64D1A6C42F080521A641B6C39
:103C840003F080530193019B2B6843F480732B60F2
:103C9400FFF72CFB06462B68DA0540F1C080237A37
:103CA4009A4D85F87030A368002B00F0C680FFF7AA
:103CB4001DFB41F2883706462B6F9B0740F1B68007
:103CC400A269002A40F0C8800020C1E78F4B9A689F
:103CD40002F00C02042A07D09A6802F00C02082AA7
:103CE4000AD15A68520207D5884B1B689B03B4D586
:103CF4006368002BB1D1AAE722799A7063686BB12B
:103D0400FFF7F4FA0546814E33689F03A5D4FFF705
:103D1400EDFA401B6428F7D9032099E7FFF7E6FA88
:103D240005467A4E3368980397D5FFF7DFFA401BB0
:103D34006428F7D9F0E7754B9A6812F00C0F07D096
:103D44009A6802F00C02082A17D15B68590214D44D
:103D54006E490B689A0703D5E368012B7FF477AFAC
:103D6400F823086893FAA3F3B3FA83F22369934020
:103D740020F0F80213430B6072E7E268654BDAB196
:103D840001221A60FFF7B2FA0646604D2B689B07C2
:103D94000CD5F823296893FAA3F3B3FA83F22369C1
:103DA400934021F0F80213432B6059E7FFF79EFA82
:103DB400801B0228EAD9AFE71A60FFF797FA054695
:103DC400524E33689F077FF54BAFFFF78FFA401BC6
:103DD4000228F6D9A0E762694E4B82B10122C3F8EA
:103DE400802EFFF783FA0546484E736F98073FF518
:103DF4003BAFFFF77BFA401B0228F6D98CE7C3F8E8
:103E0400802EFFF773FA0546404E736F99077FF5CE
:103E14002BAFFFF76BFA401B0228F6D97CE7FFF7BC
:103E240065FA801B02287FF636AF75E7FFF75EFA66
:103E3400801BB8427FF640AF6EE7FFF757FA41F2B6
:103E4400883706462B6F98077FF53AAFFFF74EFA8F
:103E5400801BB842F6D95FE72C4DAB6803F00C0326
:103E6400082B3FF4F4AE022A4FF00002294B1A66E5
:103E74003ED1FFF73BFA06462B68990132D447F648
:103E8400C07696FAA6F64FF44032B6FA86F692FA5F
:103E9400A2F24FF07061B2FA82F091FAA1F1D4E982
:103EA4000732B1FA81F11343626AB2401343A26A42
:103EB4005208013A82401343E26A02FA01F10122F4
:103EC4000B436B60134B114D1A66FFF70FFA044650
:103ED4002B689A013FF5F8AEFFF708FA001B642837
:103EE400F6D919E7FFF702FA801B6428C4D913E74F
:103EF400FFF7FCF904462B689B017FF5E5AEFFF75D
:103F0400F5F9001B6428F6D906E700BF0038024023
:103F14000070004000004742134908B58B6803F065
:103F24000C03042B1CD0082B1CD14A684B6849682D
:103F340013F4800314BF0D480D48C1F3881118BF52
:103F44000023A1FB000102F03F02FCF7D1F9064B6C
:103F54005B68C3F3014301335B00B0FBF3F008BDBE
:103F64000248FCE70248FAE70038024040787D0145
:103F74000024F4002DE9F0410D46044610B9012057
:103F8400BDE8F081454B1A6802F00F028A422DD336
:103F94002268970732D4D00746D4404B1A6802F0FF
:103FA4000F02AA4269D8226851076FD4130707D5B4
:103FB4003B4A2169936823F4604343EAC103936055
:103FC400FFF7AAFF364BF0229B6892FAA2F2B2FAEC
:103FD40082F203F0F003D340324AD35CD840324B30
:103FE40018600020FFF74CF90020C9E7CAB21A7024
:103FF4001B6803F00F038B42C1D1C9E7284B12F0B1
:10400400040F1EBF996841F4E0519960160742BF3E
:10401400996841F4604199602149A0688B6823F054
:10402400F00303438B60B6E761681D4B01291A68EE
:104034001BD112F4003FA2D09A6841F2883822F0D2
:1040440003020A439A60FFF751F90646144FBB680E
:10405400626803F00C03B3EB820F9ED0FFF746F9BE
:10406400801B4045F3D903208AE7022902D112F0CC
:10407400007FE0E712F0020FDDE7EAB21A701B6876
:1040840003F00F03AB427FF47AAF8CE70449E06896
:104094008B6823F4E05303438B6087E7003C0240C2
:1040A40000380240E074000864000020014B1868E6
:1040B400704700BF64000020084B4FF4E0529B6837
:1040C40092FAA2F2B2FA82F203F4E053D340044A21
:1040D400D35C044A1068D840704700BF00380240DF
:1040E400F074000864000020084B4FF460429B68A1
:1040F40092FAA2F2B2FA82F203F46043D340044A81
:10410400D35C044A1068D840704700BF00380240AE
:10411400F07400086400002001680246486910F445
:1041240080600CD06FF480634B61042320211364FE
:1041340000230120136382F83C3082F83D1070475D
:104144002DE9F84606460F4691461D464FEA114AA8
:104154003368BAF1010F0CBF5C699C6927EA040457
:10416400A4B2B4FA84F46409A14501D000200CE09F
:104174006A1CEED05DB9002320220320336386F845
:104184003C3086F83D2086F83E30BDE8F886FFF7DF
:10419400ADF8089BC01AA842DAD9ECE72DE9F04142
:1041A40004460F46164698462568686927EA0000C3
:1041B40080B298B16B695A0512D52B68202243F45A
:1041C40000732B606FF480636B610423236400230A
:1041D4000120236384F83C3084F83D20BDE8F0815D
:1041E400731CE2D046B9002320222363032084F801
:1041F4003D2084F83C30F1E7FFF778F8A0EB0800A5
:10420400B042D1D9EFE770B504460D461646216891
:104214004B6913F0400301D000200DE04A69D20637
:104224000BD56FF010024A6120220120236484F828
:104234003C30236384F83D2070BD5DB9236C0320BA
:1042440043F020032364202384F83D30002384F8C2
:104254003C30F1E7FFF74AF8801BA842D7D9EDE7D5
:1042640070B504460D46164623685B695B0701D5A5
:10427400002012E02046FFF74FFFA8B96A1CF3D0D4
:1042840065B9236C202243F0200323640023032018
:10429400236384F83C3084F83D2070BDFFF726F892
:1042A400801BA842E0D9ECE70120F6E770B504468C
:1042B4000D46164623685B691B0601D5002012E0F3
:1042C4002046FFF729FFA8B96A1CF3D065B9236C0F
:1042D400202243F02003236400230320236384F873
:1042E4003C3084F83D2070BDFFF700F8801BA842E5
:1042F400E0D9ECE70120F6E72DE9F0431546026822
:104304009946136885B043F480731360DDE90C7833
:104314000E463B4600224FF00111CDF800800446C2
:10432400FFF70EFF18B1032005B0BDE8F083236842
:1043340006F0FE061E613A46434620461849FFF73A
:104344002DFF20B1236C042BEDD10120ECE7236871
:1043540003905A69394603929B6942460393204667
:10436400039BFFF7A3FF40B1236C042BDBD122682E
:10437400136843F400731360E7E7B9F1010F23688E
:1043840002D1EDB21D61CFE72A0A1A6139464246CD
:104394002046FFF78BFF0028E6D12368F1E700BF32
:1043A400020001002DE9FF479A46DDE90C78036815
:1043B40015461A680E4642F480621A601A684FF075
:1043C400011142F480721A603B460022CDF800804D
:1043D4000446FFF7B5FE18B1032004B0BDE8F0872A
:1043E40023685FFA86F906F0FE061E613A464346E4
:1043F40020462A49FFF7D2FE20B1236C042BEBD1CF
:104404000120EAE7236803905A69394603929B69BD
:10441400424603932046039BFFF748FF40B1236CB9
:10442400042BD9D12268136843F400731360E7E7BF
:10443400BAF1010F236825D1EDB242463946204630
:104444001D61FFF733FF02460028E8D121682046AA
:104454000B6843F480730B603B464FF00111CDF8B9
:104464000080FFF76DFE0028B6D1226849F00103F1
:104474001361204643463A460849FFF78FFE002859
:10448400ABD0BAE72A0A1A61394642462046FFF7FA
:104494000DFF0028C3D12368CEE700BF020001004E
:1044A40070B50446002862D090F83D3003F0FF0256
:1044B4001BB980F83C20FEF7E3F82423226884F833
:1044C4003D3013682B4D23F001031360FFF7F4FD17
:1044D4006368294AAB42B0FBF2F288BF4FF4967688
:1044E40021684A6082BF72434FF47A76B2FBF6F2D7
:1044F400AB4202F101020A6221D85B00B0FBF3F384
:1045040040F6FC72134208BF0423CB61D4E907329E
:1045140013430B60D4E9032313438B60D4E90532BE
:104524001343CB600B68002043F001030B6020238E
:10453400206484F83D30206384F83E0070BDA26896
:104544004AB903EB4303B0FBF3F3C3F30B0262B1C9
:1045540043F40043D9E719225343B0FBF3F3C3F305
:104564000B0212B143F44043CFE70123CDE701200E
:10457400E4E700BFA086010040420F002DE9F043AC
:10458400044685B098460D4691460C9FFEF7AEFE54
:1045940094F83D300646202B04D00225284605B069
:1045A400BDE8F08300901923012220465D49FFF7FE
:1045B400C7FD0028F1D194F83C30012BEDD0012344
:1045C400216884F83C300B68DB075EBF0B6843F05E
:1045D40001030B600B6823F400630B60212384F850
:1045E4003D30102384F83E3000232364A3F5803348
:1045F400A4F82A80E362638DC4F824902385E36AD7
:10460400042B04D0012B02D013F5803F04D10B6896
:1046140043F480730B6002E0236B122BF7D03B460C
:1046240000224FF0011120460096FFF789FD002873
:1046340033D123692268B3F5804F20D105F0FE05FC
:10464400156133463A4620463749FFF7A7FD05462C
:1046540010BB236803905A6903929B690393039BDD
:10466400238D3BBB21680A6842F400720A60202251
:1046740084F83C3084F83D2084F83E308EE7EB111A
:1046840003F0060343F0F0031361204633463A4631
:104694002649FFF783FD48B1236C236C042B4FF0AC
:1046A400000384F83C300ED1012577E72368EDB28E
:1046B4001D61C6E7324639462046FFF7F7FD20B1B3
:1046C400236C042B27D0032568E7616A20684B1C00
:1046D40063620B78228D0361638D013B9BB263851A
:1046E400D0F814C0531E9BB21CF0040F23850AD0CB
:1046F4004BB18B1C63624B78023A0361638D228554
:10470400013B9BB26385324639462046FFF7A8FD3C
:104714000028A5D0D4E72268136843F4007313601B
:10472400C2E700BF020010000200010008000100FF
:104734002DE9F043044689B098460D469146109FF2
:10474400FEF7D4FD94F83D300646202B04D0022514
:10475400284609B0BDE8F0830090192301222046C1
:104764009549FFF7EDFC0028F1D194F83C30012B7A
:10477400EDD00123216884F83C300B68D8075EBF74
:104784000B6843F001030B600B6823F400630B60B8
:10479400222384F83D30102384F83E300023236420
:1047A400A3F58033A4F82A80E362638DC4F82490CF
:1047B4002385E36A0A68042B42F480620A6004D009
:1047C400012B02D013F5803F04D10B6843F48073AE
:1047D4000B6002E0236B112BF7D03B4600224FF015
:1047E400011120460096FFF7ABFC002830D1226966
:1047F4002368B2F5804F1CD145F00105EDB21D616F
:1048040033463A4620466D49FFF7C8FC0546F0B9E1
:10481400238D2168002B49D0012B5DD10B6823F433
:1048240080630B6004904B6904938B690493049B2D
:1048340042E04FEAE51808F0060848F0F0021A6171
:10484400204633463A465E49FFF7A8FC48B1236C3C
:10485400236C042B4FF0000384F83C3064D1012511
:1048640076E72368EDB23A461D6120463346534944
:10487400FFF794FC02460028E9D1236807905969A0
:1048840020460791996907910799196841F4807145
:1048940019603B464FF001110096FFF751FC0028C8
:1048A400D6D1226848F0F1031361A9E703904B695C
:1048B40003938B690393039B0B6843F400730B60AE
:1048C400DFF80081238D13BB202284F83C3084F868
:1048D4003D2084F83E303BE7022B0B680DD123F4D6
:1048E40080630B600B6843F400630B6005904B69B5
:1048F40005938B690593059BE2E743F480630B60A2
:1049040006904B6906938B690693069BD8E7032BA5
:104914005AD8012B0AD1324639462046FFF773FC98
:1049240008B3236C202B9AD1032511E7022B4FF0F7
:1049340000023B4641462046009622D1FFF700FC88
:104944000028F1D123681A6842F400721A601A69C7
:10495400636A591C61621A70238D013B2385638D40
:10496400013B9BB2638523681A69636A591C6162BF
:104974001A70238D013B2385638D013B9BB26385B4
:10498400A0E7FFF7DDFB02460028CDD123681968B4
:1049940021F4806119601969636A581C6062197096
:1049A400238D4146013B2385638D2046013B9BB209
:1049B400638500963B46C1E7020010000200010037
:1049C4000800010004000100324639462046FFF782
:1049D4001AFC0028A5D123681A69636A591C61620C
:1049E4001A70238D013B2385638D013B9BB2638544
:1049F40023685A6952077FF565AFB5E72DE9F34798
:104A040004469A46884691460C9EFEF76FFC94F83D
:104A14003D300546202B03D0022002B0BDE8F087CC
:104A240000901923012220463D49FFF789FB002805
:104A3400F2D194F83C30012BEED00123206884F8A5
:104A44003C3003680027DA0758BF03684A465CBF56
:104A540043F0010303600368414623F400630360E9
:104A6400212384F83D30402384F83E300A9B276498
:104A74006362BDF82C30204663852A4BCDE900657E
:104A8400E362638D23855346FFF736FC00282AD062
:104A9400236C84F83C70042B07D10120BDE7FFF799
:104AA40005FC20B1236C042B34D00320B5E7616AE4
:104AB40027684B1C63620B78228D3B61638D501E0B
:104AC400013B9BB263857B6980B25B0720850AD575
:104AD40048B18B1C63624B78023A3B61638D22853B
:104AE400013B9BB26385238D2A4631462046002B29
:104AF400D5D1FFF7B5FB0028D4D12268136843F45D
:104B040000731360202384F83C0084F83D3084F85B
:104B14003E0082E72268136843F400731360BCE725
:104B2400020010000000FFFF2DE9F047044686B0A4
:104B34009A460D469146109FFEF7D8FB94F83D30F7
:104B44000646202B04D00225284606B0BDE8F0878F
:104B540000901923012220467549FFF7F1FA002835
:104B6400F1D194F83C30012BEDD00123206884F876
:104B74003C3003684FF00008D90758BF0368294642
:104B84005CBF43F00103036003684A4623F40063F7
:104B94000360222384F83D30402384F83E300E9B8A
:104BA400C4F840806362BDF83C3020466385614BA5
:104BB400CDE90076E362638D23855346FFF7F2FB6C
:104BC400054630B1236C84F83C80042B4DD101257B
:104BD400BAE7228D2368B2B902905A6902929A699F
:104BE4000292029A1A6842F400721A60DFF848814D
:104BF400238D002B2CD1202284F83C3084F83D20D6
:104C040084F83E30A0E7012A0AD11A6822F48062AF
:104C14001A6003905A6903929A690392039AE1E72E
:104C2400022A0ED11A6822F480621A601A6842F4C9
:104C340000621A6004905A6904929B690493049B6D
:104C4400D4E705905A6905929B690593059BCDE7C6
:104C5400032B52D8012B0AD1324639462046FFF79E
:104C6400D2FA08B3236C202BB1D103256CE7022BB5
:104C74004FF000023B4641462046009622D1FFF702
:104C84005FFA0028F1D123681A6842F400721A60AE
:104C94001A69636A591C61621A70238D013B23856A
:104CA400638D013B9BB2638523681A69636A591C4F
:104CB40061621A70238D013B2385638D013B9BB296
:104CC400638595E7FFF73CFA02460028CDD12368B7
:104CD400196821F4806119601969636A581C60625B
:104CE4001970238D4146013B2385638D2046013B8A
:104CF4009BB2638500963B46C1E73246394620465F
:104D0400FFF781FA0028ADD123681A69636A591C38
:104D140061621A70238D013B2385638D013B9BB235
:104D2400638523685A6952077FF562AFBDE700BF08
:104D3400020010000000FFFF040001002DE9F04F05
:104D4400044685B01F4688469246FEF7CFFA94F88B
:104D54003D300546202B03D0022005B0BDE8F08F7E
:104D640000901923012220464A49FFF7E9F9002857
:104D7400F2D194F83C30012BEED0012384F83C307E
:104D8400236800261A68DFF80CB1D20758BF1A68E6
:104D940008F0FE085CBF42F001021A601A6822F4AF
:104DA40000621A60242384F83D303B4B2664E3629E
:104DB40022684FF001111368204643F48073136096
:104DC4003B4600220095FFF7BBF908B10320C4E776
:104DD40023684FF0A009C3F81080FEF787FA054650
:104DE400236859695A6994F83D30C1F34001C2F30C
:104DF4008022DBB20A4301D1A02B21D14FF020093C
:104E0400236884F83D905A6912F0020F1A6842F43C
:104E140000721A6028D0002203925A692046039235
:104E24009B6901220393039B1A4919230095FFF7F9
:104E340087F90028CAD184F83D9084F83C008CE7B7
:104E440067B984F83D90236859695A6994F83D30EC
:104E5400C1F34001C2F38022DBB2CBE7FEF746FA8E
:104E6400401BB842EDD8EEE76FF4806259465A61B0
:104E74002046192301220095FFF762F90028A5D1E5
:104E84000136B24594D884F83C0084F83D90012062
:104E940063E700BF020010000000FFFF70B5044686
:104EA40029B14FF480434FF40062C0E90232E36950
:104EB4002268002B08BF4FF48061D4E9023518BF83
:104EC40000212B4310680B432B4901400B4343F44F
:104ED4000073136001201568FEF70EFA4022236860
:104EE40001201D605A605D68FEF706FA2368012000
:104EF4005D6000259D60DD609A6922F0BE021204A7
:104F0400120C42F080029A619E69FEF7F5F923685B
:104F140001209E61DD61DD69FEF7EEF92268174B21
:104F2400D56102F58052916901200B4043F008736A
:104F340043F0040393619569FEF7DEF92368104A90
:104F440003F580539D6101201A601D68FEF7D4F9B2
:104F54002368A26903F580531D60012A01BFDA6941
:104F640042F4803242F04002DA616269054B918872
:104F7400196412685A6470BD0F8120FF233FDEF864
:104F84008020C10200800240F8B590F84430064603
:104F9400822B154630D0822380F84430348A03684B
:104FA400E4021869890101F4F861A4B200F01C005C
:104FB4000C43044344F001041C61FEF797F90746CF
:104FC40014F0010007D133685B699BB22B600123A5
:104FD40086F844300CE0FEF789F9C01BB0F5803F39
:104FE40007D3012386F844300023032086F8453094
:104FF400F8BD33681C69E3E70220F9E770B590F85F
:1050040044300546422B2ED0422380F844302C8A6B
:105014000368E4021869890101F4F861A4B200F09C
:105024001C000C43044392B244F003045A611C6113
:10503400FEF75CF9064614F0010003D1012385F85C
:1050440044300CE0FEF752F9801BB0F5803F07D3E3
:10505400012385F844300023032085F8453070BDD2
:105064002B681C69E7E70220F9E700000023F7B585
:1050740004460093002800F0D88090F8443003F0F0
:10508400FF021BB980F84520FDF784FA0023019341
:10509400674B5A6C42F480425A645B6C03F480435D
:1050A4000193019B634B5A6822F400025A605A68C8
:1050B400216A0A435A60236803F580531A6842F050
:1050C40001021A60FEF712F90546236803F58052BF
:1050D4001268D0071DD41D69FEF7E8FF564B574AE6
:1050E4000344934225F01C0522D245F008052368A9
:1050F4004FF400421D6100212046FFF77FFF054663
:1051040030B3012501212046FFF7C8FE84F844503E
:105114000BE0FEF7EBF8401BB0F5FA7FD5D9032579
:10512400002384F8445084F84530284603B0F0BD89
:10513400434B444A0344934202D845F00C05D6E756
:10514400414B424A0344934228BF45F00405CEE74D
:10515400FF20FEF7D1F86368002B54D0FEF7C6F8A1
:1051640041F2883706466A4601212046FFF70CFFC4
:10517400FEF7BCF8801BB8420BD901212046FFF78B
:105184008DFE012384F844300023032584F8453040
:10519400CBE7009B5907E6D54FF480520021204607
:1051A400FFF72CFF0028ACD1FEF7A0F841F28837B6
:1051B40006466A4601212046FFF7E6FEFEF796F80A
:1051C400801BB842D9D8009B9A06F2D56A461F21A3
:1051D4002046FFF7D9FE002893D1009B13F010025C
:1051E40018BF4FF400625B0758BF4FF48043E2607E
:1051F4004CBFA060A36000212046FFF74FFE0123AF
:1052040084F8443091E7D4E90223520842EAD302F5
:105214002946204692B2FFF7F1FE00287FF471AFD1
:1052240040F6FF70FEF768F8E5E701257DE700BF6B
:10523400003802400038014000D3CEFEC0E1E40053
:1052440040F1E9FD3F787D0100796CFC005A62026F
:105254002DE9F0410446884616461D46069F2268FD
:10526400936838EA03030CBF012300239E4201D153
:1052740000202BE06B1CF3D055BB23685A6822F046
:10528400E0025A606268B2F5827F0AD1A268B2F580
:10529400004F02D0B2F5806F03D11A6822F04002A9
:1052A4001A60A26AB2F5005F09D11A6822F40052AA
:1052B4001204120C1A601A6842F400521A60012394
:1052C40084F851300023032084F85030BDE8F08185
:1052D400FEF70CF8C01BA842C1D3CEE713B50B46AA
:1052E4000092802100220446FFF7B2FF20B1032080
:1052F400636D43F02003636502B010BD10B504462E
:10530400002836D00023836290F8513003F0FF0266
:105314001BB980F85020FDF735FA0223216884F880
:1053240051300B68A26923F040030B60D4E90130CB
:105334000343E06803432069034360690343E0696E
:105344000343206A0343A06A034302F40070034347
:105354000B60120C636A02F004021A434A60CB69C0
:10536400002023F40063CB610123606584F851308D
:1053740010BD0120FCE72DE9F0431E4690F85030A3
:105384000446012B0D46914685B000F0A18001230F
:1053940080F85030FDF7AAFF94F851308046012B75
:1053A400DFB240F09380002D50D0B9F1000F4DD002
:1053B400032384F851300023A2686365C4E91033E1
:1053C400A4F83690A363E387A3872368B2F5004F5C
:1053D40008BF1A68256308BF42F48042A4F83490D9
:1053E40008BF1A601A68E16852065EBF1A6842F084
:1053F40040021A60B1F5006F62683AD11AB1E28EC8
:1054040092B2012A06D135F8022BDA60E38E013B11
:105414009BB2E386E38E9BB293B933460122022109
:105424002046CDF80080FFF713FF70B9424631469D
:105434002046FFF753FF00283AD02023636505E098
:1054440023689A689007DED456B90327012384F8A9
:105454005130002384F85030384605B0BDE8F0835D
:10546400711CD7D0FDF742FFA0EB0800B042D1D3A6
:10547400EBE71AB1E28E92B2012A06D115F8012B9C
:105484001A73E38E013B9BB2E386E38E9BB2002B3F
:10549400C3D023689A689207F0D4002ED5D0731C29
:1054A400F3D0FDF723FFA0EB0800B042EDD3CCE727
:1054B400A36833B903932368DA6803929B68039360
:1054C400039B676D003F18BF0127BFE70227BDE7B5
:1054D4000227C1E72DE9F0431F4690F8503085B00C
:1054E400012B04460D461646DDF8308000F0E280BC
:1054F400012380F85030FDF7F9FE94F851308146CD
:10550400012B6268D9B20AD0B2F5827F40F0D08014
:10551400A368002B40F0CC80042940F0C980002D02
:1055240048D0002E46D0002F44D094F85130A663C2
:10553400012B04BF052384F8513000236365C4E9BB
:1055440010332368E787E7861968A787480658BF9A
:105554001968256358BF41F04001A78658BF1960F8
:10556400E168B1F5006F5AD11AB1E28E92B2012A04
:1055740006D135F8022BDA60E38E013B9BB2E38659
:105584000127E38E9BB2BBB9E38F9BB2A3B9434619
:10559400012202212046CDF80090FFF759FE002891
:1055A40033D14A4641462046FFF798FE002874D07E
:1055B40020236365012029E077B1E38E9BB25BB1C0
:1055C40023689A68910707D5002735F8022BDA601B
:1055D400E38E013B9BB2E386E38F9BB263B1216808
:1055E4008A6812F0010207D01746CB6826F8023BFE
:1055F400E38F013B9BB2E387B8F1FF3FC1D0FDF7D6
:1056040075FEA0EB09004045BBD30320012384F8B9
:105614005130002384F8503005B0BDE8F0831AB14E
:10562400E28E92B2012A06D115F8012B1A73E38E89
:10563400013B9BB2E3860127E38E9BB21BB9E38F48
:105644009BB2002BA3D077B1E38E9BB25BB12368EE
:105654009A68920707D5002715F8012B1A73E38E71
:10566400013B9BB2E386E38F9BB263B122689168EE
:1056740011F0010107D00F46D36806F8013BE38F10
:10568400013B9BB2E387B8F1FF3FD5D0FDF72EFE77
:10569400A0EB09004045CFD3B7E7A368002BB5D1F1
:1056A40023680390DA6803929B680393039BADE736
:1056B4000220ABE70220AFE790F83530022B03D08D
:1056C40080234365012070470523026880F8353044
:1056D4001368002023F00103136070471FB50123F2
:1056E400C2B2074800930C460068582103ABFDF78B
:1056F40020FB10B99DF80C30236004B010BD00BF2E
:105704000C0100207FB553BAADF80C3002230D46CE
:1057140016460A46014609480093006803ABFDF7A4
:10572400F2FA044638B10023324600932946034670
:105734000348FAF7E7FF204604B070BD0C010020CF
:10574400067600087FB50E4614460546FFF7DAFFD5
:105754000A20FDF78DFB4AF6DE53ADF80C30022328
:105764000F48009332462946006803ABFDF7E1FA7F
:1057740078B9BDF80C5031466DBAADB22B462A4605
:1057840008480094FAF7BEFF631B5842584104B01E
:1057940070BD31460448FAF7B5FF0020F7E700BFB3
:1057A4000C010020327600086076000870B50E48BF
:1057B400FBF752F802240D4D0D4E2868E1B2FDF7B7
:1057C40093FA58B12E20FAF7CBFF0234B4F5807F58
:1057D400F3D10848BDE87040FBF73EB82146304697
:1057E400FAF790FFF1E700BF747600080C0100207F
:1057F4008A760008617E000870B50024144D154EA9
:105804008EB0204603A9FFF769FF28B10B21124887
:10581400FDF762F90EB070BD039B2A462821009360
:1058240004A82346FBF760F804A8FBF7A1F8014697
:1058340004A8FDF751F904F00303032B03D102215B
:105844003046FDF749F90134402CDAD1E2E700BFD4
:105854009E7600089B76000891760008F7B50C4602
:10586400144F8DF804100546014616460123386886
:1058740001AAFDF73FFA012CBC4612D002D9023C22
:10588400012C0CD802232946DCF8000001AAFDF7FC
:1058940047FABDF804305BBAC3F3C813336003B0EE
:1058A400F0BD23462946386801AAFDF739FA9DF868
:1058B4000430F3E70C0100202DE9F3410D46164EA8
:1058C4008DF804108046014614460123306801AA6D
:1058D400FDF710FA012D374614D002D9AB1E012B67
:1058E4000DD863108DF8053041460323E401386870
:1058F4008DF804508DF8064001AAFDF7FBF902B0BB
:10590400BDE8F0810223414630688DF804508DF8DB
:10591400054001AAF1E700BF0C0100202DE9F04386
:105924009BB004AA04461646224B03F11007154601
:1059340018685968083303C5BB422A46F7D10AAA36
:10594400904618689B882860AB801B4B03F11807AE
:10595400154618685968083303C5BB422A46F7D16F
:105964000025DFF8589019F8017B2046394603AA30
:10597400FFF774FFA8B9039B3246CDE900732821D1
:10598400234610A8FAF7B0FF10A8FAF7F1FF013583
:10599400014610A8FDF7A0F8042DE4D11BB0BDE822
:1059A400F083234642462821009710A8FAF79CFF6B
:1059B400EAE700BFB3760008C9760008D57A000884
:1059C4002DE9F04300242646254F264DDFF8A0801C
:1059D4008DB017F8019BB9F1580F2CD025D8B9F127
:1059E400500F30D04B46002C37D11F4A282102A833
:1059F400FAF77AFF02A8FAF7BBFF014602A8FDF7FF
:105A04006BF828219DF80430184A02A8FAF76CFFB5
:105A140002A8FAF7ADFF0136014602A8FDF75CF8CB
:105A2400042ED6D10DB0BDE8F08309F0FB03922B10
:105A3400D8D1022300E001234946286801AAFDF7D2
:105A44006FF90446CEE7092349468DF804302868E7
:105A5400012301AAFDF74EF9EBE74246C6E700BF72
:105A6400967A00080C010020B67A0008CE7A000865
:105A74009A7A00082DE9F0414FF001081B4F86B0D7
:105A84008DF80F2006460A460D46CDF800800146E3
:105A94000DF10F033868FDF759F9044648B129465A
:105AA4009DF80F201248FAF72DFE204606B0BDE8F7
:105AB400F0810A20FDF7DCF955232A468DF81730CA
:105AC40031460DF117033868CDF80080FDF74BF926
