:020000040800F2
:100000000000022035050008190A00081B0A000834
:100010001D0A00081F0A0008210A0008000000004D
:10002000000000000000000000000000230A00089B
:10003000250A000800000000270A00082D0E00080D
:100040008505000885050008850500088505000868
:100050008505000885050008610C00088505000875
:100060008505000885050008850500088505000848
:100070008505000885050008850500088505000838
:100080008505000885050008850500088505000828
:100090008505000885050008850500088505000818
:1000A0008505000885050008850500088505000808
:1000B00085050008850500088505000885050008F8
:1000C00085050008850500088505000885050008E8
:1000D00085050008290A0008350A0008410A0008B9
:1000E00085050008850500088505000885050008C8
:1000F00085050008850500088505000885050008B8
:1001000085050008850500088505000885050008A7
:100110008505000885050008850500088505000897
:100120008505000885050008850500088505000887
:100130008505000885050008850500088505000877
:100140008505000885050008850500088505000867
:100150008505000885050008850500088505000857
:100160008505000885050008850500088505000847
:1001700085050008850500088505000800000000C9
:0401800085050008E9
:1001840010B5054C237833B9044B13B10448AFF3CD
:1001940000800123237010BDE40000200000000053
:1001A400B063000808B5034B1BB103490348AFF320
:1001B400008008BD00000000E8000020B0630008D3
:1001C40053B94AB9002908BF00281CBF4FF0FF31BA
:1001D4004FF0FF3000F076B9ADF1080C6DE904CEB4
:1001E40000F006F8DDF804E0DDE9022304B070470E
:1001F4002DE9F047089E0D4604468846002B4DD154
:100204008A42944668D9B2FA82F252B101FA02F3F0
:10021400C2F1200120FA01F10CFA02FC41EA0308C0
:1002240094404FEA1C41B8FBF1F71FFA8CFE01FB26
:10023400178807FB0EF0230C43EA084398420AD9B7
:100244001CEB030307F1FF3580F01E81984240F256
:100254001B81023F63441B1AB3FBF1F001FB103313
:1002640000FB0EFEA4B244EA0344A6450AD91CEBE3
:10027400040400F1FF3380F00981A64540F20681B1
:10028400644402380021A4EB0E0440EA07401EB186
:100294000023D440C6E90043BDE8F0878B4208D967
:1002A400002E00F0EE800021C6E900050846BDE8F6
:1002B400F087B3FA83F100294AD1AB4202D38242D8
:1002C40000F2FC80841A65EB030301209846002E9B
:1002D400E2D0C6E90048DFE702B9FFDEB2FA82F2F3
:1002E400002A40F09180A1EB0C0001214FEA1C4749
:1002F4001FFA8CFEB0FBF7F307FB1300250C45EA4D
:1003040000450EFB03F0A84208D91CEB050503F1D8
:10031400FF3802D2A84200F2CE8043462D1AB5FB24
:10032400F7F007FB10550EFB00FEA4B244EA0544A7
:10033400A64508D91CEB040400F1FF3502D2A645FA
:1003440000F2B6802846A4EB0E0440EA03409EE780
:10035400C1F120078B4022FA07FC4CEA030C25FA72
:1003640007FA4FEA1C49BAFBF9F820FA07F309FB2C
:1003740018AA8D401FFA8CFE1D4300FA01F308FBF6
:100384000EF02C0C44EA0A44A04202FA01F20BD902
:100394001CEB040408F1FF3A80F08880A04240F28C
:1003A4008580A8F102086444241AB4FBF9F009FB1F
:1003B400104400FB0EFEADB245EA0444A64508D93C
:1003C4001CEB040400F1FF356CD2A6456AD902384F
:1003D400644440EA0840A0FB0295A4EB0E04AC423E
:1003E400C846AE4656D353D0002E69D0B3EB0802AC
:1003F40064EB0E0422FA01F304FA07F71F43CC401E
:10040400C6E90074002147E70CFA02FCC2F120019E
:1004140025FA01F34FEA1C4720FA01F195400D43F8
:10042400B3FBF7F107FB11331FFA8CFE280C40EAEB
:10043400034001FB0EF3834204FA02F408D91CEBD7
:10044400000001F1FF382FD283422DD902396044D4
:10045400C01AB0FBF7F307FB1300ADB245EA004541
:1004640003FB0EF0A84208D91CEB050503F1FF3885
:1004740016D2A84214D9023B6544281A43EA014122
:1004840038E73146304607E72F46E4E61846F9E6F2
:100494004B45A9D2B9EB020865EB0C0E0138A3E772
:1004A4004346EAE7284694E74146D1E7D0467BE74E
:1004B4006444023847E7023B65442FE7084606E7F1
:1004C4003146E9E6704700BF034613F8012B002AC2
:1004D400FBD1181A0138704770B500260C4D0D4C2D
:1004E400641BA410A64209D105F060FF00260A4D42
:1004F4000A4C641BA410A64205D170BD55F8043BF8
:1005040098470136EEE755F8043B98470136F2E781
:10051400F8760008F8760008F8760008FC760008FB
:1005240003460244934200D1704703F8011BF9E7E4
:10053400DFF834D0002103E00C4B5B584350043106
:100544000B480C4B42189A42F6D30B4A02E00023A4
:1005540042F8043B094B9A42F9D300F075FAFFF7CD
:10056400BBFF04F0FDFA704700000220007700088A
:1005740000000020E4000020E4000020A403002088
:10058400FEE70000002182B00B4B00915A6C42F44C
:1005940080425A645A6C02F480420092009A01919B
:1005A4001A6C42F080521A641B6C03F0805301935E
:1005B400019B02B0704700BF00380240F0B504460A
:1005C4008DB01422002107A8FFF7AAFF2268324B3E
:1005D4009A425FD10024A3F5904301941A6B022739
:1005E40042F000721A631A6B032602F00072019241
:1005F400019A02941A6B0B2542F080621A631A6BFB
:10060400264802F080620292029A03941A6B07A9A8
:1006140042F000621A631A6B02F000620392039ABA
:1006240004941A6B42F004021A631A6B02F0040277
:100634000492049A05941A6B42F001021A631A6B2D
:1006440002F001020592059A06941A6B42F0020226
:100654001A631B6BCDE90A6503F002030693069B3C
:100664003223CDE9073701F0FBF986230C4807A9AB
:10067400CDE90737CDE909460B9501F0F1F94FF4BF
:100684006053084807A9CDE90737CDE909460B951A
:1006940001F0E6F90DB0F0BD008002400008024010
:1006A400000002400004024014222DE9F0430446F5
:1006B4008BB00DEB02000021FFF732FF2368354AAF
:1006C400934226D10025344C0095236BC02243F07D
:1006D40002032363236B012103F002030093009BB5
:1006E4001223CDE905230323CDE9071304232B4863
:1006F40005A9099301F0B4F90195236C43F400139F
:100704002364236C03F400130193019B0BB0BDE835
:10071400F083234A9342F9D100251F4C0295236BA1
:100724004FF0120943F004032363236B4FF00108D5
:1007340003F004030293029B0395236B032743F006
:1007440001032363236B042603F001030393039B38
:100754004FF40073134805A9CDE90539CDE907879E
:10076400099601F07DF94FF480730F4805A9CDE98E
:100774000539CDE90787099601F072F90495236CD0
:1007840043F400032364236C03F400030493049BE5
:10079400BCE700BF0054004000380240000402409F
:1007A400005C00400008024000000240F0B504462E
:1007B4008DB01422002107A8FFF7B2FE23683B4A3C
:1007C400934240D100243A4B01945A6C394842F484
:1007D40080525A645A6C07A902F480520192019A19
:1007E40002941A6B022742F001021A631A6B032661
:1007F40002F001020292029A03941A6B052542F058
:1008040002021A631B6B102203F002030393039B7F
:100814000123CDE9072301F023F96023254807A923
:10082400CDE90737CDE90A65099401F019F92023C8
:10083400214807A9CDE90737CDE909460B9501F011
:100844000FF90DB0F0BD1D4A9342FAD10024184BA4
:1008540004941A6C022742F480421A641A6C032628
:1008640002F480420492049A05941A6B052542F01E
:1008740004021A631A6B124802F004020592059AE4
:1008840006941A6B07A942F002021A631B6BCDE9A6
:100894000A6503F002030693069B0C23CDE9073790
:1008A40001F0DEF84FF4C063C2E700BF003001403E
:1008B40000380240000002400004024000380040BA
:1008C4000008024010B504468CB01422002107A889
:1008D400FFF726FE2368484A93422ED10024474B53
:1008E40001945A6C4FF4C06E42F010025A645A6C70
:1008F400434802F010020192019A02941A6B07A96C
:1009040042F001021A631B6B012203F001030293FC
:10091400029B0223CDE907E30323CDE9092307233F
:100924000B9301F09DF825202246214600F01AFD84
:10093400252000F049FD0CB010BD324A93422BD162
:1009440000242E4B03941A6C602042F400321A6483
:100954001A6C4FF0010C02F400320392039A0494CF
:100964001A6B07A942F008021A631B6B03F0080311
:100974000493049B0223CDE907030323CDE909C3B0
:10098400072321480B9301F06BF8262022462146C9
:1009940000F0E8FC2620CCE71C4A9342CBD100248B
:1009A400164B05941A6C012142F480221A641A6CC5
:1009B400174802F480220592059A06941A6B42F0B5
:1009C40004021A631B6B4FF4406203F004030693A2
:1009D400069B0223CDE907230323CDE9091307234B
:1009E40007A90B9301F03CF827202246214600F08A
:1009F400B9FC27209DE700BF0010014000380240E9
:100A04000000024000440040000C02400048004046
:100A1400000802407047FEE7FEE7FEE7FEE7704786
:100A240070477047014800F073BF00BFB002002058
:100A3400014800F06DBF00BFF0020020014800F043
:100A440067BF00BF3003002000210C4B1A6842F03E
:100A540001021A6099601A6822F0847222F48032CA
:100A64001A60074A5A601A6822F480221A604FF00A
:100A74000062D960034B9A60704700BF003802409F
:100A84001030002400ED00E0054B0A461B68834249
:100A94000BBF10214FF400710248034801F0D2B893
:100AA4000801002000000240000402407047704723
:100AB40070B500244FF4E1360C250D480D4BC0E908
:100AC4000244C0E90036C0E905540461C46100F081
:100AD400FFFD0948094BC0E90244C0E90036C0E9FA
:100AE4000445C0E90644BDE8704000F0F1BD00BF14
:100AF400B002002000100140F00200200044004039
:100B040008B58AB24FF47A730146024800F00EFE2B
:100B1400012008BDB002002010B504460748036850
:100B24001B6813F0200306D08AB26423214600F028
:100B340058FE012010BD1846FCE700BFB00200209B
:100B4400022806D8034B81F00102195C024801F027
:100B540079B87047A969000800100240022804D837
:100B6400024B195C024801F072B87047A969000889
:100B74000010024038B50446074D02464FF4007198
:100B8400284601F05FF822462846BDE838404FF475
:100B9400806101F057B800BF000C0240F8B5134D56
:100BA4004FF48061284601F047F8114F04464FF492
:100BB4008061384601F040F84FF40071064628463B
:100BC40001F03AF805464FF40061384601F034F874
:100BD40024F0020444EA460323F0040343EA8503B1
:100BE40023F0080343EAC000C0B2F8BD000C024081
:100BF4000008024070B54FF400610C4801F01CF885
:100C04000B4E04464FF48071304601F015F805464A
:100C14008021304601F010F824F0020444EA45042F
:100C240024F0040444EA8000C0B270BD000C024009
:100C34000008024010B5084C00220121204601F0B2
:100C440001F8322000F06CFB01222046BDE8104080
:100C5400114600F0F7BF00BF00080240012000F079
:100C6400FBBF0000012802D1014B1B6818477047E5
:100C74006800002010B50122002486B0094B01A9A8
:100C84000948CDE90123CDE90344059400F0E8FEC9
:100C940022462146062000F065FB062000F094FB66
:100CA40006B010BD00001110000C0240014B18608A
:100CB400704700BF680000200138C0B202280A460D
:100CC40005D8034B33F81010024800F0BBBF70473F
:100CD400AC6900080010024038B50C4D4FF4807127
:100CE400284600F0A9FF4FF400710446284600F09E
:100CF400A3FF4FF4806144EA4004284600F09CFFBF
:100D040064B244EA8000C0B238BD00BF00100240A3
:100D140008B502231A4602F025F808BD13B54FF0B2
:100D2400FF349BB2009401F03DFC02B010BD1FB52E
:100D34004FF0FF340294BDF81840CDE9003401238C
:100D440001F070FE04B010BD13B54FF0FF349BB238
:100D5400009401F001FD02B010BD1FB54FF0FF3447
:100D64000294BDF81840CDE90034012301F0F0FEEF
:100D740004B010BD1FB54FF0FF340294BDF8184005
:100D8400CDE90034022301F04DFE04B010BD1FB5BF
:100D94004FF0FF340294BDF81840CDE9003402232B
:100DA40001F0D6FE04B010BD70B504460D461646DB
:100DB4000021FFF769FE4FF0FF332946B2B2204607
:100DC40002F0EDFA054601212046FFF75DFE2846B4
:100DD40070BDF7B50D46002104461F461646FFF7C1
:100DE40053FE4FF0FF333246294600932046BBB2F0
:100DF40002F084FB054601212046FFF745FE284604
:100E040003B0F0BD07B5014601AA054802F0D0F8C9
:100E14000146044804F082F8019803B05DF804FB2D
:100E2400100100207C69000810B500F06BFA044B37
:100E34001A681AB1BDE810401B68184710BD00BFFE
:100E44006C000020014B1860704700BF6C0000204C
:100E54004FF47A720E4B19686FF07F4302FB01F076
:100E6400984228BFB1FBF2F303F1FF332CBF0120FA
:100E74000020B3F1807F0AD24FF0E022F0215361C9
:100E8400044B83F8231000239361072313617047F5
:100E94006400002000ED00E000F042BA30B51425F3
:100EA40093B01022002108A8FFF73AFB2A4600213C
:100EB40001A8FFF735FB012205230224CDE906230F
:100EC4004FF48003CDE90C43C023CDE90F34042350
:100ED40006A811930E9500F0CBFE0F230021CDE957
:100EE40001344FF4A053CDE903134FF4805303218D
:100EF40001A8059301F052F813B030BD1C2210B5BF
:100F040092B00DEB02000021FFF70AFB142200212E
:100F140001A8FFF705FB012210230D21CDE90923C8
:100F2400C3230224CDE90E13042306A811930694C7
:100F34000C94109400F09CFE0F230020CDE90134A2
:100F44004FF4A053CDE903034FF48053032101A8C8
:100F5400059301F023F812B010BD000010B504464B
:100F640060B9FFF7CBFF322000F0DAF92246BDE882
:100F740010404FF40061064800F064BE01224FF4B3
:100F84000061034800F05EFEBDE81040FFF786BF35
:100F9400000C02402DE9F04F00248DB007AD00F0A5
:100FA40097F9FFF7ABFF142200212846FFF7B8FAA0
:100FB400A74B01941A6BDFF89C9242F010021A635B
:100FC4001A6BDFF8948202F010020192019A0294E3
:100FD4001A6BDFF888A242F080021A631A6B484643
:100FE40002F080020292029A03941A6B4FF6277160
:100FF40042F004021A631A6B994F02F0040203923E
:10100400039A04941A6B012642F001021A631A6BC4
:101014004FF0110B02F001020492049A05941A6B2A
:1010240042F002021A631A6B02F002020592059A58
:1010340006941A6B42F008021A631B6B224603F0F3
:1010440008030693069B00F0FDFD22464046072157
:1010540000F0F8FD2246504640F6066100F0F2FD2D
:10106400224638464FF4805100F0ECFD4FF60773EA
:1010740029464846CDE90736CDE9094400F0F0FC9D
:10108400202132464846CDE9071BCDE9094400F04A
:10109400D9FD2946484600F0E3FC4FF4C0732946C5
:1010A4003846CDE90734099400F0DAFC324631467B
:1010B4003846CDE9076BA9F58059CDE9094400F01C
:1010C400C1FD2946384600F0CBFC29464846CDE907
:1010D4000764099400F0C4FC082329464846CDE976
:1010E4000734099400F0BCFC07234FF480492946D7
:1010F4004046CDE90736CDE9094400F0B1FC594B2F
:1011040029464046CDE90793099400F0A9FC4FF421
:10111400004329464046CDE90734099400F0A0FC79
:1011240040F6066329465046CDE90736CDE9094421
:1011340000F096FC4FF2180329465046CDE90734D7
:10114400099400F08DFC4FF4805329463846CDE9CC
:101154000736CDE9094400F083FCFFF78BFD3046E8
:10116400FFF7FCFE4048414BC0E90554C0E9003498
:1011740080238DF81D30E1238DF81E304FF40003D9
:101184003B4D06828DF81C403A4E8DF81F408DF879
:1011940020408DF82140C461036201F07BFF364B8F
:1011A4002846C5E90036C5E90494C5E90244C5E901
:1011B40006442C6201F088F9304B4FF4827B1D60A9
:1011C4002F4D304BC5E90494C5E900364FF4006A4D
:1011D4004FF002094FF4007830270A262846C5E963
:1011E4000244C5E906442C6201F06EF9264B1D60E9
:1011F400264D274B2846C5E9003BC5E903A9C5E9A7
:101204000687C5E90844AC606C61AC62EE6202F02A
:1012140089F8204B1D60204D204B2846C5E9003B32
:10122400C5E9024AC5E90494C5E90687C5E9084445
:10123400C5E90A4602F076F8194B1D60FFF738FC41
:10124400184803F005FF20460DB0BDE8F08F00BF3D
:10125400003802400010024000040240000C02402A
:10126400000802400000111010010020008002401C
:1012740058010020A0860100005400400001002015
:10128400AC010020005C00400401002000020020AA
:1012940000300140080100205802002000380040BE
:1012A4000C01002091690008084B10B50446186829
:1012B4004FF47A73B0FBF3F000F092F80022214669
:1012C4004FF0FF3000F04EF8002010BD6400002005
:1012D40008B50B4B03201A6842F400721A601A68AE
:1012E40042F480621A601A6842F480721A6000F054
:1012F40027F80020FFF7D8FFFFF744F9002008BDC6
:10130400003C0240024A136801331360704700BF77
:1013140070030020014B1868704700BF7003002061
:1013240037B50190FFF7F6FF0546019C631C18BF13
:101334000134FFF7EFFF431BA342FAD303B030BDE0
:1013440007490302CA6803F4E06322F4E06212046A
:10135400120C134343F0BF6343F40033CB60704774
:1013640000ED00E0164B30B5DC68C4F30224C4F190
:101374000703251D042B28BF0423062D4FF0FF353A
:1013840098BF002405FA03F388BF033C21EA030352
:10139400A34005FA04F422EA0402002843EA020303
:1013A400ACBF00F16040074A4FEA0313DBB2B5BF9C
:1013B40000F00F0000F56140135480F8003330BD95
:1013C40000ED00E014ED00E00123420900F01F00ED
:1013D40003FA00F0014B43F82200704700E100E0FB
:1013E4000138B0F1807F0BD24FF0E023F021054AA1
:1013F400586182F823100020072298611A6170470F
:101404000120704700ED00E00368DA6822F490726E
:10141400DA605A6922F001025A61202380F83A30D6
:10142400704700002DE9F84304460368C1681A694F
:10143400256922F440520A431A61A268D9682A43F2
:101444006569C06921F416412A4321F00C01024365
:101454000A43DA605A69A16922F440720A43B0F57A
:10146400004F5A61844A40F08680934203D002F5CB
:10147400806293424AD100F04BFE4FF0190909FBF8
:1014840000F367684FF064087F00B3FBF7F3B3FB26
:10149400F8F31F0100F03CFE09FB00F065686D00E5
:1014A400B0FBF5F500F034FE09FB00F663685B0061
:1014B400B6FBF3F6B6FBF8F608FB165600F028FE6A
:1014C400F6003236B6FBF8F609FB00F563687600E1
:1014D4005B00B5FBF3F506F4F87600F019FE09FBA2
:1014E40000F3606822684FEA4009B3FBF9F3B3FBE9
:1014F400F8F308FB1353DB003233B3FBF8F303F0C8
:1015040007033B4433449360BDE8F88300F0E8FDEF
:101514004FF0190909FB00F367684FF064087F0076
:10152400B3FBF7F3B3FBF8F31F0100F0D9FD09FB9C
:1015340000F065686D00B0FBF5F500F0D1FD09FB26
:1015440000F663685B00B6FBF3F6B6FBF8F608FB3F
:10155400165600F0C5FDF6003236B6FBF8F609FB68
:1015640000F5636876005B00B5FBF3F506F4F876E6
:1015740000F0B6FDB3E7934202D0404A934247D10C
:1015840000F0C6FD4FF0190909FB00F367684FF03E
:101594006408BF00B3FBF7F3B3FBF8F31F0100F0DB
:1015A400B7FD09FB00F06568AD00B0FBF5F500F090
:1015B400AFFD09FB00F362689200B3FBF2F3B3FBE7
:1015C400F8F308FB13531B013233B3FBF8F303F0B6
:1015D400F00600F09DFD09FB00F563689B00B5FB78
:1015E400F3F500F095FD09FB00F3606822684FEA0B
:1015F4008009B3FBF9F3B3FBF8F308FB13531B01A6
:101604003233B3FBF8F303F00F0333433B447AE77D
:1016140000F066FD4FF0190909FB00F367684FF00D
:101624006408BF00B3FBF7F3B3FBF8F31F0100F04A
:1016340057FD09FB00F06568AD00B0FBF5F500F05F
:101644004FFD09FB00F362689200B3FBF2F3B3FBB6
:10165400F8F308FB13531B013233B3FBF8F303F025
:10166400F00600F03DFD09FB00F563689B00B5FB47
:10167400F3F500F035FDB6E7001001400014014019
:10168400F8B504460E4617461D462268136836EA26
:10169400030301D1002014E06B1CF7D095B9236833
:1016A4000320DA6822F4D072DA605A6922F0010267
:1016B4005A61202384F8393084F83A30002384F8BE
:1016C4003830F8BDFFF726FEC01B8542DDD2E6E7C1
:1016D40010B5044640B390F8393003F0FF021BB94B
:1016E40080F83820FFF7EEF82423226884F8393094
:1016F400D368204623F40053D360FFF793FE236896
:1017040000201A6922F490421A615A6922F02A02CE
:101714005A61DA6842F40052DA602023E06384F804
:10172400393084F83A3010BD0120FCE72DE9F0414E
:101734001F4690F839300446202B0D4690464ED172
:1017440000294AD0002A48D090F83830012B46D0DE
:10175400012380F838300023C363212380F8393013
:10176400FFF7D8FD0646A4F82480A4F82680E38C6D
:101774009BB263B93B46324640212046FFF780FFC7
:10178400A0B9202384F8380084F839300FE0E38CC2
:101794003246013B9BB2E384A3688021B3F5805FAA
:1017A40020463B4610D1FFF76BFF10B10320BDE884
:1017B400F0812B882268C3F30803536023690BB9B3
:1017C4000235D4E70135D2E7FFF75AFF0028EDD1FF
:1017D400236815F8012B5A60C9E70120E7E70220C6
:1017E400E5E72DE9F0411E4690F83A300446202BF7
:1017F4000D46904652D100294ED0002A4CD090F884
:101804003830012B4AD0012380F838300023C363D9
:10181400222380F83A30FFF77DFD0746A4F82C8098
:10182400A4F82E80E08D80B228B9202384F83800F3
:1018340084F83A3010E0E18DA368013989B2B3F538
:10184400805FE18533463A464FF02001204615D1AA
:10185400FFF716FF10B10320BDE8F0812368226969
:101864005B6832B92946C3F3080321F8023B0D46ED
:10187400D8E72946DBB221F8013BF8E7FFF700FF80
:101884000028E8D1236822695B68691C0AB92B70B7
:10189400EDE703F07F03FAE70120DDE70220DBE751
:1018A4007047704790F83A3010B5222B20D18168E8
:1018B4000469B1F5805F0268836A1ED15268C4B9B5
:1018C400C2F3080223F8022B8362C38D013B9BB24F
:1018D400C3856BB90368DA6822F49072DA605A69D6
:1018E40022F001025A61202380F83A30FFF7D9FF31
:1018F40010BDD2B223F8012BE6E7591C526881626D
:101904000CB91A70E1E702F07F02FAE770470000B1
:10191400036870B51A6804461607D9685D6907D16B
:10192400960659D58D0657D5BDE87040FFF7BABF66
:1019340005F0010001F4907505434DD0D60705D597
:10194400CD0542BFE36B43F00103E363530704D5C2
:1019540018B1E36B43F00203E363960704D518B1AF
:10196400E36B43F00403E363150704D518B1E36B99
:1019740043F00803E363E36B4BB3900604D5890695
:1019840002D52046FFF78EFF236820465B69E56B8E
:1019940003F0400305F008051D4319D0FFF734FD9B
:1019A40023685A6952060FD55A69606B22F04002C7
:1019B4005A6148B1254B036501F092FE38B1606B62
:1019C400BDE87040036D18472046FFF79FFF70BDC8
:1019D400FFF79CFFE563FAE7160628D50D0626D522
:1019E40094F83920212AF2D1A168226AB1F5805FE6
:1019F40018D11188C1F308015960216981B90232F3
:101A04002262E28C013A92B2E284002ADFD1DA68DF
:101A140022F08002DA60DA6842F04002DA60D6E747
:101A24000132EDE7511C216212785A60E9E7500651
:101A3400CDD54A06CBD5DA68204622F04002DA60DA
:101A4400202384F83930FFF72BFFC0E7551A00082C
:101A540008B50023806BC385C384FFF757FF08BD17
:101A640000232DE9F74FDFF8C081704ADFF8C091F9
:101A740001270C689F4007EA040537EA040440F094
:101A8400BD804C6824F0100ABAF1020F16D14FF051
:101A94000F0C4FEAD30E00EB8E0E03F0070BDEF8AB
:101AA40020604FEA8B0B0CFA0BFC26EA0C0C0E6937
:101AB40006FA0BF646EA0C06CEF820604FF0030C4B
:101AC400D0F800B04FEA430E0CFA0EFC2BEA0C0BD4
:101AD4006FEA0C0604F0030C0CFA0EFC0AF1FF3A50
:101AE4004CEA0B0CBAF1010FC0F800C016D8D0F8BC
:101AF40008C0D1F80CA006EA0C0C0AFA0EFA4AEA5D
:101B04000C0CC0F808C0D0F804C02CEA0707C4F3D2
:101B1400001C0CFA03FC4CEA07074760C76837400F
:101B24008E6806FA0EF63E43C660E60066D50026C9
:101B34004FF00F0C0196D8F8447003F0030E47F4ED
:101B44008047C8F84470D8F844704FEA8E0E07F402
:101B540080470197019F23F0030707F1804707F5AA
:101B64009C37D7F808A00CFA0EFC2AEA0C0CDFF814
:101B7400C4A0504521D006F1804606F50136B04296
:101B840043D006F58066B04241D006F58066B04287
:101B94003FD006F58066B0423DD048453DD006F5BD
:101BA4000066B0423BD006F58066B04239D006F5F7
:101BB4008066B0420CBF0826092606FA0EF646EAED
:101BC4000C06BE60EF43166814F4803F0CBF3E4021
:101BD4002E431660566814F4003F0CBF3E402E435B
:101BE4005660966814F4801F0CBF3E402E439660E6
:101BF400D668A40254BF3E402E43D6600133102B56
:101C04007FF436AF03B0BDE8F08F0126D5E7022696
:101C1400D3E70326D1E70426CFE70526CDE706263A
:101C2400CBE70726C9E700BF00380240003C01406B
:101C340000140240000002400369194214BF01204D
:101C4400002070470AB1816170470904FBE74369CA
:101C54005940416170470000044A08B55169014286
:101C640002D05061FEF7FEFF08BD00BF003C0140FA
:101C7400F7B5044610B9012003B0F0BD0368D807D6
:101C840038D4236899076AD423681E0700F1B78003
:101C940023685D0728D500230193A64BA64D1A6C33
:101CA40042F080521A641B6C03F080530193019B31
:101CB4002B6843F480732B60FFF72CFB06462B68DC
:101CC400DA0540F1C080237A9A4D85F87030A36814
:101CD400002B00F0C680FFF71DFB41F28837064653
:101CE4002B6F9B0740F1B680A269002A40F0C880A0
:101CF4000020C1E78F4B9A6802F00C02042A07D037
:101D04009A6802F00C02082A0AD15A68520207D5CE
:101D1400884B1B689B03B4D56368002BB1D1AAE739
:101D240022799A7063686BB1FFF7F4FA0546814E25
:101D340033689F03A5D4FFF7EDFA401B6428F7D955
:101D4400032099E7FFF7E6FA05467A4E33689803CD
:101D540097D5FFF7DFFA401B6428F7D9F0E7754BF6
:101D64009A6812F00C0F07D09A6802F00C02082A45
:101D740017D15B68590214D46E490B689A0703D5CE
:101D8400E368012B7FF477AFF823086893FAA3F391
:101D9400B3FA83F22369934020F0F80213430B60F3
:101DA40072E7E268654BDAB101221A60FFF7B2FA12
:101DB4000646604D2B689B070CD5F823296893FAD7
:101DC400A3F3B3FA83F22369934021F0F802134397
:101DD4002B6059E7FFF79EFA801B0228EAD9AFE788
:101DE4001A60FFF797FA0546524E33689F077FF54E
:101DF4004BAFFFF78FFA401B0228F6D9A0E76269C0
:101E04004E4B82B10122C3F8802EFFF783FA0546B8
:101E1400484E736F98073FF53BAFFFF77BFA401BC3
:101E24000228F6D98CE7C3F8802EFFF773FA05462B
:101E3400404E736F99077FF52BAFFFF76BFA401B8A
:101E44000228F6D97CE7FFF765FA801B02287FF6A3
:101E540036AF75E7FFF75EFA801BB8427FF640AFF6
:101E64006EE7FFF757FA41F2883706462B6F98075B
:101E74007FF53AAFFFF74EFA801BB842F6D95FE719
:101E84002C4DAB6803F00C03082B3FF4F4AE022A8C
:101E94004FF00002294B1A663ED1FFF73BFA064683
:101EA4002B68990132D447F6C07696FAA6F64FF419
:101EB4004032B6FA86F692FAA2F24FF07061B2FAA4
:101EC40082F091FAA1F1D4E90732B1FA81F1134316
:101ED400626AB2401343A26A5208013A8240134331
:101EE400E26A02FA01F101220B436B60134B114DBC
:101EF4001A66FFF70FFA04462B689A013FF5F8AE0D
:101F0400FFF708FA001B6428F6D919E7FFF702FA6D
:101F1400801B6428C4D913E7FFF7FCF904462B6837
:101F24009B017FF5E5AEFFF7F5F9001B6428F6D9B0
:101F340006E700BF0038024000700040000047423E
:101F4400134908B58B6803F00C03042B1CD0082B31
:101F54001CD14A684B68496813F4800314BF0D48C8
:101F64000D48C1F3881118BF0023A1FB000102F042
:101F74003F02FEF725F9064B5B68C3F301430133C7
:101F84005B00B0FBF3F008BD0248FCE70248FAE747
:101F94000038024040787D010024F4002DE9F0412E
:101FA4000D46044610B90120BDE8F081454B1A687E
:101FB40002F00F028A422DD32268970732D4D00749
:101FC40046D4404B1A6802F00F02AA4269D822682C
:101FD40051076FD4130707D53B4A2169936823F44B
:101FE400604343EAC1039360FFF7AAFF364BF02234
:101FF4009B6892FAA2F2B2FA82F203F0F003D340A1
:10200400324AD35CD840324B18600020FFF74CF9B9
:102014000020C9E7CAB21A701B6803F00F038B4291
:10202400C1D1C9E7284B12F0040F1EBF996841F4CF
:10203400E0519960160742BF996841F46041996084
:102044002149A0688B6823F0F00303438B60B6E753
:1020540061681D4B01291A681BD112F4003FA2D0FC
:102064009A6841F2883822F003020A439A60FFF723
:1020740051F90646144FBB68626803F00C03B3EBD6
:10208400820F9ED0FFF746F9801B4045F3D9032009
:102094008AE7022902D112F0007FE0E712F0020F72
:1020A400DDE7EAB21A701B6803F00F03AB427FF45A
:1020B4007AAF8CE70449E0688B6823F4E053034368
:1020C4008B6087E7003C02400038024064690008E6
:1020D40064000020014B1868704700BF64000020B2
:1020E400084B4FF4E0529B6892FAA2F2B2FA82F2E1
:1020F40003F4E053D340044AD35C044A1068D84044
:10210400704700BF00380240746900086400002072
:10211400084B4FF460429B6892FAA2F2B2FA82F240
:1021240003F46043D340044AD35C044A1068D840A3
:10213400704700BF00380240746900086400002042
:1021440001680246486910F480600CD06FF4806323
:102154004B6104232021136400230120136382F8BC
:102164003C3082F83D1070472DE9F84606460F468C
:1021740091461D464FEA114A3368BAF1010F0CBF6C
:102184005C699C6927EA0404A4B2B4FA84F464097F
:10219400A14501D000200CE06A1CEED05DB90023FB
:1021A40020220320336386F83C3086F83D2086F8ED
:1021B4003E30BDE8F886FFF7ADF8089BC01AA84288
:1021C400DAD9ECE72DE9F04104460F461646984665
:1021D4002568686927EA000080B298B16B695A05DE
:1021E40012D52B68202243F400732B606FF48063B4
:1021F4006B610423236400230120236384F83C30AF
:1022040084F83D20BDE8F081731CE2D046B9002378
:1022140020222363032084F83D2084F83C30F1E736
:10222400FFF778F8A0EB0800B042D1D9EFE770B51A
:1022340004460D46164621684B6913F0400301D04D
:1022440000200DE04A69D2060BD56FF010024A61F6
:1022540020220120236484F83C30236384F83D2049
:1022640070BD5DB9236C032043F020032364202355
:1022740084F83D30002384F83C30F1E7FFF74AF856
:10228400801BA842D7D9EDE770B504460D46164623
:1022940023685B695B0701D5002012E02046FFF745
:1022A4004FFFA8B96A1CF3D065B9236C202243F010
:1022B4002003236400230320236384F83C3084F840
:1022C4003D2070BDFFF726F8801BA842E0D9ECE75B
:1022D4000120F6E770B504460D46164623685B698F
:1022E4001B0601D5002012E02046FFF729FFA8B9FC
:1022F4006A1CF3D065B9236C202243F020032364C5
:1023040000230320236384F83C3084F83D2070BD0F
:10231400FFF700F8801BA842E0D9ECE70120F6E7BC
:102324002DE9F043154602689946136885B043F4D5
:1023340080731360DDE90C780E463B4600224FF0B3
:102344000111CDF800800446FFF70EFF18B10320F9
:1023540005B0BDE8F083236806F0FE061E613A4628
:10236400434620461849FFF72DFF20B1236C042B68
:10237400EDD10120ECE7236803905A6939460392B2
:102384009B69424603932046039BFFF7A3FF40B19A
:10239400236C042BDBD12268136843F400731360AD
:1023A400E7E7B9F1010F236802D1EDB21D61CFE770
:1023B4002A0A1A61394642462046FFF78BFF002855
:1023C400E6D12368F1E700BF020001002DE9FF47D1
:1023D4009A46DDE90C78036815461A680E4642F4FD
:1023E40080621A601A684FF0011142F480721A6018
:1023F4003B460022CDF800800446FFF7B5FE18B135
:10240400032004B0BDE8F08723685FFA86F906F07C
:10241400FE061E613A46434620462A49FFF7D2FE8D
:1024240020B1236C042BEBD10120EAE7236803904D
:102434005A69394603929B69424603932046039B9B
:10244400FFF748FF40B1236C042BD9D122681368ED
:1024540043F400731360E7E7BAF1010F236825D151
:10246400EDB24246394620461D61FFF733FF02466E
:102474000028E8D1216820460B6843F480730B6080
:102484003B464FF00111CDF80080FFF76DFE0028A8
:10249400B6D1226849F001031361204643463A4607
:1024A4000849FFF78FFE0028ABD0BAE72A0A1A6161
:1024B400394642462046FFF70DFF0028C3D1236862
:1024C400CEE700BF0200010070B50446002862D0C8
:1024D40090F83D3003F0FF021BB980F83C20FEF772
:1024E400E3F82423226884F83D3013682B4D23F04D
:1024F40001031360FFF7F4FD6368294AAB42B0FBA4
:10250400F2F288BF4FF4967621684A6082BF724324
:102514004FF47A76B2FBF6F2AB4202F101020A62A0
:1025240021D85B00B0FBF3F340F6FC72134208BF02
:102534000423CB61D4E9073213430B60D4E90323AA
:1025440013438B60D4E905321343CB600B6800203E
:1025540043F001030B602023206484F83D302063A2
:1025640084F83E0070BDA2684AB903EB4303B0FB94
:10257400F3F3C3F30B0262B143F40043D9E7192226
:102584005343B0FBF3F3C3F30B0212B143F44043E0
:10259400CFE70123CDE70120E4E700BFA0860100D7
:1025A40040420F002DE9F043044685B098460D469D
:1025B40091460C9FFEF7AEFE94F83D300646202B64
:1025C40004D00225284605B0BDE8F0830090192305
:1025D400012220465D49FFF7C7FD0028F1D194F898
:1025E4003C30012BEDD00123216884F83C300B688A
:1025F400DB075EBF0B6843F001030B600B6823F439
:1026040000630B60212384F83D30102384F83E30AE
:1026140000232364A3F58033A4F82A80E362638D46
:10262400C4F824902385E36A042B04D0012B02D040
:1026340013F5803F04D10B6843F480730B6002E010
:10264400236B122BF7D03B4600224FF0011120469A
:102654000096FFF789FD002833D123692268B3F57A
:10266400804F20D105F0FE05156133463A462046D9
:102674003749FFF7A7FD054610BB236803905A6945
:1026840003929B690393039B238D3BBB21680A68D8
:1026940042F400720A60202284F83C3084F83D2021
:1026A40084F83E308EE7EB1103F0060343F0F003A9
:1026B4001361204633463A462649FFF783FD48B165
:1026C400236C236C042B4FF0000384F83C300ED1B0
:1026D400012577E72368EDB21D61C6E73246394626
:1026E4002046FFF7F7FD20B1236C042B27D00325E8
:1026F40068E7616A20684B1C63620B78228D036172
:10270400638D013B9BB26385D0F814C0531E9BB20A
:102714001CF0040F23850AD04BB18B1C63624B78E9
:10272400023A0361638D2285013B9BB26385324685
:1027340039462046FFF7A8FD0028A5D0D4E7226833
:10274400136843F400731360C2E700BF0200100073
:1027540002000100080001002DE9F043044689B09D
:1027640098460D469146109FFEF7D4FD94F83D30EF
:102774000646202B04D00225284609B0BDE8F08384
:1027840000901923012220469549FFF7EDFC00280B
:10279400F1D194F83C30012BEDD00123216884F869
:1027A4003C300B68D8075EBF0B6843F001030B6035
:1027B4000B6823F400630B60222384F83D3010235C
:1027C40084F83E3000232364A3F58033A4F82A80E0
:1027D400E362638DC4F824902385E36A0A68042BBA
:1027E40042F480620A6004D0012B02D013F5803FCA
:1027F40004D10B6843F480730B6002E0236B112B4C
:10280400F7D03B4600224FF0011120460096FFF717
:10281400ABFC002830D122692368B2F5804F1CD16B
:1028240045F00105EDB21D6133463A4620466D4937
:10283400FFF7C8FC0546F0B9238D2168002B49D069
:10284400012B5DD10B6823F480630B6004904B690A
:1028540004938B690493049B42E04FEAE51808F063
:10286400060848F0F0021A61204633463A465E49AB
:10287400FFF7A8FC48B1236C236C042B4FF0000332
:1028840084F83C3064D1012576E72368EDB23A46FA
:102894001D61204633465349FFF794FC0246002845
:1028A400E9D12368079059692046079199690791EE
:1028B4000799196841F4807119603B464FF0011182
:1028C4000096FFF751FC0028D6D1226848F0F103A6
:1028D4001361A9E703904B6903938B690393039BEB
:1028E4000B6843F400730B60DFF80081238D13BB86
:1028F400202284F83C3084F83D2084F83E303BE7C5
:10290400022B0B680DD123F480630B600B6843F436
:1029140000630B6005904B6905938B690593059BD8
:10292400E2E743F480630B6006904B6906938B697E
:102934000693069BD8E7032B5AD8012B0AD13246BB
:1029440039462046FFF773FC08B3236C202B9AD139
:10295400032511E7022B4FF000023B464146204677
:10296400009622D1FFF700FC0028F1D123681A68F1
:1029740042F400721A601A69636A591C61621A701F
:10298400238D013B2385638D013B9BB263852368C3
:102994001A69636A591C61621A70238D013B23858D
:1029A400638D013B9BB26385A0E7FFF7DDFB024625
:1029B4000028CDD12368196821F480611960196950
:1029C400636A581C60621970238D4146013B23855C
:1029D400638D2046013B9BB2638500963B46C1E76D
:1029E40002001000020001000800010004000100C0
:1029F400324639462046FFF71AFC0028A5D1236841
:102A04001A69636A591C61621A70238D013B23851C
:102A1400638D013B9BB2638523685A6952077FF536
:102A240065AFB5E72DE9F34704469A4688469146D3
:102A34000C9EFEF76FFC94F83D300546202B03D026
:102A4400022002B0BDE8F08700901923012220463D
:102A54003D49FFF789FB0028F2D194F83C30012B63
:102A6400EED00123206884F83C3003680027DA079D
:102A740058BF03684A465CBF43F001030360036820
:102A8400414623F400630360212384F83D3040234E
:102A940084F83E300A9B27646362BDF82C302046DC
:102AA40063852A4BCDE90065E362638D2385534634
:102AB400FFF736FC00282AD0236C84F83C70042BE2
:102AC40007D10120BDE7FFF705FC20B1236C042BDF
:102AD40034D00320B5E7616A27684B1C63620B7826
:102AE400228D3B61638D501E013B9BB263857B69E4
:102AF40080B25B0720850AD548B18B1C63624B7892
:102B0400023A3B61638D2285013B9BB26385238D31
:102B14002A4631462046002BD5D1FFF7B5FB0028C5
:102B2400D4D12268136843F400731360202384F81B
:102B34003C0084F83D3084F83E0082E72268136844
:102B440043F400731360BCE7020010000000FFFFB1
:102B54002DE9F047044686B09A460D469146109FEB
:102B6400FEF7D8FB94F83D300646202B04D002250E
:102B7400284606B0BDE8F0870090192301222046BC
:102B84007549FFF7F1FA0028F1D194F83C30012B94
:102B9400EDD00123206884F83C3003684FF000082E
:102BA400D90758BF036829465CBF43F0010303609B
:102BB40003684A4623F400630360222384F83D300B
:102BC400402384F83E300E9BC4F840806362BDF815
:102BD4003C3020466385614BCDE90076E362638D2A
:102BE40023855346FFF7F2FB054630B1236C84F886
:102BF4003C80042B4DD10125BAE7228D2368B2B95C
:102C040002905A6902929A690292029A1A6842F4EC
:102C140000721A60DFF84881238D002B2CD120220A
:102C240084F83C3084F83D2084F83E30A0E7012A43
:102C34000AD11A6822F480621A6003905A690392D6
:102C44009A690392039AE1E7022A0ED11A6822F4E0
:102C540080621A601A6842F400621A6004905A6929
:102C640004929B690493049BD4E705905A690592E6
:102C74009B690593059BCDE7032B52D8012B0AD101
:102C8400324639462046FFF7D2FA08B3236C202B8C
:102C9400B1D103256CE7022B4FF000023B464146BD
:102CA4002046009622D1FFF75FFA0028F1D123686D
:102CB4001A6842F400721A601A69636A591C6162E4
:102CC4001A70238D013B2385638D013B9BB2638581
:102CD40023681A69636A591C61621A70238D013B67
:102CE4002385638D013B9BB2638595E7FFF73CFA2F
:102CF40002460028CDD12368196821F48061196047
:102D04001969636A581C60621970238D4146013B3E
:102D14002385638D2046013B9BB2638500963B4629
:102D2400C1E7324639462046FFF781FA0028ADD183
:102D340023681A69636A591C61621A70238D013B06
:102D44002385638D013B9BB2638523685A695207CF
:102D54007FF562AFBDE700BF020010000000FFFF77
:102D6400040001002DE9F04F044685B01F46884653
:102D74009246FEF7CFFA94F83D300546202B03D057
:102D8400022005B0BDE8F08F0090192301222046EF
:102D94004A49FFF7E9F90028F2D194F83C30012BB5
:102DA400EED0012384F83C30236800261A68DFF84B
:102DB4000CB1D20758BF1A6808F0FE085CBF42F095
:102DC40001021A601A6822F400621A60242384F84B
:102DD4003D303B4B2664E36222684FF001111368D7
:102DE400204643F4807313603B4600220095FFF7AE
:102DF400BBF908B10320C4E723684FF0A009C3F866
:102E04001080FEF787FA0546236859695A6994F8D1
:102E14003D30C1F34001C2F38022DBB20A4301D149
:102E2400A02B21D14FF02009236884F83D905A69E2
:102E340012F0020F1A6842F400721A6028D00022BD
:102E440003925A69204603929B6901220393039BD0
:102E54001A4919230095FFF787F90028CAD184F885
:102E64003D9084F83C008CE767B984F83D90236872
:102E740059695A6994F83D30C1F34001C2F3802284
:102E8400DBB2CBE7FEF746FA401BB842EDD8EEE7DB
:102E94006FF4806259465A61204619230122009535
:102EA400FFF762F90028A5D10136B24594D884F819
:102EB4003C0084F83D90012063E700BF020010004D
:102EC4000000FFFF70B5044629B14FF480434FF46E
:102ED4000062C0E90232E3692268002B08BF4FF4A4
:102EE4008061D4E9023518BF00212B4310680B43DD
:102EF4002B4901400B4343F4007313600120156810
:102F0400FEF70EFA4022236801201D605A605D68B6
:102F1400FEF706FA236801205D6000259D60DD60F0
:102F24009A6922F0BE021204120C42F080029A61E5
:102F34009E69FEF7F5F9236801209E61DD61DD6974
:102F4400FEF7EEF92268174BD56102F580529169BC
:102F540001200B4043F0087343F004039361956927
:102F6400FEF7DEF92368104A03F580539D610120C2
:102F74001A601D68FEF7D4F92368A26903F580532B
:102F84001D60012A01BFDA6942F4803242F0400236
:102F9400DA616269054B9188196412685A6470BDDC
:102FA4000F8120FF233FDEF88020C1020080024011
:102FB400F8B590F844300646822B154630D082236B
:102FC40080F84430348A0368E4021869890101F402
:102FD400F861A4B200F01C000C43044344F0010463
:102FE4001C61FEF797F9074614F0010007D1336816
:102FF4005B699BB22B60012386F844300CE0FEF73A
:1030040089F9C01BB0F5803F07D3012386F844300B
:103014000023032086F84530F8BD33681C69E3E7D4
:103024000220F9E770B590F844300546422B2ED0C3
:10303400422380F844302C8A0368E4021869890129
:1030440001F4F861A4B200F01C000C43044392B2F2
:1030540044F003045A611C61FEF75CF9064614F05F
:10306400010003D1012385F844300CE0FEF752F946
:10307400801BB0F5803F07D3012385F8443000233B
:10308400032085F8453070BD2B681C69E7E70220F2
:10309400F9E700000023F7B504460093002800F088
:1030A400D88090F8443003F0FF021BB980F8452023
:1030B400FDF784FA00230193674B5A6C42F4804273
:1030C4005A645B6C03F480430193019B634B5A681D
:1030D40022F400025A605A68216A0A435A6023683B
:1030E40003F580531A6842F001021A60FEF712F9E0
:1030F4000546236803F580521268D0071DD41D6964
:10310400FEF7E8FF564B574A0344934225F01C054B
:1031140022D245F0080523684FF400421D610021C6
:103124002046FFF77FFF054630B3012501212046E5
:10313400FFF7C8FE84F844500BE0FEF7EBF8401BA1
:10314400B0F5FA7FD5D90325002384F8445084F8D8
:103154004530284603B0F0BD434B444A03449342F0
:1031640002D845F00C05D6E7414B424A034493424A
:1031740028BF45F00405CEE7FF20FEF7D1F86368C9
:10318400002B54D0FEF7C6F841F2883706466A464B
:1031940001212046FFF70CFFFEF7BCF8801BB84264
:1031A4000BD901212046FFF78DFE012384F844301A
:1031B4000023032584F84530CBE7009B5907E6D567
:1031C4004FF4805200212046FFF72CFF0028ACD199
:1031D400FEF7A0F841F2883706466A4601212046E8
:1031E400FFF7E6FEFEF796F8801BB842D9D8009B9D
:1031F4009A06F2D56A461F212046FFF7D9FE002819
:1032040093D1009B13F0100218BF4FF400625B07C8
:1032140058BF4FF48043E2604CBFA060A36000211C
:103224002046FFF74FFE012384F8443091E7D4E9A8
:103234000223520842EAD3022946204692B2FFF7FB
:10324400F1FE00287FF471AF40F6FF70FEF768F8D6
:10325400E5E701257DE700BF003802400038014062
:1032640000D3CEFEC0E1E40040F1E9FD3F787D01EA
:1032740000796CFC005A62022DE9F041044688464C
:1032840016461D46069F2268936838EA03030CBF5E
:10329400012300239E4201D100202BE06B1CF3D0BC
:1032A40055BB23685A6822F0E0025A606268B2F59E
:1032B400827F0AD1A268B2F5004F02D0B2F5806FC6
:1032C40003D11A6822F040021A60A26AB2F5005FC4
:1032D40009D11A6822F400521204120C1A601A68F6
:1032E40042F400521A60012384F851300023032071
:1032F40084F85030BDE8F081FEF70CF8C01BA842FA
:10330400C1D3CEE713B50B460092802100220446B8
:10331400FFF7B2FF20B10320636D43F02003636520
:1033240002B010BD10B50446002836D000238362D5
:1033340090F8513003F0FF021BB980F85020FDF7DC
:1033440035FA0223216884F851300B68A26923F00E
:1033540040030B60D4E901300343E0680343206970
:10336400034360690343E0690343206A0343A06A9B
:10337400034302F4007003430B60120C636A02F00F
:1033840004021A434A60CB69002023F40063CB6132
:103394000123606584F8513010BD0120FCE72DE95C
:1033A400F0431E4690F850300446012B0D469146DA
:1033B40085B000F0A180012380F85030FDF7AAFF0A
:1033C40094F851308046012BDFB240F09380002DF9
:1033D40050D0B9F1000F4DD0032384F851300023AD
:1033E400A2686365C4E91033A4F83690A363E38745
:1033F400A3872368B2F5004F08BF1A68256308BF86
:1034040042F48042A4F8349008BF1A601A68E16854
:1034140052065EBF1A6842F040021A60B1F5006FAE
:1034240062683AD11AB1E28E92B2012A06D135F815
:10343400022BDA60E38E013B9BB2E386E38E9BB200
:1034440093B93346012202212046CDF80080FFF7CC
:1034540013FF70B9424631462046FFF753FF002858
:103464003AD02023636505E023689A689007DED488
:1034740056B90327012384F85130002384F85030CF
:10348400384605B0BDE8F083711CD7D0FDF742FF84
:10349400A0EB0800B042D1D3EBE71AB1E28E92B2AE
:1034A400012A06D115F8012B1A73E38E013B9BB256
:1034B400E386E38E9BB2002BC3D023689A689207FD
:1034C400F0D4002ED5D0731CF3D0FDF723FFA0EB6E
:1034D4000800B042EDD3CCE7A36833B90393236863
:1034E400DA6803929B680393039B676D003F18BFE0
:1034F4000127BFE70227BDE70227C1E72DE9F04313
:103504001F4690F8503085B0012B04460D461646F0
:10351400DDF8308000F0E280012380F85030FDF7C0
:10352400F9FE94F851308146012B6268D9B20AD071
:10353400B2F5827F40F0D080A368002B40F0CC80AD
:10354400042940F0C980002D48D0002E46D0002F19
:1035540044D094F85130A663012B04BF052384F8AA
:10356400513000236365C4E910332368E787E78695
:103574001968A787480658BF1968256358BF41F0E2
:103584004001A78658BF1960E168B1F5006F5AD1B0
:103594001AB1E28E92B2012A06D135F8022BDA6012
:1035A400E38E013B9BB2E3860127E38E9BB2BBB95A
:1035B400E38F9BB2A3B94346012202212046CDF8F2
:1035C4000090FFF759FE002833D14A464146204671
:1035D400FFF798FE002874D020236365012029E0BA
:1035E40077B1E38E9BB25BB123689A68910707D5E4
:1035F400002735F8022BDA60E38E013B9BB2E386A9
:10360400E38F9BB263B121688A6812F0010207D08C
:103614001746CB6826F8023BE38F013B9BB2E38756
:10362400B8F1FF3FC1D0FDF775FEA0EB090040459E
:10363400BBD30320012384F85130002384F8503095
:1036440005B0BDE8F0831AB1E28E92B2012A06D128
:1036540015F8012B1A73E38E013B9BB2E386012715
:10366400E38E9BB21BB9E38F9BB2002BA3D077B13F
:10367400E38E9BB25BB123689A68920707D5002753
:1036840015F8012B1A73E38E013B9BB2E386E38F9B
:103694009BB263B12268916811F0010107D00F4613
:1036A400D36806F8013BE38F013B9BB2E387B8F193
:1036B400FF3FD5D0FDF72EFEA0EB09004045CFD348
:1036C400B7E7A368002BB5D123680390DA680392A7
:1036D4009B680393039BADE70220ABE70220AFE7AF
:1036E40090F83530022B03D08023436501207047C6
:1036F4000523026880F835301368002023F00103A5
:10370400136070477FB5130A8DF80C3002238DF8CF
:103714000D200E4615460A460146094800930068E6
:1037240003ABFDF704FB044638B100232A4600939B
:1037340031460346034801F0F1FB204604B070BD56
:10374400040100208A6A00087FB50E461446054627
:10375400FFF7D8FF0A20FDF79FFBDE238DF80C301E
:10376400AD238DF80D3002230F48009332462946CD
:10377400006803ABFDF7F1FA78B9BDF80C50314697
:103784006DBAADB22B462A460848009401F0C6FB38
:10379400631B5842584104B070BD3146044801F0DF
:1037A400BDFB0020F7E700BF04010020B66A000853
:1037B400E46A000870B50E4801F04AFC02240D4D7D
:1037C4000D4E2868E1B2FDF7A3FA58B12E2001F09E
:1037D400BDFB0234B4F5807FF3D10848BDE87040E6
:1037E40001F036BC2146304601F098FBF1E700BFFA
:1037F400F86A0008040100200E6B0008E572000856
:10380400F0B50024174D184E184F8FB001235821DE
:103814000093286803ABE2B2FDF79FFAE0B99DF884
:103824000C3032462821009304A8234601F018FCEA
:1038340004A8FCF749FE014604A8FDF761F904F069
:103844000303032B03D102213846FDF759F9013450
:10385400402CDBD10FB0F0BD0B210548FDF750F92A
:10386400F8E700BF04010020156B0008346B000862
:103874002A6B0008F7B50C46134F8DF80410054663
:10388400014616460123386801AAFDF747FA012CC0
:1038940011D002D9023C012C0BD8022329463868E6
:1038A40001AAFDF751FABDF804305BBAC3F3C8139B
:1038B400336003B0F0BD23462946386801AAFDF7FA
:1038C40043FA9DF80430F3E704010020F7B50D46F0
:1038D400134F8DF804100646014614460123386838
:1038E40001AAFDF71BFA012D13D002D9AB1E012B3F
:1038F4000DD863108DF805300323E4018DF80450CE
:103904008DF806403146386801AAFDF707FA03B07E
:10391400F0BD02238DF804508DF80540F2E700BF96
:10392400040100202DE9F0439BB004AC0546264673
:10393400224A02F11007234610685168083203C373
:10394400BA421C46F7D11068186093881C4AA380B9
:103954000AAB984602F118071C46106851680832F1
:1039640003C4BA422346F7D10024DFF8589019F86B
:10397400017B2846394603AAFFF77CFFA8B9039BBD
:103984003246CDE9007328212B4610A801F068FBCC
:1039940010A8FCF799FD0134014610A8FDF7B0F812
:1039A400042CE4D11BB0BDE8F0832B464246282109
:1039B400009710A801F054FBEAE700BF376B00083A
:1039C4004D6B0008596F00082DE9F043002426468A
:1039D400254F264DDFF898808DB017F8019BB9F17B
:1039E400580F2CD025D8B9F1500F30D04B46002CAD
:1039F40037D1204A282102A801F032FB02A8FCF7A3
:103A040063FD014602A8FDF77BF828219DF80430E8
:103A1400194A02A801F024FB02A8FCF755FD01365F
:103A2400014602A8FDF76CF8042ED6D10DB0BDE80E
:103A3400F08309F0FB03922BD8D1022300E0012389
:103A44004946286801AAFDF77FF90446CEE7092311
:103A540049468DF804302868012301AAFDF75EF970
:103A6400EBE74246C6E700BF1A6F000804010020D6
:103A74001E6F00083A6F0008526F00082DE9F041EC
:103A84004FF001081B4F86B08DF80F2006460A46FA
:103A94000D46CDF8008001460DF10F033868FDF79F
:103AA40069F9044648B129469DF80F20124801F0EF
:103AB40035FA204606B0BDE8F0810A20FDF7ECF99E
:103AC40055232A468DF8173031460DF1170338680F
:103AD400CDF80080FDF75BF99DF80F2004469DF8B2
:103AE400173008B99A42E4D029460094034801F0FB
:103AF40015FADEE704010020656B0008926B0008EC
:103B04001FB555238DF80F3001230C460A46014694
:103B14000848009300680DF10F03FDF738F930B140
:103B24002146054801F0FAF9002004B010BD9DF8C3
:103B34000F00FAE704010020C66B00082DE9F04FDE
:103B440004460F464FF0000889B0CDE90423DFF89E
:103B54000091FF2248F268012046FFF78FFF0023FF
:103B64008DF81C30059B4D228DF81D300223214613
:103B74000093D9F8000007ABFDF7D9F802900028AC
:103B840048D13220FDF788F90A239DF810A0039349
:103B9400029B52468DF81C30022321460093D9F82B
:103BA400000007AB8DF81D70FDF7C1F8054688BB12
:103BB4004FF4FA70FDF770F9022352460093214640
:103BC400D9F8000007ABFDF7C8F818BB9DF81D60D5
:103BD4009DF81CB02EB112980135FDF75DF9142D36
:103BE400EAD15B462A4639461A4801F097F9012E74
:103BF40006D1194801F02CFA304609B0BDE8F08F1F
:103C0400BBF1FF0F08D1039B013B0393C0D11348C1
:103C140001F01EFA0126EFE7114801F019FA48F203
:103C240068012046FFF76CFFFF28014605D139469D
:103C34000C4801F073F90026DEE742460A4808F111
:103C4400010801F06BF9B8F1050FE3D081E700BF7B
:103C540004010020EA6B0008106C0008196C0008CD
:103C64002F6C0008396C00084B6C00082DE9F047F4
:103C74000146A8B00546194801F050F990221849A8
:103C840004A801F03DF90026DFF85880DFF85890C9
:103C9400DFF858A004AC0223276829460093FAB23F
:103CA400D8F8000003ABFDF758F8626888B9BDF88E
:103CB4000C3000925BBA9BB21A463946504601F06A
:103CC4002DF90136122E04F10804E4D128B0BDE820
:103CD400F0873946484601F021F9F2E7826C000882
:103CE400C863000804010020BB6C0008996C00083C
:103CF4001FB502230C4601460A48009309220068B6
:103D040003ABFDF72AF858B99DF80D309DF80C0067
:103D1400013C20EA0300204100F0010004B010BD82
:103D24000020FBE7040100202DE9F04F1F46054663
:103D340087B054488846164601F0F0F8FB0708D4CB
:103D4400424640212846FFF7FFFC20B94E4801F0C7
:103D54007FF9012022E04D4801F0E0F83446DFF815
:103D640030A1A31B9F421CD84A4801F071F90C20D2
:103D7400FDF792F8424640212846FFF7E5FC00286B
:103D8400E4D0454801F064F93446DFF80481A31B0C
:103D94009F424DD8414801F05BF9002007B0BDE8CF
:103DA400F08FA1464FF0020B0C20FDF775F819F8BF
:103DB400013B41228DF81030637829468DF811308B
:103DC400DAF80000CDF800B004AB0394FCF7AFFFC1
:103DD40008B13348BBE72E2001F0B8F80C20FDF7FA
:103DE4005BF8422205AB2946CDF800B0DAF80000B2
:103DF400FCF7B3FF83460C20FDF74EF89DF8153011
:103E04009DF81420BBF1000F07D12078617882421D
:103E140003D18B4204F10204A3D099F80010CDE938
:103E240000315946039B1B781E4801F077F890E750
:103E34000A20FDF731F8022300934222294605ABFC
:103E4400D8F80000FCF789FFA44601469DF8153018
:103E54009DF8142004F1010E40B994F800906078A4
:103E64004A4503D1834204F1020406D09EF80000BF
:103E7400CDE900309CF80030D6E72E2001F066F83A
:103E840085E700BFDE6C0008F86C0008186D0008B8
:103E940004010020646D00086F6D0008356C000893
:103EA4001F6D00082C6D00082DE9F043F5B040F2B9
:103EB400C1123449044603A801F022F8324801F043
:103EC400C7F800250A27DFF8C480DFF8C49003AEE2
:103ED4002946404601F022F801234E222946204675
:103EE4000097FFF72BFE00BB2946484601F016F861
:103EF40032234F220093294605232046FFF71EFE56
:103F040098B9FF2248F268012046FFF7B7FD0C205C
:103F1400FCF7C2FF48F268012046FFF7F1FDFF28D5
:103F2400014605D01B4800F0F9FF75B0BDE8F083E9
:103F34000C20FCF7B1FF01224D212046FFF7E2FBE4
:103F44000028F2D10A20FCF7A7FFA901402332463A
:103F5400204689B2FFF7E8FE0028E6D148F268015E
:103F64002046FFF7CDFDFF28014601D00A48DAE7D5
:103F74000135072D06F14006AAD1084801F068F87A
:103F8400D3E700BF586400087C6D0008906D0008FA
:103F9400A56D0008BA6D0008EF6D0008236E0008D7
:103FA40038B504460146174800F0B8FF00220E2138
:103FB4002046FFF7C9FB4FF4004193222046FFF748
:103FC4005DFD204600F066FC054601460E4800F003
:103FD400A5FFB5B94FF400412046FFF791FD9328A2
:103FE400014604D0BDE83840084800F097BF0848AF
:103FF40001F02EF82046BDE8384001220E21FFF7DB
:10400400A3BB38BD406E0008546E0008706E0008F3
:10401400936E000838B504460146194800F07EFF47
:10402400184801F015F800220E212046FFF78CFBFA
:104034004FF4004195222046FFF720FD204600F072
:1040440043FC05460146104800F068FFB5B94FF43B
:1040540000412046FFF754FD9528014604D0BDE8F1
:1040640038400A4800F05ABF094800F0F1FF2046E2
:10407400BDE8384001220E21FFF766BB38BD00BF02
:104084009F6E0008BD6E0008E56E0008F76E00081C
:10409400936E000873B5134E044601238DF8041083
:1040A4001546014601AA3068FCF738FEDE238DF878
:1040B4000430AD2321468DF805303068022301AA6F
:1040C400FCF742FE00280CBF0120002006D1BDF8F9
:1040D40004305BBA9BB22B8002B070BD4BF6EF6329
:1040E400F9E700BF00010020012307B503FA00F03F
:1040F4008DF807000448E0210DF107020068FCF781
:104104000DFE03B05DF804FB00010020072801D870
:10411400FFF7EABF704700002DE9F041154800F0B1
:1041240097FF0024DFF85080144E154F2146404677
:1041340000F0F4FEE0B2FFF7E9FF6420FCF7ACFE08
:1041440002253068E9B2FCF7E3FD70B12E2000F0DF
:10415400FDFE0235B5F5807FF3D10134082CE5D19D
:10416400BDE8F041074800F073BF2946384600F027
:10417400D5FEEEE75D6F0008756F000800010020B2
:104184000E6B0008E572000873B50446002601466C
:104194001748ADF8066000F0C1FE31460DF1060285
:1041A4002046FFF777FF134D03463146BDF806203E
:1041B400284600F0B3FE0DF1060201212046FFF768
:1041C40069FFBDF8062003460121284600F0A6FE3B
:1041D4000DF1060202212046FFF75CFF022103468F
:1041E400BDF80620284600F099FE02B070BD00BF5D
:1041F4008D6F0008B06F00082DE9F0474A4A4B4B19
:1042040086B00620CDE90423FFF76EFF07238DF85F
:104214000C30772303260025454C422103AA8DF850
:104224000D3020680223FCF779FD6420FCF734FE8E
:104234000223422103AA20688DF80C608DF80D50EA
:10424400FCF76CFD4FF47A70FCF726FE88234221BC
:1042540003AA8DF80D30206802238DF80C60FCF75A
:104264005DFD0220FFF740FF6420FCF715FEAA461F
:10427400DFF8C0900DF11008012618F8017B902199
:104284003A460DF10A03206800968DF80AA0FCF75F
:104294004EFD35440346394648469DF80A2000F051
:1042A4003DFE042DE8D10025DFF88C8005AF17F81A
:1042B400013B402290218DF80A3020680DF10A0359
:1042C4000096FCF734FD013502469DF80A1040467D
:1042D40000F024FE042DEAD158250126174FEAB236
:1042E40090210DF10B0320680096FCF736FD2A4659
:1042F4000090A5F1580138469DF80B30013500F0C7
:104304000DFE5C2DEBD141220DF10A0390212068B2
:1043140000968DF80A60FCF70AFD0146084800F093
:10432400FDFD06B0BDE8F087D0D8F00F203144651C
:1043340000010020D16F0008FD6F000825700008FF
:10434400577000087FB550240B4E0C4D0123E2B288
:104354009021009330680DF10F03FCF7FEFC214619
:10436400A4F1500228469DF80F30013400F0D6FD28
:10437400582CEBD104B070BD00010020727000080D
:104384002DE9FF410620FFF7AFFE4224DFF840800D
:10439400104E114F2146404600F0C0FD0025012378
:1043A400EAB20093E1B20DF10F033068FCF7D5FCDB
:1043B400294638469DF80F20013500F0AFFD082D41
:1043C400EDD10234462CE5D104B0BDE8F08100BF44
:1043D400B070000800010020D170000873B50620F9
:1043E400FFF782FE424800F033FE07238DF80430C5
:1043F4007723404D404C8DF8053001AA0223422119
:104404002868FCF78BFC9DF805209DF804102046D5
:1044140000F084FD6420FCF73FFD002303268DF8A3
:10442400053001AA0223422128688DF80460FCF7B4
:1044340075FC9DF805209DF80410204600F06EFDE3
:104444004FF47A70FCF728FD882301AA8DF8053013
:104454004221022328688DF80460FCF75FFC9DF874
:1044640005209DF80410204600F058FD234800F074
:10447400EFFD06238DF80430372301AA8DF80530AB
:104484008DF80630442133462868FCF747FC9DF834
:1044940005209DF80410204600F040FD9DF804100E
:1044A4009DF806200131204600F038FD6420FCF719
:1044B400F3FC02238DF80430482301AA8DF805305B
:1044C4008DF80630442133462868FCF727FC9DF814
:1044D40005209DF80410204600F020FD9DF80410EE
:1044E40020469DF80620013100F018FD02B070BD91
:1044F400E8700008000100200D7100082471000814
:1045040007B5074B00F50850ADF8060001221868FE
:104514000DF10601FCF748FC03B05DF804FB00BF95
:1045240008010020F7B50D4616460024FFF7E8FF02
:104534000A4F230203F58043ADF80630386801239F
:1045440001AA0DF10601FCF744FC9DF80430335533
:104554000134A542EDD803B0F0BD00BF080100202E
:10456400F0B5524C89B023880021013302AA0546D4
:1045740092202380FFF77EF9002103AA9620FFF7FB
:1045840079F9238800241A0A8DF81130FF238DF855
:104594001230029B8DF810208DF815301A12039BEF
:1045A4008DF814201A128DF817308DF816208DF816
:1045B4001340FCF7F3FA8DF81800FCF71BFB8DF899
:1045C4001900FCF789FB6A238DF81C30BD238DF894
:1045D4001D30E2238DF81E3077238DF81A008DF8F4
:1045E4001B408DF81F307DB1314800F097FC314FEE
:1045F40004AE384616F8011B013400F08FFC102C71
:10460400F7D12D4800F024FD0320FFF779FF4FF484
:10461400A0442A4F04AE16F8013B0122234404F5BA
:10462400807438680DF10601A4B2ADF80630FCF7C9
:10463400BBFBB4F5C04FEED10121022001AAFFF764
:1046440071FF55B11E4800F069FC9DF8041019482B
:1046540000F064FC184800F0FBFC9DF804401DB118
:104664002146184800F05AFC94B10220FFF748FF95
:104674004FF4A043012238680DF10601ADF806306D
:10468400FCF792FBA20703D504F00100FCF772FAD1
:104694000125A408A30704D504F00101E8B2FCF73E
:1046A4000BFB0135042DF4D109B0F0BD74030020D7
:1046B40049710008236B0008E57200080801002016
:1046C400617100087971000870B586B001AA0121F2
:1046D4000220FFF727FF114800F020FC9DF804108A
:1046E4000F4800F01BFC0F4800F0B2FC102103201F
:1046F40002AAFFF717FF0C4800F010FC0025084E33
:1047040002AC304614F8011B013500F007FC102DF3
:10471400F7D1044800F09CFC06B070BD937100080A
:10472400236B0008E5720008A37100084FF40053DE
:10473400F7B5194F0546012238680DF10601ADF8A9
:104744000630FCF731FB00240646013D15F8013F15
:104754000122234343F4805338680DF10601ADF878
:104764000630FCF721FB04F58074A4B2B4F5206F85
:104774000644EBD142F20103012238680DF106012F
:10478400ADF80630FCF710FB3044A0F11803584292
:10479400584103B0F0BD00BF0801002038B5002423
:1047A400064DA0B2FCF72EFB2146024601342846F2
:1047B40000F0B4FB042CF4D138BD00BFB371000881
:1047C4002DE9F84FB1F801200B46C97852BA80465A
:1047D40094B231B12A4800F0A1FB02273846BDE863
:1047E400F88F120404D4274800F032FC0127F5E7BF
:1047F4000A4693F8009009F105009D5C013290424D
:104804002944FAD811F0FF0604D031461E4800F0BE
:1048140085FBEBE737464DF2220A1D1DB9450CD83E
:1048240000274DF2220ADFF864B0B1450FD8002FFB
:10483400D4D1174800F00CFCD0E7E119514504D05D
:104844004046EA5D89B2FFF719F90137E6E72E2001
:1048540000F07CFB54450FD04FF6AD739C420BD057
:10486400A1B24046FFF74CF9AA5D0146904203D03D
:10487400584600F053FB012701360134D5E700BF49
:10488400CB710008D5710008F8710008197200088E
:10489400356C000870B5A8B00646A02268460949E0
:1048A40000F02EFB6C460025304654F8041BFFF73D
:1048B40087FF10B90135282DF6D100F0010028B08A
:1048C40070BD00BFC06800082DE9F0410025014615
:1048D400064694B0314800F021FB2F462C46DFF801
:1048E400C08001210DF10700FCF716F90028F8D06B
:1048F4009DF807201B2A2CD0A2F13003092B0DD8D8
:10490400A2F12003012C26D0022C18D0002CE8D1CF
:104914003A2A0ABF002500240124E2E7A2F1610338
:10492400052B02D8A2F14703ECE7A2F14103052BC2
:104934002AD8012CA2F127030DD0022CD1D103F0E7
:104944000F0343EA0713462DDFB215D9154800F0CB
:104954007FFB01200DE01F460224C2E7042D1AD973
:10496400304602A9FFF72CFF04460028B9D000F016
:10497400010014B0BDE8F08105F150026A4401243D
:1049840002F8483C0135ACE7012CE7D0022CBDD13C
:10499400404600F05DFB0024A3E700BF307200082E
:1049A400577200085C72000870B50C4615468E18E4
:1049B400B44201D1284670BDAFF3008004F8010B66
:1049C400F6E770B50C4615468E18B44201D1284658
:1049D40070BD14F8010B00F089FAF6E7094A0346A2
:1049E400116809B9084911606946106803448B428B
:1049F40081BF0C22054B4FF0FF301A6098BF136043
:104A0400704700BF78030020A8030020940300200F
:104A14004FF0FF3070474FF4005300204B60704755
:104A24000120704700207047034A13680133136064
:104A34000122024B1A607047800300207C0300208F
:104A4400164A17491368096810B50B44B3F5FA6F91
:104A5400136007D90121134B02201970002313603E
:104A6400FCF77CF8104C2388B3F5A57F10D1002007
:104A7400FCF774F84FF47A7223880133B3FBF2F134
:104A840002FB1133094A238013680133136010BDFC
:104A9400B3F5257FEED10120EAE700BF8C030020A7
:104AA400E0000020900300208403002088030020FD
:104AB40038B501250024E9B25020FFF719F9013572
:104AC4000443052DE4B2F6D124B1BDE838400648CC
:104AD40000F0BEBA5020FFF763FABDE838404FF447
:104AE4007A70FCF7D9B900BF61720008F8B5144EAA
:104AF400144800F013FA00243546134F384616F8CC
:104B0400011B013400F00AFA052CF7D169790F482A
:104B140000F004FA0E4800F001FA06240D4E295D57
:104B24003046013400F0FAF9092CF8D1697A0A48C0
:104B340000F0F4F9BDE8F840084800F089BA00BF75
:104B440070000020877200088D72000891720008BE
:104B5400947200089B7200089F720008E5720008B6
:104B64002DE9F3410020FCF715FA01210020FBF7A1
:104B7400E7FF01210846FBF7E3FF01210220FBF7D1
:104B8400DFFFA448FCF792F80520FCF761F9A24B7B
:104B94001860A248FCF756F9A14800F059FA4FF4FE
:104BA4009670FCF779F9FFF783FF01215020FFF796
:104BB4009FF808B1FFF720FB0120FBF7DBFF9948C2
:104BC40000F046FAFCF736F8974800F041FA152150
:104BD4009648FBF795FF0025954E964FDFF85882CF
:104BE400337823B10020FFF7BBFC002333703B680C
:104BF4004BB1FFF77BFF4046FFF798FD8F4800F06D
:104C040027FA00233B6001210DF10600FBF784FF26
:104C14000028E5D0012D9DF8064000F0EC80022D1F
:104C240000F03C81303C3C2C00F2E380DFE804F0EF
:104C340032373A3D1F5A5D666C7AE1E1E1E1E124E5
:104C4400E1E1E1E1E1E1E1E1E1E1E1E1E1E1E1E150
:104C5400E1E1E1E1E1E1E1E1E1E1E1E1E1E1E1E140
:104C6400E1818991A1A9B6BDC3CAD8DBDE0074482D
:104C740000F0EEF90225B3E70024724D55F8040B59
:104C8400013400F04BF9192CF8D16F4800F0E0F929
:104C94000025A5E76D4800F0DBF90125A0E7FFF743
:104CA4007DFDF2E7FEF790FEEFE7694B694819686E
:104CB40000F034F9684B6948196800F02FF9FBF7E4
:104CC4006DFF0146664800F029F9FBF793FF0146A2
:104CD400644800F023F9FBF7FFFF0146624800F047
:104CE4001DF9D2E7FBF7A6FFCFE7FFF7FFFE40462B
:104CF400FFF71CFD514800F0ABF9C6E75B4800F034
:104D0400A7F9FEF77DFDC0E7C82203219220FEF734
:104D1400DDFD022201219220FEF7D8FD9220FEF74C
:104D240001FEB2E7C82203219620FEF7CFFD9620AC
:104D3400F5E74F4800F08CF9FEF73CFDFFF7ECF97E
:104D4400A3E74C4800F084F9FFF756FAFFF7FAFAA4
:104D54009BE7494800F07CF90620FFF7D7F9842047
:104D6400FFF712FA8020FFF70FFA8220FFF70CFA00
:104D74008BE7424800F06CF901210320FBF79CFF0C
:104D840083E73F4800F064F99220FEF7CBFD9620BC
:104D9400FEF7C8FD5020FEF769FF76E7394800F0BA
:104DA40057F95020FFF780F86FE7374800F050F9C3
:104DB400FFF77EFE69E7354800F04AF95020FFF717
:104DC40029F962E70024324D2146284600F0A6F86E
:104DD40001344FF47A70FCF75FF80A2CF4D154E7ED
:104DE400FFF772FC51E7FFF7CBFA4EE7FFF7F6FA4D
:104DF4004BE728487FE729460DF107008DF8074067
:104E0400FBF77EFE9DF807301B2B7FF4E9AE2248AA
:104E140071E700BF2D4A0008E0000020454A000861
:104E2400A2720008B0720008E3720008337600082A
:104E3400900300207C03002070000020E77200082B
:104E4400ED7200087C0000203974000835730008F6
:104E5400880300204E73000880030020617300085B
:104E6400797300088A7300089B730008AD73000807
:104E7400B4730008C1730008CA730008D47300082F
:104E8400EA730008FA730008057400080D7400083A
:104E9400486B00081C740008E5720008C4F3401352
:104EA40083F001057BB904210D48FBF729FE612C31
:104EB4000ED00BD8412C0BD0422C0DD01221094816
:104EC400FBF71EFEE1E605210748EEE7622CF4E756
:104ED4002846FBF74FFED8E62846FCF73FF8D4E611
:104EE4002E740008497600083374000807B50121C0
:104EF400019001A8FBF704FE019803B05DF804FBE0
:104F04000A44914200F1FF3300D1704710B511F803
:104F1400014B914203F8014FF9D110BD0FB40A4B74
:104F240013B51C6824B1A36913B9204600F0A2FA92
:104F340005AB2046049AA168019300F001FE02B07B
:104F4400BDE8104004B070470000002038B5084B9D
:104F540005461C6824B1A36913B9204600F08AFAF7
:104F640029462046A268BDE8384001F0AFB800BF2A
:104F74000000002070B50E46054618B183690BB9D0
:104F840000F078FAAB69AC6813B9284600F072FAFD
:104F94002C4B9C4220D16C68636EDB0705D4A3893B
:104FA400980502D4A06D00F003FBA38919071DD551
:104FB4002369DBB1013EA36816F8011F013BA3601E
:104FC40039BB002B38DA22460A21284600F07CF847
:104FD400013011D00A2511E01B4B9C4201D1AC6871
:104FE400DAE71A4B9C4208BFEC68D5E7214628460D
:104FF40000F0BCF80028DDD04FF0FF35636EDA070F
:1050040005D4A3899B0502D4A06D00F0D2FA2846EA
:1050140070BD002B04DAA2699A4206DC0A2904D086
:1050240023685A1C22601970C5E72246284600F0FE
:105034004BF80130BFD1DFE70A2523685A1C2260F0
:105044001D70DBE77C7600089C7600085C7600081F
:10505400024B01461868FFF78DBF00BF0000002017
:105064000CB430B5174B0C1E1D689DB008DA8B23A9
:105074004FF0FF302B601DB0BDE8304002B07047E8
:105084004FF40273ADF814300CBF234604F1FF3320
:10509400049307934FF6FF7302900690ADF8163011
:1050A400284621AB209A02A9019300F021FC431C5D
:1050B400BCBF8B232B60002CDDD00022029B1A7016
:1050C400D9E700BF00000020F8B50E461446054697
:1050D40018B183690BB900F0CDF9214B9C422BD157
:1050E4006C68A369A360A3891A072FD523696BB3DE
:1050F40023692068F6B2C01A63693746834204DC28
:105104002146284600F022F930BBA3680130013B58
:10511400A36023685A1C22601E706369834204D012
:10512400A389DB0706D50A2E04D12146284600F0C0
:105134000DF988B93846F8BD0A4B9C4201D1AC68D8
:10514400CFE7094B9C4208BFEC68CAE721462846D2
:1051540000F00CF80028CBD04FF0FF37EAE700BF8F
:105164007C7600089C7600085C760008324B70B5AB
:105174001D6806460C4625B1AB6913B9284600F0F4
:1051840079F92E4B9C420FD16C68A389B4F90C2099
:1051940019072CD4DD0611D40923336042F04003EF
:1051A4004FF0FF30A3813EE0254B9C4201D1AC6817
:1051B400EBE7244B9C4208BFEC68E6E7580712D59E
:1051C400616B41B104F14403994202D0304600F0CE
:1051D40057FA00236363A38923F02403A3810023E4
:1051E400636023692360A38943F00803A3812369CF
:1051F4004BB9A38903F42073B3F5007F03D0214690
:10520400304600F0FDF9A089B4F90C2010F0010338
:105214000AD00023A36063695B42A361236943B995
:1052240010F08000BAD170BD810758BF6369A360D4
:10523400F4E70020F7E700BF000000207C760008B8
:105244009C7600085C7600088A89F8B50546100744
:105254000C4657D44B68002B04DC0B6C002B01DC90
:105264000020F8BDE66A002EFAD0002312F4805222
:105274002F682B6032D0606DA3895A0705D5636807
:10528400C01A636B0BB1236CC01A00230246E66A92
:105294002846216AB047431CA38906D129681D29E1
:1052A4002CD8294ACA40D60728D500226260226930
:1052B400D904226004D5421C01D12B6803B960656E
:1052C400616B2F600029CBD004F14403994202D0D2
:1052D400284600F0D5F900206063C2E7216A012363
:1052E4002846B047411CC7D12B68002BC4D01D2BC6
:1052F40001D0162B01D12F60B2E7A38943F04003FC
:10530400A381AEE70F69002FAAD0930718BF00232B
:105314000E6808BF4B69F61B0F608B60002E9FDD83
:1053240033463A462846216AD4F828C0E047002884
:1053340006DCA3894FF0FF3043F04003A38190E7DC
:105344000744361AEAE700BF0100402038B50B696C
:1053540005460C4613B90025284638BD18B18369A3
:105364000BB900F087F8144B9C421BD16C68B4F95C
:105374000C30002BEFD0626ED00704D4990502D410
:10538400A06D00F015F928462146FFF75DFF636E16
:105394000546DA07E0D4A3899B05DDD4A06D00F0AF
:1053A40008F9D9E7054B9C4201D1AC68DFE7044B0F
:1053B4009C4208BFEC68DAE77C7600089C7600081B
:1053C4005C760008002310B50446C0E90033C0E948
:1053D4000433836081814366C28183611946082254
:1053E4005C30FBF79DF8054B24626362044BA362B7
:1053F400044BE362044B236310BD00BF81610008CA
:10540400A3610008DB610008FF610008014900F0A6
:10541400AFB800BF51530008682270B54D1E554304
:105424000E4605F1740100F093F9044640B10021E1
:10543400C0E900160C30A06005F16802FBF770F8B3
:10544400204670BD014800F0B3B800BF99030020A6
:10545400014800F0AEB800BF99030020014800F0F5
:10546400A7B800BF9A030020014800F0A2B800BF0B
:105474009A03002010B50446FFF7F0FFA3691BB19F
:10548400BDE81040FFF7F0BFC4E912332365134BA6
:10549400134A1B68A262A34208BF0123204608BF27
:1054A400A36100F01FF86060204600F01BF8A060C4
:1054B400204600F017F800220421E0606068FFF73E
:1054C40081FF01220921A068FFF77CFF022212213B
:1054D400E068FFF777FF0123A361D1E76069000863
:1054E40011540008F8B50746FFF7ACFF1E4B1E68C1
:1054F400B36913B93046FFF7BDFF4836D6E9013426
:10550400013B03D533680BB33668F7E7B4F90C50A5
:10551400D5B9164B04F15800E360656600F047F80E
:10552400FFF796FF08222946C4E90155C4E904554A
:105534002560A56104F15C00FAF7F2FFC4E90D559A
:10554400C4E912552046F8BD6834D9E70421384629
:10555400FFF762FF044630600028D5D1FFF778FFDB
:105564000C233B60EEE700BF606900080100FFFF09
:105574002DE9F84306468846002700F14804D4E99B
:105584000195B9F1010905D52468002CF7D13846F5
:10559400BDE8F883AB89012B07D9B5F90E30013387
:1055A40003D029463046C04707436835E9E77047CA
:1055B4007047704770B50E46B1F90E1014460029B5
:1055C4001D4696B008DA0022B6F90C302A601A0695
:1055D40010D44FF480630EE06A4600F035FE0028D4
:1055E400F1DB019A02F47042A2F500535A425A4187
:1055F4002A60EEE740230020236016B070BD00004F
:105604008B8973B59D0706460C4607D504F14703FD
:10561400236023610123636102B070BD6A4601AB5C
:10562400FFF7C8FF00990546304600F091F848B9E5
:10563400B4F90C309A05EFD423F0030343F00203CA
:10564400A381E3E70D4BB362A389206043F0800399
:10565400A381009B20616361019B5BB13046B4F977
:105664000E1000F003FE28B1A38923F0030343F0D6
:105674000103A381A0890543A581CDE71154000846
:1056840038B50546002940D051F8043C0C1F002BC6
:10569400B8BFE41800F034FE1C4A136833B96360E1
:1056A40014602846BDE8384000F030BEA34208D953
:1056B400206821188B4201BF19685B6809182160B2
:1056C400EDE71A465B680BB1A342FAD9116850188A
:1056D400A0420BD120680144501883421160E0D1EC
:1056E40018685B68014411605360DAE702D90C233F
:1056F4002B60D6E7206821188B4201BF19685B68CC
:105704000918216063605460CBE738BD9C03002016
:1057140070B50E4E0C463168054611B900F01EFDF9
:1057240030602146284600F019FD431C0AD0C41CF1
:1057340024F00304A04207D0211A284600F00EFDED
:10574400013001D14FF0FF34204670BDA00300208A
:105754002DE9F041CD1C25F0030508350C2D38BF8B
:105764000C25002D074601DBA94205D90C23002690
:105774003B603046BDE8F0812E4E00F0C1FD336839
:105784001C4634BB29463846FFF7C2FF431C044677
:105794004DD134682646002E40D123683146384620
:1057A40004EB030800F0DAFC80453AD121680335A4
:1057B4006D1A25F0030508350C2D38BF0C25384625
:1057C4002946FFF7A5FF01302BD023682B44236023
:1057D4000EE02268521B1ED40B2A16D96119A3426B
:1057E400256018BF5960636808BF316062514B601F
:1057F400384604F10B0600F089FD26F00706231D48
:10580400F21AB6D09B1BA350B3E76268A3420CBF45
:1058140032605A60ECE723466468B2E7344676683F
:10582400B9E70C2338463B6000F070FDA1E7256022
:10583400DEE700BF9C0300202DE9F0478E68824616
:105844009E420C4690461F4638D88A8912F4906FBF
:1058540032D0256809690133A5EB010965694B4418
:1058640005EB450505EBD5756D109D4238BF1D460A
:10587400530531D52946FFF76BFF064650B90C2373
:105884004FF0FF30CAF80030A38943F04003A381EE
:10589400BDE8F0874A462169FFF732FBA38923F468
:1058A400906343F08003A38126614E4426603E4604
:1058B4006561A5EB0905A560BE4200D93E463246A6
:1058C4004146206800F002FDA36800209B1BA360F2
:1058D400236833442360DBE72A4600F01DFD0646B7
:1058E4000028E1D150462169FFF7CAFEC7E700004E
:1058F4002DE9F04F98468B8907461B060D46144642
:105904009DB00ED50B6963B94021FFF721FF2860D4
:10591400286120B90C233B604FF0FF30D1E04023D5
:105924006B610023099320238DF8293030234FF035
:105934000109CDF80C80DFF8A4818DF82A302346C4
:105944009A4613F8012B0AB1252AF9D1BAEB040BB4
:105954000BD05B46224629463846FFF76DFF0130DF
:1059640000F0AA80099A5A4409929AF80030002B50
:1059740000F0A28000234FF0FF32CDE905230AF1A5
:10598400010A049307938DF853301A935446052261
:1059940014F8011B514800F08BFC049AD8B9D006C6
:1059A40044BF20238DF85330110744BF2B238DF8B7
:1059B40053309AF800302A2B15D0544600204FF06B
:1059C4000A0C079A214611F8013B303B092B4ED9AA
:1059D400B0B1079214E0A0EB080309FA03F31343F0
:1059E400A2460493D2E7039B191D1B680391002B65
:1059F400BBBF5B4242F0020207930793B8BF049215
:105A040023782E2B0CD163782A2B35D1039B0234B7
:105A14001A1D1B680392002BB8BF4FF0FF33059388
:105A2400DFF8BCA003225046217800F041FC40B1CD
:105A34004023A0EB0A0003FA00F0049B0134034363
:105A4400049314F8011B062226488DF8281000F050
:105A54002FFC002838D0244B1BBB039B073323F0B7
:105A6400070308330393099B3344099367E70C4600
:105A740001200CFB0232A5E700234FF00A0C194663
:105A840001340593204610F8012B303A092A03D932
:105A9400002BC5D00591C3E7044601230CFB01216B
:105AA400F0E703AB00932A463846104B04A9AFF342
:105AB4000080421C0646D6D1AB895B063FF52CAF6D
:105AC40009981DB0BDE8F08F03AB00932A46384611
